:020000040800F2
:10000000A0180020450100084D0100080F0200085B
:1000100051010008530100085501000800000000CC
:100020000000000000000000000000005701000870
:10003000590100080000000097010008010B0008AA
:100040005F0100085F0100085F0100085F01000810
:100050005F0100085F010008FD0200085F01000861
:100060005F0100085F0100085F0100085F010008F0
:100070005F0100085F0100085F0100085F010008E0
:100080005F0100085F0100085F0100085F010008D0
:100090005F0100085F0100085F0100085F010008C0
:1000A0005F0100085F0100085F0100085F010008B0
:1000B0005F0100085F0100085F0100085F010008A0
:1000C0005F0100085F0100085F0100085F01000890
:1000D0005F010008710B00085F0100085F01000864
:1000E000250300085F0100085F0100085F010008A8
:1000F0005F0100085F0100085F0100085F01000860
:100100005F0100085F0100085F0100085F0100084F
:100110005F0100085F0100085F0100085F0100083F
:100120005F0100085F0100085F0100085F0100082F
:10013000DFF80CD000F0BAF800480047D102000800
:10014000A01800200648804706480047FEE7FEE763
:10015000FEE7FEE7FEE7FEE7FEE7FEE7FEE7FEE777
:10016000110B000831010008EFF3108072B67047E0
:1001700080F310887047334A1368012B04D04FF086
:1001800001031360304A1060304A116030484FF06C
:10019000805101607047EFF3108272B62948016800
:1001A00091B14FF0000101602748016829B1EFF3D8
:1001B000098121E9F00F0068016024490968096894
:1001C000B1E8F00F81F3098882F310884EF0040E35
:1001D00070471E4908601C494FF00000086019492B
:1001E0004FF0010008601B484FF47F01D0F8002059
:1001F00041EA0201016016484FF080510160164843
:100200000068006880F3088861B662B670471EF027
:10021000040F0CBFEFF30880EFF3098020E9F00F23
:1002200040F804ED1EF0040F0CBF80F3088880F343
:10023000098800B501F07CFF5DF804EB4EF0040E78
:100240007047000008010020000100200401002088
:1002500004ED00E020ED00E008ED00E0D2B201E0A6
:1002600000F8012B491EFBD270470022F6E710B5BB
:1002700013460A4604461946FFF7F0FF204610BD14
:1002800030B50B46014600202022012409E021FA66
:1002900002F59D4205D303FA02F5491B04FA02F563
:1002A0002844151EA2F10102F1DC30BD064C074DB9
:1002B00006E0E06840F0010394E807009847103436
:1002C000AC42F6D3FFF738FF643D0008843D0008D8
:1002D00010B503F079F9002010BD022000BF011E07
:1002E000A0F10102D0B2FAD17047022000BF011E76
:1002F000A0F10102D0B2FAD17047000010B5012080
:1003000000F020F838B102F061F80548006802F00A
:100310004FFB02F06BF8012000F00EF810BD00005A
:100320002800002010B54FF4005000F00BF84FF4F7
:10033000005000F001F810BD01490860704700004E
:1003400014040140014600200022074B1B6803EA09
:100350000102054B14331B680B4013B10AB1012095
:1003600000E0002070470000000401400021234904
:100370008279002A3AD00A46126803689A430B46EB
:100380001A600A1D126803689A430B1D1A600279ED
:1003900011440A6803681A430A60184A083212684E
:1003A00003689A43154B08331A601A1D12680368D4
:1003B0009A43124B0C331A604279102A0ED11A1F3D
:1003C000126803681A430D4B08331A601A1D12682D
:1003D00003681A43094B0C331A600DE00749427950
:1003E00011440A6803681A430A6005E0027911445F
:1003F0000A6803689A430A607047000000040140DD
:100400000EB500F04BF80121042000F0CFF90121D6
:10041000102000F0CBF90120ADF8080004208DF881
:100420000B0002A91B4800F077F84FF40050ADF81C
:10043000080004208DF80B0002A9174800F06CF8A2
:100440000121084600F0B2F90021084600F044F806
:100450000D21022000F040F80120009000208DF8CE
:10046000040008208DF8050001208DF8060068467C
:10047000FFF77CFF4FF40050009000208DF804003F
:100480000C208DF8050001208DF806006846FFF766
:100490006DFF0EBD000801400010014008B54FF48B
:1004A000C06000F079F906208DF8000001208DF879
:1004B00001008DF802008DF80300684600F034F961
:1004C00028208DF8000001208DF801008DF8020031
:1004D000684600F029F908BD30B500228B071C0FD3
:1004E0000F2303FA04F20B4B8C1053F82430934380
:1004F000084C8D1044F8253023468C1053F82430D6
:100500008C07240F00FA04F42343024C8D1044F8A6
:10051000253030BD080001402DE9F041024600259C
:100520000026002000230024002791F803C00CF0CF
:100530000F0591F803C00CF0100CBCF1000F03D0B4
:1005400091F802C04CEA050591F800C0BCF1000F1B
:1005500031D0146800202BE04FF0010C0CFA00F3AE
:10056000B1F800C00CEA03069E4220D183004FF090
:100570000F0C0CFA03F7BC4305FA03FC4CEA040425
:1005800091F803C0BCF1280F06D14FF0010C0CFA12
:1005900000FCC2F814C00AE091F803C0BCF1480F97
:1005A00005D14FF0010C0CFA00FCC2F810C0401C41
:1005B0000828D1D31460B1F800C0BCF1FF0F34DDBE
:1005C000546800202EE000F1080C4FF0010808FAF2
:1005D0000CF3B1F800C00CEA03069E4221D183005F
:1005E0004FF00F0C0CFA03F7BC4305FA03FC4CEA7E
:1005F000040491F803C0BCF1280F05D100F1080CE8
:1006000008FA0CF8C2F8148091F803C0BCF1480F46
:1006100007D100F1080C4FF0010808FA0CF8C2F8F5
:100620001080401C0828CED35460BDE8F0810246FB
:10063000002093680B400BB1012000E000207047C0
:10064000416170470161704708B50121082000F041
:10065000ADF84FF48070ADF8000004208DF8030071
:1006600003208DF8020069460648FFF755FF102069
:100670008DF803004001ADF8000069460148FFF71E
:100680004BFF08BD0010014008B50121082000F013
:100690008DF84FF48060ADF8000004208DF8030061
:1006A00003208DF8020069460648FFF735FF102049
:1006B0008DF80300C001ADF8000069460148FFF75E
:1006C0002BFF08BD0010014008B50121082000F0F3
:1006D0006DF82020ADF8000010208DF803000320F5
:1006E0008DF8020069460F48FFF716FF0120ADF8AC
:1006F000000069460B48FFF70FFF0220ADF800002D
:1007000069460848FFF708FF20210648FFF79AFFCF
:1007100001210448FFF796FF02210248FFF792FFEC
:1007200008BD0000000C014070B5002100230F221D
:10073000C47804B3154C246804F4E064C4F5E064A0
:10074000210AC1F10403CA40447804FA03F1847811
:100750001440214309010E4C0678A155047804F099
:100760001F050124AC4005786D11AD0005F1E025B1
:10077000C5F8004109E0047804F01F050124AC40ED
:10078000044D0678761145F8264070BD0CED00E06A
:1007900000E400E080E100E002490143024A116008
:1007A000704700000000FA050CED00E029B1064A90
:1007B00092690243044B9A6104E0034A92698243BE
:1007C000014B9A61704700000010024030B50021D3
:1007D0000022002400232D4D6D6805F00C0121B18D
:1007E000042905D0082923D105E0294D056022E020
:1007F000274D05601FE0254D6D6805F47012234DEF
:100800006D6805F48034022505EB92421CB9214D38
:10081000554305600BE01D4D6D6805F400351DB1B5
:100820001C4D5543056002E0194D5543056002E03B
:10083000174D056000BF00BF144D6D6805F0F00155
:100840000909154D6B5C0568DD4045600F4D6D680D
:1008500005F4E061090A104D6B5C4568DD40856078
:100860000A4D6D6805F46051C90A0B4D6B5C456813
:10087000DD40C560054D6D6805F44041890B074DAD
:100880006B5CC568B5FBF3F5056130BD0010024037
:1008900000127A0000093D0014000020240000200E
:1008A0001CB5012200212AA002F05AF82C49086048
:1008B000142006214FF400730022CDE900102949CD
:1008C00029A002F012FA2C4908600846006818B105
:1008D0000846006802F02AFB142006214FF400733A
:1008E0000022CDE90010254925A002F0FEF9274994
:1008F00008600846006818B10846006802F016FB58
:10090000142005214FF400730022CDE90010204986
:1009100020A002F0EAF9244908600846006818B1EE
:100920000846006802F002FB14200421CB010022DB
:10093000CDE900101D491EA002F0D7F91F4908603B
:100940000846006818B10846006802F0EFFA1CBDBE
:10095000717569636B5F666565645F6E00000000BA
:1009600034000020691600086578706F72745F7734
:1009700065696768740000003C00002015180008D5
:100980006B6579315F7363616E0000004000002089
:1009900051370008776966695F756172745F7365C6
:1009A0007276696365000000440000201D1E000887
:1009B000717569636B5F66656564000048000020BF
:1009C00008B501210420FFF7F1FE0420ADF8000076
:1009D00010208DF8030003208DF8020069460D48B1
:1009E000FFF79AFD0820ADF8000069460948FFF7B7
:1009F00093FD1020ADF8000069460648FFF78CFD16
:100A000010210448FFF71EFE04210248FFF71AFEDA
:100A100008BD00000008014010B500F001F810BD4D
:100A20000CB50020019000903348006840F48030FD
:100A30003149086000BF3048006800F40030009081
:100A40000198401C0190009818B90198B0F5A06F6A
:100A5000F1D12948006800F4003010B10120009065
:100A600001E0002000900098012843D1234800684D
:100A700040F01000214908600846006820F003009B
:100A800008600846006840F0020008601A484068A4
:100A9000194948600846406848600846406840F484
:100AA000806048600846406820F47C104860084632
:100AB000406840F4E81048600846006840F08070E4
:100AC000086000BF0C48006800F000700028F9D0F2
:100AD0000948406820F0030007494860084640681C
:100AE00040F00200486000BF0348406800F00C007E
:100AF0000828F9D10CBD000000100240002002407F
:100B000010B501F063FC02F091FA01F06FFC10BD2A
:100B100010B51348006840F001001149086008460C
:100B20004068104908400E494860084600680E4970
:100B300008400B4908600846006820F480200860DF
:100B40000846406820F4FE0048604FF41F008860AB
:100B5000FFF762FF4FF000600449086010BD00001D
:100B6000001002400000FFF8FFFFF6FE08ED00E075
:100B700010B540F22551064800F065F830B1044840
:100B800000F0F8F8C4B2204602F0F2FD10BD0000FB
:100B90000038014021B1828942F40052828104E090
:100BA00082894DF6FF731A408281704700B585B087
:100BB00001210420FFF7FAFD01218803FFF7F6FD6C
:100BC0004FF40070ADF8100018208DF813000320CA
:100BD0008DF8120004A91348FFF79EFC4FF48060C3
:100BE000ADF8100004208DF8130004A90D48FFF79C
:100BF00093FC4FF4165000900020ADF80400ADF8BF
:100C00000600ADF80800ADF80C000C20ADF80A00A5
:100C10006946054800F042F801210348FFF7BAFF92
:100C200005B000BD00080140003801400246002028
:100C3000B1F5007F00D100BF13880B400BB101203C
:100C400000E00020704770B5024600240023002514
:100C5000002040F66A16B14200D100BFC1F3421530
:100C600001F01F03012606FA03F3012D02D1968934
:100C7000334006E0022D02D1168A334001E0968A05
:100C800033400C12012606FA04F41688344013B1DE
:100C90000CB1012000E0002070BD00002DE9F047FC
:100CA00086B005460E460024A24600BFA146002796
:100CB000B08900B100BF2F462C8A4CF6FF7004406B
:100CC000F08804432C82AC894EF6F3100440B088BF
:100CD00031890843718908430443AC81AC8A4FF6DB
:100CE000FF400440B0890443AC8201A8FFF76EFDC9
:100CF0001F48874202D1DDF810A001E0DDF80CA00A
:100D0000A88900F4004040B10AEBCA0000EB0A10C9
:100D100031684900B0FBF1F807E00AEBCA0000EBCC
:100D20000A1031688900B0FBF1F86420B8FBF0F0DC
:100D300004012009642101FB1089A88900F4004006
:100D400040B1322000EBC900B0FBF1F000F0070029
:100D5000044308E0322000EB09106421B0FBF1F0FD
:100D600000F00F0004432C8106B0BDE8F0870000BE
:100D70000038014001468888C0F308007047C1F37D
:100D800008028280704770B504460D462946204609
:100D9000FFF7F5FF00BF80212046FFF747FF00283F
:100DA000F9D070BD0FB4054B10B503A9044A0298E1
:100DB00000F05CF810BC5DF814FB0000A5160008FC
:100DC000100100200FB4084B10B504A902AA039823
:100DD00000F04CF8044602A9002000F063FA204617
:100DE00010BC5DF814FB0000A5120008014609B90B
:100DF00000207047C8B220B1C8B20E4A105C401C37
:100E0000F7E701F47F4028B10A48C1F30722805C6C
:100E10000930EEE701F47F0028B10648C1F307422C
:100E2000805C1130E5E7034800EB11600078193071
:100E3000DFE70000083C000802E008C8121F08C1F4
:100E4000002AFAD170477047002001E001C1121F4B
:100E5000002AFBD17047000003490868884201D08E
:100E6000012070470020FCE7EC0000202DE9FF4F37
:100E70008BB088460546002606E025280BD0DDE924
:100E80000D1290476D1C761C28780028F5D10FB004
:100E90003046BDE8F08F0024A146A2460122AE49AB
:100EA00000E0044315F8013F203B02FA03F008423A
:100EB000F7D128782A2810D06FF02F022878A0F1D7
:100EC0003001092915D809EB890102EB410144F0F1
:100ED000020400EB01096D1CF0E758F8041B5FEAFF
:100EE000010903D544F40054C9F1000944F0020497
:100EF0006D1C28782E2817D115F8010F44F0040432
:100F00002A280ED06FF02F022878A0F1300109298D
:100F10000AD80AEB8A0102EB410100EB010A6D1CC1
:100F2000F2E758F804AB6D1C28786C280FD006DC6B
:100F30004C2817D068280DD06A2814D104E07428F2
:100F400010D07A280FD10DE044F400140AE044F4E4
:100F5000801401E044F440146978814202D104F520
:100F600080146D1C6D1C2878692865D006DC00286B
:100F70008DD0632827D0642806D15DE06E2808D084
:100F800073282AD0752877D0DDE90D129047761C9A
:100F9000E0E0C4F30250022809D003280DD0D8F8AD
:100FA000001004280DD00E6008F10408D2E0D8F833
:100FB0000010F217C1E90062F6E7D8F800100E80C1
:100FC000F2E70E70F0E718F8041B8DF8001000200F
:100FD0008DF80100EB46012003E058F804BB4FF008
:100FE000FF3061074FF0000701D40AE07F1C57452E
:100FF0000DDA8742FADB1BF807100029F6D106E06C
:101000007F1C8742FCDB1BF807100029F8D1DDE9C3
:101010000D23A9EB07008146214600F0B1F83044CA
:10102000C61904E0DDE90D121BF8010B90477F1E85
:10103000F8D22146484688E058F8040BC4F3025120
:101040004FF00A0B032900D100B2042900D140B2AD
:10105000002802DA40422D2102E0210505D52B218E
:101060008DF82410012104E006E0E10710D02021D2
:10107000F6E708AF089113E058F8040BC4F30251E7
:101080004FF00A0B032900D180B2042900D1C0B26D
:101090000021EEE75946FFF7F3F8303107F8011D5C
:1010A0000028F7D1ADEB070000F1200B600702D557
:1010B00024F4803401E04FF0010ADA4502DDAAEBA6
:1010C0000B0000E00020824600EB0B010898014471
:1010D000A9EB01000A90E00306D4DDE90D232146C7
:1010E0000A9800F04DF806444FF0000908E009A9FD
:1010F00011F80900DDE90D12904709F10109761C8C
:1011000008998945F3DBE0030CD5DDE90D23214681
:101110000A9800F035F8064404E0DDE90D123020AD
:101120009047761CBAF10001AAF1010AF5DC05E04E
:10113000DDE90D1217F8010B9047761CBBF1000199
:10114000ABF1010BF4DC0A982146DDE90D2300F038
:1011500005F806446D1C97E6092801002DE9F041C9
:10116000044600251E461746880404D405E0394687
:101170002020B0476D1C641EF9D52846BDE8F081DB
:101180002DE9F041044600251E469046C80301D5CE
:10119000302700E02027880404D505E04146384682
:1011A000B0476D1C641EF9D52846BDE8F0810000EB
:1011B0002DE9FC5F04468B4615461E46DDE90C9A78
:1011C000DDE90E7804F114004060006000BF1C34BB
:1011D0006560A660C4F80C90C4F810A02321D4E97F
:1011E000030201F071FAD4E9033C63441A1F0F4B68
:1011F000D4E9010101F09CF82060A7766776002011
:10120000E061C4F82080C4F82480606120766065C5
:10121000A0651C3C00902346054A2146019004F13C
:10122000440001F085FF0020BDE8FC9F492D000827
:101230009D2F00082DE9F04704460E4617469846B4
:10124000DDF8209084F80990607A20F00100607247
:10125000E66127620020A062C4F82480002506E031
:1012600004F1140101EBC50001F036F96D1C012DEC
:10127000F6DBBDE8F08710B50246002001460EE01F
:1012800002F1140303EBC100D0E900436360D0E92D
:10129000003423604060006000BF481C0146012903
:1012A000EEDB10BD0A68531C0B6010707047000025
:1012B00010B505221449012000F02EFB0021022068
:1012C00000F0CCFA0021032000F060FB0021042094
:1012D00000F0F6FA0021072000F0C0FA00210820F3
:1012E00000F0BCFA0021102000F050FB002111207A
:1012F00000F04CFB0021122000F048FB00211320DD
:1013000000F0ACFA10BD000054000020014600209F
:10131000087800024A78104300028A7810430002DD
:10132000CA781043704700002DE9F047044634495D
:10133000E01C11F80080B8F1060F1DD009DCB8F1EF
:10134000000F10D0B8F1010F10D0B8F1020F53D137
:101350000FE0B8F1080F35D0B8F1200F35D0B8F153
:10136000210F49D139E000F0E7F946E000F0BEFC7A
:1013700043E000F0CFF940E02149601D095C204ABC
:10138000201D105C41EA0026002518E0A01D28441D
:10139000801C1B49085C4FF6FF7101EA0027A01D65
:1013A0002844C01C1649085C384487B22144891D72
:1013B000481900F027F88146381D284485B2B54207
:1013C000E4DB1AE0FFF774FF17E00D4BE21D995CB8
:1013D000A21D985C02F00CFB0FE00949601D095C3E
:1013E000074A201D105C41EA002611462144881D51
:1013F000314602F0F3F900E000BF00BFBDE8F0871E
:10140000141100202DE9F0470446267894F8018055
:10141000A0784FF6FF7101EA0025E078284485B2F4
:10142000304600F05FF90746084800EB4700407877
:10143000404502D00020BDE8F0872A46211D3046F5
:1014400000F022F881464846F5E70000F43B00082A
:101450002DE9F04106460F463946304600F0D2FAF3
:1014600005461DB100F084F90649086029460720A9
:1014700000F0F4F90446012C01D1BDE8F081002010
:10148000FBE70000300000202DE9F04105460E4644
:101490001746072D20D006DC012D0BD0022D0FD0D2
:1014A000032D31D112E0082D1CD0122D20D0132D88
:1014B0002AD123E03946304600F064F8044624E09F
:1014C0003946304600F088F804461EE0394630467A
:1014D00000F040F8044618E039463046FFF7B8FF00
:1014E000044612E03946304600F0A2F804460CE00B
:1014F0003946304600F088F8044606E03946304662
:1015000000F008F8044600E000BF00BF2046BDE838
:10151000F08100002DE9F04106460F46394630467D
:1015200000F070FA05461DB920200949086003E063
:1015300020200749091D08602946132000F08EF974
:101540000446012C01D1BDE8F0810020FBE700003A
:10155000100C01402DE9F04105460E463146284663
:1015600000F053FA0446E0B200F096F8214603205A
:1015700000F00CFA0746012F01D1BDE8F0810020F0
:10158000FBE700002DE9F04104460D4600270BE083
:101590000CA000F083FFE15D0DA000F07FFF0DA027
:1015A00000F07CFF781CC7B2AF42F1DB2A4621462F
:1015B000012000F0B1F90646012E01D1BDE8F0810D
:1015C0000020FBE76D65616C5F706C616E3A200016
:1015D00025630D000D0A00002DE9F04106460F4677
:1015E0003946304600F00EFA054615B1012000F0EC
:1015F00053F82946022000F031F90446012C01D1AC
:10160000BDE8F0810020FBE72DE9F04104460D46DE
:101610002946204600F0F9F907463946122000F025
:10162000B5F90646012E01D1BDE8F0810020FBE7A7
:101630002DE9F04106460F463946304600F0E2F902
:1016400005461DB100F0C0F806490860294608208B
:1016500000F004F90446012C01D1BDE8F08100201E
:10166000FBE700002C000020002511E000F080F8CE
:1016700008490968441A25462946112000F086F9D0
:10168000601B322804D900BF2946112000F07EF9E2
:10169000ECE700003000002010B50446204602F0C0
:1016A00011F810BD70B504460D46E1B20548FFF7CC
:1016B00066FB00BF80210348FFF7B8FA0028F9D085
:1016C000204670BD0038014030B50246002000239E
:1016D00005E012F8015B2C18E0B25C1CA3B28B424F
:1016E000F7DB30BD70B5054600F012F80646002461
:1016F00007E0064810F81400A84200D103E0601C7F
:10170000C4B2B442F5DB00BF204670BDF43B000814
:101710000A20704710B500240E21204601F0AEFFCC
:10172000C4B20021204601F0A9FFC4B22246032121
:10173000022002F02DFA10BD10B500240B480078ED
:1017400040B90021204601F099FFC4B201200749A9
:10175000087004E00121204601F090FFC4B2224647
:101760000321002002F014FA10BD000079000020CF
:1017700070B501F047FFFEF7B0FD00F071FB0024EB
:1017800000BF00F059FB0028FBD101200D49086083
:1017900000250AE001F04AFF640000F061FB00F060
:1017A0004BFB00B1641C681CC5B2182DF2DB01F0C4
:1017B0003DFF84F40004FEF790FD00F051FB20464D
:1017C00070BD0000140C014070B501F025FFFEF75C
:1017D0008CFD00F04FFB002400BF00F037FB002819
:1017E000FBD100250AE001F02BFF640000F042FB72
:1017F00000F02CFB00B1641C681CC5B2182DF2DB94
:1018000001F01EFF84F40004FEF76FFD00F032FBD0
:10181000204670BD10E001210848FEF708FF0128AE
:101820000AD100BF01210548FEF701FF0128F9D0C8
:101830000348006801F0BCF8EDE700000008014033
:101840003400002010B5FFF72BF8002010BD10B5B4
:10185000044600F03FFBFFF7F5FF10BD70B50446EE
:101860000D46002615480078012800D170BD21469C
:10187000304601F003FF06460121304601F0FEFE2E
:1018800006460021304601F0F9FE064601213046A9
:1018900001F0F4FE06462DB90021304601F0EEFEBF
:1018A000064604E00121304601F0E8FE06463246D5
:1018B0000321072002F06CF90120D7E7780000200F
:1018C00070B504460E46002512480078012800D164
:1018D00070BD2146284601F0D1FE05460421284668
:1018E00001F0CCFE05460021284601F0C7FE054662
:1018F0000121284601F0C2FE05463146284601F086
:10190000BDFE05462A460321072002F041F90120C9
:10191000DEE70000780000202DE9F0410646884609
:101920001446002718480078012801D1BDE8F0814D
:101930003146384601F0A2FE07460021384601F044
:101940009DFE07462546E01704EB1060C0F3072113
:10195000384601F093FE0746E01704EB10600012D2
:10196000A4EB0020C1B2384601F088FE07462246AB
:101970004146384601F06EFE07463A4603210720ED
:1019800002F006F90120D1E77800002070B5054685
:101990000C4600261A480078012800D170BD29465F
:1019A000304601F06BFE06460221304601F066FE2D
:1019B00006460021304601F061FE0646042130460D
:1019C00001F05CFE0646210E304601F057FE064649
:1019D000C4F30741304601F051FE0646C4F3072127
:1019E000304601F04BFE0646E1B2304601F046FEBD
:1019F000064632460321072002F0CAF80120CDE74F
:101A00007800002002461078704710B503460C4657
:101A10001846FFF77BFC10BDF0B505460E46134691
:101A20002A46344605B10EB90020F0BDA24202D9C3
:101A3000E018904208D2002103E0605C5054481C3A
:101A400081B29942F9DB07E0194603E0481E275CA2
:101A5000175481B20029F9DC2846E6E730B5034681
:101A60000C4619460BB9002030BD01E001F8014BCE
:101A7000101EA2F10105AAB2F8D11846F4E70246F9
:101A800001E0521C491C107828B1087818B1107870
:101A90000B789842F5D010780B78C01A7047024640
:101AA00002B109B900207047134603E011F8010B99
:101AB00002F8010B08780028F8D110701846F2E7F8
:101AC0000146002209B900207047002200E0521CA4
:101AD00011F8013B002BFAD11046F5E730B51A4C4E
:101AE000436824681919884215D04B889BB9174B55
:101AF0001B6899420FD0164B1B688B4201D1144BC7
:101B000018604B684360104B1B68C31A0E4D4C683D
:101B10002D682C44A3600C4C836824681A198242F7
:101B200011D053887BB90A4B1B68834201D1084B03
:101B30001A6043685360044B1B68D31A024D446813
:101B40002D682C44A36030BD840000208800002054
:101B50008C0000202DE9F04F86B00D469C46DDE953
:101B6000106401960F9B04F04008B8F1000F02D0FA
:101B7000DFF8708101E0DFF87081CDF8008004F0BB
:101B80001008B8F1000F01D024F0010404F001089E
:101B9000B8F1000F02D04FF0300801E04FF02008FC
:101BA000C246002704F00208B8F1000F11D0002A45
:101BB00002DA2D2752420CE004F00408B8F1000FBD
:101BC00001D02B2705E004F00808B8F1000F00D081
:101BD0002027002142B94FF0300B8846491C0DF1F7
:101BE000080909F808B01DE01AE0E146B9F10A0F4A
:101BF00008D14FF00A0BB2FBFBFE0BFB1E28B2FB19
:101C0000FBF202E002F00F08120900BFDDF80090BD
:101C100019F808B08846491C0DF1080909F808B000
:101C2000002AE2D1B14200DD0E469B1B04F01108F0
:101C3000B8F1000F10D117B1002B00DD5B1E06E0DC
:101C4000A84203D24FF0200880F80080401CB3F176
:101C50000008A3F10103F3DC27B1A84200D207700A
:101C60005B1E401C04F01008B8F1000F0AD104E01C
:101C7000A84201D280F800A0401CB3F10008A3F1F3
:101C80000103F5DC06E0A84203D24FF0300880F8EB
:101C90000080401CB046761E8845F4DC08E0A8426F
:101CA00005D20DF1080818F8018080F80080401C6A
:101CB000B1F10008A1F1010104DDDDF80480B8F103
:101CC000000FECD106E0A84203D24FF0200880F8C4
:101CD0000080401CB3F10008A3F10103F3DC06B05F
:101CE000BDE8F08F193D0008083D00083EB500240E
:101CF000002000900190029034A0FFF7E1FE85B231
:101D00002A4632A1204601F0A5FCC4B231A0FFF75B
:101D1000D7FE85B22A462FA1204601F09BFCC4B213
:101D200031A0FFF7CDFE85B22A462FA1204601F053
:101D300091FCC4B22EA0FFF7C3FE85B22A462CA1A7
:101D4000204601F087FCC4B22BA0FFF7B9FE85B294
:101D50002A4629A1204601F07DFCC4B228A0FFF745
:101D6000AFFE85B22A4626A1204601F073FCC4B21C
:101D70000A2224A16846FFF725F86846FFF7A0FE6F
:101D800085B22A466946204601F064FCC4B20022AE
:101D90001FA16846FFF716F86846FFF791FE85B267
:101DA0002A466946204601F055FCC4B21AA0FFF746
:101DB00087FE85B22A4618A1204601F04BFCC4B22A
:101DC00022460321012001F0E3FE3EBD7B2270226A
:101DD0003A22000067716C6E7A6561656A356B68DE
:101DE0006A77743700000000222C2276223A220003
:101DF000312E302E30000000222C226D223A0000BD
:101E0000320000002C226D74223A2564000000008C
:101E10002C226E223A2564007D00000008E04FF07D
:101E2000FF310448006800F0E0FD0120FFF734FCBA
:101E3000F5E700003400002010B54FF4807102482F
:101E4000FEF7F5FB10BD00000010014010B54FF487
:101E500080610248FEF7EBFB10BD0000001001405E
:101E600010B54FF400710248FEF7EAFB10BD000008
:101E70000010014010B54FF400610248FEF7E0FB8E
:101E800010BD0000001001401CB514200A214FF4C1
:101E900080730022CDE90010044905A000F025FF61
:101EA0000446204601F042F81CBD00004F1800080F
:101EB0006D61696E0000000010B5044C02E02068FE
:101EC0008047241D02488442F9D310BD583D0008C4
:101ED0005C3D000810B5044C02E020688047241DDA
:101EE00002488442F9D310BD5C3D0008603D000803
:101EF00010B5FEF739F9044604480088401C00B2CA
:101F0000024908802046FEF733F910BDDC000020AE
:101F100010B5FEF729F904460C480088401E00B2AF
:101F20000A4908800846B0F9000000280ADC0020B1
:101F300008802046FEF71CF90548006828B100F02B
:101F40007BFC02E02046FEF713F910BDDC00002008
:101F5000E000002070B5054605B970BD1D48006859
:101F6000854203D31C480068854200D3F5E7A5F1FC
:101F70000C044FF0FF31194800F037FD608818B1AC
:101F80002088B0F5F55F08D015A000F087FA238807
:101F90006288214619A000F081FA002060804FF489
:101FA000F550208021480068844201D21F48046017
:101FB000084960680968611A401A1D490968081AC9
:101FC0001B4908602046FFF789FD044800F0F0FC3B
:101FD00000BFC2E784000020880000207C1300209E
:101FE000746F20667265652061206261642064619F
:101FF000746120626C6F636B3A0A00006D656D3A24
:10200000203078253038782C207573656420666C14
:1020100061673A2025642C206D6167696320636FD6
:1020200064653A203078253034780A008C0000202E
:1020300094000020004870471401002000487047B9
:102040001411002070B5224800684FF47A72B0FB7A
:10205000F2F1B1F1807F00D31DE021F07F40401EFE
:102060004FF0E022506150170F22002807DA1307C3
:102070001D0E184B00F00F04241F1D5503E013071D
:102080001C0E154B1C5400BF00204FF0E022906145
:102090000720106100BF012010490860FEF786FD8F
:1020A00001F0D6FCFEF710FBFEF78AFCFEF7A8F95C
:1020B000FEF7CAFAFEF7E8FAFFF7FEFEFFF7BEFFEB
:1020C0000446FFF7B7FF0546214600F045FD70BD09
:1020D0000000002018ED00E000E400E0140C0140D6
:1020E00010B50446FFF704FF19E020780A280AD14A
:1020F0000D210E48FEF743FE00BF80210B48FEF77E
:1021000095FD0028F9D014F8011B0848FEF737FEAA
:1021100000BF80210548FEF789FD0028F9D020780E
:102120000028E2D1FFF7F4FE10BD000000380140A6
:1021300070B505462C1D2E48006838B128462C493C
:1021400009688847064606B970BD00BF29A0E16B43
:1021500000F0A4F92BA0216A00F0A0F92DA0616A7B
:1021600000F09CF92FA0A16A00F098F931A0E16A73
:1021700000F094F933A0216800F090F935A061686F
:1021800000F08CF937A0A16800F088F939A0E16867
:1021900000F084F93BA0216900F080F93DA061695D
:1021A00000F07CF93FA0A16900F078F941A0E16955
:1021B00000F074F943A0216B00F070F945A0616B49
:1021C00000F06CF947A0A16B00F068F9287800F0E6
:1021D000040038B100F082FE0646314645A000F00A
:1021E0005DF902E04BA000F059F900BFFEE70000E6
:1021F0000C0100207073723A203078253038780A4C
:10220000000000007230303A203078253038780AEB
:10221000000000007230313A203078253038780ADA
:10222000000000007230323A203078253038780AC9
:10223000000000007230333A203078253038780AB8
:10224000000000007230343A203078253038780AA7
:10225000000000007230353A203078253038780A96
:10226000000000007230363A203078253038780A85
:10227000000000007230373A203078253038780A74
:10228000000000007230383A203078253038780A63
:10229000000000007230393A203078253038780A52
:1022A000000000007231303A203078253038780A4A
:1022B000000000007231313A203078253038780A39
:1022C000000000007231323A203078253038780A28
:1022D00000000000206C723A203078253038780AEF
:1022E000000000002070633A203078253038780AEA
:1022F0000000000068617264206661756C74206F74
:102300006E207468726561643A2025730D0A0D0AA7
:102310000000000068617264206661756C74206F53
:102320006E2068616E646C65720D0A0D0A00000013
:10233000F0B504460D461646301D20F00700403823
:102340000146002203E00C4F41F82270521C102A73
:10235000F9D30D624FF0000CC1F824C0C1F828C0B9
:10236000C1F82CC0C1F830C04B638C634FF0807C47
:10237000C1F83CC0F0BD0000EFBEADDE30B5014697
:1023800001B930BD4FF0E02464694FF47A75B4FBB5
:10239000F5F404FB01F24FF0E024A06900BF4FF018
:1023A000E024A469844204D24FF0E024A469031B12
:1023B00007E04FF0E024646904444FF0E025AD6984
:1023C000631B9342EBD300BFDBE7000010B5FDF7C2
:1023D000CBFE044604480078401C034908702046A0
:1023E000FDF7C6FE10BD00008000002010B5FDF70F
:1023F000BBFE044604480078401E0349087020468E
:10240000FDF7B6FE10BD00008000002070B5044648
:102410002068A0F11405284600F042FD002070BDA0
:102420002DE9F04105460C469046204600F094FD0B
:10243000B8F1000F03D0B8F1010F23D105E004F18A
:102440001401284600F060F81CE02E680FE0A6F1A9
:10245000140794F8350097F83510884206DA04F12D
:10246000140107F1140000F04FF802E03668AE42A4
:10247000EDD100BFAE4204D104F11401284600F0B2
:1024800043F800BF00BF0020BDE8F08110B504464E
:1024900004F1140000F01AF8002010BD0FB438B594
:1024A00005A800907F210848009B049A00F0ECFEEC
:1024B00004467F2C00D97F240348FFF711FE00203B
:1024C000009038BC5DF814FBFC12002040600060F6
:1024D000704740600060704740600060704702686D
:1024E000516002680A60016048607047026851608C
:1024F00002680A60016048607047026851600268C3
:102500000A600160486070474268116042684A6032
:1025100041600860704701460868884201D1012087
:1025200070470020FCE701460868884201D101207D
:1025300070470020FCE7D0E900215160D0E900128B
:102540001160406000607047D0E900215160D0E91F
:102550000012116040600060704700002DE9F041FA
:10256000054615B90020BDE8F081E81C20F0030500
:102570004E480068854201D90020F4E70C2D00D2B6
:102580000C254FF0FF314A4800F02FFA4948006807
:1025900049490968461A7EE04748006884196088FE
:1025A000002874D106F10C006168081AA8426ED3A5
:1025B00006F10C006168091A05F11800814230D358
:1025C00006F10C0000EB05083B48006800EB08072B
:1025D0004FF4F55038800020788060687860BE60E5
:1025E000C4F80480012060803048796800680C30AD
:1025F000814205D03049786809680844C0F80880ED
:102600002E48016805F10C0008442C4908602C484C
:1026100000680968884219D228480068284908607B
:1026200014E001206080244960680968611A401A3A
:10263000224909680844214908602148006809685E
:10264000884203D21D4800681D4908604FF4F550C8
:10265000208018480068844212D107E015480068BD
:102660004068154909680844124908601148006823
:10267000408828B10F480068124909688842EDD1A6
:102680000B4800F095F904F10C006CE7FFE70A48ED
:1026900000683044466805480068401BB0423FF679
:1026A0007BAF034800F084F900205CE79000002035
:1026B0007C1300208C000020840000209400002067
:1026C0009800002088000020F0B50C460546E6B2D0
:1026D000042A15D300F0030797B9014646EA0623FA
:1026E00043EA034304E008C108C108C108C1103A25
:1026F000102AF8D201E008C1121F042AFBD20D46AD
:1027000001E005F8016B171EA2F10102F9D1F0BD3D
:102710002DE9F04106460F46304600F045F80546E3
:10272000E868FFF71BFF044614B90020BDE8F081FC
:1027300000212046EA68FFF7C7FF2672002060727A
:1027400008223946204600F0ECF9FDF70DFD8046E1
:1027500004F10C01281DFFF7C2FE4046FDF708FDFD
:102760002046E3E770B5044600202072FDF7FCFC2C
:10277000054604F10C00FFF7DEFE2846FDF7F8FCE5
:102780002046FFF7E7FB70BD70B5044600202072BD
:10279000FDF7EAFC054604F10C00FFF7CCFE2846E5
:1027A000FDF7E6FC70BD0000024600210AE0074884
:1027B00000EB01100078904203D1044800EB0110B7
:1027C0007047491C0429F2DB0020F9E79C00002037
:1027D0002DE9F04704460D46904600262846FFF7AF
:1027E000E3FF0746FFF784FB7E6802E0A6F10C00DA
:1027F0003668381D8642F9D1FFF78AFB45F0800024
:10280000207208224146204600F08BF9FDF7ACFC0F
:10281000814604F10C01381DFFF761FE4846FDF7C3
:10282000A7FCBDE8F0870146087A00F0800008B1F7
:10283000012070470020FCE72DE9F041FDF794FCF2
:1028400007461848008838BB17480068FEF7CEFADC
:10285000461E164850F83600A0F1140414480068CB
:10286000844218D013490E7011480568046012485C
:10287000007850B904F11C0105F11C00FDF77BFC48
:102880003846FDF775FCBDE8F08104F11C0105F147
:102890001C00FDF770FC00BF3846FDF769FC00BF67
:1028A000F1E70000DC000020E80000209C1300207D
:1028B000E0000020E40000208000002070B5044605
:1028C000FDF752FC054614F8340F20F00F0040F0DD
:1028D000010020706278343C0A4B03EBC20004F123
:1028E00014014268116042684A604160086000BF9C
:1028F0000549A06B09680843034908602846FDF7AD
:1029000037FC70BD9C130020E800002070B5044621
:10291000FDF72AFC054604F11400D0E900215160BE
:10292000D0E9001211604060006000BF94F83510DB
:10293000094A02EBC1000168814201D1012100E096
:10294000002129B10548A16B00688843034908604C
:102950002846FDF70DFC70BD9C130020E800002008
:102960002DE9F04105460E46174629460220FFF79D
:10297000CFFE044614B92046BDE8F0812046FFF79B
:1029800085FDA68367722046F6E72DE9F0410446EF
:102990000D4616461F462A4602212046FFF718FF1D
:1029A0002046FFF773FDA68367720020BDE8F08123
:1029B00070B504460025FDF7D7FB064604F1140068
:1029C000FFF7A9FD28B904F11400FFF71FFD012549
:1029D00002E0A08B401CA0833046FDF7C9FB012D0F
:1029E00001D1FFF729FF002070BD73B50546FDF743
:1029F000BBFB0646A88B002806DDA88B401EA883DB
:102A00003046FDF7B5FB28E0019828B93046FDF7C0
:102A1000AFFB6FF001007CBD00F060FA04460020BF
:102A200020636A7A214605F11400FFF7F9FC01984A
:102A3000002809DD01AA002104F1440000F04CFB4C
:102A400004F1440000F08CFB3046FDF791FBFFF7EA
:102A5000F3FE206B08B1206BDDE70020DBE7000010
:102A600008B509A0FFF71AFD0AA0FFF717FD12A08D
:102A7000032301221946009012A0FFF70FFD19A0B1
:102A8000FFF70CFD08BD00000A205C207C202F0A07
:102A9000000000002D205254202D20202020205402
:102AA0006872656164204F7065726174696E672039
:102AB00053797374656D0A004D6172203232203291
:102AC00030323100202F207C205C20202020202547
:102AD000642E25642E2564206275696C642025733C
:102AE0000A0000002032303036202D2032303139BB
:102AF00020436F70797269676874206279207274FC
:102B00002D746872656164207465616D0A0000004F
:102B100001460A4600E0521C10780028FBD1501AEA
:102B2000704770B50346A2B118460C4600BF14F8B2
:102B3000016B00F8016B3EB902E0002500F8015B73
:102B4000551E2A1EF9D102E0551E2A1EEFD100BFE4
:102B500000BF184670BD00002DE9F04105460E4645
:102B6000E81C20F0030726F00308B8F1180F09D974
:102B7000A8F11800B84205D3A8EB070018381E4981
:102B8000086006E0324629461CA0FFF787FCBDE836
:102B9000F0812948076004684FF4F55020801648FA
:102BA00000680C3060600020A0606080224960688E
:102BB00009680844214908604FF4F5500968088005
:102BC00001201E49096848800B4800680C301B49E9
:102BD00009684860084800680C301849096888602E
:102BE0000023012216A11848FFF7CFFE1248006803
:102BF0001649086000BFCAE7900000206D656D208F
:102C0000696E69742C206572726F722062656769E3
:102C10006E206164647265737320307825782C208F
:102C2000616E6420656E64206164647265737320F4
:102C3000307825780A0000008400002088000020F9
:102C400068656170000000007C1300208C0000208B
:102C500010B500200B490880002405E00A4901EB6B
:102C6000C400FFF736FC641C202CF7DB1F2007494B
:102C70000870002006490860064908600648FFF70A
:102C800028FC10BDDC0000209C130020E400002084
:102C9000E0000020E8000020EC00002070B50848AB
:102CA0000068FEF7A3F8451E064850F83500A0F16D
:102CB00014040548046004F11C00FDF78AFA70BD95
:102CC000E80000209C130020E000002010B5002444
:102CD00005E0044901EBC400FFF7FEFB641C002C77
:102CE000F7D010BDF400002070472DE9FF5F0646C5
:102CF0000F4690461D46DDE90EAB31460120FFF739
:102D000007FD8146B9F1000F03D1002004B0BDE8F2
:102D1000F09F2846FFF722FC044624B94846FFF7F7
:102D200021FD0020F2E743463A46314648468DE809
:102D3000300CFEF73DFA4846E8E710B50446204659
:102D400000F0D2F810BD000070B512480468FDF71D
:102D50000BFA05462046FFF7D9FD042084F834001D
:102D600004F1440000F0D4F92046FFF75CFD01288F
:102D700005D1206F18B92046FFF706FD04E004F1E5
:102D800014010548FFF7B2FB2846FDF7F1F9FFF7FC
:102D900053FD70BDE0000020EC00002001E000F0D9
:102DA00001F8FCE770B53AE0FDF7DEF90546FEF7FD
:102DB00053F830B31D480068A0F1140404F1140066
:102DC000D0E900215160D0E900121160406000603C
:102DD00000BFFFF78DF8206F10B12046216F8847A4
:102DE0002046FFF720FD012808D12046FFF7CCFC44
:102DF000FFF78EF82846FDF7BBF970BDFFF788F89E
:102E000003E02846FDF7B4F9F7E72846FDF7B0F9E7
:102E1000A06AFFF79FF82046FFF7A4FC00BFFEF76B
:102E20001BF80028C0D100BFE7E70000EC0000203D
:102E30001FB520201F21C200074BCDE90032CDE98C
:102E400002100023054A06A1074800F00FF80648C3
:102E500000F06CF81FBD0000FC1100209D2D000843
:102E60007469646C65000000841100202DE9FF5F27
:102E700005460C4616461F46DDE910ABDDE90E8916
:102E8000224601212846FFF7A3FC3B463246214655
:102E900028468DE8000FFEF78BF904B0BDE8F09FDF
:102EA00070B5044694F8340000F00F00022802D0F8
:102EB0004FF0FF3070BDFDF757F9054604F11400DF
:102EC000FFF742FB04F1440000F0C6F92846FDF785
:102ED0004FF92046FFF7F2FC0020EBE701480068BD
:102EE00070470000E000002031B5FDF73DF90546D0
:102EF0000D480468204600F02FF86A46002104F1CE
:102F0000440000F0E9F804F1440000F029F92846F3
:102F1000FDF72EF9FFF790FC206B801C08B900200C
:102F20002063002038BD0000E000002010B50446FA
:102F30003434A0786070617801208840606002209D
:102F400004F834092046FFF7ABFFFFF7C7FF08B1CD
:102F5000FFF772FC002010BD70B5044694F83400F1
:102F600000F00F00012802D04FF0FF3070BDFDF7D8
:102F7000FBF8054694F8340020F00F0040F0020002
:102F800084F834002046FFF7C1FC04F1440000F04F
:102F900063F92846FDF7ECF80020E7E770B5044632
:102FA00025466FF00100286305F11400FFF7CCFA05
:102FB0002846FFF783FCFFF73FFC70BD70B5FDF7B7
:102FC000D3F805461448046894F8340000F00F0064
:102FD00001281CD1D4E90510814218D004F1140055
:102FE000FFF7B2FA94F835200C4B03EBC20004F162
:102FF00014014268116042684A604160086000BF85
:103000002846FDF7B5F8FFF717FC002070BD2846ED
:10301000FDF7AEF80020F9E7E00000209C13002047
:1030200001480068704700007C00002010B50A4885
:103030000068401C08490860FFF750FF0446206CF8
:10304000401E2064206C18B9E06B2064FFF7B6FFC7
:1030500000F004F810BD00007C00002070B5FFF700
:10306000DFFF0546FDF780F8064628E019480068AE
:10307000A0F11404A06A281A6FF0004188421DD202
:103080002046FEF7F8F8D4E907108847FFF7C8FF95
:103090000546607A00F0020058B1607A00F0010045
:1030A00038B1607A20F001006072204600F058F8D4
:1030B00005E0607A20F00100607200E004E005485D
:1030C000FFF731FA0028D1D000BF3046FDF750F8A5
:1030D00070BD0000F4000020034649B1012904D06E
:1030E000022908D0032910D10AE0586A10600CE0C8
:1030F0001068586209E0587A20F00200587204E023
:10310000587A40F00200587200BF00BF002070479C
:1031100070B50446FDF728F805462046FEF7ABF8E3
:103120002846FDF725F82046FFF72EFB002070BD4E
:103130002DE9F84307460C4615461E46DDE9088989
:1031400022460A213846FFF743FB434632462946CA
:103150003846CDF80090FEF76DF8BDE8F883000022
:103160002DE9F8430546FCF7FFFF80462846FEF7A9
:1031700082F8687A20F0010068724046FCF7F8FF98
:10318000FFF74EFF696A0844A862FCF7EDFF80462E
:103190002F4F009700242AE019E05DF824201168E1
:1031A000142202EBC402881A826AAB6AD21A00D1D6
:1031B00008E0826AAB6AD21A6FF000439A4200D2EA
:1031C0000CE000BF5DF8240000684DF824005DF8B5
:1031D000240007EBC40149688842DED100BF2CB14E
:1031E0005DF824000830611C4DF82100641C002C9F
:1031F000D2D018480068401C164908600846066886
:1032000005F114010098FFF778F9022412E006F0A6
:10321000030060B9C4F1010305F1140202EBC3011C
:10322000C4F101025DF82200FFF767F900E003E056
:10323000B608641C012CEAD900BF687A40F001008E
:1032400068724046FCF794FF0020BDE8F883000058
:10325000F4000020FC00002070B50446607A00F005
:10326000010010B94FF0FF3070BDFCF77DFF05463F
:103270002046FEF700F82846FCF77AFF607A20F037
:10328000010060720020EFE72DE9FF4F89B0804612
:1032900044460A9808EB0006464504D24FF0FF3634
:1032A000A6EB08000A906FE10B980078252806D05D
:1032B000B44202D20B9800782070641C61E10025B2
:1032C00026E00B98401C0B900B9800782D2802D11B
:1032D00045F010051CE00B9800782B2802D145F032
:1032E000040515E00B980078202802D145F0080568
:1032F0000EE00B980078232802D145F0200507E066
:103300000B980078302802D145F0010500E000E07C
:10331000D7E700BF4FF0FF370B98007830380A2806
:1033200004D20BA800F0B2F907460EE00B98007823
:103330002A280AD10B98401C0B900C9880C80C903E
:10334000002F02DA7F4245F010054FF0FF390B984D
:1033500000782E281CD10B98401C0B900B980078FD
:1033600030380A2804D20BA800F090F981460AE010
:103370000B9800782A2806D10B98401C0B900C98CB
:1033800050F8049B0C90B9F1000F01DA4FF00009DE
:10339000002004900B980078682803D00B980078E0
:1033A0006C2805D10B98007804900B98401C0B906A
:1033B0000A2005900B9800786F2875D00CDC6328E4
:1033C00013D004DC252870D058286FD18DE06428F4
:1033D0006DD06928F9D18FE070286AD0732825D084
:1033E000752878D07828F0D182E005F0100040B937
:1033F00004E0B44201D220202070641C781E071E15
:10340000F7DC0C9810F8041B0C90C8B20790B4427B
:1034100001D207982070641C04E0B44201D220203D
:103420002070641C781E071EF7DCAAE00C98006868
:1034300006900C98001D0C90069808B95CA00690A8
:103440000698FFF765FB8346B9F1000F02DDCB4517
:1034500000DDCB4605F0100048B904E0B44201D2CB
:1034600020202070641C38467F1E5845F6DC002062
:1034700008900BE0B44202D2069800782070641CD9
:103480000698401C06900898401C089008985845DB
:10349000F0DB04E0B44201D220202070641C3846E6
:1034A0007F1E5845F6DC6CE01CE015E028E022E0C9
:1034B000FFE7781C10B9082745F00105CDE9007930
:1034C00002950C9804C8102331460C902046FEF754
:1034D00041FB044655E012E0B44201D225202070A1
:1034E000641C4EE0082005901DE045F0400500BF3B
:1034F0001020059017E000BF45F0020500BF12E064
:10350000B44201D225202070641C0B98007830B1A1
:10351000B44202D20B9800782070641C02E00B9831
:10352000401E0B902DE000BF04986C2807D10C982A
:1035300050F804AB0C9005F00200B8B116E0049806
:1035400068280BD10C9830F8041B1FFA81FA0C90F4
:1035500005F0020050B10FFA8AFA07E00C9850F813
:1035600004AB0C9005F0020000B100BFCDE900797A
:103570000295524631462046059BFEF7EBFA04467B
:1035800000BF0B98401C0B900B98007800287FF42C
:103590008BAE0A9838B1B44202D20020207002E00B
:1035A000002006F8010CA4EB08000DB0BDE8F08F78
:1035B000284E554C4C2900000020704700207047D1
:1035C000002070470020704710B5FCF7CDFDFEF7D6
:1035D00039FDFFF745FAFFF779FBFFF739FBFEF7F7
:1035E00053FCFFF781FBFFF723FCFFF757FB00209D
:1035F00010BD000010B504210148FDF723F810BDEF
:103600000008014010B54FF480710248FDF71AF828
:1036100010BD00000010014010B54FF48061024859
:10362000FDF710F810BD00000010014010B54FF478
:1036300000710248FDF706F810BD000000100140BF
:1036400010B54FF400610248FCF7FCFF10BD00000C
:10365000001001402DE9F04104460E46154606488B
:1036600007192A4631463846FEF7D6F9601984B262
:103670002046BDE8F081000050110020024B1A18CE
:103680001170431C98B27047501100200146002071
:1036900009E00B685A1C0A601A7800EB800302EB01
:1036A0004302A2F130000A681278303A0A2AF0D3B5
:1036B0007047000010B510210148FCF7C3FF10BD92
:1036C0000008014070B50446FFF7F4FFFFF792FFD2
:1036D000002503E000F006F8681CC5B2A542F9DB3E
:1036E00070BD000010B500240FE008210848FCF769
:1036F000A9FF0220FEF742FE08210548FCF7A0FFC3
:103700000220FEF73BFE601CC4B2C82CEDDB10BDEE
:10371000000801400B4909680B4A126891420FD01A
:1037200008490A6809498A4202D31739054A1160D3
:1037300004490968087803490968491C014A11606D
:103740007047000074000020700000204A11002023
:103750000AE00648006880F0010004490860322051
:10376000FFF7EBFA00F086F9F3E700000C0C0140DC
:1037700012490968124A1268891A01291CD0104995
:1037800009680E4A1268914206D90D4909680B4A28
:103790001268891A17290FD209490A6809498A4209
:1037A00002D31739064A11600549096808700449AF
:1037B0000968491C024A116070470000740000202B
:1037C000700000204A11002010B50446214602482E
:1037D000FDF7D9FA10BD0000003801402DE9F04F87
:1037E0009DB00446884601250027002019901A90B4
:1037F0001B901C908346002664216846FCF735FD2B
:103800004FF000094FF0000A207801284FD1B8F19D
:10381000010F4CDB44E0675D0F22002119A8FEF781
:103820001DF9B81E82B26019411C19A8FEF7F4F800
:10383000E819205C303800F0FF0B681C3844265C27
:1038400026B1012E02D01DB0BDE8F08F6422002108
:103850006846FEF703F9681C384400F1010914F8C2
:1038600009A04EB904EB0900421CF1B25B460DF110
:10387000660000F01FF810E0012E0ED11FFA8AF248
:1038800004EB0900411C6846FEF7C6F8F1B25B463E
:103890006A460DF1660000F00DF8F81C504405442E
:1038A0004545B8DB00221146212000F071F900BF28
:1038B000C9E700002DE9F0418EB080460D46144660
:1038C0001E463222002101A8FEF7C8F85DB9207813
:1038D0000006617840EA0140A17840EA0120E178E1
:1038E00040EA010705E0012D03D1214601A8FEF7BA
:1038F000D6F817A14046FEF7C2F828B93A46314635
:1039000015A0FDF74FFA1FE01AA14046FEF7B7F8E1
:1039100028B93A4631461AA0FDF744FA14E020A12E
:103920004046FEF7ACF828B93A4631461EA0FDF7EE
:1039300039FA09E023A14046FEF7A1F820B901AA0F
:10394000314623A0FDF72EFA0EB0BDE8F08100004D
:1039500074656D70000000006461793A256420741C
:10396000656D702076616C75652069733A25640D0C
:103970000A00000068756D696469747900000000D0
:103980006461793A25642068756D69646974792089
:1039900076616C75652069733A25640D0A00000034
:1039A000706D3235000000006461793A2564207042
:1039B0006D32352076616C75652069733A25640D2A
:1039C0000A000000636F6E646974696F6E00000026
:1039D0006461793A256420636F6E646974696F6EFF
:1039E0002076616C75652069733A25730D0A0000B5
:1039F00070B504460D460026012C03D105A0FEF744
:103A00004DFD05E024B92E46314607A0FEF746FDE0
:103A100070BD0000E68993E5BC80E5A4A9E6B094FA
:103A2000E68890E58A9F0000E68993E5BC80E5A4DE
:103A3000A9E6B094E5A4B1E8B4A5EFBC8CE99499EB
:103A4000E8AFAFE4BBA3E7A081EFBC9A2564000018
:103A500004480549086005490860002004490870C9
:103A60007047000033110020700000207400002017
:103A70007800002070B50024002509E0FFF74AFE19
:103A800038490A880988491C364B198036498854B8
:103A9000344800881F2803D200F09EF80028EDDC8F
:103AA00030480088072800DA70BD42E02E48005DEB
:103AB000552802D0601C84B23BE02B49601C085C96
:103AC000AA2802D0601C84B233E02749A01C085CFD
:103AD00010B1A01C84B22CE02349201D085C4FF6D5
:103AE000FF7101EA00252049601D085CC01D2844C3
:103AF00085B2262D02D9E01C84B21AE0194800884C
:103B0000001BA84200DA19E06A1E91B2164A101989
:103B1000FDF7DAFD6119491E134A515C884202D053
:103B2000E01C84B205E02046FDF7FEFB601984B27C
:103B300000BF0C480088001B0728B7DA00BF0948FF
:103B40000088001B0749088008460088002806DD19
:103B500005480119034802880348FDF75DFF00BFCF
:103B6000A2E700004C0000201411002070B50446AC
:103B70000D4604B105B970BD03E02078FFF724FEBF
:103B8000641C281EA5F101018DB2F6D100BFF2E739
:103B90002DE9F04105460E461446002755200D49F3
:103BA0000870AA20487008468670C57020120871F7
:103BB0004C71E01D84B2601E81B20648FDF784FDA1
:103BC0000746601E03490F5421460248FFF7CEFF07
:103BD000BDE8F0814A1100200448006804490968E2
:103BE000884201D0012070470020FCE770000020CF
:103BF000740000200100020103020404070108010F
:103C00001002110212021301000001000200010063
:103C10000300010002000100040001000200010095
:103C20000300010002000100050001000200010084
:103C30000300010002000100040001000200010075
:103C40000300010002000100060001000200010063
:103C50000300010002000100040001000200010055
:103C60000300010002000100050001000200010044
:103C70000300010002000100040001000200010035
:103C80000300010002000100070001000200010022
:103C90000300010002000100040001000200010015
:103CA0000300010002000100050001000200010004
:103CB00003000100020001000400010002000100F5
:103CC00003000100020001000600010002000100E3
:103CD00003000100020001000400010002000100D5
:103CE00003000100020001000500010002000100C4
:103CF00003000100020001000400010002000100B5
:103D00000300010002000100303132333435363710
:103D10003839616263646566003031323334353678
:103D2000373839414243444546000000706D323512
:103D300000000000636F6E646974696F6E000000BC
:103D400074656D700000000068756D696469747950
:103D500000000000C5350008BD350008B935000871
:103D6000C1350008843D0008000000201401000057
:103D7000380E0008983E0008140100208C1700003F
:103D8000480E000800A24A040000000000000000E5
:103D900001020304060708090000000001020304F1
:103DA00001020304060708090204060800000000D7
:103DB0000000000000000000000000000000000003
:103DC00000000000000000000000000000000000F3
:103DD0000000000000000000303131323332306327
:103DE00030310000403D0008483D0008343D0008E7
:103DF0002C3D000800000000000000000000010051
:103E000000000000000000000000000000000000B2
:103E100000000000000000000000000000000000A2
:103E200001000000A0000020A00000207800000099
:103E300002000000B0000020B000002020000000C0
:103E400005000000C0000020C0000020300000007D
:103E50000A000000D0000020D00000202C0000004C
:103E60000000000000000000000000000000000052
:103E70000000000000000000000000000000000042
:103E80000000000000000000000000000000000032
:083E900000000000000000002A
:0400000508000131BD
:00000001FF
