:020000040800F2
:1000000038190020450100084D0100080F020008C2
:1000100051010008530100085501000800000000CC
:100020000000000000000000000000005701000870
:10003000590100080000000097010008210900088C
:100040005F0100085F0100085F0100085F01000810
:100050005F0100085F010008E50300085F01000878
:100060005F0100085F0100085F0100085F010008F0
:100070005F0100085F0100085F0100085F010008E0
:100080005F0100085F0100085F0100085F010008D0
:100090005F0100085F0100085F0100085F010008C0
:1000A0005F0100085F0100085F0100085F010008B0
:1000B0005F0100085F0100085F0100085F010008A0
:1000C0005F0100085F0100085F0100085F01000890
:1000D0005F010008910900085F0100085F01000846
:1000E0000D0400085F0100085F0100085F010008BF
:1000F0005F0100085F0100085F0100085F01000860
:100100005F0100085F0100085F0100085F0100084F
:100110005F0100085F0100085F0100085F0100083F
:100120005F0100085F0100085F0100085F0100082F
:10013000DFF80CD000F004F900480047BB030008CA
:10014000381900200648804706480047FEE7FEE7CA
:10015000FEE7FEE7FEE7FEE7FEE7FEE7FEE7FEE777
:100160003109000831010008EFF3108072B67047C2
:1001700080F310887047334A1368012B04D04FF086
:1001800001031360304A1060304A116030484FF06C
:10019000805101607047EFF3108272B62948016800
:1001A00091B14FF0000101602748016829B1EFF3D8
:1001B000098121E9F00F0068016024490968096894
:1001C000B1E8F00F81F3098882F310884EF0040E35
:1001D00070471E4908601C494FF00000086019492B
:1001E0004FF0010008601B484FF47F01D0F8002059
:1001F00041EA0201016016484FF080510160164843
:100200000068006880F3088861B662B670471EF027
:10021000040F0CBFEFF30880EFF3098020E9F00F23
:1002200040F804ED1EF0040F0CBF80F3088880F343
:10023000098800B502F0FAFF5DF804EB4EF0040EF9
:100240007047000008010020000100200401002088
:1002500004ED00E020ED00E008ED00E040EA0103DD
:100260009B0703D009E008C9121F08C0042AFAD26C
:1002700003E011F8013B00F8013B521EF9D2704730
:10028000D2B201E000F8012B491EFBD270470022D8
:10029000F6E710B513460A4604461946FFF7F0FF85
:1002A000204610BD421E12F8013F002BFBD111F871
:1002B000013B02F8013B002BF9D1704710B5044611
:1002C00004E00B7800F8013B03B1491C521EF8D240
:1002D000204610BD421C10F8011B0029FBD1801ADA
:1002E0007047034611F8012B00F8012B002AF9D1C1
:1002F0001846704730B505460020034600E05B1CF9
:10030000934205D2EC5CC85C201A01D1002CF6D1D6
:1003100030BD30B50B46014600202022012409E003
:1003200021FA02F59D4205D303FA02F5491B04FAAE
:1003300002F52844151EA2F10102F1DC30BD0000D7
:10034000064C074D06E0E06840F0010394E8070022
:1003500098471034AC42F6D3FFF7EEFE98510008F0
:10036000B851000870B58C1810F8015B15F0070340
:1003700001D110F8013B2A1106D110F8012B03E03E
:1003800010F8016B01F8016B5B1EF9D12B0705D446
:100390000023521E0DD401F8013BFAE710F8013B8F
:1003A000CB1A921C03E013F8015B01F8015B521EAB
:1003B000F9D5A142D8D3002070BD10B504F0B8F92A
:1003C000002010BD022000BF011EA0F10102D0B22A
:1003D000FAD17047022000BF011EA0F10102D0B285
:1003E000FAD1704710B5012000F020F838B103F0C1
:1003F0006FF80548006803F08FFB03F079F80120DF
:1004000000F00EF810BD00002800002010B54FF4D9
:10041000005000F00BF84FF4005000F001F810BD50
:1004200001490860704700001404014001460020A3
:100430000022074B1B6803EA0102054B14331B68BB
:100440000B4013B10AB1012000E00020704700000A
:10045000000401402DE9F04102460025002600205D
:1004600000230024002791F803C00CF00F0591F839
:1004700003C00CF0100CBCF1000F03D091F802C0C7
:100480004CEA050591F800C0BCF1000F31D01468AA
:1004900000202BE04FF0010C0CFA00F3B1F800C083
:1004A0000CEA03069E4220D183004FF00F0C0CFA99
:1004B00003F7BC4305FA03FC4CEA040491F803C0BB
:1004C000BCF1280F06D14FF0010C0CFA00FCC2F869
:1004D00014C00AE091F803C0BCF1480F05D14FF0F9
:1004E000010C0CFA00FCC2F810C0401C0828D1D343
:1004F0001460B1F800C0BCF1FF0F34DD5468002077
:100500002EE000F1080C4FF0010808FA0CF3B1F8E6
:1005100000C00CEA03069E4221D183004FF00F0C6D
:100520000CFA03F7BC4305FA03FC4CEA040491F807
:1005300003C0BCF1280F05D100F1080C08FA0CF833
:10054000C2F8148091F803C0BCF1480F07D100F144
:10055000080C4FF0010808FA0CF8C2F81080401C93
:100560000828CED35460BDE8F0810246002093688D
:100570000B400BB1012000E0002070474161704743
:100580000161704708B50121082000F02BF82020F8
:10059000ADF8000010208DF8030003208DF8020054
:1005A00069460F48FFF756FF0120ADF80000694685
:1005B0000B48FFF74FFF0220ADF8000069460848DE
:1005C000FFF748FF20210648FFF7DAFF0121044822
:1005D000FFF7D6FF02210248FFF7D2FF08BD000057
:1005E000000C014029B1064A92690243044B9A610A
:1005F00004E0034A92698243014B9A61704700000C
:100600000010024030B500210022002400232D4DAF
:100610006D6805F00C0121B1042905D0082923D10A
:1006200005E0294D056022E0274D05601FE0254DBE
:100630006D6805F47012234D6D6805F48034022551
:1006400005EB92421CB9214D554305600BE01D4D51
:100650006D6805F400351DB11C4D5543056002E081
:10066000194D5543056002E0174D056000BF00BFFE
:10067000144D6D6805F0F0010909154D6B5C0568B6
:10068000DD4045600F4D6D6805F4E061090A104DCD
:100690006B5C4568DD4085600A4D6D6805F460510E
:1006A000C90A0B4D6B5C4568DD40C560054D6D6842
:1006B00005F44041890B074D6B5CC568B5FBF3F54C
:1006C000056130BD0010024000127A0000093D00B3
:1006D00014000020240000201CB50122002134A0B9
:1006E00003F0F2F936490860142006214FF4007334
:1006F0000022CDE90010334933A003F0AAFB3649AC
:1007000008600846006818B10846006803F0C2FC9B
:10071000142006214FF400730022CDE900102F4968
:100720002FA003F096FB324908600846006818B114
:100730000846006803F0AEFC142006214FF4007355
:100740000022CDE900102B492BA003F082FB2D499C
:1007500008600846006818B10846006803F09AFC73
:10076000142005214FF400730022CDE90010264922
:1007700026A003F06EFB2A4908600846006818B1FD
:100780000846006803F086FC14200421CB010022F7
:10079000CDE90010234924A003F05BFB2549086044
:1007A0000846006818B10846006803F073FC1CBDD9
:1007B000717569636B5F666565645F6E000000005C
:1007C00034000020FD1B00086772616E6172795F62
:1007D00077656967687400003800002021160008FA
:1007E0006578706F72745F77656967687400000080
:1007F0003C0000209D1D00086B6579315F736361CB
:100800006E000000400000204549000877696669D5
:100810005F756172745F736572766963650000006D
:1008200044000020D52E0008717569636B5F666512
:10083000656400004800002010B500F001F810BD0C
:100840000CB50020019000903348006840F48030DF
:100850003149086000BF3048006800F40030009063
:100860000198401C0190009818B90198B0F5A06F4C
:10087000F1D12948006800F4003010B10120009047
:1008800001E0002000900098012843D1234800682F
:1008900040F01000214908600846006820F003007D
:1008A00008600846006840F0020008601A48406886
:1008B000194948600846406848600846406840F466
:1008C000806048600846406820F47C104860084614
:1008D000406840F4E81048600846006840F08070C6
:1008E000086000BF0C48006800F000700028F9D0D4
:1008F0000948406820F003000749486008464068FE
:1009000040F00200486000BF0348406800F00C005F
:100910000828F9D10CBD0000001002400020024060
:1009200010B502F0D5FD03F035FC02F0E1FD10BD7D
:1009300010B51348006840F00100114908600846EE
:100940004068104908400E494860084600680E4952
:1009500008400B4908600846006820F480200860C1
:100960000846406820F4FE0048604FF41F0088608D
:10097000FFF762FF4FF000600449086010BD0000FF
:10098000001002400000FFF8FFFFF6FE08ED00E057
:1009900010B540F22551064800F06FF830B1044818
:1009A00000F002F9C4B2204603F0D4FF10BD0000ED
:1009B0000038014001F40072B2F5007F00D100BFA1
:1009C000CA430280704721B1828942F40052828179
:1009D00004E082894DF6FF731A408281704700005F
:1009E00000B585B001210420FFF7FCFD012188033B
:1009F000FFF7F8FD4FF40070ADF8100018208DF8E7
:100A0000130003208DF8120004A91348FFF722FDFC
:100A10004FF48060ADF8100004208DF8130004A995
:100A20000D48FFF717FD4FF4E13000900020ADF8BE
:100A30000400ADF80600ADF80800ADF80C000C207D
:100A4000ADF80A006946054800F042F80121034864
:100A5000FFF7B9FF05B000BD0008014000380140B4
:100A600002460020B1F5007F00D100BF13880B4083
:100A70000BB1012000E00020704770B50246002451
:100A800000230025002040F66A16B14200D100BFC5
:100A9000C1F3421501F01F03012606FA03F3012DED
:100AA00002D19689334006E0022D02D1168A3340E6
:100AB00001E0968A33400C12012606FA04F41688E7
:100AC000344013B10CB1012000E0002070BD0000E3
:100AD0002DE9F04786B005460E460024A24600BF29
:100AE000A1460027B08900B100BF2F462C8A4CF6E2
:100AF000FF700440F08804432C82AC894EF6F3105A
:100B00000440B08831890843718908430443AC81AB
:100B1000AC8A4FF6FF400440B0890443AC8201A880
:100B2000FFF770FD1F48874202D1DDF810A001E0F9
:100B3000DDF80CA0A88900F4004040B10AEBCA001F
:100B400000EB0A1031684900B0FBF1F807E00AEB4E
:100B5000CA0000EB0A1031688900B0FBF1F864208C
:100B6000B8FBF0F004012009642101FB1089A88979
:100B700000F4004040B1322000EBC900B0FBF1F0BE
:100B800000F00700044308E0322000EB0910642164
:100B9000B0FBF1F000F00F0004432C8106B0BDE87B
:100BA000F08700000038014001468888C0F3080043
:100BB0007047C1F308028280704770B504460D4645
:100BC00029462046FFF7F5FF00BF80212046FFF7AA
:100BD00047FF0028F9D070BD0FB4054B10B503A92D
:100BE000044A029800F092F810BC5DF814FB000073
:100BF000691B0008280100200FB4084B10B504A998
:100C000002AA039800F082F8044602A9002000F02E
:100C100099FA204610BC5DF814FB0000451100084D
:100C2000014609B900207047C8B220B1C8B20E4AC7
:100C3000105C401CF7E701F47F4028B10A48C1F37B
:100C40000722805C0930EEE701F47F0028B10648F6
:100C5000C1F30742805C1130E5E7034800EB116007
:100C600000781930DFE70000B84E000802E008C83D
:100C7000121F08C1002AFAD170477047002001E016
:100C800001C1121F002AFBD1704700000349086808
:100C9000884201D0012070470020FCE7EC000020D2
:100CA0002DE9F04389B0064688469146002400E0CD
:100CB000641C305D202804D0305D092801D04445F3
:100CC000F6D324B94FF0FF3009B0BDE8F0832146D8
:100CD000304601F00DFE054615B94FF0FF30F3E741
:100CE000202101A8FFF7D3FA01AA4146304601F0BE
:100CF00069FE074617B94FF0FF30E5E701A938460E
:100D0000A847C9F800000020DEE700002DE9FF4FEA
:100D10008BB088460546002606E025280BD0DDE985
:100D20000D1290476D1C761C28780028F5D10FB065
:100D30003046BDE8F08F0024A146A2460122AE490C
:100D400000E0044315F8013F203B02FA03F008429B
:100D5000F7D128782A2810D06FF02F022878A0F138
:100D60003001092915D809EB890102EB410144F052
:100D7000020400EB01096D1CF0E758F8041B5FEA60
:100D8000010903D544F40054C9F1000944F00204F8
:100D90006D1C28782E2817D115F8010F44F0040493
:100DA0002A280ED06FF02F022878A0F130010929EF
:100DB0000AD80AEB8A0102EB410100EB010A6D1C23
:100DC000F2E758F804AB6D1C28786C280FD006DCCD
:100DD0004C2817D068280DD06A2814D104E0742854
:100DE00010D07A280FD10DE044F400140AE044F446
:100DF000801401E044F440146978814202D104F582
:100E000080146D1C6D1C2878692865D006DC0028CC
:100E10008DD0632827D0642806D15DE06E2808D0E5
:100E200073282AD0752877D0DDE90D129047761CFB
:100E3000E0E0C4F30250022809D003280DD0D8F80E
:100E4000001004280DD00E6008F10408D2E0D8F894
:100E50000010F217C1E90062F6E7D8F800100E8022
:100E6000F2E70E70F0E718F8041B8DF80010002070
:100E70008DF80100EB46012003E058F804BB4FF069
:100E8000FF3061074FF0000701D40AE07F1C57458F
:100E90000DDA8742FADB1BF807100029F6D106E0CD
:100EA0007F1C8742FCDB1BF807100029F8D1DDE925
:100EB0000D23A9EB07008146214600F0B1F830442C
:100EC000C61904E0DDE90D121BF8010B90477F1EE7
:100ED000F8D22146484688E058F8040BC4F3025182
:100EE0004FF00A0B032900D100B2042900D140B20F
:100EF000002802DA40422D2102E0210505D52B21F0
:100F00008DF82410012104E006E0E10710D0202133
:100F1000F6E708AF089113E058F8040BC4F3025148
:100F20004FF00A0B032900D180B2042900D1C0B2CE
:100F30000021EEE75946FFF7ECF9303107F8011DC3
:100F40000028F7D1ADEB070000F1200B600702D5B8
:100F500024F4803401E04FF0010ADA4502DDAAEB07
:100F60000B0000E00020824600EB0B0108980144D2
:100F7000A9EB01000A90E00306D4DDE90D23214628
:100F80000A9800F04DF806444FF0000908E009A95E
:100F900011F80900DDE90D12904709F10109761CED
:100FA00008998945F3DBE0030CD5DDE90D232146E3
:100FB0000A9800F035F8064404E0DDE90D1230200F
:100FC0009047761CBAF10001AAF1010AF5DC05E0B0
:100FD000DDE90D1217F8010B9047761CBBF10001FB
:100FE000ABF1010BF4DC0A982146DDE90D2300F09A
:100FF00005F806446D1C97E6092801002DE9F0412B
:10100000044600251E461746880404D405E03946E8
:101010002020B0476D1C641EF9D52846BDE8F0813C
:101020002DE9F041044600251E469046C80301D52F
:10103000302700E02027880404D505E041463846E3
:10104000B0476D1C641EF9D52846BDE8F08100004C
:101050002DE9FC5F04468B4615461E46DDE90C9AD9
:10106000DDE90E7804F114004060006000BF1C341C
:101070006560A660C4F80C90C4F810A02321D4E9E0
:10108000030202F0D6FBD4E9033C63441A1F0F4B62
:10109000D4E9010102F0CEF92060A776677600203E
:1010A000E061C4F82080C4F8248060612076606527
:1010B000A0651C3C00902346054A2146019004F19E
:1010C000440003F0E9F80020BDE8FC9FB13E0008B1
:1010D000054100082DE9F04704460E46174698469C
:1010E000DDF8209084F80990607A20F001006072A9
:1010F000E66127620020A062C4F82480002506E093
:1011000004F1140101EBC50002F068FA6D1C012D19
:10111000F6DBBDE8F08710B50246002001460EE080
:1011200002F1140303EBC100D0E900436360D0E98E
:10113000003423604060006000BF481C0146012964
:10114000EEDB10BD0A68531C0B6010707047000086
:1011500010B505221449012001F050FA00210220A7
:1011600001F0EEF90021032001F082FA00210420B1
:1011700001F018FA0021072001F0E2F9002108200F
:1011800001F0DEF90021102001F072FA0021112097
:1011900001F06EFA0021122001F06AFA00211320FA
:1011A00001F0CEF910BD00005400002010B520A0C1
:1011B00002F0F6F92148017821A002F0F1F91F4868
:1011C000007800F0010010B123A002F0E9F91B48FB
:1011D000007800F0020010B122A002F0E1F91748F7
:1011E000007800F0040010B121A002F0D9F91348F2
:1011F000007800F0080010B121A002F0D1F90F48EA
:10120000007800F0100010B120A002F0C9F90B48DE
:10121000007800F0800030B108480F3001681DA050
:1012200002F0BEF902E01FA002F0BAF910BD000002
:10123000627573206661756C743A0A0029ED00E0EE
:101240005343425F434653525F424653523A3078CB
:101250002530325820000000494255534552522053
:1012600000000000505245434953455252200000AF
:10127000494D505245434953455252200000000009
:10128000554E53544B4552522000000053544B4589
:10129000525220005343422D3E424641523A25309D
:1012A00038580A000A0000000146002008780002B1
:1012B0004A78104300028A7810430002CA7810432B
:1012C000704770B504460D4600F0B4FE002070BDB6
:1012D00070B504460D4600F085FF002070BD00008B
:1012E0002DE9F04704463449E01C11F80080B8F1BC
:1012F000060F1DD009DCB8F1000F10D0B8F1010FB6
:1013000010D0B8F1020F53D10FE0B8F1080F35D06B
:10131000B8F1200F35D0B8F1210F49D139E000F0F4
:10132000BFFC46E001F03EFD43E000F055FC40E02C
:101330002149601D095C204A201D105C41EA0026FD
:10134000002518E0A01D2844801C1B49085C4FF6AE
:10135000FF7101EA0027A01D2844C01C1649085C43
:10136000384487B22144891D481900F027F8814686
:10137000381D284485B2B542E4DB1AE0FFF7E8FEE9
:1013800017E00D4BE21D995CA21D985C03F09AFCDE
:101390000FE00949601D095C074A201D105C41EA05
:1013A000002611462144881D314603F082FB00E0EF
:1013B00000BF00BFBDE8F0872C1100202DE9F047E9
:1013C0000446267894F80180A0784FF6FF7101EA70
:1013D0000025E078284485B2304600F0E5FB07465A
:1013E000084800EB47004078404502D00020BDE8A7
:1013F000F0872A46211D304600F022F881464846F3
:10140000F5E70000A44E00082DE9F04106460F461E
:101410003946304601F068F905461DB100F06CFC14
:10142000064908602946072001F08AF80446012C85
:1014300001D1BDE8F0810020FBE700003000002072
:101440002DE9F04105460E461746072D20D006DC53
:10145000012D0BD0022D0FD0032D31D112E0082D1C
:101460001CD0122D20D0132D2AD123E0394630462E
:1014700000F064F8044624E03946304600F088F86D
:1014800004461EE03946304600F040F8044618E0B5
:1014900039463046FFF7B8FF044612E03946304679
:1014A00000F0A2F804460CE03946304600F088F817
:1014B000044606E03946304600F008F8044600E0ED
:1014C00000BF00BF2046BDE8F08100002DE9F041DB
:1014D00006460F463946304601F006F905461DB965
:1014E00020200949086003E020200749091D086001
:1014F0002946132001F024F80446012C01D1BDE84F
:10150000F0810020FBE70000100C01402DE9F041C4
:1015100005460E463146284601F0E9F80446E0B299
:1015200000F096F82146032001F0A2F80746012FAB
:1015300001D1BDE8F0810020FBE700002DE9F0417A
:1015400004460D4600270BE00CA002F029F8E15DEF
:101550000DA002F025F80DA002F022F8781CC7B209
:10156000AF42F1DB2A462146012001F047F806464A
:10157000012E01D1BDE8F0810020FBE76D65616CB3
:101580005F706C616E3A200025630D000D0A00004B
:101590002DE9F04106460F463946304601F0A4F8E1
:1015A000054615B1012000F053F82946022000F04D
:1015B000C7FF0446012C01D1BDE8F0810020FBE704
:1015C0002DE9F04104460D462946204601F08FF8EA
:1015D00007463946122001F04BF80646012E01D18C
:1015E000BDE8F0810020FBE72DE9F04106460F46FB
:1015F0003946304601F078F805461DB100F0A8FBE9
:10160000064908602946082000F09AFF0446012C8C
:1016100001D1BDE8F0810020FBE700002C00002094
:10162000002511E000F068FB08490968441A2546C6
:101630002946112001F01CF8601B322804D900BF94
:101640002946112001F014F8ECE7000030000020DA
:1016500010B50446204603F01FF910BD10B514481C
:10166000006890F82100C0F3400020B90020114923
:101670000870084610BD1048006838B180220E4836
:1016800001680C48FEF71AFE0A48F3E701F098F9E2
:1016900020B10AA10748FEF724FE03E009A105488E
:1016A000FEF71FFE09A10348FEF7FCFD0148E1E734
:1016B00020010020B4140020240100206D73682054
:1016C0000000000066696E73682000003E000000A4
:1016D00010B501F065FD10BD0549096891F82110AC
:1016E00060F34101024A126882F82110704700003D
:1016F00020010020024A1060024A11607047000079
:1017000010010020140100207CB50025164917485F
:10171000FFF7F0FF7821012001F02AFC144908604E
:101720000846006820B913A001F03AFF681E7CBD8E
:101730000A2002210B020022CDE90010134914A057
:1017400002F087FB044600231A4613A108480068EC
:1017500002F0CFF90120FFF7BFFF1CB115B92046F9
:1017600002F098FC0020E2E79851000818510008A8
:10177000200100206E6F206D656D6F727920666F9D
:1017800072207368656C6C0A00000000A1170008E5
:10179000747368656C6C00007368727800000000F8
:1017A000E948006890F8210020F00100401CE6495B
:1017B000096881F82100FFF751FF054601F0F0FEAE
:1017C000C1E1FFF785FF0446002C00DABBE11B2CCA
:1017D00005D10120DC49096881F82000B3E1DA482D
:1017E000006890F8200001280DD15B2C05D1022063
:1017F000D549096881F82000A5E10020D24909688F
:1018000081F8200045E0D048006890F820000228C8
:101810003FD10020CC49096881F82000412C00D13B
:1018200091E1422C00D18EE1442C11D1C6480068D0
:10183000B0F8740058B1C5A001F0B2FEC24800680B
:10184000B0F87400401EC0490968A1F874007AE13C
:10185000432C1ED1BC480068B0F87400BA4909682E
:10186000B1F87210884213DAB7480068B0F87420F3
:10187000B54800682230815CB5A001F091FEB24805
:101880000068B0F87400401CAF490968A1F8740002
:1018900059E10CB1FF2C00D155E1092C1FD10025D5
:1018A00003E0AAA001F07CFE6D1CA7480068B0F818
:1018B0007400A842F5DCA4480068223002F09AFFC8
:1018C000A14800682230FEF705FD80B29E490968F4
:1018D000A1F872009C490968A1F8740033E17F2CDB
:1018E00001D0082C6ED198480068B0F8740000B997
:1018F00029E195480068B0F87200401E92490968D5
:10190000A1F8720090480068B0F87400401E8E493B
:101910000968A1F874008C480068B0F872008A4920
:101920000968B1F8741088423FDD874B1B68B3F833
:101930007230854E3668B6F874609A1B824B1B680D
:10194000B3F874305B1C804E3668223699197E4B92
:101950001B68B3F874607C4B1B682233F01801F0ED
:1019600047FF002278480068B0F872107648006897
:101970002230425474480068B0F8742072480068FD
:101980002230111873A001F00BFE6F480068B0F808
:10199000745003E06DA001F003FE6D1C6A480068FE
:1019A000B0F87200A842F5DA0BE06CA001F0F8FD87
:1019B000002165480068B0F8722063480068223052
:1019C0008154C0E00D2C01D00A2C2BD100F0F8FF7F
:1019D000012812D15C48006890F8210000F0010055
:1019E00010B15FA001F0DCFD57480068B0F872103C
:1019F00055480068223000F045FFFFF72FFE0546EE
:101A000001F0CEFD5021504800682230FEF73FFC27
:101A100000204D490968A1F872004B490968A1F8F6
:101A2000740090E048480068B0F87200502804DB69
:101A3000002045490968A1F8720043480068B0F8E1
:101A4000740041490968B1F87210884245DA3E4B8A
:101A50001B68B3F872303C4E3668B6F874609A1B57
:101A6000394B1B68B3F87460374B1B682233F1188D
:101A7000354B1B68B3F874305B1C334E3668223626
:101A8000981901F0B5FE30480068B0F874202E486F
:101A90000068223084542C48006890F8210000F03F
:101AA000010050B128480068B0F87420264800684A
:101AB000223011182BA001F073FD23480068B0F804
:101AC000745003E021A001F06BFD6D1C1E480068FE
:101AD000B0F87200A842F5DC12E01B480068B0F8CC
:101AE000722019480068223084541748006890F822
:101AF000210000F0010018B1214615A001F050FDB1
:101B0000002411480068B0F87200401C0E490968B2
:101B1000A1F872000C480068B0F87400401C0A4933
:101B20000968A1F8740008480068B0F872005028ED
:101B300008DB002004490968A1F87200024909681D
:101B4000A1F8740000BF3CE620010020080000005E
:101B500025630000082573202008000008200800E5
:101B60000A0000002573000070B504460D46E1B27E
:101B70000548FFF71EF800BF80210348FEF770FFFD
:101B80000028F9D0204670BD0038014030B502462B
:101B90000020002305E012F8015B2C18E0B25C1C69
:101BA000A3B28B42F7DB30BD70B5054600F012F8EA
:101BB0000646002407E0064810F81400A84200D1A9
:101BC00003E0601CC4B2B442F5DB00BF204670BD28
:101BD000A44E00080A20704710B500240E212046AC
:101BE00002F000FEC4B20021204602F0FBFDC4B2A8
:101BF00022460321022003F023F910BD00250CE04A
:101C000000F0A6F805490968441A601B322804D977
:101C100025462946102000F02BFDF1E72C0000207E
:101C200010B51448006800F0020010B112A001F0D5
:101C3000B7FC1048006800F0804088B10D48C01E15
:101C4000007808B1FFF7B2FA0A48001F007808B11F
:101C500000F054FD0748801E008808B102F0B0FE75
:101C60000448006800F0004010B109A001F098FCA1
:101C700010BD00002CED00E06661696C65642076A3
:101C80006563746F722066657463680A0000000003
:101C90006465627567206576656E740A00000000F1
:101CA00010B500240B48007840B90021204602F00E
:101CB00099FDC4B201200749087004E001212046C3
:101CC00002F090FDC4B222460321002003F0B8F8D0
:101CD00010BD00007900002010B502A001F060FCEA
:101CE000002010BD48656C6C6F2052542D546872F2
:101CF000656164210A00000070B502F037FDFEF74F
:101D000061FB01F009F9002400BF01F0F1F800289F
:101D1000FBD101200D49086000250AE002F03AFDE0
:101D2000640001F0F9F801F0E3F800B1641C681CEC
:101D3000C5B2182DF2DB02F02DFD84F40004FEF78D
:101D400041FB01F0E9F8204670BD0000140C014091
:101D500070B502F015FDFEF73DFB01F0E7F8002439
:101D600000BF01F0CFF80028FBD100250AE002F007
:101D70001BFD640001F0DAF801F0C4F800B1641C46
:101D8000681CC5B2182DF2DB02F00EFD84F40004CD
:101D9000FEF720FB01F0CAF8204670BD10E00121DB
:101DA0000848FEF7E2FB01280AD100BF01210548DF
:101DB000FEF7DBFB0128F9D00348006801F0ACFE18
:101DC000EDE70000000801403400002010B50CA031
:101DD00001F0E6FB0F4804680CE002220EA1206827
:101DE000FEF788FA00B904E00CA0216801F0D8FBE6
:101DF00000BF08340A4800688442EED3002010BDBA
:101E00002D2D46756E6374696F6E204C6973743A3C
:101E10000A000000100100205F5F000025730A0027
:101E2000140100202DE9F04704460D4616461F46D2
:101E3000284601F06DFD814609F10408C4F80080D0
:101E400025726660E76000202061BDE8F0872DE91B
:101E5000F84F07460C464FF0000A00202061E0686A
:101E600008B1207A10B90020BDE8F88FD4F80080BE
:101E70001FB945464FF0010A00E03D46FEF774F9F0
:101E80000090BAF1000F0ED1A5F10C0B9BF80800E1
:101E900020F08000217A884204D00098FEF768F98B
:101EA0000020E1E700BF0026D4F804900BE02D6885
:101EB000454501D1002507E0761C49F8045BE06840
:101EC000B04200D100E0F2E700BF0098FEF750F901
:101ED00026612846C8E700002DE9F04F91B00027A1
:101EE0000FF2D409082304AA05210CA8FFF79AFFD2
:101EF0004FF008084A46414631A001F051FB4046E8
:101F000000F03AFE37A001F04BFB00BF0CA93846A9
:101F1000FFF79DFF0746002545E004A850F825007F
:101F2000A0F10C06FEF720F98346307A20F08000FD
:101F30009DF83810884203D05846FEF719F931E071
:101F40005846FEF715F9344604F1140001F075FB0C
:101F5000B8B904F1140001F078FB8246208C618C42
:101F600023460822CDE9010A0091414624A001F050
:101F700017FB04F1140002F059FC27A001F010FB3C
:101F80000FE004F1140001F060FB8246208C618CAC
:101F900023460822CDE9010A009141461FA001F025
:101FA000FFFA00BF6D1C1098A842B6DC002FADD11F
:101FB000002011B0BDE8F08F6D61696C626F780030
:101FC000252D2A2E7320656E7472792073697A65C7
:101FD0002073757370656E64207468726561640A3D
:101FE00000000000202D2D2D2D20202D2D2D2D2009
:101FF0002D2D2D2D2D2D2D2D2D2D2D2D2D2D0A0061
:10200000252D2A2E2A7320253034642020253034B3
:10201000642025643A0000000A000000252D2A2EC5
:102020002A73202530346420202530346420256430
:102030000A00000010B50848016808A001F0B0FAD5
:102040000B4801680BA001F0ABFA0F4801680FA024
:1020500001F0A6FA10BD000090000020746F7461BA
:102060006C206D656D6F72793A2025640A0000005E
:102070009400002075736564206D656D6F72792022
:102080003A2025640A000000980000206D617869FC
:102090006D756D20616C6C6F6361746564206D6536
:1020A0006D6F72793A2025640A0000002DE9F04F27
:1020B0008FB000270FF2CC09082302AA02210AA838
:1020C000FFF7B0FE4FF008084A46414630A001F045
:1020D00067FA404600F050FD34A001F061FA00BFFD
:1020E0000AA93846FFF7B3FE0746002541E002A8DB
:1020F00050F82500A0F10C06FEF736F88346307A3A
:1021000020F080009DF83010884203D05846FEF73A
:102110002FF82DE05846FEF72BF8344604F1140052
:1021200001F08BFAA8B904F1140001F08EFA82468E
:10213000A08B234608224146CDE9000A21A001F0E8
:102140002FFA04F1140002F071FB17A001F028FA35
:102150000DE004F1140001F078FA8246A08B2346CA
:1021600008224146CDE9000A1AA001F019FA00BF81
:102170006D1C0E98A842BADC002FB1D100200FB020
:10218000BDE8F08F73656D6170686F726500000067
:10219000252D2A2E73207620202073757370656E8E
:1021A00064207468726561640A000000202D2D2D82
:1021B000202D2D2D2D2D2D2D2D2D2D2D2D2D2D0A7F
:1021C00000000000252D2A2E2A732025303364209C
:1021D00025643A00252D2A2E2A73202530336420C9
:1021E00025640A002DE9F04FAFB04FF000090FF25F
:1021F0001C1B082321AA012129A8FFF713FE4FF079
:10220000080A5A465146434801F0CAF9504600F0C0
:10221000B3FC41A001F0C4F900BF29A94846FFF76B
:1022200016FE81464FF0000865E021A850F828000E
:10223000A0F10C05FDF798FF2E90287A20F0800081
:102240009DF8AC10884203D02E98FDF791FF50E026
:102250007822294603A8FEF701F82E98FDF788FF9B
:102260002C4694F8350023460822514600903AA0A7
:1022700001F096F994F8340000F00F06012E03D116
:1022800038A001F08DF915E0022E03D138A001F03D
:1022900087F90FE01EB939A001F082F90AE0042E97
:1022A00003D139A001F07CF904E0032E02D139A05A
:1022B00001F076F9A76A00E07F1C38782328FBD06C
:1022C000D4E90A10791A401A64214843E16AB0FB44
:1022D000F1F00290216B206CCDE90001E369A06A66
:1022E000C01AE36AC1181A462DA0029B01F058F9E2
:1022F00000BF08F101082D98404596DCB9F1000FA8
:102300008BD100202FB0BDE8F08F0000746872659B
:1023100061640000C0500008202D2D2D20202D2D9F
:102320002D2D2D2D2D202D2D2D2D2D2D2D2D2D2DEA
:10233000202D2D2D2D2D2D2D2D2D2D20202D2D2DF4
:102340002D2D2D20202D2D2D2D2D2D2D2D2D2D20E4
:102350002D2D2D0A00000000252D2A2E2A73202560
:102360003364200020726561647920200000000041
:102370002073757370656E640000000020696E69DB
:10238000742020200000000020636C6F7365202003
:10239000000000002072756E6E696E67000000001C
:1023A0002030782530387820307825303878202053
:1023B0002020253032642525202020307825303813
:1023C0007820253033640A002DE9F04790B00027CB
:1023D0000FF2B409082303AA0A210BA8FFF722FD74
:1023E0004FF008084A46414629A001F0D9F8404676
:1023F00000F0C2FB30A001F0D3F800BF0BA93846B3
:10240000FFF725FD074600262DE003A850F826001B
:10241000A0F10C04FDF7A8FE8246207A20F080008F
:102420009DF83410884203D05046FDF7A1FE19E014
:102430005046FDF79DFE2546D5E909012B460822A9
:10244000CDE90001414625A001F0AAF8687A00F024
:10245000010018B127A001F0A3F802E028A001F0C4
:102460009FF800BF761C0F98B042CEDC002FC5D17C
:1024700001F08AFE0446214625A001F091F80020D3
:1024800010B0BDE8F087000074696D65720000004F
:10249000252D2A2E732020706572696F6469632070
:1024A000202074696D656F75742020202020202005
:1024B000666C61670A000000202D2D2D2D2D2D2D1D
:1024C0002D2D2D202D2D2D2D2D2D2D2D2D2D202D56
:1024D0002D2D2D2D2D2D2D2D2D2D0A00252D2A2E86
:1024E0002A732030782530387820307825303878B5
:1024F000200000006163746976617465640A0000FD
:1025000064656163746976617465640A0000000043
:1025100063757272656E74207469636B3A307825E6
:102520003038780A0000000010B5FEF7D5F800201A
:1025300010BD10B5044600F03BFDFFF7F5FF10BDE0
:1025400070B504460D46002615480078012800D1D4
:1025500070BD2146304602F045F90646012130465D
:1025600002F040F906460021304602F03BF90646EB
:102570000121304602F036F906462DB900213046D9
:1025800002F030F9064604E00121304602F02AF953
:10259000064632460321072002F052FC0120D7E70D
:1025A0007800002070B504460E46002512480078D9
:1025B000012800D170BD2146284602F013F90546D6
:1025C0000421284602F00EF905460021284602F0B3
:1025D00009F905460121284602F004F9054631466D
:1025E000284602F0FFF805462A460321072002F09C
:1025F00027FC0120DEE70000780000202DE9F041F3
:10260000064688461446002718480078012801D15C
:10261000BDE8F0813146384602F0E4F80746002173
:10262000384602F0DFF807462546E01704EB106055
:10263000C0F30721384602F0D5F80746E01704EB4F
:1026400010600012A4EB0020C1B2384602F0CAF8B4
:10265000074622464146384602F0B0F807463A4659
:102660000321072002F0ECFB0120D1E778000020D5
:1026700070B505460C4600261A480078012800D19E
:1026800070BD2946304602F0ADF8064602213046BC
:1026900002F0A8F806460021304602F0A3F80646EC
:1026A0000421304602F09EF80646210E304602F024
:1026B00099F80646C4F30741304602F093F80646FF
:1026C000C4F30721304602F08DF80646E1B23046E9
:1026D00002F088F8064632460321072002F0B0FBDC
:1026E0000120CDE77800002002461078704710B531
:1026F00003460C461846FEF7D7FD10BD10B51CA0CA
:1027000000F04EFF1F4801781FA000F049FF1D4850
:10271000007800F0010010B121A000F041FF19483D
:10272000007800F0020010B120A000F039FF154839
:10273000007800F0080010B11FA000F031FF114830
:10274000007800F0100010B11EA000F029FF0D4825
:10275000007800F0800030B10A480C3001681CA0FD
:1027600000F01EFF02E01EA000F01AFF10BD0000E6
:102770006D656D206D616E616765206661756C7455
:102780003A0A000028ED00E05343425F43465352AB
:102790005F4D4653523A30782530325820000000C1
:1027A0004941434356494F4C2000000044414343B4
:1027B00056494F4C200000004D554E53544B455246
:1027C000522000004D53544B45525220000000004F
:1027D0005343422D3E4D4D41523A253038580A0060
:1027E0000A0000002DE9F04781460026002799F8ED
:1027F000000028B90021084600F0A8F8BDE8F087DD
:102800001B48046827E006221AA12068FDF772FD24
:1028100000B11FE0206800F106084846FDF75AFDA8
:102820008246524641464846FDF764FD88B926B9BE
:1028300047463846FDF74EFD06464146384602F00B
:1028400053F80546B54200DA2E4641460BA000F08B
:10285000A7FE00BF08340A4800688442D3D327B1DA
:1028600032463946484601F010FA00BFC6E700007C
:10287000100100205F5F636D645F000025730A0034
:102880001401002038B504460D4601E0641C6D1E9D
:1028900020782028FAD020780928F7D00DB9002018
:1028A00038BD6A4629462046FEF7FAF908B900986D
:1028B000F6E7204600E0401C0178202902D001788C
:1028C0000029F8D100210170214603A000F068FE24
:1028D0004FF0FF30E4E7000025733A20636F6D6D21
:1028E000616E64206E6F7420666F756E642E0A00D0
:1028F0002DE9F04106460D4600271048046815E012
:1029000006220FA12068FDF7F5FC00B10DE021685B
:10291000881D2A463146FDF7EDFC28B9A81D21681F
:10292000085C08B9676805E000BF0834064800681D
:102930008442E5D300BF3846BDE8F0811001002095
:102940005F5F636D645F00001401002070B5054691
:102950000E460EA000F024FE134804680DE0062287
:1029600012A12068FDF7C6FC00B105E02068811DBA
:1029700010A000F015FE00BF08340F480068844224
:10298000EDD30EA000F00CFE002070BD52542D546B
:102990006872656164207368656C6C20636F6D6D2F
:1029A000616E64733A0A0000100100205F5F636D7E
:1029B000645F000025732000140100200A0000005D
:1029C000012070472DE9F04782460E469046544656
:1029D0000025002755E003E000202070641C6D1CDA
:1029E0002078202802D02078092801D1B542F3D3DD
:1029F000082F12D326A000F0D3FD4FF0000906E007
:102A000058F829102AA000F0CBFD09F10109B945B9
:102A1000F6D326A000F0C4FD35E0B54200D332E085
:102A2000207822281CD1641C6D1C48F827407F1C8C
:102A300009E020785C2804D16078222801D1641C48
:102A40006D1C641C6D1C2078222801D0B542F0D387
:102A5000B54200D317E000202070641C6D1C10E00C
:102A600048F827407F1C01E0641C6D1C207820285A
:102A700004D02078092801D0B542F5D3B54200D35F
:102A800001E0B542A7D300BF3846BDE8F08700009B
:102A9000546F6F206D616E79206172677320212001
:102AA0005765206F6E6C79205573653A0A000000F7
:102AB00025732000F0B505460E4613462A463446D7
:102AC00005B10EB90020F0BDA24202D9E018904233
:102AD00008D2002103E0605C5054481C81B2994246
:102AE000F9DB07E0194603E0481E275C175481B262
:102AF0000029F9DC2846E6E730B503460C461946BE
:102B00000BB9002030BD01E001F8014B101EA2F10D
:102B10000105AAB2F8D11846F4E7024601E0521CBA
:102B2000491C107828B1087818B110780B789842B1
:102B3000F5D010780B78C01A7047024602B109B977
:102B400000207047134603E011F8010B02F8010B57
:102B500008780028F8D110701846F2E701460022E4
:102B600009B900207047002200E0521C11F8013B17
:102B7000002BFAD11046F5E710B5044602E004A098
:102B800000F00EFD201EA4F10104F8D110BD0000DC
:102B90002D00000030B51A4C43682468191988428A
:102BA00015D04B889BB9174B1B6899420FD0164B19
:102BB0001B688B4201D1144B18604B684360104B6B
:102BC0001B68C31A0E4D4C682D682C44A3600C4C36
:102BD000836824681A19824211D053887BB90A4B42
:102BE0001B68834201D1084B1A6043685360044B51
:102BF0001B68D31A024D44682D682C44A36030BD75
:102C000084000020880000208C0000202DE9F04F77
:102C100086B00D469C46DDE9106401960F9B04F0DA
:102C20004008B8F1000F02D0DFF8708101E0DFF852
:102C30007081CDF8008004F01008B8F1000F01D0C9
:102C400024F0010404F00108B8F1000F02D04FF0A5
:102C5000300801E04FF02008C246002704F00208C7
:102C6000B8F1000F11D0002A02DA2D2752420CE0F1
:102C700004F00408B8F1000F01D02B2705E004F0A0
:102C80000808B8F1000F00D02027002142B94FF00A
:102C9000300B8846491C0DF1080909F808B01DE001
:102CA0001AE0E146B9F10A0F08D14FF00A0BB2FB66
:102CB000FBFE0BFB1E28B2FBFBF202E002F00F084A
:102CC000120900BFDDF8009019F808B08846491CC9
:102CD0000DF1080909F808B0002AE2D1B14200DD7F
:102CE0000E469B1B04F01108B8F1000F10D117B16C
:102CF000002B00DD5B1E06E0A84203D24FF0200847
:102D000080F80080401CB3F10008A3F10103F3DC5C
:102D100027B1A84200D207705B1E401C04F01008C7
:102D2000B8F1000F0AD104E0A84201D280F800A057
:102D3000401CB3F10008A3F10103F5DC06E0A84252
:102D400003D24FF0300880F80080401CB046761E59
:102D50008845F4DC08E0A84205D20DF1080818F80F
:102D6000018080F80080401CB1F10008A1F1010150
:102D700004DDDDF80480B8F1000FECD106E0A842D4
:102D800003D24FF0200880F80080401CB3F1000807
:102D9000A3F10103F3DC06B0BDE8F08FC94F0008D2
:102DA000B84F00083EB5002400200090019002902A
:102DB00034A0FFF7D3FE85B22A4632A1204601F0A7
:102DC000FDFCC4B231A0FFF7C9FE85B22A462FA18F
:102DD000204601F0F3FCC4B231A0FFF7BFFE85B27C
:102DE0002A462FA1204601F0E9FCC4B22EA0FFF72D
:102DF000B5FE85B22A462CA1204601F0DFFCC4B204
:102E00002BA0FFF7ABFE85B22A4629A1204601F090
:102E1000D5FCC4B228A0FFF7A1FE85B22A4626A1A0
:102E2000204601F0CBFCC4B20A2224A16846FDF77B
:102E3000E3FE6846FFF792FE85B22A4669462046C1
:102E400001F0BCFCC4B200221FA16846FDF7D4FE0D
:102E50006846FFF783FE85B22A466946204601F0A0
:102E6000ADFCC4B21AA0FFF779FE85B22A4618A1BC
:102E7000204601F0A3FCC4B222460321012001F048
:102E8000DFFF3EBD7B2270223A22000067716C6E2C
:102E90007A6561656A356B686A777437000000008F
:102EA000222C2276223A2200312E302E30000000D1
:102EB000222C226D223A0000320000002C226D7478
:102EC000223A2564000000002C226E223A2564007C
:102ED0007D00000008E04FF0FF310448006800F07A
:102EE00038FE0120FEF7B4FBF5E7000034000020B7
:102EF00010B54FF480710248FDF737FB10BD00009C
:102F00000010014010B54FF480610248FDF72DFB21
:102F100010BD00000010014010B54FF400710248D0
:102F2000FDF72CFB10BD00000010014010B54FF460
:102F300000610248FDF722FB10BD000000100140B7
:102F40001CB514200A214FF480730022CDE9001033
:102F5000044905A000F07DFF0446204601F09AF8E0
:102F60001CBD0000332500086D61696E0000000083
:102F700070B504460D4604FB05F000F083FB0646E1
:102F80002EB104FB05F20021304600F052FC304621
:102F900070BD000010B5044C02E020688047241D7D
:102FA00002488442F9D310BD085100080C510008B2
:102FB00010B5044C02E020688047241D024884427A
:102FC000F9D310BD0C5100081451000810B5FDF7DD
:102FD000CBF8044604480088401C00B2024908802F
:102FE0002046FDF7C5F810BDDC00002010B5FDF748
:102FF000BBF804460C480088401E00B20A4908800D
:103000000846B0F9000000280ADC002008802046AD
:10301000FDF7AEF80548006828B100F0C1FC02E0F9
:103020002046FDF7A5F810BDDC000020E0000020E0
:1030300070B5054605B970BD1D480068854203D3CB
:103040001C480068854200D3F5E7A5F10C044FF059
:10305000FF31194800F07DFD608818B12088B0F577
:10306000F55F08D015A000F09BFA238862882146FE
:1030700019A000F095FA002060804FF4F5502080F0
:1030800021480068844201D21F48046008496068F2
:103090000968611A401A1D490968081A1B49086025
:1030A0002046FFF777FD044800F036FD00BFC2E779
:1030B000840000208800002094130020746F206694
:1030C00072656520612062616420646174612062C0
:1030D0006C6F636B3A0A00006D656D3A203078259D
:1030E0003038782C207573656420666C61673A20EF
:1030F00025642C206D6167696320636F64653A20E5
:103100003078253034780A008C00002094000020AC
:10311000004870472C010020004870472C11002007
:1031200070B51C4800684FF47A72B0FBF2F1B1F14F
:10313000807F00D31DE021F07F40401E4FF0E02251
:10314000506150170F22002807DA13071D0E124B8B
:1031500000F00F04241F1D5503E013071C0E0F4B36
:103160001C5400BF00204FF0E02290610720106146
:1031700000BFFDF735FCFDF705FAFFF70BFFFFF782
:10318000CBFF0446FFF7C4FF0546214600F098FD3B
:1031900070BD00000000002018ED00E000E400E039
:1031A00010B54FF0FF3420210B48FDF759FC20B13A
:1031B0000948FDF7F9FC04460BE008210648FDF735
:1031C0004FFC18B140210448FDF7F4FB0A2000F041
:1031D00068FEE0B210BD00000038014010B50446A2
:1031E000FFF7F4FE19E020780A280AD10D210E48D5
:1031F000FDF7DFFC00BF80210B48FDF731FC002804
:10320000F9D014F8011B0848FDF7D3FC00BF80215A
:103210000548FDF725FC0028F9D020780028E2D1E8
:10322000FFF7E4FE10BD00000038014070B5054610
:103230002C1D3048006838B128462E490968884757
:10324000064606B970BD00BF2BA0E16B00F0A8F9DF
:103250002DA0216A00F0A4F92FA0616A00F0A0F966
:1032600031A0A16A00F09CF933A0E16A00F098F95E
:1032700035A0216800F094F937A0616800F090F95A
:1032800039A0A16800F08CF93BA0E16800F088F952
:103290003DA0216900F084F93FA0616900F080F948
:1032A00041A0A16900F07CF943A0E16900F078F940
:1032B00045A0216B00F074F947A0616B00F070F934
:1032C00049A0A16B00F06CF9287800F0040048B127
:1032D00000F0B8FE0646314647A000F061F9FEF75F
:1032E00081FF02E04CA000F05BF9FEF799FC00BF03
:1032F000FEE700000C0100207073723A2030782540
:103300003038780A000000007230303A20307825DA
:103310003038780A000000007230313A20307825C9
:103320003038780A000000007230323A20307825B8
:103330003038780A000000007230333A20307825A7
:103340003038780A000000007230343A2030782596
:103350003038780A000000007230353A2030782585
:103360003038780A000000007230363A2030782574
:103370003038780A000000007230373A2030782563
:103380003038780A000000007230383A2030782552
:103390003038780A000000007230393A2030782541
:1033A0003038780A000000007231303A2030782539
:1033B0003038780A000000007231313A2030782528
:1033C0003038780A000000007231323A2030782517
:1033D0003038780A00000000206C723A20307825DE
:1033E0003038780A000000002070633A20307825D9
:1033F0003038780A000000006861726420666175E8
:103400006C74206F6E207468726561643A20257355
:103410000D0A0D0A00000000686172642066617583
:103420006C74206F6E2068616E646C65720D0A0D9D
:103430000A000000F0B504460D461646301D20F087
:10344000070040380146002203E00C4F41F822708B
:10345000521C102AF9D30D624FF0000CC1F824C0A1
:10346000C1F828C0C1F82CC0C1F830C04B638C63D0
:103470004FF0807CC1F83CC0F0BD0000EFBEADDE77
:1034800030B5014601B930BD4FF0E02464694FF416
:103490007A75B4FBF5F404FB01F24FF0E024A06967
:1034A00000BF4FF0E024A469844204D24FF0E0242E
:1034B000A469031B07E04FF0E024646904444FF063
:1034C000E025AD69631B9342EBD300BFDBE700004F
:1034D00010B5FCF749FE044604480078401C034937
:1034E00008702046FCF744FE10BD0000800000205C
:1034F00010B5FCF739FE044604480078401E034925
:1035000008702046FCF734FE10BD0000800000204B
:1035100070B504462068A0F11405284600F074FD3B
:10352000002070BD2DE9F04105460C46904620462E
:1035300000F0C6FDB8F1000F03D0B8F1010F23D1A0
:1035400005E004F11401284600F060F81CE02E6844
:103550000FE0A6F1140794F8350097F8351088426B
:1035600006DA04F1140107F1140000F04FF802E04C
:103570003668AE42EDD100BFAE4204D104F1140171
:10358000284600F043F800BF00BF0020BDE8F081EE
:1035900010B5044604F1140000F01AF8002010BD24
:1035A0000FB438B505A800907F210848009B049A05
:1035B00000F01EFF04467F2C00D97F240348FFF74C
:1035C0000DFE0020009038BC5DF814FB14130020A1
:1035D000406000607047406000607047406000607D
:1035E00070470268516002680A6001604860704775
:1035F0000268516002680A600160486070470268B2
:10360000516002680A60016048607047426811605A
:1036100042684A6041600860704701460868884215
:1036200001D1012070470020FCE70146086888426C
:1036300001D1012070470020FCE70146086888425C
:1036400001D1012070470020FCE7014600200A4616
:1036500001E01268401C13688B42FAD17047D0E930
:1036600000215160D0E90012116040600060704795
:10367000D0E900215160D0E9001211604060006083
:10368000704700002DE9F041054615B90020BDE85E
:10369000F081E81C20F003054E480068854201D9FE
:1036A0000020F4E70C2D00D20C254FF0FF314A48E2
:1036B00000F04FFA4948006849490968461A7EE017
:1036C0004748006884196088002874D106F10C000E
:1036D0006168081AA8426ED306F10C006168091AE5
:1036E00005F11800814230D306F10C0000EB05080B
:1036F0003B48006800EB08074FF4F5503880002085
:10370000788060687860BE60C4F8048001206080C2
:103710003048796800680C30814205D030497868BB
:1037200009680844C0F808802E48016805F10C00BB
:1037300008442C4908602C4800680968884219D25E
:10374000284800682849086014E001206080244966
:1037500060680968611A401A2249096808442149C9
:103760000860214800680968884203D21D48006843
:103770001D4908604FF4F5502080184800688442C5
:1037800012D107E0154800684068154909680844E7
:103790001249086011480068408828B10F48006845
:1037A000124909688842EDD10B4800F0B5F904F1DF
:1037B0000C006CE7FFE70A4800683044466805489B
:1037C0000068401BB0423FF67BAF034800F0A4F90D
:1037D00000205CE790000020941300208C00002063
:1037E0008400002094000020980000208800002021
:1037F00070B50C46014623468B4210D29D188D426F
:103800000DD91144134405E05D1E2B462E784D1E44
:1038100029462E70151EA2F10102F5D108E003E041
:1038200013F8015B01F8015B151EA2F10102F7D14B
:1038300070BDF0B50C460546E6B2042A15D300F07B
:10384000030797B9014646EA062343EA034304E027
:1038500008C108C108C108C1103A102AF8D201E015
:1038600008C1121F042AFBD20D4601E005F8016BC6
:10387000171EA2F10102F9D1F0BD2DE9F041064673
:103880000F46304600F044F80546E868FFF7FAFEB8
:10389000044614B90020BDE8F08100212046EA6802
:1038A000FFF7C7FF267200206072082239462046C3
:1038B00000F0EBF9FCF758FC804604F10C01281DE0
:1038C000FFF78FFE4046FCF753FC2046E3E770B558
:1038D000044600202072FCF747FC054604F10C006A
:1038E000FFF7BDFE2846FCF743FC2046FFF7A0FB90
:1038F00070BD70B5044600202072FCF735FC05460B
:1039000004F10C00FFF7ABFE2846FCF731FC70BD5C
:10391000024600210AE0074800EB011000789042BF
:1039200003D1044800EB01107047491C0429F2DB65
:103930000020F9E79C0000202DE9F04704460D46E1
:10394000904600262846FFF7E3FF0746FFF73EFBB9
:103950007E6802E0A6F10C003668381D8642F9D177
:10396000FFF744FB45F080002072082241462046C4
:1039700000F08BF9FCF7F8FB814604F10C01381DCF
:10398000FFF72FFE4846FCF7F3FBBDE8F087014642
:10399000087A00F0800008B1012070470020FCE7A1
:1039A0002DE9F041FCF7E0FB07461848008838BBDA
:1039B00017480068FDF734F9461E164850F83600DF
:1039C000A0F1140414480068844218D013490E7002
:1039D0001148056804601248007850B904F11C01D0
:1039E00005F11C00FCF7C7FB3846FCF7C1FBBDE83E
:1039F000F08104F11C0105F11C00FCF7BCFB00BFC9
:103A00003846FCF7B5FB00BFF1E70000DC00002002
:103A1000E8000020B4130020E0000020E4000020B3
:103A20008000002070B50446FCF79EFB054614F8A4
:103A3000340F20F00F0040F0010020706278343C19
:103A40000A4B03EBC20004F11401426811604268A2
:103A50004A604160086000BF0549A06B09680843DF
:103A6000034908602846FCF783FB70BDB4130020AF
:103A7000E800002070B50446FCF776FB054604F12B
:103A80001400D0E900215160D0E9001211604060BB
:103A9000006000BF94F83510094A02EBC1000168CC
:103AA000814201D1012100E0002129B10548A16B2B
:103AB00000688843034908602846FCF759FB70BD3D
:103AC000B4130020E80000202DE9F04105460E4621
:103AD000174629460220FFF7D0FE044614B92046B7
:103AE000BDE8F0812046FFF753FDA68367722046AC
:103AF000F6E72DE9F04104460D4616461F462A46D4
:103B000002212046FFF718FF2046FFF741FDA6835C
:103B100067720020BDE8F08170B504460025FCF70F
:103B200023FB064604F11400FFF777FD28B904F1E2
:103B30001400FFF7EDFC012502E0A08B401CA083E0
:103B40003046FCF715FB012D01D1FFF729FF0020BE
:103B500070BD73B50546FCF707FB0646A88B002829
:103B600006DDA88B401EA8833046FCF701FB28E049
:103B7000019828B93046FCF7FBFA6FF001007CBDD4
:103B800000F060FA0446002020636A7A214605F1BD
:103B90001400FFF7C7FC0198002809DD01AA0021E5
:103BA00004F1440000F04CFB04F1440000F08CFBF5
:103BB0003046FCF7DDFAFFF7F3FE206B08B1206B0F
:103BC000DDE70020DBE7000008B509A0FFF7E8FC0F
:103BD0000AA0FFF7E5FC12A003230122194600907A
:103BE00012A0FFF7DDFC19A0FFF7DAFC08BD00000A
:103BF0000A205C207C202F0A000000002D20525457
:103C0000202D2020202020546872656164204F7090
:103C100065726174696E672053797374656D0A000B
:103C20004D6172203232203230323100202F207C20
:103C3000205C202020202025642E25642E25642051
:103C40006275696C642025730A00000020323030F0
:103C500036202D203230313920436F7079726967F8
:103C600068742062792072742D74687265616420B2
:103C70007465616D0A00000001460A4600E0521CAE
:103C800010780028FBD1501A704770B50346A2B1D6
:103C900018460C4600BF14F8016B00F8016B3EB9E2
:103CA00002E0002500F8015B551E2A1EF9D102E052
:103CB000551E2A1EEFD100BF00BF184670BD000080
:103CC0002DE9F04105460E46E81C20F0030726F0DA
:103CD0000308B8F1180F09D9A8F11800B84205D3A4
:103CE000A8EB070018381E49086006E0324629464E
:103CF0001CA0FFF755FCBDE8F08129480760046867
:103D00004FF4F5502080164800680C3060600020A9
:103D1000A060608022496068096808442149086001
:103D20004FF4F5500968088001201E490968488051
:103D30000B4800680C301B49096848600848006857
:103D40000C301849096888600023012216A1184820
:103D5000FFF7CFFE124800681649086000BFCAE7A7
:103D6000900000206D656D20696E69742C2065726D
:103D7000726F7220626567696E2061646472657338
:103D80007320307825782C20616E6420656E642065
:103D90006164647265737320307825780A000000CE
:103DA0008400002088000020686561700000000029
:103DB000941300208C00002010B500200B490880CF
:103DC000002405E00A4901EBC400FFF704FC641C71
:103DD000202CF7DB1F2007490870002006490860E7
:103DE000064908600648FFF7F6FB10BDDC0000201E
:103DF000B4130020E4000020E0000020E8000020D0
:103E0000EC00002070B508480068FCF709FF451E6B
:103E1000064850F83500A0F114040548046004F188
:103E20001C00FCF7D6F970BDE8000020B413002098
:103E3000E000002010B5002405E0044901EBC400B7
:103E4000FFF7CCFB641C002CF7D010BDF400002061
:103E500070472DE9FF5F06460F4690461D46DDE997
:103E60000EAB31460120FFF708FD8146B9F1000F86
:103E700003D1002004B0BDE8F09F2846FFF702FC04
:103E8000044624B94846FFF722FD0020F2E74346E6
:103E90003A46314648468DE8300CFDF7D9F8484699
:103EA000E8E710B50446204600F0D2F810BD000047
:103EB00070B512480468FCF757F905462046FFF72D
:103EC000D9FD042084F8340004F1440000F0D4F952
:103ED0002046FFF75CFD012805D1206F18B9204668
:103EE000FFF707FD04E004F114010548FFF780FB2C
:103EF0002846FCF73DF9FFF753FD70BDE0000020B8
:103F0000EC00002001E000F001F8FCE770B53AE0B9
:103F1000FCF72AF90546FCF7B9FE30B31D480068E6
:103F2000A0F1140404F11400D0E900215160D0E99B
:103F3000001211604060006000BFFFF747F8206F7B
:103F400010B12046216F88472046FFF720FD012849
:103F500008D12046FFF7CDFCFFF748F82846FCF7CC
:103F600007F970BDFFF742F803E02846FCF700F9B7
:103F7000F7E72846FCF7FCF8A06AFFF759F8204657
:103F8000FFF7A5FC00BFFCF781FE0028C0D100BFF1
:103F9000E7E70000EC0000201FB520201F21C20031
:103FA000074BCDE90032CDE902100023054A06A1F6
:103FB000074800F00FF8064800F06CF81FBD00003D
:103FC00014120020053F00087469646C650000004D
:103FD0009C1100202DE9FF5F05460C4616461F4642
:103FE000DDE910ABDDE90E89224601212846FFF705
:103FF000A3FC3B463246214628468DE8000FFDF7DC
:1040000027F804B0BDE8F09F70B5044694F834007A
:1040100000F00F00022802D04FF0FF3070BDFCF717
:10402000A3F8054604F11400FFF722FB04F1440055
:1040300000F0C6F92846FCF79BF82046FFF7F2FC93
:104040000020EBE70148006870470000E000002016
:1040500031B5FCF789F805460D480468204600F0A4
:104060002FF86A46002104F1440000F0E9F804F159
:10407000440000F029F92846FCF77AF8FFF790FC95
:10408000206B801C08B900202063002038BD000090
:10409000E000002010B504463434A07860706178E8
:1040A000012088406060022004F834092046FFF7B0
:1040B000ABFFFFF7C7FF08B1FFF772FC002010BD90
:1040C00070B5044694F8340000F00F00012802D0C7
:1040D0004FF0FF3070BDFCF747F8054694F8340008
:1040E00020F00F0040F0020084F834002046FFF773
:1040F000C1FC04F1440000F063F92846FCF738F8ED
:104100000020E7E770B5044625466FF001002863FC
:1041100005F11400FFF7ACFA2846FFF783FCFFF720
:104120003FFC70BD70B5FCF71FF8054614480468E5
:1041300094F8340000F00F0001281CD1D4E90510D8
:10414000814218D004F11400FFF792FA94F8352058
:104150000C4B03EBC20004F1140142681160426889
:104160004A604160086000BF2846FCF701F8FFF78D
:1041700017FC002070BD2846FBF7FAFF0020F9E786
:10418000E0000020B41300200148006870470000E0
:104190007C00002010B50A480068401C08490860EF
:1041A000FFF750FF0446206C401E2064206C18B9B5
:1041B000E06B2064FFF7B6FF00F004F810BD0000CC
:1041C0007C00002070B5FFF7DFFF0546FBF7CCFF52
:1041D000064628E019480068A0F11404A06A281ACD
:1041E0006FF0004188421DD22046FCF794FFD4E9CD
:1041F00007108847FFF7C8FF0546607A00F0020005
:1042000058B1607A00F0010038B1607A20F0010006
:104210006072204600F058F805E0607A20F0010056
:10422000607200E004E00548FFF7FFF90028D1D0F4
:1042300000BF3046FBF79CFF70BD0000F40000207B
:10424000034649B1012904D0022908D0032910D11D
:104250000AE0586A10600CE01068586209E0587A69
:1042600020F00200587204E0587A40F002005872C0
:1042700000BF00BF0020704770B50446FBF774FF15
:1042800005462046FCF747FF2846FBF771FF20460E
:10429000FFF72FFB002070BD2DE9F84307460C46C1
:1042A00015461E46DDE9088922460A213846FFF7F1
:1042B00043FB4346324629463846CDF80090FCF78A
:1042C00009FFBDE8F88300002DE9F8430546FBF738
:1042D0004BFF80462846FCF71EFF687A20F001005D
:1042E00068724046FBF744FFFFF74EFF696A0844D7
:1042F000A862FBF739FF80462F4F009700242AE081
:1043000019E05DF824201168142202EBC402881A17
:10431000826AAB6AD21A00D108E0826AAB6AD21A0A
:104320006FF000439A4200D20CE000BF5DF8240019
:1043300000684DF824005DF8240007EBC4014968CB
:104340008842DED100BF2CB15DF824000830611C2A
:104350004DF82100641C002CD2D018480068401C85
:10436000164908600846066805F114010098FFF731
:1043700046F9022412E006F0030060B9C4F101031B
:1043800005F1140202EBC301C4F101025DF8220041
:10439000FFF735F900E003E0B608641C012CEAD908
:1043A00000BF687A40F0010068724046FBF7E0FE0B
:1043B0000020BDE8F8830000F4000020FC0000208D
:1043C00070B50446607A00F0010010B94FF0FF307C
:1043D00070BDFBF7C9FE05462046FCF79CFE28464B
:1043E000FBF7C6FE607A20F0010060720020EFE764
:1043F0002DE9FF4F89B0804644460A9808EB000635
:10440000464504D24FF0FF36A6EB08000A906FE154
:104410000B980078252806D0B44202D20B98007879
:104420002070641C61E1002526E00B98401C0B9075
:104430000B9800782D2802D145F010051CE00B9850
:1044400000782B2802D145F0040515E00B98007880
:10445000202802D145F008050EE00B9800782328AB
:1044600002D145F0200507E00B980078302802D1F2
:1044700045F0010500E000E0D7E700BF4FF0FF374F
:104480000B98007830380A2804D20BA800F0E6F91F
:1044900007460EE00B9800782A280AD10B98401C9A
:1044A0000B900C9880C80C90002F02DA7F4245F0E8
:1044B00010054FF0FF390B9800782E281CD10B986F
:1044C000401C0B900B98007830380A2804D20BA8B7
:1044D00000F0C4F981460AE00B9800782A2806D13A
:1044E0000B98401C0B900C9850F8049B0C90B9F161
:1044F000000F01DA4FF00009002004900B980078BB
:10450000682803D00B9800786C2805D10B980078A8
:1045100004900B98401C0B900A2005900B98007893
:104520006F2875D00CDC632813D004DC252870D0EC
:1045300058286FD18DE064286DD06928F9D18FE0BB
:1045400070286AD0732825D0752878D07828F0D1C3
:1045500082E005F0100040B904E0B44201D220200E
:104560002070641C781E071EF7DC0C9810F8041BE2
:104570000C90C8B20790B44201D207982070641C16
:1045800004E0B44201D220202070641C781E071E73
:10459000F7DCAAE00C98006806900C98001D0C90BF
:1045A000069808B95CA006900698FFF765FB83465D
:1045B000B9F1000F02DDCB4500DDCB4605F0100060
:1045C00048B904E0B44201D220202070641C38466F
:1045D0007F1E5845F6DC002008900BE0B44202D262
:1045E000069800782070641C0698401C0690089875
:1045F000401C089008985845F0DB04E0B44201D212
:1046000020202070641C38467F1E5845F6DC6CE084
:104610001CE015E028E022E0FFE7781C10B908272D
:1046200045F00105CDE9007902950C9804C81023E6
:1046300031460C902046FEF7E9FA044655E012E0B8
:10464000B44201D225202070641C4EE00820059061
:104650001DE045F0400500BF1020059017E000BFA9
:1046600045F0020500BF12E0B44201D225202070BF
:10467000641C0B98007830B1B44202D20B980078D9
:104680002070641C02E00B98401E0B902DE000BFD0
:1046900004986C2807D10C9850F804AB0C9005F0E6
:1046A0000200B8B116E0049868280BD10C9830F8D5
:1046B000041B1FFA81FA0C9005F0020050B10FFAAA
:1046C0008AFA07E00C9850F804AB0C9005F0020051
:1046D00000B100BFCDE9007902955246314620462F
:1046E000059BFEF793FA044600BF0B98401C0B9005
:1046F0000B98007800287FF48BAE0A9838B1B4424A
:1047000002D20020207002E0002006F8010CA4EB89
:1047100008000DB0BDE8F08F284E554C4C29000024
:10472000002070470020704700207047002070472D
:1047300010B5FBF719FDFEF7F3FCFFF745FAFFF79D
:1047400079FBFFF739FBFEF7FBFBFFF781FBFFF778
:1047500023FCFFF757FB002010BD000010B504211B
:104760000148FBF70DFF10BD0008014010B54FF4E4
:1047700080710248FBF704FF10BD000000100140EB
:1047800010B54FF480610248FBF7FAFE10BD00003F
:104790000010014010B54FF400710248FBF7F0FE25
:1047A00010BD00000010014010B54FF40061024838
:1047B000FBF7E6FE10BD0000001001402DE9F041BE
:1047C00004460E461546064807192A46314638461D
:1047D000FEF770F9601984B22046BDE8F081000050
:1047E00068110020024B1A181170431C98B27047D0
:1047F0006811002070B5044609A0FEF7D1FEFEF74F
:10480000DFF8012802D12046FDF7ECFFFCF726FF78
:1048100005462246294603A0FEF7C2FE70BD0000F1
:104820000A000000257325730000000070B50446DF
:1048300025680CE0A5F11406314606A0FEF7B0FE8F
:104840002868A04202D004A0FEF7AAFE2D68A54267
:10485000F0D170BD257300002F000000014600203C
:1048600009E00B685A1C0A601A7800EB800302EB1F
:104870004302A2F130000A681278303A0A2AF0D3D3
:104880007047000010B54FF480710248FBF778FEC6
:1048900010BD00000008014070B50446FFF7F2FFAC
:1048A000FFF75CFF002503E000F006F8681CC5B2C6
:1048B000A542F9DB70BD000010B500240FE008210F
:1048C0000848FBF75DFE0220FEF7DAFD08210548E7
:1048D000FBF754FE0220FEF7D3FD601CC4B2C82CC7
:1048E000EDDB10BD0008014010B503461A4601E09B
:1048F000521C491C107828B1087818B110780C782F
:10490000A042F5D0D01A10BD0B4909680B4A1268B5
:1049100091420FD008490A6809498A4202D31739DF
:10492000054A116004490968087803490968491C67
:10493000014A1160704700007400002070000020E0
:104940006211002004E03220FFF7ABFA00F0EAF930
:10495000F9E7000012490968124A1268891A012908
:104960001CD0104909680E4A1268914206D90D49B7
:1049700009680B4A1268891A17290FD209490A686F
:1049800009498A4202D31739064A11600549096864
:10499000087004490968491C024A11607047000008
:1049A00074000020700000206211002010B5044641
:1049B00021460248FCF701F910BD00000038014013
:1049C00010B51EA0FEF7ECFD2048018820A0FEF7E0
:1049D000E7FD1E48008800F0010010B122A0FEF79C
:1049E000DFFD1A48008800F0020010B121A0FEF798
:1049F000D7FD1648008800F0040010B120A0FEF793
:104A0000CFFD1248008800F0080010B11EA0FEF78C
:104A1000C7FD0E48008800F4807010B11CA0FEF79E
:104A2000BFFD0A48008800F4007010B11BA0FEF71B
:104A3000B7FD05A0FEF7B4FD10BD000075736167FA
:104A400065206661756C743A0A0000002AED00E08A
:104A50005343425F434653525F554653523A307870
:104A60002530325820000000554E444546494E53EB
:104A700054522000494E56535441544520000000E2
:104A8000494E5650432000004E4F43502000000036
:104A9000554E414C49474E4544200000444956423A
:104AA000595A45524F20000010B5FFF78DF80020ED
:104AB00010BD2DE9F04F9DB0044688460125002722
:104AC000002019901A901B901C90834600266421A8
:104AD0006846FBF7DCFB4FF000094FF0000A207836
:104AE00001284FD1B8F1010F4CDB44E0675D0F2284
:104AF000002119A8FEF700F8B81E82B26019411C07
:104B000019A8FDF7D7FFE819205C303800F0FF0B3B
:104B1000681C3844265C26B1012E02D01DB0BDE8C9
:104B2000F08F642200216846FDF7E6FF681C3844D8
:104B300000F1010914F809A04EB904EB0900421C68
:104B4000F1B25B460DF1660000F01EF810E0012E98
:104B50000ED11FFA8AF204EB0900411C6846FDF7EA
:104B6000A9FFF1B25B466A460DF1660000F00CF851
:104B7000F81C504405444545B8DB0022114621206D
:104B800000F05EF900BFC9E72DE9F0418EB0804624
:104B90000D4614461E463222002101A8FDF7ACFF47
:104BA0005DB920780006617840EA0140A17840EACA
:104BB0000120E17840EA010705E0012D03D12146FB
:104BC00001A8FDF7BAFF17A14046FDF7A6FF28B9D7
:104BD0003A46314615A0FBF7FFFF1FE01AA14046F9
:104BE000FDF79BFF28B93A4631461AA0FBF7F4FFC0
:104BF00014E020A14046FDF790FF28B93A4631461F
:104C00001EA0FBF7E9FF09E023A14046FDF785FF61
:104C100020B901AA314623A0FBF7DEFF0EB0BDE8A4
:104C2000F081000074656D70000000006461793AE5
:104C300025642074656D702076616C7565206973DC
:104C40003A25640D0A00000068756D69646974791D
:104C5000000000006461793A25642068756D69641C
:104C60006974792076616C75652069733A25640DE5
:104C70000A000000706D3235000000006461793A6E
:104C8000256420706D32352076616C7565206973FE
:104C90003A25640D0A000000636F6E646974696FE1
:104CA0006E0000006461793A256420636F6E646968
:104CB00074696F6E2076616C75652069733A25732F
:104CC0000D0A000070B504460D460026012C03D1E4
:104CD00005A0FEF765FC05E024B92E46314607A085
:104CE000FEF75EFC70BD0000E68993E5BC80E5A49C
:104CF000A9E6B094E68890E58A9F0000E68993E5EE
:104D0000BC80E5A4A9E6B094E5A4B1E8B4A5EFBCE5
:104D10008CE99499E8AFAFE4BBA3E7A081EFBC9A1C
:104D20002564000070B50024002509E0FFF7ECFDC4
:104D300038490A880988491C364B198036498854F5
:104D4000344800881F2803D200F09EF80028EDDCCC
:104D500030480088072800DA70BD42E02E48005D28
:104D6000552802D0601C84B23BE02B49601C085CD3
:104D7000AA2802D0601C84B233E02749A01C085C3A
:104D800010B1A01C84B22CE02349201D085C4FF612
:104D9000FF7101EA00252049601D085CC01D284400
:104DA00085B2262D02D9E01C84B21AE01948008889
:104DB000001BA84200DA19E06A1E91B2164A1019C7
:104DC000FCF7E4FE6119491E134A515C884202D087
:104DD000E01C84B205E02046FCF782FA601984B238
:104DE00000BF0C480088001B0728B7DA00BF09483D
:104DF0000088001B0749088008460088002806DD57
:104E000005480119034802880348FDF753FE00BF17
:104E1000A2E700004C0000202C11002070B50446D1
:104E20000D4604B105B970BD03E02078FFF7BEFD63
:104E3000641C281EA5F101018DB2F6D100BFF2E776
:104E40002DE9F04105460E461446002755200D4930
:104E50000870AA20487008468670C5702012087134
:104E60004C71E01D84B2601E81B20648FCF78EFED4
:104E70000746601E03490F5421460248FFF7CEFF44
:104E8000BDE8F08162110020044800680449096807
:104E9000884201D0012070470020FCE7700000200C
:104EA000740000200100020103020404070108014C
:104EB00010021102120213010000010002000100A1
:104EC00003000100020001000400010002000100D3
:104ED00003000100020001000500010002000100C2
:104EE00003000100020001000400010002000100B3
:104EF00003000100020001000600010002000100A1
:104F00000300010002000100040001000200010092
:104F10000300010002000100050001000200010081
:104F20000300010002000100040001000200010072
:104F3000030001000200010007000100020001005F
:104F40000300010002000100040001000200010052
:104F50000300010002000100050001000200010041
:104F60000300010002000100040001000200010032
:104F70000300010002000100060001000200010020
:104F80000300010002000100040001000200010012
:104F90000300010002000100050001000200010001
:104FA00003000100020001000400010002000100F2
:104FB000030001000200010030313233343536374E
:104FC00038396162636465660030313233343536B6
:104FD000373839414243444546006C6973745F6D0C
:104FE000656D0068656C6C6F0076657273696F6ED5
:104FF000005F5F636D645F76657273696F6E006CEE
:105000006973745F746872656164005F5F636D6487
:105010005F6C6973745F746872656164006C697356
:10502000745F73656D005F5F636D645F6C6973745B
:105030005F73656D006C6973745F6D61696C626F3D
:1050400078005F5F636D645F6C6973745F6D616945
:105050006C626F78006C6973745F74696D6572005F
:105060005F5F636D645F6C6973745F74696D6572B3
:10507000006C697374005F5F636D645F68656C707A
:10508000005F5F636D645F7073005F5F636D645F9B
:105090006672656500000000706D3235000000002A
:1050A000636F6E646974696F6E00000074656D7083
:1050B0000000000068756D69646974790000000083
:1050C000252D2A2E732070726920207374617475E7
:1050D0007320202020202073702020202020737433
:1050E00061636B2073697A65206D617820757365E3
:1050F00064206C656674207469636B20206572722D
:105100006F720A002D470008254700082147000854
:105110000917000829470008DA4F00083520000861
:10512000E34F0008D91C0008E94F0008A94A00080D
:10513000F14F0008A94A0008FF4F0008E5210008C8
:105140000B500008E52100081D500008AD200008A4
:1051500026500008AD20000835500008D91E000870
:1051600042500008D91E000855500008C923000805
:1051700060500008C923000871500008CD1D0008C8
:10518000765000084D29000881500008D11200080F
:105190008A500008C3120008B8510008000000201F
:1051A0002C01000064030008145200082C010020A8
:1051B0000C1800007C0C00081184A24A0468090144
:1051C000020304060708090C6910052C02040608EE
:1051D000200B3031313233323063303113AC501B5D
:1051E00008B4041AA0041A9804A102210129222259
:1051F000A02A2004327832021AB00C29043220325C
:10520000051AC00C29043230320A1AD00C290402C3
:04521000532C00001B
:0400000508000131BD
:00000001FF
