:020000040800F2
:1000000048A90020450100084D0100080F02000822
:1000100051010008530100085501000800000000CC
:100020000000000000000000000000005701000870
:10003000590100080000000097010008910D000818
:100040005F0100085F0100085F0100085F01000810
:100050005F0100085F0100088D0400085F010008CF
:100060005F0100085F0100085F0100085F010008F0
:100070005F0100085F0100085F0100085F010008E0
:100080005F0100085F0100085F0100085F010008D0
:100090005F0100085F0100085F0100085F010008C0
:1000A0005F0100085F0100085F0100085F010008B0
:1000B0005F0100085F0100085F0100085F010008A0
:1000C0005F0100085F0100085F0100085F01000890
:1000D0005F0100085F010008010E00085F010008D1
:1000E000B50400085F0100085F0100085F01000817
:1000F0005F0100085F0100085F0100085F01000860
:100100005F0100085F0100085F0100085F0100084F
:100110005F0100085F0100085F0100085F0100083F
:100120005F0100085F0100085F0100085F0100082F
:10013000DFF80CD000F092F9004800478104000875
:1001400048A900200648804706480047FEE7FEE72A
:10015000FEE7FEE7FEE7FEE7FEE7FEE7FEE7FEE777
:10016000A10D000831010008EFF3108072B670474E
:1001700080F310887047334A1368012B04D04FF086
:1001800001031360304A1060304A116030484FF06C
:10019000805101607047EFF3108272B62948016800
:1001A00091B14FF0000101602748016829B1EFF3D8
:1001B000098121E9F00F0068016024490968096894
:1001C000B1E8F00F81F3098882F310884EF0040E35
:1001D00070471E4908601C494FF00000086019492B
:1001E0004FF0010008601B484FF47F01D0F8002059
:1001F00041EA0201016016484FF080510160164843
:100200000068006880F3088861B662B670471EF027
:10021000040F0CBFEFF30880EFF3098020E9F00F23
:1002200040F804ED1EF0040F0CBF80F3088880F343
:10023000098800B503F084F95DF804EB4EF0040E74
:1002400070470000E8000020E0000020E4000020EB
:1002500004ED00E020ED00E008ED00E040EA0103DD
:100260009B0703D009E008C9121F08C0042AFAD26C
:1002700003E011F8013B00F8013B521EF9D2704730
:10028000D2B201E000F8012B491EFBD270470022D8
:10029000F6E710B513460A4604461946FFF7F0FF85
:1002A000204610BD421E12F8013F002BFBD111F871
:1002B000013B02F8013B002BF9D1704710B5044611
:1002C00004E00B7800F8013B03B1491C521EF8D240
:1002D000204610BD421C10F8011B0029FBD1801ADA
:1002E0007047034611F8012B00F8012B002AF9D1C1
:1002F0001846704730B505460020034600E05B1CF9
:10030000934205D2EC5CC85C201A01D1002CF6D1D6
:1003100030BD30B480EA010202F0004530F0004206
:1003200021F0004013D090B1C30DD40DC2F31601DB
:10033000C0F31600E41A41F4000140F400027D34D9
:10034000914201D3641C00E04900002C02DA30BC69
:10035000002070474FF400000023914201D3891A16
:10036000034340084FEA4101F7D151B1914202D114
:100370004FF0004105E002D24FF0010101E06FF0C3
:10038000010103EBC450284430BC00F02FB8962381
:100390000022114600F033B820F00040C10DC0F338
:1003A000160040F400007F2901DA002070479629EA
:1003B00003DCC1F19601C840704796398840704708
:1003C00030B50B46014600202022012409E021FA25
:1003D00002F59D4205D303FA02F5491B04FA02F522
:1003E0002844151EA2F10102F1DC30BD0029A8BF8E
:1003F0007047401C490008BF20F00100704710B44E
:10040000B0FA80FC00FA0CF050EA010404BF10BC02
:10041000704749B1CCF1200421FA04F411FA0CF12F
:1004200018BF012121430843A3EB0C01CB1D4FEA68
:1004300000614FEA102042BF002010BC704700EB63
:10044000C35010440029A4BF10BC7047401C490091
:1004500008BF20F0010010BC70470000064C074D9B
:1004600006E0E06840F0010394E807009847103484
:10047000AC42F6D3FFF760FE08530008285300088B
:1004800010B504F005FB002010BD000010B50120E0
:1004900000F020F838B103F0A5F90548006803F032
:1004A000C5FC03F0AFF9012000F00EF810BD00000C
:1004B0002800002010B54FF4005000F00BF84FF466
:1004C000005000F001F810BD0149086070470000BD
:1004D00014040140014600200022074B1B6803EA78
:1004E0000102054B14331B680B4013B10AB1012004
:1004F00000E0002070470000000401400021234973
:100500008279002A3AD00A46126803689A430B4659
:100510001A600A1D126803689A430B1D1A6002795B
:1005200011440A6803681A430A60184A08321268BC
:1005300003689A43154B08331A601A1D1268036842
:100540009A43124B0C331A604279102A0ED11A1FAB
:10055000126803681A430D4B08331A601A1D12689B
:1005600003681A43094B0C331A600DE007494279BE
:1005700011440A6803681A430A6005E002791144CD
:100580000A6803689A430A6070470000000401404B
:100590000EB500F04BF80121042000F001FA012112
:1005A000102000F0FDF90120ADF8080004208DF8BE
:1005B0000B0002A91B4800F077F84FF40050ADF88B
:1005C000080004208DF80B0002A9174800F06CF811
:1005D0000121084600F0E4F90021084600F044F843
:1005E0000D21022000F040F80120009000208DF83D
:1005F000040008208DF8050001208DF806006846EB
:10060000FFF77CFF4FF40050009000208DF80400AD
:100610000C208DF8050001208DF806006846FFF7D4
:100620006DFF0EBD000801400010014008B54FF4F9
:10063000C06000F09BF906208DF8000001208DF8C5
:1006400001008DF802008DF80300684600F056F9AD
:1006500028208DF8000001208DF801008DF802009F
:10066000684600F04BF908BD30B500228B071C0F1F
:100670000F2303FA04F20B4B8C1053F824309343EE
:10068000084C8D1044F8253023468C1053F8243044
:100690008C07240F00FA04F42343024C8D1044F815
:1006A000253030BD080001402DE9F041024600250B
:1006B0000026002000230024002791F803C00CF03E
:1006C0000F0591F803C00CF0100CBCF1000F03D023
:1006D00091F802C04CEA050591F800C0BCF1000F8A
:1006E00031D0146800202BE04FF0010C0CFA00F31D
:1006F000B1F800C00CEA03069E4220D183004FF0FF
:100700000F0C0CFA03F7BC4305FA03FC4CEA040493
:1007100091F803C0BCF1280F06D14FF0010C0CFA80
:1007200000FCC2F814C00AE091F803C0BCF1480F05
:1007300005D14FF0010C0CFA00FCC2F810C0401CAF
:100740000828D1D31460B1F800C0BCF1FF0F34DD2C
:10075000546800202EE000F1080C4FF0010808FA60
:100760000CF3B1F800C00CEA03069E4221D18300CD
:100770004FF00F0C0CFA03F7BC4305FA03FC4CEAEC
:10078000040491F803C0BCF1280F05D100F1080C56
:1007900008FA0CF8C2F8148091F803C0BCF1480FB5
:1007A00007D100F1080C4FF0010808FA0CF8C2F864
:1007B0001080401C0828CED35460BDE8F08102466A
:1007C000002093680B400BB1012000E0002070472F
:1007D000416170470161704708B50121082000F0B0
:1007E000DFF84FF48070ADF8000004208DF80300AE
:1007F00003208DF8020069460648FFF755FF1020D8
:100800008DF803004001ADF8000069460148FFF78C
:100810004BFF08BD0010014008B50121082000F081
:10082000BFF84FF48060ADF8000004208DF803009D
:1008300003208DF8020069460648FFF735FF1020B7
:100840008DF80300C001ADF8000069460148FFF7CC
:100850002BFF08BD0010014008B50121082000F061
:100860009FF82020ADF8000010208DF80300032031
:100870008DF8020069460F48FFF716FF0120ADF81A
:10088000000069460B48FFF70FFF0220ADF800009B
:1008900069460848FFF708FF20210648FFF79AFF3E
:1008A00001210448FFF796FF02210248FFF792FF5B
:1008B00008BD0000000C014008B54FF4A06000F036
:1008C00055F825208DF8000001208DF801008DF8E5
:1008D00002008DF80300684600F010F826208DF81D
:1008E000000001208DF8010002208DF80200012097
:1008F0008DF80300684600F001F808BD70B50021CE
:1009000000230F22C47804B3154C246804F4E06477
:10091000C4F5E064210AC1F10403CA40447804FA32
:1009200003F184781440214309010E4C0678A15547
:10093000047804F01F050124AC4005786D11AD006A
:1009400005F1E025C5F8004109E0047804F01F0531
:100950000124AC40044D0678761145F8264070BD60
:100960000CED00E000E400E080E100E0024901431A
:10097000024A1160704700000000FA050CED00E02B
:1009800029B1064AD2690243044BDA6104E0034A02
:10099000D2698243014BDA617047000000100240C7
:1009A00029B1064A92690243044B9A6104E0034A62
:1009B00092698243014B9A61704700000010024027
:1009C00030B500210022002400232D4D6D6805F074
:1009D0000C0121B1042905D0082923D105E0294DB6
:1009E000056022E0274D05601FE0254D6D6805F488
:1009F0007012234D6D6805F48034022505EB924298
:100A00001CB9214D554305600BE01D4D6D6805F483
:100A100000351DB11C4D5543056002E0194D55438D
:100A2000056002E0174D056000BF00BF144D6D6802
:100A300005F0F0010909154D6B5C0568DD40456066
:100A40000F4D6D6805F4E061090A104D6B5C456857
:100A5000DD4085600A4D6D6805F46051C90A0B4D93
:100A60006B5C4568DD40C560054D6D6805F440412F
:100A7000890B074D6B5CC568B5FBF3F5056130BDAF
:100A80000010024000127A0000093D00140000200E
:100A9000240000201CB50122002140A003F09EF993
:100AA0004249086014200221CB010022CDE9001048
:100AB0003F4940A003F057FB4149086008460068E1
:100AC00018B10846006803F079FC142006214FF4A1
:100AD00080730022CDE900103A493BA003F043FBAC
:100AE0003D4908600846006818B10846006803F0F0
:100AF00065FC142006214FF480730022CDE900101C
:100B0000364937A003F02FFB3949086008460068D2
:100B100018B10846006803F051FC142006214FF478
:100B200080730022CDE90010324933A003F01BFB93
:100B3000344908600846006818B10846006803F0A8
:100B40003DFC142005214FF480730022CDE90010F4
:100B50002D492EA003F007FB3149086008460068C4
:100B600018B10846006803F029FC142004218B0109
:100B70000022CDE900102B492BA003F0F4FA2D49F7
:100B800008600846006820B10846006803F016FCBB
:100B900002E029A002F08EFE1CBD000071756963A1
:100BA0006B5F666565645F6E0000000030000020CA
:100BB000A14C000874696D655F73797300000000D3
:100BC00048000020B11E00086772616E6172795F93
:100BD000776569676874000034000020FD1800081C
:100BE0006578706F72745F7765696768740000007C
:100BF00038000020AD2000086B6579315F736361B8
:100C00006E0000003C000020294D000877696669ED
:100C10005F756172745F7365727669636500000069
:100C200040000020CD310008717569636B5F666517
:100C3000656400004400002074687265616420737C
:100C4000746172747570206661696C65642121211C
:100C50000000000008B501210420FFF7A1FE1020CC
:100C6000ADF800008DF8030003208DF802006946FE
:100C70000C48FFF719FD4020ADF80000694609480F
:100C8000FFF712FD2020ADF8000069460548FFF788
:100C90000BFD20210348FFF79DFD10210148FFF7C0
:100CA00099FD08BD0008014010B500F001F810BD25
:100CB0000CB50020019000903348006840F480306B
:100CC0003149086000BF3048006800F400300090EF
:100CD0000198401C0190009818B90198B0F5A06FD8
:100CE000F1D12948006800F4003010B101200090D3
:100CF00001E0002000900098012843D123480068BB
:100D000040F01000214908600846006820F0030008
:100D100008600846006840F0020008601A48406811
:100D2000194948600846406848600846406840F4F1
:100D3000806048600846406820F47C10486008469F
:100D4000406840F4E81048600846006840F0807051
:100D5000086000BF0C48006800F000700028F9D05F
:100D60000948406820F00300074948600846406889
:100D700040F00200486000BF0348406800F00C00EB
:100D80000828F9D10CBD00000010024000200240EC
:100D900010B502F027FD03F0ADFB02F033FD10BDEE
:100DA00010B51348006840F001001149086008467A
:100DB0004068104908400E494860084600680E49DE
:100DC00008400B4908600846006820F4802008604D
:100DD0000846406820F4FE0048604FF41F00886019
:100DE000FFF762FF4FF000600449086010BD00008B
:100DF000001002400000FFF8FFFFF6FE08ED00E0E3
:100E000010B540F22551064800F0AFF830B1044863
:100E100000F066F9C4B2204603F08EFF10BD00005A
:100E20000044004001F40072B2F5007F00D100BF21
:100E3000CA430280704721B1828942F40052828104
:100E400004E082894DF6FF731A40828170470000EA
:100E500000B585B001210420FFF7A2FD0121880320
:100E6000FFF79EFD01210420FFF79AFD01214804B0
:100E7000FFF786FD4FF40070ADF8100018208DF8D4
:100E8000130003208DF8120004A92E48FFF70CFC74
:100E90004FF48060ADF8100004208DF8130004A911
:100EA0002848FFF701FC0420ADF8100018208DF849
:100EB000130003208DF8120004A92248FFF7F4FB69
:100EC0000820ADF8100004208DF8130004A91D4877
:100ED000FFF7EAFB4FF4E13000900020ADF804008A
:100EE000ADF80600ADF80800ADF80C000C20ADF828
:100EF0000A006946144800F087F801211248FFF7FC
:100F00009AFF4FF4165000900020ADF80400ADF8A1
:100F10000600ADF80800ADF80C000C20ADF80A0092
:100F200069460A4800F070F8FFF7C6FC012240F25B
:100F30002551064800F043F801210448FFF77BFFE4
:100F400005B000BD000801400038014000440040E9
:100F500002460020B1F5007F00D100BF13880B408E
:100F60000BB1012000E00020704770B5024600245C
:100F700000230025002040F66A16B14200D100BFD0
:100F8000C1F3421501F01F03012606FA03F3012DF8
:100F900002D19689334006E0022D02D1168A3340F1
:100FA00001E0968A33400C12012606FA04F41688F2
:100FB000344013B10CB1012000E0002070BDF0B549
:100FC0000346002400260025002040F66A17B94297
:100FD00000D100BF1846C1F3421401F01F060127DB
:100FE00007FA06F5012C01D10C3004E0022C01D1E6
:100FF000103000E014301AB107682F43076002E098
:101000000768AF430760F0BD2DE9F04786B005469D
:101010000E460024A24600BFA1460027B08900B1B9
:1010200000BF2F462C8A4CF6FF700440F088044322
:101030002C82AC894EF6F3100440B0883189084305
:10104000718908430443AC81AC8A4FF6FF400440E9
:10105000B0890443AC8201A8FFF7B2FC1F48874265
:1010600002D1DDF810A001E0DDF80CA0A88900F4A1
:10107000004040B10AEBCA0000EB0A103168490099
:10108000B0FBF1F807E00AEBCA0000EB0A10316888
:101090008900B0FBF1F86420B8FBF0F004012009EE
:1010A000642101FB1089A88900F4004040B132207E
:1010B00000EBC900B0FBF1F000F00700044308E0CA
:1010C000322000EB09106421B0FBF1F000F00F00BA
:1010D00004432C8106B0BDE8F087000000380140D1
:1010E00001468888C0F308007047C1F30802828077
:1010F000704770B504460D4629462046FFF7F5FFB8
:1011000000BF80212046FFF723FF0028F9D070BDE3
:101110000FB4084B10B504A902AA039800F082F896
:10112000044602A9002000F0A1F9204610BC5DF899
:1011300014FB00006D140008014609B90020704737
:10114000C8B220B1C8B20E4A105C401CF7E701F4E7
:101150007F4028B10A48C1F30722805C0930EEE7DE
:1011600001F47F0028B10648C1F30742805C1130CA
:10117000E5E7034800EB116000781930DFE7000075
:101180005050000802E008C8121F08C1002AFAD116
:1011900070477047002001E001C1121F002AFBD1F7
:1011A0007047000003490868884201D00120704759
:1011B0000020FCE7CC0000202DE9F04389B0064672
:1011C00088469146002400E0641C305D202804D04D
:1011D000305D092801D04445F6D324B94FF0FF30E3
:1011E00009B0BDE8F0832146304601F02FFD0546E9
:1011F00015B94FF0FF30F3E7202101A8FFF747F8BA
:1012000001AA4146304601F08BFD074617B94FF061
:10121000FF30E5E701A93846A847C9F800000020DB
:10122000DEE700002DE9FF4F89B09B46044600250C
:1012300006E025280BD05A460B999047641C6D1C7C
:1012400020780028F5D10DB02846BDE8F08F0027A2
:10125000B8460122474900E0074314F8013F203B0C
:1012600002FA03F00842F7D120782E2819D114F899
:10127000010F47F004072A280ED06FF02F022078C4
:10128000A0F1300109290CD808EB880102EB4101DB
:1012900000EB0108641CF2E70A98641C50F8048B08
:1012A0000A9020780028CED0642808D0692806D07B
:1012B00075281ED05A460B9990476D1C58E00A9924
:1012C0004FF00A0901C90A91002802DA40422D2193
:1012D00002E0390504D52B218DF82010012103E00F
:1012E000F90704D02021F7E78A4608AE0DE0002177
:1012F000FAE70A994FF00A0901C90A91F7E7494646
:10130000FFF75EF8303106F8011D0028F7D1ADEB8C
:10131000060000F12009780701D44FF00108C84504
:1013200002DDA8EB090000E000208046002706E06F
:1013300008A85A46C05D0B9990476D1C7F1C574505
:10134000F6DB04E030205A460B9990476D1CB8F14B
:101350000001A8F10108F5DC05E016F8010B5A467A
:101360000B9990476D1CB9F10001A9F10109F4DC5A
:10137000641C65E7092801002DE9FC5F04468B46E3
:1013800015461E46DDE90C9ADDE90E7804F11400DD
:101390004060006000BF1C346560A660C4F80C901B
:1013A000C4F810A02321D4E9030202F0CCFBD4E955
:1013B000033C63441A1F0F4BD4E9010102F0C4F946
:1013C0002060A77667760020E061C4F82080C4F82A
:1013D0002480606120766065A0651C3C00902346F7
:1013E000054A2146019004F1440003F005F900206C
:1013F000BDE8FC9FC54100082D4400082DE9F047D9
:1014000004460E4617469846DDF8209084F8099069
:10141000607A20F001006072E66127620020A0621D
:10142000C4F82480002506E004F1140101EBC50096
:1014300002F05EFA6D1C012DF6DBBDE8F08710B5F9
:101440000246002001460EE002F1140303EBC10046
:10145000D0E900436360D0E900342360406000605D
:1014600000BF481C01460129EEDB10BD0A68531C71
:101470000B601070704710B500221146012001F07A
:1014800047FA0021022001F0E5F90021032001F0D4
:1014900079FA0021042001F00FFA0021072001F061
:1014A000D9F90021082001F0D5F90021102001F020
:1014B00069FA0021112001F065FA0021122001F0E3
:1014C00061FA0021132001F0C5F910BD10B520A06C
:1014D00002F0F0F92148017821A002F0EBF91F4851
:1014E000007800F0010010B123A002F0E3F91B48DE
:1014F000007800F0020010B122A002F0DBF91748DA
:10150000007800F0040010B121A002F0D3F91348D4
:10151000007800F0080010B121A002F0CBF90F48CC
:10152000007800F0100010B120A002F0C3F90B48C1
:10153000007800F0800030B108480F3001681DA02D
:1015400002F0B8F902E01FA002F0B4F910BD0000EB
:10155000627573206661756C743A0A0029ED00E0CB
:101560005343425F434653525F424653523A3078A8
:101570002530325820000000494255534552522030
:10158000000000005052454349534552522000008C
:10159000494D5052454349534552522000000000E6
:1015A000554E53544B4552522000000053544B4566
:1015B000525220005343422D3E424641523A25307A
:1015C00038580A000A00000001460020087800028E
:1015D0004A78104300028A7810430002CA78104308
:1015E000704770B504460D4600F0AEFE002070BD99
:1015F00070B504460D4600F07FFF002070BD00006E
:101600002DE9F04704462A49E01C11F80080B8F1A2
:10161000060F1AD009DCB8F1000F0DD0B8F1010F98
:101620000DD0B8F1020F3FD10CE0B8F1080F32D065
:10163000B8F11C0F38D131E000F09CFC35E001F02E
:101640002DFD32E000F022FC2FE01949601D095CFD
:10165000174A201D105C41EA0027002518E0A01D54
:101660002844801C1249085C4FF6FF7101EA0026ED
:10167000A01D2844C01C0E49085C304486B2214499
:10168000891D481900F016F88146301D284485B29E
:10169000BD42E4DB09E0FFF7EEFE06E00449214429
:1016A000881D01F0BDF900E000BF00BFBDE8F08774
:1016B0003AA100202DE9F0470446267894F80180ED
:1016C000A0784FF6FF7101EA0025E078284485B242
:1016D000304600F0C3FB0746084800EB470040785F
:1016E000404502D00020BDE8F0872A46211D304643
:1016F00000F022F881464846F5E700003C5000081B
:101700002DE9F04106460F463946304601F076F99C
:1017100005461DB100F05AFC0649088029460720FD
:1017200001F098F80446012C01D1BDE8F0810020B9
:10173000FBE700002E0000202DE9F04105460E4693
:101740001746072D20D006DC012D0BD0022D0FD01F
:10175000032D31D112E0082D1CD0122D20D0132DD5
:101760002AD123E03946304600F064F8044624E0EC
:101770003946304600F07AF804461EE039463046D5
:1017800000F040F8044618E039463046FFF7B8FF4D
:10179000044612E03946304600F094F804460CE066
:1017A0003946304600F07AF8044606E039463046BD
:1017B00000F008F8044600E000BF00BF2046BDE886
:1017C000F08100002DE9F04106460F4639463046CB
:1017D00001F014F905461DB920200949086003E00D
:1017E00020200749091D08602946132001F032F81E
:1017F0000446012C01D1BDE8F0810020FBE7000088
:10180000100C01402DE9F04105460E4631462846B0
:1018100001F0F7F80446E0B200F086F82146032014
:1018200001F0B0F80746012F01D1BDE8F08100209A
:10183000FBE700002DE9F04104460D46002705E0D6
:10184000E15D09A002F036F8781CC7B2AF42F7DBC1
:101850002A462146012001F05BF80646012E01D1FF
:10186000BDE8F0810020FBE7256300002DE9F04191
:1018700006460F463946304601F0C0F8054615B118
:10188000012000F051F82946022000F0E3FF044651
:10189000012C01D1BDE8F0810020FBE72DE9F041EA
:1018A00004460D462946204601F0ABF80746394666
:1018B000122001F067F80646012E01D1BDE8F08143
:1018C0000020FBE72DE9F04106460F463946304639
:1018D00001F094F805461DB100F0B0FB0649088000
:1018E0002946082000F0B6FF0446012C01D1BDE8CE
:1018F000F0810020FBE700002C00002000250FE015
:10190000322002F058FC00F061FB06490988441AB5
:10191000601B322804D925462946112001F032F8EF
:10192000EEE700002E00002010B50446204603F02C
:1019300061F910BD10B51448006890F82100C0F39B
:10194000400020B9002011490870084610BD104819
:10195000006838B180220E4801680C48FEF7AEFCE2
:101960000A48F3E701F0DAF920B10AA10748FEF7C7
:10197000B8FC03E009A10548FEF7B3FC09A1034840
:10198000FEF790FC0148E1E700010020C0A4002020
:10199000040100206D7368200000000066696E730A
:1019A000682000003E00000010B501F083FD10BD6E
:1019B0000549096891F8211060F34101024A126853
:1019C00082F821107047000000010020024A1060D8
:1019D000024A116070470000F0000020F40000206F
:1019E0007CB5002516491748FFF7F0FF7821012044
:1019F00001F03AFC144908600846006820B913A0B9
:101A000001F058FF681E7CBD0A2002214B02002213
:101A1000CDE90010134914A002F0A5FB04460023F1
:101A20001A4613A10848006802F0EDF90120FFF7FB
:101A3000BFFF1CB115B9204602F0C0FC0020E2E750
:101A40000853000888520008000100206E6F206DC6
:101A5000656D6F727920666F72207368656C6C0AB1
:101A600000000000791A0008747368656C6C00004F
:101A70007368727800000000E948006890F821005F
:101A800020F00100401CE649096881F82100FFF7B9
:101A900051FF054601F00EFFC1E1FFF785FF044647
:101AA000002C00DABBE11B2C05D10120DC490968C0
:101AB00081F82000B3E1DA48006890F8200001289E
:101AC0000DD15B2C05D10220D549096881F8200091
:101AD000A5E10020D249096881F8200045E0D048FE
:101AE000006890F8200002283FD10020CC49096806
:101AF00081F82000412C00D191E1422C00D18EE1EF
:101B0000442C11D1C6480068B0F8740058B1C5A083
:101B100001F0D0FEC2480068B0F87400401EC04911
:101B20000968A1F874007AE1432C1ED1BC48006812
:101B3000B0F87400BA490968B1F87210884213DA33
:101B4000B7480068B0F87420B54800682230815C5E
:101B5000B5A001F0AFFEB2480068B0F87400401CB8
:101B6000AF490968A1F8740059E10CB1FF2C00D10C
:101B700055E1092C1FD1002503E0AAA001F09AFE2F
:101B80006D1CA7480068B0F87400A842F5DCA448B2
:101B90000068223002F0DEFFA14800682230FEF724
:101BA00099FB80B29E490968A1F872009C490968B6
:101BB000A1F8740033E17F2C01D0082C6ED1984835
:101BC0000068B0F8740000B929E195480068B0F8E1
:101BD0007200401E92490968A1F87200904800689E
:101BE000B0F87400401E8E490968A1F874008C4852
:101BF0000068B0F872008A490968B1F87410884228
:101C00003FDD874B1B68B3F87230854E3668B6F8F7
:101C100074609A1B824B1B68B3F874305B1C804E57
:101C20003668223699197E4B1B68B3F874607C4B7A
:101C30001B682233F01801F065FF00227848006825
:101C4000B0F8721076480068223042547448006838
:101C5000B0F87420724800682230111873A001F0A7
:101C600029FE6F480068B0F8745003E06DA001F0E1
:101C700021FE6D1C6A480068B0F87200A842F5DACF
:101C80000BE06CA001F016FE002165480068B0F87A
:101C900072206348006822308154C0E00D2C01D0CE
:101CA0000A2C2BD101F03AF8012812D15C480068C7
:101CB00090F8210000F0010010B15FA001F0FAFDE2
:101CC00057480068B0F8721055480068223000F09C
:101CD00087FFFFF72FFE054601F0ECFD502150482D
:101CE00000682230FEF7D3FA00204D490968A1F8B8
:101CF00072004B490968A1F8740090E048480068F8
:101D0000B0F87200502804DB002045490968A1F8AA
:101D1000720043480068B0F8740041490968B1F89E
:101D20007210884245DA3E4B1B68B3F872303C4E65
:101D30003668B6F874609A1B394B1B68B3F8746048
:101D4000374B1B682233F118354B1B68B3F87430DE
:101D50005B1C334E36682236981901F0D3FE3048AA
:101D60000068B0F874202E480068223084542C4853
:101D7000006890F8210000F0010050B12848006888
:101D8000B0F8742026480068223011182BA001F00A
:101D900091FD23480068B0F8745003E021A001F0E1
:101DA00089FD6D1C1E480068B0F87200A842F5DC81
:101DB00012E01B480068B0F8722019480068223011
:101DC00084541748006890F8210000F0010018B111
:101DD000214615A001F06EFD002411480068B0F8FE
:101DE0007200401C0E490968A1F872000C48006896
:101DF000B0F87400401C0A490968A1F8740008484A
:101E00000068B0F87200502808DB00200449096817
:101E1000A1F8720002490968A1F8740000BF3CE60D
:101E20000001002008000000256300000825732041
:101E300020080000082008000A00000025730000A8
:101E400030B502460020002305E012F8015B2C1893
:101E5000E0B25C1CA3B28B42F7DB30BD70B5054627
:101E600000F012F80646002407E0064810F81400B7
:101E7000A84200D103E0601CC4B2B442F5DB00BF4D
:101E8000204670BD3C5000080A20704710B5002461
:101E90000821204602F056FEC4B20021204602F07E
:101EA00051FEC4B222460321022003F095F810BD72
:101EB0001DE0322002F07FF900F0C0F80C490988DB
:101EC000441A601B1E2812D9254640F6B8308542B8
:101ED00005D364263146102000F054FD07E01E2093
:101EE000B5FBF0F0C6B23146102000F04BFDE0E744
:101EF0002C00002010B51448006800F0020010B15A
:101F000012A001F0D7FC1048006800F0804088B1B2
:101F10000D48C01E007808B1FFF7D8FA0A48001F24
:101F2000007808B100F098FD0748801E008808B1CD
:101F300002F038FF0448006800F0004010B109A02A
:101F400001F0B8FC10BD00002CED00E06661696C8A
:101F5000656420766563746F722066657463680AD1
:101F6000000000006465627567206576656E740A1E
:101F70000000000010B500240B48007840B9002193
:101F8000204602F0DFFDC4B201200749087004E0DA
:101F90000121204602F0D6FDC4B2224603210020D2
:101FA00003F01AF810BD00005900002010B502A07F
:101FB00001F080FC002010BD48656C6C6F2052540D
:101FC0002D546872656164210A0000002DE9F0411A
:101FD00002F07CFD052002F0EEF801F019F9002472
:101FE00000BF01F001F90028FBD100250AE002F052
:101FF00081FD640001F00CF901F0F6F800B1641CF9
:10200000681CC5B2182DF2DB02F074FD84F40004E4
:10201000052002F0D0F801F0FBF82046FEF7B7F9F2
:1020200080460549FEF775F90746FEF7B5F986B211
:102030003046BDE8F08100000000D7432DE9F041B3
:1020400002F04EFD052002F0B6F801F0EBF8002496
:1020500000BF01F0D3F80028FBD100250AE002F010
:1020600053FD640001F0DEF801F0C8F800B1641C13
:10207000681CC5B2182DF2DB02F046FD84F40004A2
:10208000052002F098F801F0CDF82046FEF77FF920
:1020900080460549FEF73DF90746FEF77DF986B211
:1020A0003046BDE8F08100000000D74313E0322045
:1020B00002F081F801210848FEF781FB01280AD1CE
:1020C00000BF01210448FEF77AFB0128F9D003483C
:1020D000006801F0ABFEEAE7000801403000002094
:1020E00010B50CA001F0E6FB0F4804680CE00222DA
:1020F0000EA12068FEF7FEF800B904E00CA02168EC
:1021000001F0D8FB00BF08340A4800688442EED3CF
:10211000002010BD2D2D46756E6374696F6E204CC6
:102120006973743A0A000000F00000205F5F00004D
:1021300025730A00F40000202DE9F04704460D46FF
:1021400016461F46284601F06DFD814609F1040838
:10215000C4F8008025726660E76000202061BDE859
:10216000F0872DE9F84F07460C464FF0000A002093
:102170002061E06808B1207A10B90020BDE8F88F2E
:10218000D4F800801FB945464FF0010A00E03D46F3
:10219000FDF7EAFF0090BAF1000F0ED1A5F10C0B8C
:1021A0009BF8080020F08000217A884204D0009833
:1021B000FDF7DEFF0020E1E700BF0026D4F8049021
:1021C0000BE02D68454501D1002507E0761C49F854
:1021D000045BE068B04200D100E0F2E700BF009885
:1021E000FDF7C6FF26612846C8E700002DE9F04F3D
:1021F00091B000270FF2D409082304AA05210CA8E6
:10220000FFF79AFF4FF008084A46414631A001F017
:1022100051FB404600F02CFE37A001F04BFB00BF05
:102220000CA93846FFF79DFF0746002545E004A8A6
:1022300050F82500A0F10C06FDF796FF8346307A92
:1022400020F080009DF83810884203D05846FDF7F2
:102250008FFF31E05846FDF78BFF344604F1140040
:1022600001F075FBB8B904F1140001F078FB824667
:10227000208C618C23460822CDE9010A0091414659
:1022800024A001F017FB04F1140002F07FFC27A04A
:1022900001F010FB0FE004F1140001F060FB824636
:1022A000208C618C23460822CDE9010A0091414629
:1022B0001FA001F0FFFA00BF6D1C1098A842B6DC09
:1022C000002FADD1002011B0BDE8F08F6D61696CB9
:1022D000626F7800252D2A2E7320656E7472792026
:1022E00073697A652073757370656E6420746872A3
:1022F0006561640A00000000202D2D2D2D20202D69
:102300002D2D2D202D2D2D2D2D2D2D2D2D2D2D2D0A
:102310002D2D0A00252D2A2E2A73202530346420E5
:1023200020253034642025643A0000000A000000B3
:10233000252D2A2E2A732025303464202025303480
:10234000642025640A00000010B50848016808A050
:1023500001F0B0FA0B4801680BA001F0ABFA0F488E
:1023600001680FA001F0A6FA10BD00007000002067
:10237000746F74616C206D656D6F72793A2025649D
:102380000A0000007400002075736564206D656D9F
:102390006F7279203A2025640A000000780000203E
:1023A0006D6178696D756D20616C6C6F63617465CA
:1023B00064206D656D6F72793A2025640A00000013
:1023C0002DE9F04F8FB000270FF2CC09082302AAA5
:1023D00002210AA8FFF7B0FE4FF008084A4641461E
:1023E00030A001F067FA404600F042FD34A001F051
:1023F00061FA00BF0AA93846FFF7B3FE0746002579
:1024000041E002A850F82500A0F10C06FDF7ACFE53
:102410008346307A20F080009DF83010884203D047
:102420005846FDF7A5FE2DE05846FDF7A1FE3446BF
:1024300004F1140001F08BFAA8B904F1140001F0C2
:102440008EFA8246A08B234608224146CDE9000A37
:1024500021A001F02FFA04F1140002F097FB17A05D
:1024600001F028FA0DE004F1140001F078FA824638
:10247000A08B234608224146CDE9000A1AA001F0AC
:1024800019FA00BF6D1C0E98A842BADC002FB1D11A
:1024900000200FB0BDE8F08F73656D6170686F72DA
:1024A00065000000252D2A2E7320762020207375CC
:1024B0007370656E64207468726561640A00000060
:1024C000202D2D2D202D2D2D2D2D2D2D2D2D2D2D56
:1024D0002D2D2D0A00000000252D2A2E2A732025DF
:1024E0003033642025643A00252D2A2E2A732025B6
:1024F0003033642025640A002DE9F04FAFB04FF06F
:1025000000090FF21C1B082321AA012129A8FFF7AB
:1025100013FE4FF0080A5A465146434801F0CAF9E3
:10252000504600F0A5FC41A001F0C4F900BF29A964
:102530004846FFF716FE81464FF0000865E021A8E7
:1025400050F82800A0F10C05FDF70EFE2E90287A19
:1025500020F080009DF8AC10884203D02E98FDF743
:1025600007FE50E07822294603A8FDF777FE2E9853
:10257000FDF7FEFD2C4694F835002346082251460F
:1025800000903AA001F096F994F8340000F00F069C
:10259000012E03D138A001F08DF915E0022E03D1F0
:1025A00038A001F087F90FE01EB939A001F082F9D7
:1025B0000AE0042E03D139A001F07CF904E0032ED7
:1025C00002D139A001F076F9A76A00E07F1C3878C3
:1025D0002328FBD0D4E90A10791A401A6421484311
:1025E000E16AB0FBF1F00290216B206CCDE90001B3
:1025F000E369A06AC01AE36AC1181A462DA0029BBB
:1026000001F058F900BF08F101082D98404596DC0B
:10261000B9F1000F8BD100202FB0BDE8F08F000082
:10262000746872656164000030520008202D2D2D01
:1026300020202D2D2D2D2D2D2D202D2D2D2D2D2DF1
:102640002D2D2D2D202D2D2D2D2D2D2D2D2D2D20D4
:10265000202D2D2D2D2D2D20202D2D2D2D2D2D2DD1
:102660002D2D2D202D2D2D0A00000000252D2A2E88
:102670002A7320253364200020726561647920204C
:10268000000000002073757370656E640000000028
:1026900020696E69742020200000000020636C6FA8
:1026A00073652020000000002072756E6E696E67F1
:1026B0000000000020307825303878203078253030
:1026C0003878202020202530326425252020203015
:1026D000782530387820253033640A002DE9F0471A
:1026E00090B000270FF2B409082303AA0A210BA80F
:1026F000FFF722FD4FF008084A46414629A001F0A5
:10270000D9F8404600F0B4FB30A001F0D3F800BF88
:102710000BA93846FFF725FD074600262DE003A844
:1027200050F82600A0F10C04FDF71EFD8246207A29
:1027300020F080009DF83410884203D05046FDF709
:1027400017FD19E05046FDF713FD2546D5E90901AF
:102750002B460822CDE90001414625A001F0AAF848
:10276000687A00F0010018B127A001F0A3F802E098
:1027700028A001F09FF800BF761C0F98B042CEDC75
:10278000002FC5D101F0B0FE0446214625A001F07E
:1027900091F8002010B0BDE8F087000074696D6505
:1027A00072000000252D2A2E732020706572696F3B
:1027B00064696320202074696D656F757420202022
:1027C00020202020666C61670A000000202D2D2D3E
:1027D0002D2D2D2D2D2D2D202D2D2D2D2D2D2D2D36
:1027E0002D2D202D2D2D2D2D2D2D2D2D2D2D0A0076
:1027F000252D2A2E2A7320307825303878203078FD
:102800002530387820000000616374697661746552
:10281000640A000064656163746976617465640AC2
:102820000000000063757272656E74207469636BDA
:102830003A3078253038780A0000000010B5FEF7ED
:1028400029F9002010BD10B5044600F02DFDFFF75A
:10285000F5FF10BD70B504460D46002615480078FA
:10286000012800D170BD2146304602F06BF90646C2
:102870000121304602F066F906460021304602F09A
:1028800061F906460121304602F05CF906462DB991
:102890000021304602F056F9064604E00121304698
:1028A00002F050F9064632460321072002F094FB5D
:1028B0000120D7E75800002070B504460E460025D9
:1028C00012480078012800D170BD2146284602F048
:1028D00039F905460421284602F034F9054600215D
:1028E000284602F02FF905460121284602F02AF970
:1028F00005463146284602F025F905462A460321B9
:10290000072002F069FB0120DEE7000058000020EC
:102910002DE9F041064688461446002718480078FD
:10292000012801D1BDE8F0813146384602F00AF9AC
:1029300007460021384602F005F907462546E0170C
:1029400004EB1060C0F30721384602F0FBF807469D
:10295000E01704EB10600012A4EB0020C1B238466F
:1029600002F0F0F8074622464146384602F0D6F813
:1029700007463A460321072002F02EFB0120D1E74B
:102980005800002070B505460C4600261A4800780D
:10299000012800D170BD2946304602F0D3F8064622
:1029A0000221304602F0CEF806460021304602F001
:1029B000C9F806460421304602F0C4F80646210E46
:1029C000304602F0BFF80646C4F30741304602F035
:1029D000B9F80646C4F30721304602F0B3F80646BC
:1029E000E1B2304602F0AEF8064632460321072037
:1029F00002F0F2FA0120CDE75800002002461078DC
:102A0000704710B503460C461846FEF7DDFD10BDB5
:102A100010B5002203211C2002F0DEFA10BD0000D8
:102A20000178012912D10B4A1172417801F5FA613E
:102A3000118081789170C178D170017911714179DB
:102A4000517181799171C179D17102E00021014AFE
:102A50001172704708A1002010B51CA000F02AFFD9
:102A60001F4801781FA000F025FF1D48007800F0E6
:102A7000010010B121A000F01DFF1948007800F0FE
:102A8000020010B120A000F015FF1548007800F0FA
:102A9000080010B11FA000F00DFF1148007800F0F1
:102AA000100010B11EA000F005FF0D48007800F0E6
:102AB000800030B10A480C3001681CA000F0FAFE1A
:102AC00002E01EA000F0F6FE10BD00006D656D2056
:102AD0006D616E616765206661756C743A0A00000D
:102AE00028ED00E05343425F434653525F4D465347
:102AF000523A307825303258200000004941434393
:102B000056494F4C200000004441434356494F4C26
:102B1000200000004D554E53544B455252200000AA
:102B20004D53544B45525220000000005343422D58
:102B30003E4D4D41523A253038580A000A000000F7
:102B40002DE9F04781460026002799F8000028B9B2
:102B50000021084600F0A8F8BDE8F0871B4804688B
:102B600027E006221AA12068FDF7C4FB00B11FE090
:102B7000206800F106084846FDF7ACFB8246524645
:102B800041464846FDF7B6FB88B926B94746384660
:102B9000FDF7A0FB06464146384602F053F80546CD
:102BA000B54200DA2E4641460BA000F083FE00BF7E
:102BB00008340A4800688442D3D327B132463946E4
:102BC000484601F0ECF900BFC6E70000F000002025
:102BD0005F5F636D645F000025730A00F4000020EE
:102BE00038B504460D4601E0641C6D1E207820288F
:102BF000FAD020780928F7D00DB9002038BD6A46F0
:102C000029462046FEF7D8FA08B90098F6E720468C
:102C100000E0401C0178202902D001780029F8D179
:102C200000210170214603A000F044FE4FF0FF3068
:102C3000E4E7000025733A20636F6D6D616E6420D8
:102C40006E6F7420666F756E642E0A002DE9F04178
:102C500006460D4600271048046815E006220FA11D
:102C60002068FDF747FB00B10DE02168881D2A466A
:102C70003146FDF73FFB28B9A81D2168085C08B95B
:102C8000676805E000BF0834064800688442E5D361
:102C900000BF3846BDE8F081F00000205F5F636D43
:102CA000645F0000F400002070B505460E460EA0DB
:102CB00000F000FE134804680DE0062212A120680F
:102CC000FDF718FB00B105E02068811D10A000F0A1
:102CD000F1FD00BF08340F4800688442EDD30EA018
:102CE00000F0E8FD002070BD52542D5468726561FB
:102CF00064207368656C6C20636F6D6D616E6473C6
:102D00003A0A0000F00000205F5F636D645F00001E
:102D100025732000F40000200A0000000120704705
:102D20002DE9F04782460E4690465446002500277E
:102D300055E003E000202070641C6D1C20782028E2
:102D400002D02078092801D1B542F3D3082F12D33D
:102D500026A000F0AFFD4FF0000906E058F829105A
:102D60002AA000F0A7FD09F10109B945F6D326A074
:102D700000F0A0FD35E0B54200D332E020782228F3
:102D80001CD1641C6D1C48F827407F1C09E020788A
:102D90005C2804D16078222801D1641C6D1C641C5D
:102DA0006D1C2078222801D0B542F0D3B54200D363
:102DB00017E000202070641C6D1C10E048F82740CC
:102DC0007F1C01E0641C6D1C2078202804D0207832
:102DD000092801D0B542F5D3B54200D301E0B54290
:102DE000A7D300BF3846BDE8F0870000546F6F20BE
:102DF0006D616E7920617267732021205765206FA5
:102E00006E6C79205573653A0A0000002573200026
:102E1000F0B505460E4613462A46344605B10EB9AE
:102E20000020F0BDA24202D9E018904208D2002151
:102E300003E0605C5054481C81B29942F9DB07E022
:102E4000194603E0481E275C175481B20029F9DCBB
:102E50002846E6E70146002209B900207047002213
:102E600000E0521C11F8013B002BFAD11046F5E7A7
:102E700010B5044602E004A000F01CFD201EA4F1E1
:102E80000104F8D110BD00002D00000030B51A4C2F
:102E9000436824681919884215D04B889BB9174B91
:102EA0001B6899420FD0164B1B688B4201D1144B03
:102EB00018604B684360104B1B68C31A0E4D4C687A
:102EC0002D682C44A3600C4C836824681A19824234
:102ED00011D053887BB90A4B1B68834201D1084B40
:102EE0001A6043685360044B1B68D31A024D446850
:102EF0002D682C44A36030BD6400002068000020D1
:102F00006C0000202DE9F04F86B00D469C46DDE9AF
:102F1000106401960F9B04F04008B8F1000F02D036
:102F2000DFF8708101E0DFF87081CDF8008004F0F7
:102F30001008B8F1000F01D024F0010404F00108DA
:102F4000B8F1000F02D04FF0300801E04FF0200838
:102F5000C246002704F00208B8F1000F11D0002A81
:102F600002DA2D2752420CE004F00408B8F1000FF9
:102F700001D02B2705E004F00808B8F1000F00D0BD
:102F80002027002142B94FF0300B8846491C0DF133
:102F9000080909F808B01DE01AE0E146B9F10A0F86
:102FA00008D14FF00A0BB2FBFBFE0BFB1E28B2FB55
:102FB000FBF202E002F00F08120900BFDDF80090FA
:102FC00019F808B08846491C0DF1080909F808B03D
:102FD000002AE2D1B14200DD0E469B1B04F011082D
:102FE000B8F1000F10D117B1002B00DD5B1E06E019
:102FF000A84203D24FF0200880F80080401CB3F1B3
:103000000008A3F10103F3DC27B1A84200D2077046
:103010005B1E401C04F01008B8F1000F0AD104E058
:10302000A84201D280F800A0401CB3F10008A3F12F
:103030000103F5DC06E0A84203D24FF0300880F827
:103040000080401CB046761E8845F4DC08E0A842AB
:1030500005D20DF1080818F8018080F80080401CA6
:10306000B1F10008A1F1010104DDDDF80480B8F13F
:10307000000FECD106E0A84203D24FF0200880F800
:103080000080401CB3F10008A3F10103F3DC06B09B
:10309000BDE8F08F61510008505100083EB5002492
:1030A000002000900190029034A0FFF7D3FE85B27B
:1030B0002A4632A1204601F031FDC4B231A0FFF70B
:1030C000C9FE85B22A462FA1204601F027FDC4B2D1
:1030D00031A0FFF7BFFE85B22A462FA1204601F09E
:1030E0001DFDC4B22EA0FFF7B5FE85B22A462CA165
:1030F000204601F013FDC4B22BA0FFF7ABFE85B252
:103100002A4629A1204601F009FDC4B228A0FFF7F4
:10311000A1FE85B22A4626A1204601F0FFFCC4B2DA
:103120000A2224A16846FDF7F3FF6846FFF792FEE6
:1031300085B22A466946204601F0F0FCC4B200225E
:103140001FA16846FDF7E4FF6846FFF783FE85B2DE
:103150002A466946204601F0E1FCC4B21AA0FFF7F6
:1031600079FE85B22A4618A1204601F0D7FCC4B2E8
:1031700022460321012001F02FFF3EBD7B22702259
:103180003A22000067716C6E7A6561656A356B681A
:103190006A77743700000000222C2276223A22003F
:1031A000312E302E30000000222C226D223A0000F9
:1031B000320000002C226D74223A256400000000C9
:1031C0002C226E223A2564007D00000008E04FF0BA
:1031D000FF310448006800F046FE0120FEF7A4FB22
:1031E000F5E700003000002010B54FF48071024870
:1031F000FDF7E5FA10BD00000010014010B54FF4D6
:1032000080610248FDF7DBFA10BD000000100140AC
:1032100010B54FF400710248FDF7DAFA10BD000056
:103220000010014010B54FF400610248FDF7D0FADC
:1032300010BD0000001001401CB514200A214FF4FD
:1032400080730022CDE90010044905A000F08BFF37
:103250000446204601F0B2F81CBD000047280008D3
:103260006D61696E0000000070B504460D4604FBF8
:1032700005F000F091FB06462EB104FB05F200219B
:10328000304600F060FC304670BD000010B5044CC4
:1032900002E020688047241D02488442F9D310BD13
:1032A000785200087C52000810B5044C02E02068F7
:1032B0008047241D02488442F9D310BD7C52000887
:1032C0008452000810B5FCF74FFF044604480088FC
:1032D000401C00B2024908802046FCF749FF10BD9F
:1032E000BC00002010B5FCF73FFF04460C480088E6
:1032F000401E00B20A4908800846B0F900000028C4
:103300000ADC002008802046FCF732FF05480068F0
:1033100028B100F0CFFC02E02046FCF729FF10BDE9
:10332000BC000020C000002070B5054605B970BD86
:103330001D480068854203D31C480068854200D3BD
:10334000F5E7A5F10C044FF0FF31194800F08BFDB3
:10335000608818B12088B0F5F55F08D015A000F09E
:10336000A9FA23886288214619A000F0A3FA002058
:1033700060804FF4F550208021480068844201D2DB
:103380001F480460084960680968611A401A1D49AD
:103390000968081A1B4908602046FFF777FD0448B2
:1033A00000F044FD00BFC2E7640000206800002078
:1033B000A0A30020746F20667265652061206261A1
:1033C00064206461746120626C6F636B3A0A000070
:1033D0006D656D3A203078253038782C207573650E
:1033E0006420666C61673A2025642C206D616769F2
:1033F0006320636F64653A203078253034780A00A2
:103400006C00002074000020004870470801002074
:103410000048704708A1002070B5224800684FF4AA
:103420007A72B0FBF2F1B1F1807F00D31DE021F0A0
:103430007F40401E4FF0E022506150170F220028BD
:1034400007DA13071D0E184B00F00F04241F1D553B
:1034500003E013071C0E154B1C5400BF00204FF057
:10346000E02290610720106100BF01201049086030
:10347000FDF7EEFC01F010FDFDF7EEF9FDF7EAFBBC
:10348000FDF786F8FDF7A8F9FDF7C6F9FFF7FEFE90
:10349000FFF7BEFF0446FFF7B7FF0546214600F0E1
:1034A00099FD70BD0000002018ED00E000E400E090
:1034B000140C014010B54FF0FF3420210B48FDF7EC
:1034C00047FD20B10948FDF70BFE04460BE008213B
:1034D0000648FDF73DFD18B140210448FDF7A2FC68
:1034E0000A2000F068FEE0B210BD00000038014084
:1034F00010B50446FFF7E6FE19E020780A280AD145
:103500000D210E48FDF7F1FD00BF80210B48FDF7AE
:103510001FFD0028F9D014F8011B0848FDF7E5FD50
:1035200000BF80210548FDF713FD0028F9D0207861
:103530000028E2D1FFF7D6FE10BD000000380140A0
:1035400070B505462C1D3048006838B128462E4914
:1035500009688847064606B970BD00BF2BA0E16B1D
:1035600000F0A8F92DA0216A00F0A4F92FA0616A4B
:1035700000F0A0F931A0A16A00F09CF933A0E16A43
:1035800000F098F935A0216800F094F937A061683F
:1035900000F090F939A0A16800F08CF93BA0E16837
:1035A00000F088F93DA0216900F084F93FA061692D
:1035B00000F080F941A0A16900F07CF943A0E16925
:1035C00000F078F945A0216B00F074F947A0616B19
:1035D00000F070F949A0A16B00F06CF9287800F0B8
:1035E000040048B100F0C2FE0646314647A000F094
:1035F00061F9FEF781FF02E04CA000F05BF9FEF7F5
:1036000079FC00BFFEE70000EC0000207073723A06
:10361000203078253038780A000000007230303AC7
:10362000203078253038780A000000007230313AB6
:10363000203078253038780A000000007230323AA5
:10364000203078253038780A000000007230333A94
:10365000203078253038780A000000007230343A83
:10366000203078253038780A000000007230353A72
:10367000203078253038780A000000007230363A61
:10368000203078253038780A000000007230373A50
:10369000203078253038780A000000007230383A3F
:1036A000203078253038780A000000007230393A2E
:1036B000203078253038780A000000007231303A26
:1036C000203078253038780A000000007231313A15
:1036D000203078253038780A000000007231323A04
:1036E000203078253038780A00000000206C723ACB
:1036F000203078253038780A000000002070633AC6
:10370000203078253038780A000000006861726443
:10371000206661756C74206F6E20746872656164D8
:103720003A2025730D0A0D0A0000000068617264DA
:10373000206661756C74206F6E2068616E646C65C4
:10374000720D0A0D0A000000F0B504460D4616463B
:10375000301D20F0070040380146002203E00C4FE6
:1037600041F82270521C102AF9D30D624FF0000C60
:10377000C1F824C0C1F828C0C1F82CC0C1F830C0BD
:103780004B638C634FF0807CC1F83CC0F0BD0000FF
:10379000EFBEADDE30B5014601B930BD4FF0E024DB
:1037A00064694FF47A75B4FBF5F404FB01F24FF051
:1037B000E024A06900BF4FF0E024A469844204D251
:1037C0004FF0E024A469031B07E04FF0E024646994
:1037D00004444FF0E025AD69631B9342EBD300BF77
:1037E000DBE7000010B5FCF7BFFC04460448007896
:1037F000401C034908702046FCF7BAFC10BD0000CD
:103800006000002010B5FCF7AFFC044604480078C7
:10381000401E034908702046FCF7AAFC10BD0000BA
:103820006000002070B504462068A0F11405284609
:1038300000F07EFD002070BD2DE9F04105460C46EC
:103840009046204600F0D0FDB8F1000F03D0B8F14B
:10385000010F23D105E004F11401284600F060F8BF
:103860001CE02E680FE0A6F1140794F8350097F8D5
:103870003510884206DA04F1140107F1140000F053
:103880004FF802E03668AE42EDD100BFAE4204D13F
:1038900004F11401284600F043F800BF00BF0020E7
:1038A000BDE8F08110B5044604F1140000F01AF8E8
:1038B000002010BD0FB438B505A800907F2108483E
:1038C000009B049A00F044FF04467F2C00D97F241B
:1038D0000348FFF70DFE0020009038BC5DF814FB94
:1038E00020A3002040600060704740600060704787
:1038F0004060006070470268516002680A600160C1
:10390000486070470268516002680A600160486060
:1039100070470268516002680A6001604860704741
:103920004268116042684A60416008607047014621
:103930000868884201D1012070470020FCE7014659
:103940000868884201D1012070470020FCE7014649
:103950000868884201D1012070470020FCE7014639
:1039600000200A4601E01268401C13688B42FAD11D
:103970007047D0E900215160D0E900121160406029
:1039800000607047D0E900215160D0E90012116059
:1039900040600060704700002DE9F041054615B910
:1039A0000020BDE8F081E81C20F003054E480068C7
:1039B000854201D90020F4E70C2D00D20C254FF0F0
:1039C000FF314A4800F04FFA494800684949096800
:1039D000461A7EE04748006884196088002874D140
:1039E00006F10C006168081AA8426ED306F10C00BB
:1039F0006168091A05F11800814230D306F10C0004
:103A000000EB05083B48006800EB08074FF4F55051
:103A100038800020788060687860BE60C4F80480D8
:103A2000012060803048796800680C30814205D000
:103A30003049786809680844C0F808802E48016851
:103A400005F10C0008442C4908602C4800680968FE
:103A5000884219D2284800682849086014E00120EB
:103A60006080244960680968611A401A224909681F
:103A7000084421490860214800680968884203D247
:103A80001D4800681D4908604FF4F5502080184813
:103A90000068844212D107E0154800684068154963
:103AA000096808441249086011480068408828B134
:103AB0000F480068124909688842EDD10B4800F0B0
:103AC000B5F904F10C006CE7FFE70A4800683044E0
:103AD000466805480068401BB0423FF67BAF03488C
:103AE00000F0A4F900205CE770000020A0A30020F3
:103AF0006C0000206400002074000020780000208A
:103B00006800002070B50C46014623468B4210D257
:103B10009D188D420DD91144134405E05D1E2B46BE
:103B20002E784D1E29462E70151EA2F10102F5D1E8
:103B300008E003E013F8015B01F8015B151EA2F138
:103B40000102F7D170BDF0B50C460546E6B2042A75
:103B500015D300F0030797B9014646EA062343EA66
:103B6000034304E008C108C108C108C1103A102A83
:103B7000F8D201E008C1121F042AFBD20D4601E071
:103B800005F8016B171EA2F10102F9D1F0BD2DE974
:103B9000F04106460F46304600F044F80546E86816
:103BA000FFF7FAFE044614B90020BDE8F0810021B9
:103BB0002046EA68FFF7C7FF2672002060720822DD
:103BC0003946204600F0EBF9FCF7CEFA804604F1C6
:103BD0000C01281DFFF78FFE4046FCF7C9FA20466E
:103BE000E3E770B5044600202072FCF7BDFA0546F5
:103BF00004F10C00FFF7BDFE2846FCF7B9FA204699
:103C0000FFF792FB70BD70B5044600202072FCF7F0
:103C1000ABFA054604F10C00FFF7ABFE2846FCF7B3
:103C2000A7FA70BD024600210AE0074800EB011028
:103C30000078904203D1044800EB01107047491C02
:103C40000429F2DB0020F9E77C0000202DE9F04791
:103C500004460D46904600262846FFF7E3FF074638
:103C6000FFF730FB7E6802E0A6F10C003668381DD5
:103C70008642F9D1FFF736FB45F08000207208221A
:103C80004146204600F08BF9FCF76EFA814604F1BC
:103C90000C01381DFFF72FFE4846FCF769FABDE816
:103CA000F0870146087A00F0800008B101207047D3
:103CB0000020FCE72DE9F041FCF756FA07461848CA
:103CC000008838BB17480068FDF736FA461E1648CC
:103CD00050F83600A0F1140414480068844218D04B
:103CE00013490E701148056804601248007850B9F5
:103CF00004F11C0105F11C00FCF73DFA3846FCF705
:103D000037FABDE8F08104F11C0105F11C00FCF755
:103D100032FA00BF3846FCF72BFA00BFF1E700008B
:103D2000BC000020C8000020C0A30020C00000206C
:103D3000C40000206000002070B50446FCF714FAAF
:103D4000054614F8340F20F00F0040F001002070F9
:103D50006278343C0A4B03EBC20004F11401426860
:103D6000116042684A604160086000BF0549A06B6D
:103D700009680843034908602846FCF7F9F970BD53
:103D8000C0A30020C800002070B50446FCF7ECF981
:103D9000054604F11400D0E900215160D0E9001279
:103DA00011604060006000BF94F83510094A02EBD2
:103DB000C1000168814201D1012100E0002129B147
:103DC0000548A16B00688843034908602846FCF752
:103DD000CFF970BDC0A30020C80000202DE9F0413C
:103DE00005460E46174629460220FFF7D0FE044638
:103DF00014B92046BDE8F0812046FFF753FDA683A5
:103E000067722046F6E72DE9F04104460D46164656
:103E10001F462A4602212046FFF718FF2046FFF7DB
:103E200041FDA68367720020BDE8F08170B50446AD
:103E30000025FCF799F9064604F11400FFF777FD19
:103E400028B904F11400FFF7EDFC012502E0A08B76
:103E5000401CA0833046FCF78BF9012D01D1FFF700
:103E600029FF002070BD73B50546FCF77DF90646B5
:103E7000A88B002806DDA88B401EA8833046FCF7DF
:103E800077F928E0019828B93046FCF771F96FF00E
:103E900001007CBD00F06AFA0446002020636A7AC3
:103EA000214605F11400FFF7C7FC0198002809DD41
:103EB00001AA002104F1440000F072FB04F1440067
:103EC00000F0B2FB3046FCF753F9FFF7F3FE206B2E
:103ED00008B1206BDDE70020DBE7000008B509A092
:103EE000FFF7E8FC0AA0FFF7E5FC12A0032301227C
:103EF0001946009012A0FFF7DDFC19A0FFF7DAFCCD
:103F000008BD00000A205C207C202F0A0000000071
:103F10002D205254202D20202020205468726561CD
:103F200064204F7065726174696E67205379737491
:103F3000656D0A004D61722032342032303231001A
:103F4000202F207C205C202020202025642E25642A
:103F50002E2564206275696C642025730A000000B8
:103F60002032303036202D203230313920436F70EE
:103F70007972696768742062792072742D7468722E
:103F8000656164207465616D0A00000001460A469F
:103F900000E0521C10780028FBD1501A704770B511
:103FA0000346A2B118460C4600BF14F8016B00F896
:103FB000016B3EB902E0002500F8015B551E2A1E88
:103FC000F9D102E0551E2A1EEFD100BF00BF1846EE
:103FD00070BD00002DE9F04105460E46E81C20F0BA
:103FE000030726F00308B8F1180F09D9A8F1180043
:103FF000B84205D3A8EB070018381E49086006E050
:10400000324629461CA0FFF755FCBDE8F08129483F
:10401000076004684FF4F5502080164800680C30A3
:1040200060600020A06060802249606809680844E0
:10403000214908604FF4F5500968088001201E49A5
:10404000096848800B4800680C301B4909684860C3
:10405000084800680C30184909688860002301226C
:1040600016A11848FFF7CFFE1248006816490860ED
:1040700000BFCAE7700000206D656D20696E69742D
:104080002C206572726F7220626567696E206164B0
:10409000647265737320307825782C20616E6420FB
:1040A000656E64206164647265737320307825786E
:1040B0000A0000006400002068000020686561704C
:1040C00000000000A0A300206C00002010B500201C
:1040D0000B490880002405E00A4901EBC400FFF702
:1040E00004FC641C202CF7DB1F200749087000200B
:1040F00006490860064908600648FFF7F6FB10BD50
:10410000BC000020C0A30020C4000020C00000208C
:10411000C8000020CC00002070B508480068FDF7FA
:104120000BF8451E064850F83500A0F11404054868
:10413000046004F11C00FCF74CF870BDC8000020BE
:10414000C0A30020C000002010B5002405E00449F1
:1041500001EBC400FFF7CCFB641C002CF7D010BDB2
:10416000D400002070472DE9FF5F06460F469046B9
:104170001D46DDE90EAB31460120FFF708FD814603
:10418000B9F1000F03D1002004B0BDE8F09F28462C
:10419000FFF702FC044624B94846FFF722FD002041
:1041A000F2E743463A46314648468DE8300CFDF783
:1041B000E3F84846E8E710B50446204600F0DCF88E
:1041C00010BD000070B512480468FBF7CDFF05462E
:1041D0002046FFF7D9FD042084F8340004F14400A0
:1041E00000F0FAF92046FFF75CFD012805D1206FA9
:1041F00018B92046FFF707FD04E004F11401054853
:10420000FFF780FB2846FBF7B3FFFFF753FD70BDB8
:10421000C0000020CC00002001E000F001F8FCE725
:1042200070B53AE0FBF7A0FF0546FCF7BBFF30B3E3
:104230001D480068A0F1140404F11400D0E9002125
:104240005160D0E9001211604060006000BFFFF7CC
:1042500039F8206F10B12046216F88472046FFF7BC
:1042600020FD012808D12046FFF7CDFCFFF73AF8E2
:104270002846FBF77DFF70BDFFF734F803E02846C2
:10428000FBF776FFF7E72846FBF772FFA06AFFF718
:104290004BF82046FFF7A5FC00BFFCF783FF002882
:1042A000C0D100BFE7E70000CC0000201FB52020F0
:1042B0001F21C200074BCDE90032CDE902100023D7
:1042C000054A06A1074800F00FF8064800F076F806
:1042D0001FBD000020A20020194200087469646C10
:1042E00065000000A8A100202DE9FF5F05460C46EF
:1042F00016461F46DDE910ABDDE90E892246012195
:104300002846FFF7A3FC3B463246214628468DE867
:10431000000FFDF731F804B0BDE8F09F70B504461A
:10432000204600F0C5F80546284600F025F870BD87
:1043300070B5044694F8340000F00F00022802D053
:104340004FF0FF3070BDFBF70FFF054604F114007E
:10435000FFF718FB04F1440000F0E2F92846FBF7F0
:1043600007FF2046FFF7E8FC0020EBE70148006864
:1043700070470000C000002031B5FBF7F5FE054690
:104380000D480468204600F02FF86A46002104F129
:10439000440000F005F904F1440000F045F9284616
:1043A000FBF7E6FEFFF786FC206B801C08B90020B7
:1043B0002063002038BD0000C000002010B5044676
:1043C0003434A078607061780120884060600220F9
:1043D00004F834092046FFF7ABFFFFF7C7FF08B129
:1043E000FFF768FC002010BD70B5044694F8340057
:1043F00000F00F00012802D04FF0FF3070BDFBF736
:10440000B3FE054694F8340020F00F0040F002009F
:1044100084F834002046FFF7B7FC04F1440000F0B4
:104420007FF92846FBF7A4FE0020E7E770B50446B5
:1044300025466FF00100286305F11400FFF7A2FA8A
:104440002846FFF779FCFFF735FC70BD70B5FBF728
:104450008BFE05461448046894F8340000F00F0001
:1044600001281CD1D4E90510814218D004F11400B0
:10447000FFF788FA94F835200C4B03EBC20004F1E7
:1044800014014268116042684A604160086000BFE0
:104490002846FBF76DFEFFF70DFC002070BD284697
:1044A000FBF766FE0020F9E7C0000020C0A3002053
:1044B0000146002902DA4FF0FF3014E04FF47A721F
:1044C00091FBF2F24FF47A7302FB03F01A4691FB70
:1044D000F2F302FB13124FF47A735A4302F2E732FB
:1044E00092FBF3F2104470470148006870470000E7
:1044F0005C00002010B50A480068401C08490860AC
:10450000FFF734FF0446206C401E2064206C18B96D
:10451000E06B2064FFF79AFF00F004F810BD000084
:104520005C00002070B5FFF7DFFF0546FBF71CFEBF
:10453000064628E019480068A0F11404A06A281A69
:104540006FF0004188421DD22046FCF778FFD4E985
:1045500007108847FFF7C8FF0546607A00F00200A1
:1045600058B1607A00F0010038B1607A20F00100A3
:104570006072204600F058F805E0607A20F00100F3
:10458000607200E004E00548FFF7D9F90028D1D0B7
:1045900000BF3046FBF7ECFD70BD0000D4000020EA
:1045A000034649B1012904D0022908D0032910D1BA
:1045B0000AE0586A10600CE01068586209E0587A06
:1045C00020F00200587204E0587A40F0020058725D
:1045D00000BF00BF0020704770B50446FBF7C4FD64
:1045E00005462046FCF72BFF2846FBF7C1FD204679
:1045F000FFF709FB002070BD2DE9F84307460C4684
:1046000015461E46DDE9088922460A213846FFF78D
:104610001DFB4346324629463846CDF80090FCF74C
:10462000EDFEBDE8F88300002DE9F8430546FBF7F1
:104630009BFD80462846FCF702FF687A20F00100C7
:1046400068724046FBF794FDFFF74EFF696A084425
:10465000A862FBF789FD80462F4F009700242AE0CF
:1046600019E05DF824201168142202EBC402881AB4
:10467000826AAB6AD21A00D108E0826AAB6AD21AA7
:104680006FF000439A4200D20CE000BF5DF82400B6
:1046900000684DF824005DF8240007EBC401496868
:1046A0008842DED100BF2CB15DF824000830611CC7
:1046B0004DF82100641C002CD2D018480068401C22
:1046C000164908600846066805F114010098FFF7CE
:1046D00020F9022412E006F0030060B9C4F10103DE
:1046E00005F1140202EBC301C4F101025DF82200DE
:1046F000FFF70FF900E003E0B608641C012CEAD9CB
:1047000000BF687A40F0010068724046FBF730FD58
:104710000020BDE8F8830000D4000020DC00002069
:1047200070B50446607A00F0010010B94FF0FF3018
:1047300070BDFBF719FD05462046FCF780FE2846B4
:10474000FBF716FD607A20F0010060720020EFE7B1
:104750002DE9FF4F89B0804644460A9808EB0006D1
:10476000464504D24FF0FF36A6EB08000A906FE1F1
:104770000B980078252806D0B44202D20B98007816
:104780002070641C61E1002526E00B98401C0B9012
:104790000B9800782D2802D145F010051CE00B98ED
:1047A00000782B2802D145F0040515E00B9800781D
:1047B000202802D145F008050EE00B980078232848
:1047C00002D145F0200507E00B980078302802D18F
:1047D00045F0010500E000E0D7E700BF4FF0FF37EC
:1047E0000B98007830380A2804D20BA800F0E6F9BC
:1047F00007460EE00B9800782A280AD10B98401C37
:104800000B900C9880C80C90002F02DA7F4245F084
:1048100010054FF0FF390B9800782E281CD10B980B
:10482000401C0B900B98007830380A2804D20BA853
:1048300000F0C4F981460AE00B9800782A2806D1D6
:104840000B98401C0B900C9850F8049B0C90B9F1FD
:10485000000F01DA4FF00009002004900B98007857
:10486000682803D00B9800786C2805D10B98007845
:1048700004900B98401C0B900A2005900B98007830
:104880006F2875D00CDC632813D004DC252870D089
:1048900058286FD18DE064286DD06928F9D18FE058
:1048A00070286AD0732825D0752878D07828F0D160
:1048B00082E005F0100040B904E0B44201D22020AB
:1048C0002070641C781E071EF7DC0C9810F8041B7F
:1048D0000C90C8B20790B44201D207982070641CB3
:1048E00004E0B44201D220202070641C781E071E10
:1048F000F7DCAAE00C98006806900C98001D0C905C
:10490000069808B95CA006900698FFF73FFB83461F
:10491000B9F1000F02DDCB4500DDCB4605F01000FC
:1049200048B904E0B44201D220202070641C38460B
:104930007F1E5845F6DC002008900BE0B44202D2FE
:10494000069800782070641C0698401C0690089811
:10495000401C089008985845F0DB04E0B44201D2AE
:1049600020202070641C38467F1E5845F6DC6CE021
:104970001CE015E028E022E0FFE7781C10B90827CA
:1049800045F00105CDE9007902950C9804C8102383
:1049900031460C902046FEF7B5FA044655E012E089
:1049A000B44201D225202070641C4EE008200590FE
:1049B0001DE045F0400500BF1020059017E000BF46
:1049C00045F0020500BF12E0B44201D2252020705C
:1049D000641C0B98007830B1B44202D20B98007876
:1049E0002070641C02E00B98401E0B902DE000BF6D
:1049F00004986C2807D10C9850F804AB0C9005F083
:104A00000200B8B116E0049868280BD10C9830F871
:104A1000041B1FFA81FA0C9005F0020050B10FFA46
:104A20008AFA07E00C9850F804AB0C9005F00200ED
:104A300000B100BFCDE900790295524631462046CB
:104A4000059BFEF75FFA044600BF0B98401C0B90D5
:104A50000B98007800287FF48BAE0A9838B1B442E6
:104A600002D20020207002E0002006F8010CA4EB26
:104A700008000DB0BDE8F08F284E554C4C290000C1
:104A800000207047002070470020704700207047CA
:104A900010B5FBF769FBFEF7BFFCFFF71FFAFFF746
:104AA00053FBFFF713FBFEF7C7FBFFF75BFBFFF7BB
:104AB000FDFBFFF731FB002010BD000010B51021F9
:104AC0000148FBF787FE10BD0008014010B54FF408
:104AD00080710248FBF77EFE10BD0000001001400F
:104AE00010B54FF480610248FBF774FE10BD000062
:104AF0000010014010B54FF400710248FBF76AFE48
:104B000010BD00000010014010B54FF400610248D4
:104B1000FBF760FE10BD0000001001402DE9F041E0
:104B200004460E461546064807192A4631463846B9
:104B3000FEF76EF9601984B22046BDE8F0810000EE
:104B400076A10020024B1A181170431C98B27047CE
:104B500076A1002070B5044609A0FEF7ABFEFEF773
:104B6000DDF8012802D12046FDF7EAFFFCF7E2FE5E
:104B700005462246294603A0FEF79CFE70BD0000B4
:104B80000A000000257325730000000070B504467C
:104B900025680CE0A5F11406314606A0FEF78AFE52
:104BA0002868A04202D004A0FEF784FE2D68A5422A
:104BB000F0D170BD257300002F00000001460020D9
:104BC00009E00B685A1C0A601A7800EB800302EBBC
:104BD0004302A2F130000A681278303A0A2AF0D370
:104BE0007047000010B520210148FBF7F3FD10BD10
:104BF0000008014070B50446FFF7F4FFFFF75EFFC1
:104C0000002503E000F006F8681CC5B2A542F9DBF8
:104C100070BD000010B500240FE040210848FBF7EC
:104C2000D9FD0220FEF7B6FD40210548FBF7D0FD77
:104C30000220FEF7AFFD601CC4B2C82CEDDB10BD36
:104C40000008014010B503461A4601E0521C491CF9
:104C5000107828B1087818B110780C78A042F5D0F7
:104C6000D01A10BD0B4909680B4A126891420FD047
:104C700008490A6809498A4202D31739054A11606E
:104C800004490968087803490968491C014A116008
:104C900070470000540000205000002070A1002048
:104CA00040F2E4701F49088001208870C87000201D
:104CB0000871487188710120C8710020087230E0C5
:104CC0004FF47A70FFF72AFB16488079401C15498B
:104CD00088710846007A012801D0FDF799FE114835
:104CE00080793C281DDB00200E49887108464079F8
:104CF000401C4871084640793C2812DB002048716E
:104D000008460079401C087108460079182808DB1D
:104D10000020087100BFFDF77BFE0248007A0128E1
:104D2000F9D1CDE708A1002004E03220FFF743FAD3
:104D300000F0C4F8F9E7000012490968124A126845
:104D4000891A01291CD0104909680E4A126891423B
:104D500006D90D4909680B4A1268891A17290FD21A
:104D600009490A6809498A4202D31739064A11607B
:104D700005490968087004490968491C024A11601C
:104D800070470000540000205000002070A1002057
:104D900010B5044621460248FCF7ABF910BD0000EF
:104DA0000044004010B51EA0FEF784FD2048018895
:104DB00020A0FEF77FFD1E48008800F0010010B122
:104DC00022A0FEF777FD1A48008800F0020010B11B
:104DD00021A0FEF76FFD1648008800F0040010B116
:104DE00020A0FEF767FD1248008800F0080010B10F
:104DF0001EA0FEF75FFD0E48008800F4807010B121
:104E00001CA0FEF757FD0A48008800F4007010B19E
:104E10001BA0FEF74FFD05A0FEF74CFD10BD0000E6
:104E20007573616765206661756C743A0A000000ED
:104E30002AED00E05343425F434653525F554653C9
:104E4000523A30782530325820000000554E444503
:104E500046494E5354522000494E565354415445EE
:104E600020000000494E5650432000004E4F435052
:104E700020000000554E414C49474E45442000005B
:104E800044495642595A45524F20000010B5FFF789
:104E900025F8002010BD00000448054908600549B8
:104EA00008600020044908707047000059A10020E4
:104EB00050000020540000205800002070B500244D
:104EC000002509E0FFF7CEFE38490A880988491C09
:104ED000364B198036498854344800881F2803D23D
:104EE00000F09EF80028EDDC30480088072800DA42
:104EF00070BD42E02E48005D552802D0601C84B28F
:104F00003BE02B49601C085CAA2802D0601C84B2DC
:104F100033E02749A01C085C10B1A01C84B22CE02F
:104F20002349201D085C4FF6FF7101EA0025204946
:104F3000601D085CC01D284485B2262D02D9E01CE6
:104F400084B21AE019480088001BA84200DA19E070
:104F50006A1E91B2164A1019FCF772FF6119491EB8
:104F6000134A515C884202D0E01C84B205E020461E
:104F7000FCF746FB601984B200BF0C480088001B98
:104F80000728B7DA00BF09480088001B07490880D6
:104F900008460088002806DD0548011903480288F4
:104FA0000348FDF735FF00BFA2E700004C000020DA
:104FB0003AA1002070B504460D4604B105B970BD94
:104FC00003E02078FFF7E4FE641C281EA5F1010130
:104FD0008DB2F6D100BFF2E72DE9F04105460E464D
:104FE0001446002755200D490870AA20487008462D
:104FF0008670C570201208714C71E01D84B2601E6D
:1050000081B20648FCF71CFF0746601E03490F5497
:1050100021460248FFF7CEFFBDE8F08170A10020D5
:105020000448006804490968884201D0012070479B
:105030000020FCE750000020540000200100020185
:1050400003020404070108011002110212021301F5
:105050000000010002000100030001000200010045
:105060000400010002000100030001000200010031
:105070000500010002000100030001000200010020
:105080000400010002000100030001000200010011
:1050900006000100020001000300010002000100FF
:1050A00004000100020001000300010002000100F1
:1050B00005000100020001000300010002000100E0
:1050C00004000100020001000300010002000100D1
:1050D00007000100020001000300010002000100BE
:1050E00004000100020001000300010002000100B1
:1050F00005000100020001000300010002000100A0
:105100000400010002000100030001000200010090
:10511000060001000200010003000100020001007E
:105120000400010002000100030001000200010070
:10513000050001000200010003000100020001005F
:105140000400010002000100030001000200010050
:1051500030313233343536373839616263646566ED
:1051600000303132333435363738394142434445E3
:1051700046006C6973745F6D656D0068656C6C6F7B
:105180000076657273696F6E005F5F636D645F7652
:10519000657273696F6E006C6973745F74687265B1
:1051A0006164005F5F636D645F6C6973745F7468F2
:1051B00072656164006C6973745F73656D005F5F35
:1051C000636D645F6C6973745F73656D006C6973A4
:1051D000745F6D61696C626F78005F5F636D645FBF
:1051E0006C6973745F6D61696C626F78006C697370
:1051F000745F74696D6572005F5F636D645F6C6995
:1052000073745F74696D6572006C697374005F5FBD
:10521000636D645F68656C70005F5F636D645F7091
:1052200073005F5F636D645F667265650000000018
:10523000252D2A2E73207072692020737461747575
:1052400073202020202020737020202020207374C1
:1052500061636B2073697A65206D61782075736571
:1052600064206C656674207469636B2020657272BB
:105270006F720A008D4A0008854A0008814A0008BA
:10528000E1190008894A0008725100084923000802
:105290007B510008AD1F0008815100088D4E0008A9
:1052A000895100088D4E000897510008F924000824
:1052B000A3510008F9240008B5510008C1230008D3
:1052C000BE510008C1230008CD510008ED2100089F
:1052D000DA510008ED210008ED510008DD26000834
:1052E000F8510008DD26000809520008E1200008F6
:1052F0000E520008A92C000819520008F1150008E8
:1053000022520008E315000828530008000000207E
:105310000801000084110008305400080801002032
:1053200040A800009411000800A24A0400000000F8
:105330000000000001020304060708090000000045
:105340000102030401020304060708090204060817
:10535000000000000000000000000000000000004D
:10536000000000000000000000000000000000003D
:10537000000000000000000000000000000000002D
:10538000000000000000000000000000000000001D
:10539000000000000000000000000000000000000D
:1053A00000000000010000008000002080000020BC
:1053B0007800000002000000900000209000002013
:1053C0002000000005000000A0000020A000002038
:1053D000300000000A000000B0000020B0000020F3
:1053E0002C00000000000000000000000000000091
:1053F00000000000000000000000000000000000AD
:10540000000000000000000000000000000000009C
:10541000000000000000000000000000000000008C
:10542000000000000000000000000000000000007C
:0400000508000131BD
:00000001FF
