:020000040800F2
:1000000040A90020450100084D0100080F0200082A
:1000100051010008530100085501000800000000CC
:100020000000000000000000000000005701000870
:10003000590100080000000097010008E50D0008C4
:100040005F0100085F0100085F0100085F01000810
:100050005F0100085F010008E10400085F0100087B
:100060005F0100085F0100085F0100085F010008F0
:100070005F0100085F0100085F0100085F010008E0
:100080005F0100085F0100085F0100085F010008D0
:100090005F0100085F0100085F0100085F010008C0
:1000A0005F0100085F0100085F0100085F010008B0
:1000B0005F0100085F0100085F0100085F010008A0
:1000C0005F0100085F0100085F0100085F01000890
:1000D0005F0100085F010008550E00085F0100087D
:1000E000090500085F0100085F0100085F010008C2
:1000F0005F0100085F0100085F0100085F01000860
:100100005F0100085F0100085F0100085F0100084F
:100110005F0100085F0100085F0100085F0100083F
:100120005F0100085F0100085F0100085F0100082F
:10013000DFF80CD000F092F900480047D70400081F
:1001400040A900200648804706480047FEE7FEE732
:10015000FEE7FEE7FEE7FEE7FEE7FEE7FEE7FEE777
:10016000F50D000831010008EFF3108072B67047FA
:1001700080F310887047334A1368012B04D04FF086
:1001800001031360304A1060304A116030484FF06C
:10019000805101607047EFF3108272B62948016800
:1001A00091B14FF0000101602748016829B1EFF3D8
:1001B000098121E9F00F0068016024490968096894
:1001C000B1E8F00F81F3098882F310884EF0040E35
:1001D00070471E4908601C494FF00000086019492B
:1001E0004FF0010008601B484FF47F01D0F8002059
:1001F00041EA0201016016484FF080510160164843
:100200000068006880F3088861B662B670471EF027
:10021000040F0CBFEFF30880EFF3098020E9F00F23
:1002200040F804ED1EF0040F0CBF80F3088880F343
:10023000098800B503F026FB5DF804EB4EF0040ED0
:100240007047000010010020080100200C01002070
:1002500004ED00E020ED00E008ED00E040EA0103DD
:100260009B0703D009E008C9121F08C0042AFAD26C
:1002700003E011F8013B00F8013B521EF9D2704730
:10028000D2B201E000F8012B491EFBD270470022D8
:10029000F6E710B513460A4604461946FFF7F0FF85
:1002A000204610BD421E12F8013F002BFBD111F871
:1002B000013B02F8013B002BF9D1704710B5044611
:1002C00004E00B7800F8013B03B1491C521EF8D240
:1002D000204610BD421C10F8011B0029FBD1801ADA
:1002E0007047034611F8012B00F8012B002AF9D1C1
:1002F0001846704730B505460020034600E05B1CF9
:10030000934205D2EC5CC85C201A01D1002CF6D1D6
:1003100030BD30B480EA010202F0004530F0004206
:1003200021F0004013D090B1C30DD40DC2F31601DB
:10033000C0F31600E41A41F4000140F400027D34D9
:10034000914201D3641C00E04900002C02DA30BC69
:10035000002070474FF400000023914201D3891A16
:10036000034340084FEA4101F7D151B1914202D114
:100370004FF0004105E002D24FF0010101E06FF0C3
:10038000010103EBC450284430BC00F02FB8962381
:100390000022114600F033B820F00040C10DC0F338
:1003A000160040F400007F2901DA002070479629EA
:1003B00003DCC1F19601C840704796398840704708
:1003C00030B50B46014600202022012409E021FA25
:1003D00002F59D4205D303FA02F5491B04FA02F522
:1003E0002844151EA2F10102F1DC30BD0029A8BF8E
:1003F0007047401C490008BF20F00100704710B44E
:10040000B0FA80FC00FA0CF050EA010404BF10BC02
:10041000704749B1CCF1200421FA04F411FA0CF12F
:1004200018BF012121430843A3EB0C01CB1D4FEA68
:1004300000614FEA102042BF002010BC704700EB63
:10044000C35010440029A4BF10BC7047401C490091
:1004500008BF20F0010010BC70470000064C074D9B
:1004600006E0E06840F0010394E807009847103484
:10047000AC42F6D3FFF760FEC4580008E458000809
:1004800070B58C1810F8015B15F0070301D110F856
:10049000013B2A1106D110F8012B03E010F8016B83
:1004A00001F8016B5B1EF9D12B0705D40023521E06
:1004B0000DD401F8013BFAE710F8013BCB1A921C6E
:1004C00003E013F8015B01F8015B521EF9D5A1426C
:1004D000D8D3002070BD10B504F07CFC002010BD06
:1004E00010B5012000F020F838B103F01DFB0548DD
:1004F000006803F03DFE03F027FB012000F00EF83A
:1005000010BD00002800002010B54FF4005000F08E
:100510000BF84FF4005000F001F810BD01490860DD
:100520007047000014040140014600200022074BE0
:100530001B6803EA0102054B14331B680B4013B11F
:100540000AB1012000E000207047000000040140D3
:10055000002123498279002A3AD00A4612680368AA
:100560009A430B461A600A1D126803689A430B1DD2
:100570001A60027911440A6803681A430A60184A2B
:100580000832126803689A43154B08331A601A1D23
:10059000126803689A43124B0C331A604279102A8E
:1005A0000ED11A1F126803681A430D4B08331A60E4
:1005B0001A1D126803681A43094B0C331A600DE0C8
:1005C0000749427911440A6803681A430A6005E042
:1005D000027911440A6803689A430A607047000070
:1005E000000401400EB500F04BF80121042000F09A
:1005F00001FA0121102000F0FDF90120ADF80800FA
:1006000004208DF80B0002A91B4800F077F84FF486
:100610000050ADF8080004208DF80B0002A917481F
:1006200000F06CF80121084600F0E4F900210846CA
:1006300000F044F80D21022000F040F80120009065
:1006400000208DF8040008208DF8050001208DF8A9
:1006500006006846FFF77CFF4FF400500090002032
:100660008DF804000C208DF8050001208DF806009F
:100670006846FFF76DFF0EBD000801400010014005
:1006800008B54FF4C06000F09BF906208DF800001B
:1006900001208DF801008DF802008DF803006846F6
:1006A00000F056F928208DF8000001208DF8010097
:1006B0008DF80200684600F04BF908BD30B5002205
:1006C0008B071C0F0F2303FA04F20B4B8C1053F80B
:1006D00024309343084C8D1044F8253023468C1069
:1006E00053F824308C07240F00FA04F42343024CFF
:1006F0008D1044F8253030BD080001402DE9F0414F
:10070000024600250026002000230024002791F83F
:1007100003C00CF00F0591F803C00CF0100CBCF1F5
:10072000000F03D091F802C04CEA050591F800C013
:10073000BCF1000F31D0146800202BE04FF0010C09
:100740000CFA00F3B1F800C00CEA03069E4220D177
:1007500083004FF00F0C0CFA03F7BC4305FA03FCBF
:100760004CEA040491F803C0BCF1280F06D14FF005
:10077000010C0CFA00FCC2F814C00AE091F803C0A6
:10078000BCF1480F05D14FF0010C0CFA00FCC2F887
:1007900010C0401C0828D1D31460B1F800C0BCF1CF
:1007A000FF0F34DD546800202EE000F1080C4FF0FC
:1007B000010808FA0CF3B1F800C00CEA03069E42E7
:1007C00021D183004FF00F0C0CFA03F7BC4305FA5C
:1007D00003FC4CEA040491F803C0BCF1280F05D1D6
:1007E00000F1080C08FA0CF8C2F8148091F803C064
:1007F000BCF1480F07D100F1080C4FF0010808FACE
:100800000CF8C2F81080401C0828CED35460BDE814
:10081000F0810246002093680B400BB1012000E0FC
:1008200000207047416170470161704708B50121A0
:10083000082000F0DFF84FF48070ADF800000420CD
:100840008DF8030003208DF8020069460648FFF783
:1008500055FF10208DF803004001ADF800006946F7
:100860000148FFF74BFF08BD0010014008B501210A
:10087000082000F0BFF84FF48060ADF800000420BD
:100880008DF8030003208DF8020069460648FFF743
:1008900035FF10208DF80300C001ADF80000694657
:1008A0000148FFF72BFF08BD0010014008B50121EA
:1008B000082000F09FF82020ADF8000010208DF8EF
:1008C000030003208DF8020069460F48FFF716FF6A
:1008D0000120ADF8000069460B48FFF70FFF02202A
:1008E000ADF8000069460848FFF708FF20210648D8
:1008F000FFF79AFF01210448FFF796FF0221024803
:10090000FFF792FF08BD0000000C014008B54FF44E
:10091000A06000F055F825208DF8000001208DF82A
:1009200001008DF802008DF80300684600F010F811
:1009300026208DF8000001208DF8010002208DF89E
:10094000020001208DF80300684600F001F808BDA0
:1009500070B5002100230F22C47804B3154C24681D
:1009600004F4E064C4F5E064210AC1F10403CA4060
:10097000447804FA03F184781440214309010E4CB1
:100980000678A155047804F01F050124AC400578D1
:100990006D11AD0005F1E025C5F8004109E00478CE
:1009A00004F01F050124AC40044D0678761145F88B
:1009B000264070BD0CED00E000E400E080E100E0C6
:1009C00002490143024A1160704700000000FA0525
:1009D0000CED00E029B1064AD2690243044BDA610A
:1009E00004E0034AD2698243014BDA617047000098
:1009F0000010024029B1064A92690243044B9A61F1
:100A000004E0034A92698243014B9A6170470000F7
:100A10000010024030B500210022002400232D4D9B
:100A20006D6805F00C0121B1042905D0082923D1F6
:100A300005E0294D056022E0274D05601FE0254DAA
:100A40006D6805F47012234D6D6805F4803402253D
:100A500005EB92421CB9214D554305600BE01D4D3D
:100A60006D6805F400351DB11C4D5543056002E06D
:100A7000194D5543056002E0174D056000BF00BFEA
:100A8000144D6D6805F0F0010909154D6B5C0568A2
:100A9000DD4045600F4D6D6805F4E061090A104DB9
:100AA0006B5C4568DD4085600A4D6D6805F46051FA
:100AB000C90A0B4D6B5C4568DD40C560054D6D682E
:100AC00005F44041890B074D6B5CC568B5FBF3F538
:100AD000056130BD0010024000127A0000093D009F
:100AE00014000020240000201CB50122002140A099
:100AF00003F016FB4249086014200221CB010022BA
:100B0000CDE900103F4940A003F0CFFC4149086007
:100B10000846006818B10846006803F0F1FD14208B
:100B200006214FF480730022CDE900103A493BA022
:100B300003F0BBFC3D4908600846006818B1084650
:100B4000006803F0DDFD142006214FF480730022BD
:100B5000CDE90010364937A003F0A7FC39490860F9
:100B60000846006818B10846006803F0C9FD142063
:100B700006214FF480730022CDE90010324933A0E2
:100B800003F093FC344908600846006818B1084631
:100B9000006803F0B5FD142005214FF48073002296
:100BA000CDE900102D492EA003F07FFC31490860EB
:100BB0000846006818B10846006803F0A1FD14203B
:100BC00004218B010022CDE900102B492BA003F05A
:100BD0006CFC2D4908600846006820B10846006892
:100BE00003F08EFD02E029A003F006F81CBD000012
:100BF000717569636B5F666565645F6E0000000018
:100C000038000020E54F000874696D655F737973E3
:100C10000000000050000020992100086772616EFA
:100C20006172795F77656967687400003C00002035
:100C3000C11B00086578706F72745F7765696768BB
:100C40007400000040000020952300086B65793196
:100C50005F7363616E000000440000204D50000887
:100C6000776966695F756172745F736572766963CF
:100C700065000000480000201135000871756963A7
:100C80006B5F6665656400004C00002074687265E7
:100C900061642073746172747570206661696C653B
:100CA000642121210000000008B501210420FFF784
:100CB000A1FE1020ADF800008DF8030003208DF890
:100CC000020069460C48FFF719FD4020ADF800000E
:100CD00069460948FFF712FD2020ADF8000069467B
:100CE0000548FFF70BFD20210348FFF79DFD10216C
:100CF0000148FFF799FD08BD0008014010B500F05C
:100D000001F810BD0CB50020019000903348006838
:100D100040F480303149086000BF3048006800F47A
:100D2000003000900198401C0190009818B901987B
:100D3000B0F5A06FF1D12948006800F4003010B17F
:100D40000120009001E0002000900098012843D18C
:100D50002348006840F010002149086008460068F8
:100D600020F0030008600846006840F002000860B8
:100D70001A48406819494860084640684860084673
:100D8000406840F4806048600846406820F47C1069
:100D900048600846406840F4E8104860084600682B
:100DA00040F08070086000BF0C48006800F00070E0
:100DB0000028F9D00948406820F00300074948603E
:100DC0000846406840F00200486000BF03484068A1
:100DD00000F00C000828F9D10CBD00000010024002
:100DE0000020024010B502F09FFE03F025FD02F046
:100DF000ABFE10BD10B51348006840F0010011496A
:100E0000086008464068104908400E494860084696
:100E100000680E4908400B4908600846006820F445
:100E2000802008600846406820F4FE0048604FF4C7
:100E30001F008860FFF762FF4FF000600449086000
:100E400010BD0000001002400000FFF8FFFFF6FE9A
:100E500008ED00E010B540F22551064800F0AFF86B
:100E600030B1044800F066F9C4B2204604F0F6F848
:100E700010BD00000044004001F40072B2F5007F94
:100E800000D100BFCA430280704721B1828942F479
:100E90000052828104E082894DF6FF731A408281FC
:100EA0007047000000B585B001210420FFF7A2FDC6
:100EB00001218803FFF79EFD01210420FFF79AFD21
:100EC00001214804FFF786FD4FF40070ADF81000D3
:100ED00018208DF8130003208DF8120004A92E4865
:100EE000FFF70CFC4FF48060ADF8100004208DF883
:100EF000130004A92848FFF701FC0420ADF81000F6
:100F000018208DF8130003208DF8120004A9224840
:100F1000FFF7F4FB0820ADF8100004208DF8130053
:100F200004A91D48FFF7EAFB4FF4E13000900020D0
:100F3000ADF80400ADF80600ADF80800ADF80C00FF
:100F40000C20ADF80A006946144800F087F801212A
:100F50001248FFF79AFF4FF4165000900020ADF8AA
:100F60000400ADF80600ADF80800ADF80C000C2048
:100F7000ADF80A0069460A4800F070F8FFF7C6FCB1
:100F8000012240F22551064800F043F801210448AF
:100F9000FFF77BFF05B000BD0008014000380140AD
:100FA0000044004002460020B1F5007F00D100BFA0
:100FB00013880B400BB1012000E00020704770B592
:100FC0000246002400230025002040F66A16B142A4
:100FD00000D100BFC1F3421501F01F03012606FA3C
:100FE00003F3012D02D19689334006E0022D02D190
:100FF000168A334001E0968A33400C12012606FA25
:1010000004F41688344013B10CB1012000E0002034
:1010100070BDF0B50346002400260025002040F6F0
:101020006A17B94200D100BF1846C1F3421401F05B
:101030001F06012707FA06F5012C01D10C3004E048
:10104000022C01D1103000E014301AB107682F4390
:10105000076002E00768AF430760F0BD2DE9F04785
:1010600086B005460E460024A24600BFA1460027D2
:10107000B08900B100BF2F462C8A4CF6FF700440A7
:10108000F08804432C82AC894EF6F3100440B088FB
:1010900031890843718908430443AC81AC8A4FF617
:1010A000FF400440B0890443AC8201A8FFF7B2FCC2
:1010B0001F48874202D1DDF810A001E0DDF80CA046
:1010C000A88900F4004040B10AEBCA0000EB0A1006
:1010D00031684900B0FBF1F807E00AEBCA0000EB09
:1010E0000A1031688900B0FBF1F86420B8FBF0F019
:1010F00004012009642101FB1089A88900F4004043
:1011000040B1322000EBC900B0FBF1F000F0070065
:10111000044308E0322000EB09106421B0FBF1F039
:1011200000F00F0004432C8106B0BDE8F0870000FA
:101130000038014001468888C0F308007047C1F3B9
:1011400008028280704770B504460D462946204645
:10115000FFF7F5FF00BF80212046FFF723FF00289F
:10116000F9D070BD0FB4054B10B503A9044A02981D
:1011700000F092F810BC5DF814FB00000521000897
:10118000300100200FB4084B10B504A902AA03983F
:1011900000F082F8044602A9002000F099FA2046E7
:1011A00010BC5DF814FB0000D1160008014609B917
:1011B00000207047C8B220B1C8B20E4A105C401C73
:1011C000F7E701F47F4028B10A48C1F30722805CA9
:1011D0000930EEE701F47F0028B10648C1F3074269
:1011E000805C1130E5E7034800EB116000781930AE
:1011F000DFE70000E455000802E008C8121F08C13C
:10120000002AFAD170477047002001E001C1121F87
:10121000002AFBD17047000003490868884201D0CA
:10122000012070470020FCE7F40000202DE9F04386
:1012300089B0064688469146002400E0641C305D73
:10124000202804D0305D092801D04445F6D324B9C4
:101250004FF0FF3009B0BDE8F0832146304601F081
:1012600065FE054615B94FF0FF30F3E7202101A8D0
:10127000FFF70DF801AA4146304601F0C1FE0746CE
:1012800017B94FF0FF30E5E701A93846A847C9F87C
:1012900000000020DEE700002DE9FF4F8BB08846FC
:1012A0000546002606E025280BD0DDE90D12904703
:1012B0006D1C761C28780028F5D10FB03046BDE8AB
:1012C000F08F0024A146A2460122AE4900E004436B
:1012D00015F8013F203B02FA03F00842F7D12878C5
:1012E0002A2810D06FF02F022878A0F130010929A8
:1012F00015D809EB890102EB410144F0020400EB2F
:1013000001096D1CF0E758F8041B5FEA010903D5D9
:1013100044F40054C9F1000944F002046D1C28781B
:101320002E2817D115F8010F44F004042A280ED0F6
:101330006FF02F022878A0F1300109290AD80AEBB2
:101340008A0102EB410100EB010A6D1CF2E758F83B
:1013500004AB6D1C28786C280FD006DC4C2817D005
:1013600068280DD06A2814D104E0742810D07A2897
:101370000FD10DE044F400140AE044F4801401E0BD
:1013800044F440146978814202D104F580146D1C44
:101390006D1C2878692865D006DC00288DD063286C
:1013A00027D0642806D15DE06E2808D073282AD0A3
:1013B000752877D0DDE90D129047761CE0E0C4F384
:1013C0000250022809D003280DD0D8F800100428B4
:1013D0000DD00E6008F10408D2E0D8F80010F21722
:1013E000C1E90062F6E7D8F800100E80F2E70E704F
:1013F000F0E718F8041B8DF8001000208DF80100AC
:10140000EB46012003E058F804BB4FF0FF306107C2
:101410004FF0000701D40AE07F1C57450DDA8742E0
:10142000FADB1BF807100029F6D106E07F1C874283
:10143000FCDB1BF807100029F8D1DDE90D23A9EB2F
:1014400007008146214600F0B1F83044C61904E097
:10145000DDE90D121BF8010B90477F1EF8D22146E3
:10146000484688E058F8040BC4F302514FF00A0BC9
:10147000032900D100B2042900D140B2002802DAC9
:1014800040422D2102E0210505D52B218DF82410A5
:10149000012104E006E0E10710D02021F6E708AFC3
:1014A000089113E058F8040BC4F302514FF00A0BF3
:1014B000032900D180B2042900D1C0B20021EEE797
:1014C0005946FEF77DFF303107F8011D0028F7D19E
:1014D000ADEB070000F1200B600702D524F4803447
:1014E00001E04FF0010ADA4502DDAAEB0B0000E053
:1014F0000020824600EB0B0108980144A9EB010093
:101500000A90E00306D4DDE90D2321460A9800F095
:101510004DF806444FF0000908E009A911F8090048
:10152000DDE90D12904709F10109761C08998945FA
:10153000F3DBE0030CD5DDE90D2321460A9800F02A
:1015400035F8064404E0DDE90D1230209047761CA2
:10155000BAF10001AAF1010AF5DC05E0DDE90D129E
:1015600017F8010B9047761CBBF10001ABF1010BA2
:10157000F4DC0A982146DDE90D2300F005F8064465
:101580006D1C97E6092801002DE9F041044600256D
:101590001E461746880404D405E039462020B0478B
:1015A0006D1C641EF9D52846BDE8F0812DE9F04197
:1015B000044600251E469046C80301D5302700E0AA
:1015C0002027880404D505E041463846B0476D1C05
:1015D000641EF9D52846BDE8F08100002DE9FC5FC6
:1015E00004468B4615461E46DDE90C9ADDE90E7869
:1015F00004F114004060006000BF1C346560A66008
:10160000C4F80C90C4F810A02321D4E9030202F01E
:101610003CFCD4E9033C63441A1F0F4BD4E901019D
:1016200002F034FA2060A77667760020E061C4F803
:101630002080C4F82480606120766065A0651C3C31
:1016400000902346054A2146019004F1440003F02E
:1016500075F90020BDE8FC9F0945000871470008A6
:101660002DE9F04704460E4617469846DDF82090CF
:1016700084F80990607A20F001006072E6612762C8
:101680000020A062C4F82480002506E004F11401C3
:1016900001EBC50002F0CEFA6D1C012DF6DBBDE8B2
:1016A000F08710B50246002001460EE002F1140357
:1016B00003EBC100D0E900436360D0E9003423604C
:1016C0004060006000BF481C01460129EEDB10BDF0
:1016D0000A68531C0B6010707047000010B505229B
:1016E0001449012001F088FA0021022001F026FAB5
:1016F0000021032001F0BAFA0021042001F050FA81
:101700000021072001F01AFA0021082001F016FA42
:101710000021102001F0AAFA0021112001F0A6FA00
:101720000021122001F0A2FA0021132001F006FA94
:1017300010BD00005C00002010B520A002F05CFA93
:101740002148017821A002F057FA1F48007800F0E4
:10175000010010B123A002F04FFA1B48007800F0FE
:10176000020010B122A002F047FA1748007800F0FA
:10177000040010B121A002F03FFA1348007800F0F5
:10178000080010B121A002F037FA0F48007800F0ED
:10179000100010B120A002F02FFA0B48007800F0E2
:1017A000800030B108480F3001681DA002F024FA13
:1017B00002E01FA002F020FA10BD00006275732045
:1017C0006661756C743A0A0029ED00E05343425F8C
:1017D000434653525F424653523A3078253032588E
:1017E000200000004942555345525220000000009D
:1017F000505245434953455252200000494D5052E2
:10180000454349534552522000000000554E535461
:101810004B4552522000000053544B455252200079
:101820005343422D3E424641523A253038580A0031
:101830000A00000001460020087800024A781043A0
:1018400000028A7810430002CA781043704770B5CE
:1018500004460D4600F0ECFE002070BD70B5044655
:101860000D4600F0BDFF002070BD00002DE9F047DF
:1018700004463949E01C11F80080B8F1080F46D041
:101880000CDCB8F1000F13D0B8F1010F13D0B8F190
:10189000020F13D0B8F1060F59D112E0B8F11C0FA6
:1018A00038D0B8F1200F3BD0B8F1210F4FD13FE035
:1018B00000F0D4FC4CE001F093FD49E000F05AFC4C
:1018C00046E02549601D095C234A201D105C41EA61
:1018D0000026002518E0A01D2844801C1E49085C35
:1018E0004FF6FF7101EA0027A01D2844C01C1A49C9
:1018F000085C384487B22144891D481900F02EF84D
:101900008146381D284485B2B542E4DB20E0FFF76C
:10191000E5FE1DE010492144881D01F0F5F917E0AE
:101920000D4BE21D995CA21D985C03F04FFD0FE08A
:101930000949601D095C084A201D105C41EA002627
:1019400011462144881D314603F037FC00E000BFFA
:1019500000BFBDE8F087000034A100202DE9F0476A
:101960000446267894F80180A0784FF6FF7101EACA
:101970000025E078284485B2304600F0E3FB0746B6
:10198000084800EB47004078404502D00020BDE801
:10199000F0872A46211D304600F022F8814648464D
:1019A000F5E70000D05500082DE9F04106460F4646
:1019B0003946304601F096F905461DB100F07AFC33
:1019C000064908802946072001F0B8F80446012C92
:1019D00001D1BDE8F0810020FBE7000036000020C7
:1019E0002DE9F04105460E461746072D20D006DCAE
:1019F000012D0BD0022D0FD0032D31D112E0082D77
:101A00001CD0122D20D0132D2AD123E03946304688
:101A100000F064F8044624E03946304600F088F8C7
:101A200004461EE03946304600F040F8044618E00F
:101A300039463046FFF7B8FF044612E039463046D3
:101A400000F0A2F804460CE03946304600F088F871
:101A5000044606E03946304600F008F8044600E047
:101A600000BF00BF2046BDE8F08100002DE9F04135
:101A700006460F463946304601F034F905461DB991
:101A800020200949086003E020200749091D08605B
:101A90002946132001F052F80446012C01D1BDE87B
:101AA000F0810020FBE70000100C01402DE9F0411F
:101AB00005460E463146284601F017F90446E0B2C5
:101AC00000F094F82146032001F0D0F80746012FDA
:101AD00001D1BDE8F0810020FBE700002DE9F041D5
:101AE00004460D4600270BE00CA002F085F8E15DEE
:101AF0000DA002F081F80DA002F07EF8781CC7B2AC
:101B0000AF42F1DB2A462146012001F075F8064676
:101B1000012E01D1BDE8F0810020FBE76D65616C0D
:101B20005F706C616E3A200025630D000D0A0000A5
:101B30002DE9F04106460F463946304601F0D2F80D
:101B4000054615B1012000F051F82946022000F0A9
:101B5000F5FF0446012C01D1BDE8F0810020FBE730
:101B60002DE9F04104460D462946204601F0BDF816
:101B700007463946122001F079F80646012E01D1B8
:101B8000BDE8F0810020FBE72DE9F04106460F4655
:101B90003946304601F0A6F805461DB100F0C2FBFB
:101BA000064908802946082000F0C8FF0446012C99
:101BB00001D1BDE8F0810020FBE7000034000020E7
:101BC00000250FE0322002F098FC00F073FB06497C
:101BD0000988441A601B322804D925462946112059
:101BE00001F044F8EEE700003600002010B504468E
:101BF000204603F0A1F910BD10B51448006890F814
:101C00002100C0F3400020B90020114908700846A7
:101C100010BD1048006838B180220E4801680C4899
:101C2000FEF74CFB0A48F3E701F0E8F920B10AA1FE
:101C30000748FEF756FB03E009A10548FEF751FBF4
:101C400009A10348FEF72EFB0148E1E72801002027
:101C5000BCA400202C0100206D736820000000004F
:101C600066696E73682000003E00000010B501F048
:101C7000C3FD10BD0549096891F8211060F34101C9
:101C8000024A126882F821107047000028010020E3
:101C9000024A1060024A11607047000018010020DB
:101CA0001C0100207CB5002516491748FFF7F0FFFE
:101CB0007821012001F07AFC144908600846006888
:101CC00020B913A001F098FF681E7CBD0A200221F4
:101CD0004B020022CDE90010134914A002F0E5FBED
:101CE000044600231A4613A10848006802F02DFAA2
:101CF0000120FFF7BFFF1CB115B9204602F000FD1F
:101D00000020E2E7C45800084458000828010020D9
:101D10006E6F206D656D6F727920666F72207368CB
:101D2000656C6C0A000000003D1D00087473686556
:101D30006C6C00007368727800000000E94800686D
:101D400090F8210020F00100401CE649096881F864
:101D50002100FFF751FF054601F04EFFC1E1FFF7FB
:101D600085FF0446002C00DABBE11B2C05D10120C5
:101D7000DC49096881F82000B3E1DA48006890F88E
:101D8000200001280DD15B2C05D10220D54909681E
:101D900081F82000A5E10020D249096881F82000DF
:101DA00045E0D048006890F8200002283FD100208C
:101DB000CC49096881F82000412C00D191E1422CE6
:101DC00000D18EE1442C11D1C6480068B0F87400EF
:101DD00058B1C5A001F010FFC2480068B0F8740007
:101DE000401EC0490968A1F874007AE1432C1ED155
:101DF000BC480068B0F87400BA490968B1F87210BC
:101E0000884213DAB7480068B0F87420B548006813
:101E10002230815CB5A001F0EFFEB2480068B0F856
:101E20007400401CAF490968A1F8740059E10CB175
:101E3000FF2C00D155E1092C1FD1002503E0AAA0F9
:101E400001F0DAFE6D1CA7480068B0F87400A842E3
:101E5000F5DCA4480068223003F01EF8A1480068B1
:101E60002230FEF737FA80B29E490968A1F8720065
:101E70009C490968A1F8740033E17F2C01D0082C3B
:101E80006ED198480068B0F8740000B929E195480F
:101E90000068B0F87200401E92490968A1F872000B
:101EA00090480068B0F87400401E8E490968A1F897
:101EB00074008C480068B0F872008A490968B1F86B
:101EC000741088423FDD874B1B68B3F87230854E33
:101ED0003668B6F874609A1B824B1B68B3F874308E
:101EE0005B1C804E3668223699197E4B1B68B3F80E
:101EF00074607C4B1B682233F01801F0A5FF0022B0
:101F000078480068B0F87210764800682230425471
:101F100074480068B0F874207248006822301118C4
:101F200073A001F069FE6F480068B0F8745003E0D8
:101F30006DA001F061FE6D1C6A480068B0F8720087
:101F4000A842F5DA0BE06CA001F056FE00216548CE
:101F50000068B0F872206348006822308154C0E005
:101F60000D2C01D00A2C2BD101F048F8012812D1F8
:101F70005C48006890F8210000F0010010B15FA0FB
:101F800001F03AFE57480068B0F8721055480068F2
:101F9000223000F095FFFFF72FFE054601F02CFEE2
:101FA0005021504800682230FEF771F900204D4959
:101FB0000968A1F872004B490968A1F8740090E023
:101FC00048480068B0F87200502804DB00204549FA
:101FD0000968A1F8720043480068B0F874004149EC
:101FE0000968B1F87210884245DA3E4B1B68B3F8B5
:101FF00072303C4E3668B6F874609A1B394B1B68D9
:10200000B3F87460374B1B682233F118354B1B68EB
:10201000B3F874305B1C334E36682236981901F0E1
:1020200013FF30480068B0F874202E480068223052
:1020300084542C48006890F8210000F0010050B151
:1020400028480068B0F8742026480068223011182B
:102050002BA001F0D1FD23480068B0F8745003E0D4
:1020600021A001F0C9FD6D1C1E480068B0F8720087
:10207000A842F5DC12E01B480068B0F8722019484D
:102080000068223084541748006890F8210000F05E
:10209000010018B1214615A001F0AEFD0024114841
:1020A0000068B0F87200401C0E490968A1F872007F
:1020B0000C480068B0F87400401C0A490968A1F88F
:1020C000740008480068B0F87200502808DB00204F
:1020D00004490968A1F8720002490968A1F874006E
:1020E00000BF3CE628010020080000002563000036
:1020F0000825732020080000082008000A000000BE
:102100002573000070B504460D46E1B20548FFF79F
:1021100016F800BF80210348FEF744FF0028F9D0DD
:10212000204670BD0038014030B502460020002333
:1021300005E012F8015B2C18E0B25C1CA3B28B42E4
:10214000F7DB30BD70B5054600F012F806460024F6
:1021500007E0064810F81400A84200D103E0601C14
:10216000C4B2B442F5DB00BF204670BDD0550008B4
:102170000A20704710B500240821204602F084FE92
:10218000C4B20021204602F07FFEC4B222460321E1
:10219000022003F0EBF910BD1DE0322002F0ADF992
:1021A00000F0C0F80C490988441A601B1E2812D997
:1021B000254640F6B830854205D3642631461020C6
:1021C00000F054FD07E01E20B5FBF0F0C6B231462A
:1021D000102000F04BFDE0E73400002010B514485B
:1021E000006800F0020010B112A001F005FD1048D7
:1021F000006800F0804088B10D48C01E007808B12A
:10220000FFF79AFA0A48001F007808B100F094FD21
:102210000748801E008808B102F056FF0448006895
:1022200000F0004010B109A001F0E6FC10BD000074
:102230002CED00E06661696C656420766563746FFF
:10224000722066657463680A000000006465627548
:1022500067206576656E740A0000000010B50024E2
:102260000B48007840B90021204602F00DFEC4B2B0
:1022700001200749087004E00121204602F004FE15
:10228000C4B222460321002003F070F910BD000003
:102290008100002010B502A001F0AEFC002010BDAE
:1022A00048656C6C6F2052542D54687265616421CE
:1022B0000A0000002DE9F04102F0AAFD052002F01D
:1022C0001CF901F047F9002400BF01F02FF90028A4
:1022D000FBD100250AE002F0AFFD640001F03AF9FD
:1022E00001F024F900B1641C681CC5B2182DF2DBA2
:1022F00002F0A2FD84F40004052002F0FEF801F0D3
:1023000029F92046FEF743F880460549FEF701F813
:102310000746FEF741F886B23046BDE8F08100007E
:102320000000D7432DE9F04102F07CFD052002F0CA
:10233000E4F801F019F9002400BF01F001F90028C8
:10234000FBD100250AE002F081FD640001F00CF9E8
:1023500001F0F6F800B1641C681CC5B2182DF2DB60
:1023600002F074FD84F40004052002F0C6F801F0C8
:10237000FBF82046FEF70BF880460549FDF7C9FF3C
:102380000746FEF709F886B23046BDE8F081000046
:102390000000D74313E0322002F0AFF801210848D3
:1023A000FEF737FA01280AD100BF01210448FEF7E1
:1023B00030FA0128F9D00348006801F0D9FEEAE7B5
:1023C000000801403800002010B50CA001F014FCFA
:1023D0000F4804680CE002220EA12068FDF78AFF76
:1023E00000B904E00CA0216801F006FC00BF08342D
:1023F0000A4800688442EED3002010BD2D2D46759A
:102400006E6374696F6E204C6973743A0A00000041
:10241000180100205F5F000025730A001C010020E6
:102420002DE9F04704460D4616461F46284601F0A2
:102430009BFD814609F10408C4F80080257266609E
:10244000E76000202061BDE8F0872DE9F84F0746DE
:102450000C464FF0000A00202061E06808B1207AA5
:1024600010B90020BDE8F88FD4F800801FB94546A8
:102470004FF0010A00E03D46FDF776FE0090BAF10C
:10248000000F0ED1A5F10C0B9BF8080020F0800086
:10249000217A884204D00098FDF76AFE0020E1E727
:1024A00000BF0026D4F804900BE02D68454501D10B
:1024B000002507E0761C49F8045BE068B04200D1D3
:1024C00000E0F2E700BF0098FDF752FE26612846C3
:1024D000C8E700002DE9F04F91B000270FF2D409B2
:1024E000082304AA05210CA8FFF79AFF4FF008085B
:1024F0004A46414631A001F07FFB404600F05AFEBB
:1025000037A001F079FB00BF0CA93846FFF79DFF0B
:102510000746002545E004A850F82500A0F10C0668
:10252000FDF722FE8346307A20F080009DF83810B7
:10253000884203D05846FDF71BFE31E05846FDF7B0
:1025400017FE344604F1140001F0A3FBB8B904F1FE
:10255000140001F0A6FB8246208C618C23460822E1
:10256000CDE9010A0091414624A001F045FB04F1A8
:10257000140002F0ADFC27A001F03EFB0FE004F1D7
:10258000140001F08EFB8246208C618C23460822C9
:10259000CDE9010A009141461FA001F02DFB00BFCB
:1025A0006D1C1098A842B6DC002FADD1002011B0F0
:1025B000BDE8F08F6D61696C626F7800252D2A2E61
:1025C0007320656E7472792073697A6520737573F0
:1025D00070656E64207468726561640A00000000B2
:1025E000202D2D2D2D20202D2D2D2D202D2D2D2D4F
:1025F0002D2D2D2D2D2D2D2D2D2D0A00252D2A2E65
:102600002A7320253034642020253034642025644A
:102610003A0000000A000000252D2A2E2A732025EA
:102620003034642020253034642025640A00000002
:1026300010B50848016808A001F0DEFA0B480168EF
:102640000BA001F0D9FA0F4801680FA001F0D4FAED
:1026500010BD000098000020746F74616C206D65DF
:102660006D6F72793A2025640A0000009C000020FA
:1026700075736564206D656D6F7279203A202564ED
:102680000A000000A00000206D6178696D756D2062
:10269000616C6C6F6361746564206D656D6F7279D8
:1026A0003A2025640A0000002DE9F04F8FB0002782
:1026B0000FF2CC09082302AA02210AA8FFF7B0FEF4
:1026C0004FF008084A46414630A001F095FA4046CE
:1026D00000F070FD34A001F08FFA00BF0AA938465F
:1026E000FFF7B3FE0746002541E002A850F8250099
:1026F000A0F10C06FDF738FD8346307A20F080000B
:102700009DF83010884203D05846FDF731FD2DE08A
:102710005846FDF72DFD344604F1140001F0B9FAD6
:10272000A8B904F1140001F0BCFA8246A08B23463C
:1027300008224146CDE9000A21A001F05DFA04F12A
:10274000140002F0C5FB17A001F056FA0DE004F1E9
:10275000140001F0A6FA8246A08B234608224146C7
:10276000CDE9000A1AA001F047FA00BF6D1C0E98CF
:10277000A842BADC002FB1D100200FB0BDE8F08F25
:1027800073656D6170686F7265000000252D2A2EDB
:1027900073207620202073757370656E64207468D2
:1027A000726561640A000000202D2D2D202D2D2D35
:1027B0002D2D2D2D2D2D2D2D2D2D2D0A0000000020
:1027C000252D2A2E2A7320253033642025643A00D3
:1027D000252D2A2E2A7320253033642025640A00F3
:1027E0002DE9F04FAFB04FF000090FF21C1B08238A
:1027F00021AA012129A8FFF713FE4FF0080A5A4623
:102800005146434801F0F8F9504600F0D3FC41A08E
:1028100001F0F2F900BF29A94846FFF716FE8146EC
:102820004FF0000865E021A850F82800A0F10C0541
:10283000FDF79AFC2E90287A20F080009DF8AC10CD
:10284000884203D02E98FDF793FC50E07822294669
:1028500003A8FDF703FD2E98FDF78AFC2C4694F89B
:10286000350023460822514600903AA001F0C4F9F1
:1028700094F8340000F00F06012E03D138A001F0C7
:10288000BBF915E0022E03D138A001F0B5F90FE035
:102890001EB939A001F0B0F90AE0042E03D139A025
:1028A00001F0AAF904E0032E02D139A001F0A4F945
:1028B000A76A00E07F1C38782328FBD0D4E90A10EF
:1028C000791A401A64214843E16AB0FBF1F00290A2
:1028D000216B206CCDE90001E369A06AC01AE36AAC
:1028E000C1181A462DA0029B01F086F900BF08F11D
:1028F00001082D98404596DCB9F1000F8BD10020DE
:102900002FB0BDE8F08F000074687265616400004C
:10291000EC570008202D2D2D20202D2D2D2D2D2D77
:102920002D202D2D2D2D2D2D2D2D2D2D202D2D2DF1
:102930002D2D2D2D2D2D2D20202D2D2D2D2D2D20EE
:10294000202D2D2D2D2D2D2D2D2D2D202D2D2D0AF4
:1029500000000000252D2A2E2A7320253364200034
:102960002072656164792020000000002073757377
:1029700070656E640000000020696E69742020207C
:102980000000000020636C6F7365202000000000D1
:102990002072756E6E696E67000000002030782529
:1029A00030387820307825303878202020202530A5
:1029B00032642525202020307825303878202530B5
:1029C00033640A002DE9F04790B000270FF2B409F4
:1029D000082303AA0A210BA8FFF722FD4FF00808DD
:1029E0004A46414629A001F007F9404600F0E2FBC3
:1029F00030A001F001F900BF0BA93846FFF725FD13
:102A0000074600262DE003A850F82600A0F10C048C
:102A1000FDF7AAFB8246207A20F080009DF8341052
:102A2000884203D05046FDF7A3FB19E05046FDF75E
:102A30009FFB2546D5E909012B460822CDE9000177
:102A4000414625A001F0D8F8687A00F0010018B1DD
:102A500027A001F0D1F802E028A001F0CDF800BFD6
:102A6000761C0F98B042CEDC002FC5D101F0DEFEFF
:102A70000446214625A001F0BFF8002010B0BDE8B3
:102A8000F087000074696D6572000000252D2A2E04
:102A9000732020706572696F6469632020207469F7
:102AA0006D656F757420202020202020666C616782
:102AB0000A000000202D2D2D2D2D2D2D2D2D2D200A
:102AC0002D2D2D2D2D2D2D2D2D2D202D2D2D2D2D43
:102AD0002D2D2D2D2D2D0A00252D2A2E2A73203047
:102AE000782530387820307825303878200000007C
:102AF0006163746976617465640A0000646561638A
:102B0000746976617465640A00000000637572720E
:102B1000656E74207469636B3A3078253038780AB2
:102B20000000000010B5FDF7DFFF002010BD10B55C
:102B3000044600F05BFDFFF7F5FF10BD70B50446DD
:102B40000D46002615480078012800D170BD2146A9
:102B5000304602F099F906460121304602F094F918
:102B600006460021304602F08FF906460121304624
:102B700002F08AF906462DB90021304602F084F9A8
:102B8000064604E00121304602F07EF90646324650
:102B90000321072002F0EAFC0120D7E78000002093
:102BA00070B504460E46002512480078012800D171
:102BB00070BD2146284602F067F9054604212846E3
:102BC00002F062F905460021284602F05DF905464B
:102BD0000121284602F058F905463146284602F000
:102BE00053F905462A460321072002F0BFFC0120C5
:102BF000DEE70000800000202DE9F041064688460F
:102C00001446002718480078012801D1BDE8F0815A
:102C10003146384602F038F907460021384602F0BE
:102C200033F907462546E01704EB1060C0F307218F
:102C3000384602F029F90746E01704EB106000124D
:102C4000A4EB0020C1B2384602F01EF90746224626
:102C50004146384602F004F907463A460321072068
:102C600002F084FC0120D1E78000002070B5054609
:102C70000C4600261A480078012800D170BD29466C
:102C8000304602F001F906460221304602F0FCF817
:102C900006460021304602F0F7F806460421304689
:102CA00002F0F2F80646210E304602F0EDF8064634
:102CB000C4F30741304602F0E7F80646C4F30721A3
:102CC000304602F0E1F80646E1B2304602F0DCF8A8
:102CD000064632460321072002F048FC0120CDE7DA
:102CE0008000002002461078704710B503460C465D
:102CF0001846FEF79FFD10BD10B5002203211C20D1
:102D000002F034FC10BD00000178012910D1417897
:102D100001F5FA61074A118081789170C178D1700C
:102D2000017911714179517181799171C179D171B3
:102D3000704700002C00002010B51CA000F05CFFC4
:102D40001F4801781FA000F057FF1D48007800F0D1
:102D5000010010B121A000F04FFF1948007800F0E9
:102D6000020010B120A000F047FF1548007800F0E5
:102D7000080010B11FA000F03FFF1148007800F0DC
:102D8000100010B11EA000F037FF0D48007800F0D1
:102D9000800030B10A480C3001681CA000F02CFF04
:102DA00002E01EA000F028FF10BD00006D656D2040
:102DB0006D616E616765206661756C743A0A00002A
:102DC00028ED00E05343425F434653525F4D465364
:102DD000523A3078253032582000000049414343B0
:102DE00056494F4C200000004441434356494F4C44
:102DF000200000004D554E53544B455252200000C8
:102E00004D53544B45525220000000005343422D75
:102E10003E4D4D41523A253038580A000A00000014
:102E20002DE9F04781460026002799F8000028B9CF
:102E30000021084600F0A8F8BDE8F0871B480468A8
:102E400027E006221AA12068FDF754FA00B11FE01E
:102E5000206800F106084846FDF73CFA82465246D3
:102E600041464846FDF746FA88B926B947463846EE
:102E7000FDF730FA06464146384602F085F8054629
:102E8000B54200DA2E4641460BA000F0B5FE00BF69
:102E900008340A4800688442D3D327B13246394601
:102EA000484601F01EFA00BFC6E7000018010020E6
:102EB0005F5F636D645F000025730A001C010020E2
:102EC00038B504460D4601E0641C6D1E20782028AC
:102ED000FAD020780928F7D00DB9002038BD6A460D
:102EE00029462046FEF7A2F908B90098F6E72046E1
:102EF00000E0401C0178202902D001780029F8D197
:102F000000210170214603A000F076FE4FF0FF3053
:102F1000E4E7000025733A20636F6D6D616E6420F5
:102F20006E6F7420666F756E642E0A002DE9F04195
:102F300006460D4600271048046815E006220FA13A
:102F40002068FDF7D7F900B10DE02168881D2A46F9
:102F50003146FDF7CFF928B9A81D2168085C08B9EA
:102F6000676805E000BF0834064800688442E5D37E
:102F700000BF3846BDE8F081180100205F5F636D37
:102F8000645F00001C01002070B505460E460EA0CF
:102F900000F032FE134804680DE0062212A12068FA
:102FA000FDF7A8F900B105E02068811D10A000F030
:102FB00023FE00BF08340F4800688442EDD30EA002
:102FC00000F01AFE002070BD52542D5468726561E5
:102FD00064207368656C6C20636F6D6D616E6473E3
:102FE0003A0A0000180100205F5F636D645F000013
:102FF000257320001C0100200A00000001207047FA
:103000002DE9F04782460E4690465446002500279B
:1030100055E003E000202070641C6D1C20782028FF
:1030200002D02078092801D1B542F3D3082F12D35A
:1030300026A000F0E1FD4FF0000906E058F8291045
:103040002AA000F0D9FD09F10109B945F6D326A05F
:1030500000F0D2FD35E0B54200D332E020782228DE
:103060001CD1641C6D1C48F827407F1C09E02078A7
:103070005C2804D16078222801D1641C6D1C641C7A
:103080006D1C2078222801D0B542F0D3B54200D380
:1030900017E000202070641C6D1C10E048F82740E9
:1030A0007F1C01E0641C6D1C2078202804D020784F
:1030B000092801D0B542F5D3B54200D301E0B542AD
:1030C000A7D300BF3846BDE8F0870000546F6F20DB
:1030D0006D616E7920617267732021205765206FC2
:1030E0006E6C79205573653A0A0000002573200044
:1030F000F0B505460E4613462A46344605B10EB9CC
:103100000020F0BDA24202D9E018904208D200216E
:1031100003E0605C5054481C81B29942F9DB07E03F
:10312000194603E0481E275C175481B20029F9DCD8
:103130002846E6E730B503460C4619460BB9002091
:1031400030BD01E001F8014B101EA2F10105AAB249
:10315000F8D11846F4E7024601E0521C491C1078E9
:1031600028B1087818B110780B789842F5D010780B
:103170000B78C01A7047024602B109B900207047A7
:10318000134603E011F8010B02F8010B0878002840
:10319000F8D110701846F2E70146002209B9002064
:1031A0007047002200E0521C11F8013B002BFAD1BD
:1031B0001046F5E710B5044602E004A000F01CFD3F
:1031C000201EA4F10104F8D110BD00002D00000064
:1031D00030B51A4C436824681919884215D04B88B9
:1031E0009BB9174B1B6899420FD0164B1B688B423B
:1031F00001D1144B18604B684360104B1B68C31A15
:103200000E4D4C682D682C44A3600C4C83682468D8
:103210001A19824211D053887BB90A4B1B6883422A
:1032200001D1084B1A6043685360044B1B68D31AE2
:10323000024D44682D682C44A36030BD8C000020F2
:1032400090000020940000202DE9F04F86B00D463C
:103250009C46DDE9106401960F9B04F04008B8F12C
:10326000000F02D0DFF8708101E0DFF87081CDF847
:10327000008004F01008B8F1000F01D024F0010420
:1032800004F00108B8F1000F02D04FF0300801E05F
:103290004FF02008C246002704F00208B8F1000FE2
:1032A00011D0002A02DA2D2752420CE004F0040863
:1032B000B8F1000F01D02B2705E004F00808B8F1A1
:1032C000000F00D02027002142B94FF0300B884674
:1032D000491C0DF1080909F808B01DE01AE0E146A3
:1032E000B9F10A0F08D14FF00A0BB2FBFBFE0BFB42
:1032F0001E28B2FBFBF202E002F00F08120900BF29
:10330000DDF8009019F808B08846491C0DF108094D
:1033100009F808B0002AE2D1B14200DD0E469B1B3D
:1033200004F01108B8F1000F10D117B1002B00DD27
:103330005B1E06E0A84203D24FF0200880F8008010
:10334000401CB3F10008A3F10103F3DC27B1A8424C
:1033500000D207705B1E401C04F01008B8F1000F8B
:103360000AD104E0A84201D280F800A0401CB3F1C9
:103370000008A3F10103F5DC06E0A84203D24FF0F8
:10338000300880F80080401CB046761E8845F4DC8A
:1033900008E0A84205D20DF1080818F8018080F86D
:1033A0000080401CB1F10008A1F1010104DDDDF84D
:1033B0000480B8F1000FECD106E0A84203D24FF030
:1033C000200880F80080401CB3F10008A3F101033D
:1033D000F3DC06B0BDE8F08FF5560008E4560008AF
:1033E0003EB50024002000900190029034A0FFF729
:1033F000D3FE85B22A4632A1204601F031FDC4B287
:1034000031A0FFF7C9FE85B22A462FA1204601F060
:1034100027FDC4B231A0FFF7BFFE85B22A462FA117
:10342000204601F01DFDC4B22EA0FFF7B5FE85B207
:103430002A462CA1204601F013FDC4B22BA0FFF7B1
:10344000ABFE85B22A4629A1204601F009FDC4B28F
:1034500028A0FFF7A1FE85B22A4626A1204601F04A
:10346000FFFCC4B20A2224A16846FDF78BFE684621
:10347000FFF792FE85B22A466946204601F0F0FC2D
:10348000C4B200221FA16846FDF77CFE6846FFF724
:1034900083FE85B22A466946204601F0E1FCC4B2AB
:1034A0001AA0FFF779FE85B22A4618A1204601F03E
:1034B000D7FCC4B222460321012002F057F83EBDDA
:1034C0007B2270223A22000067716C6E7A6561651A
:1034D0006A356B686A77743700000000222C227608
:1034E000223A2200312E302E30000000222C226D94
:1034F000223A0000320000002C226D74223A25642A
:10350000000000002C226E223A2564007D0000009D
:1035100008E04FF0FF310448006800F046FE01204B
:10352000FEF764FBF5E700003800002010B54FF40B
:1035300080710248FDF76DF910BD000000100140D8
:1035400010B54FF480610248FDF763F910BD00002B
:103550000010014010B54FF400710248FDF762F908
:1035600010BD00000010014010B54FF4006102488A
:10357000FDF758F910BD0000001001401CB51420E3
:103580000A214FF480730022CDE90010044905A000
:1035900000F08BFF0446204601F0B2F81CBD00008D
:1035A0002F2B00086D61696E0000000070B50446A5
:1035B0000D4604FB05F000F091FB06462EB104FB1E
:1035C00005F20021304600F060FC304670BD00007E
:1035D00010B5044C02E020688047241D0248844254
:1035E000F9D310BD345800083858000810B5044C01
:1035F00002E020688047241D02488442F9D310BDB0
:10360000385800084058000810B5FCF7ADFD0446D6
:1036100004480088401C00B2024908802046FCF79C
:10362000A7FD10BDE400002010B5FCF79DFD044689
:103630000C480088401E00B20A4908800846B0F9CC
:10364000000000280ADC002008802046FCF790FDDE
:103650000548006828B100F0CFFC02E02046FCF7E6
:1036600087FD10BDE4000020E800002070B505468D
:1036700005B970BD1D480068854203D31C48006829
:10368000854200D3F5E7A5F10C044FF0FF3119484E
:1036900000F08BFD608818B12088B0F5F55F08D088
:1036A00015A000F0A9FA23886288214619A000F02D
:1036B000A3FA002060804FF4F55020802148006874
:1036C000844201D21F480460084960680968611A91
:1036D000401A1D490968081A1B4908602046FFF76F
:1036E00077FD044800F044FD00BFC2E78C000020D5
:1036F000900000209CA30020746F206672656520F6
:103700006120626164206461746120626C6F636B2C
:103710003A0A00006D656D3A203078253038782CF3
:10372000207573656420666C61673A2025642C20DF
:103730006D6167696320636F64653A203078253076
:1037400034780A00940000209C0000200048704754
:10375000340100200048704734A1002070B5224891
:1037600000684FF47A72B0FBF2F1B1F1807F00D3C0
:103770001DE021F07F40401E4FF0E02250615017C5
:103780000F22002807DA13071D0E184B00F00F0454
:10379000241F1D5503E013071C0E154B1C5400BFBE
:1037A00000204FF0E02290610720106100BF01204F
:1037B00010490860FDF776FB01F038FEFDF776F85A
:1037C000FDF772FAFCF70EFFFDF730F8FDF74EF843
:1037D000FFF7FEFEFFF7BEFF0446FFF7B7FF054603
:1037E000214600F099FD70BD0000002018ED00E0BA
:1037F00000E400E0140C014010B54FF0FF3420212C
:103800000B48FDF7CFFB20B10948FDF793FC0446B8
:103810000BE008210648FDF7C5FB18B1402104481C
:10382000FDF72AFB0A2000F068FEE0B210BD0000A0
:103830000038014010B50446FFF7E6FE19E0207895
:103840000A280AD10D210E48FDF779FC00BF80211E
:103850000B48FDF7A7FB0028F9D014F8011B084816
:10386000FDF76DFC00BF80210548FDF79BFB00289C
:10387000F9D020780028E2D1FFF7D6FE10BD000075
:103880000038014070B505462C1D3048006838B13D
:1038900028462E4909688847064606B970BD00BF0C
:1038A0002BA0E16B00F0A8F92DA0216A00F0A4F98B
:1038B0002FA0616A00F0A0F931A0A16A00F09CF984
:1038C00033A0E16A00F098F935A0216800F094F97E
:1038D00037A0616800F090F939A0A16800F08CF978
:1038E0003BA0E16800F088F93DA0216900F084F96F
:1038F0003FA0616900F080F941A0A16900F07CF966
:1039000043A0E16900F078F945A0216B00F074F95B
:1039100047A0616B00F070F949A0A16B00F06CF951
:10392000287800F0040048B100F0C2FE0646314697
:1039300047A000F061F9FEF753FF02E04CA000F051
:103940005BF9FEF74BFC00BFFEE70000140100200E
:103950007073723A203078253038780A0000000001
:103960007230303A203078253038780A0000000074
:103970007230313A203078253038780A0000000063
:103980007230323A203078253038780A0000000052
:103990007230333A203078253038780A0000000041
:1039A0007230343A203078253038780A0000000030
:1039B0007230353A203078253038780A000000001F
:1039C0007230363A203078253038780A000000000E
:1039D0007230373A203078253038780A00000000FD
:1039E0007230383A203078253038780A00000000EC
:1039F0007230393A203078253038780A00000000DB
:103A00007231303A203078253038780A00000000D2
:103A10007231313A203078253038780A00000000C1
:103A20007231323A203078253038780A00000000B0
:103A3000206C723A203078253038780A0000000077
:103A40002070633A203078253038780A0000000072
:103A500068617264206661756C74206F6E20746892
:103A6000726561643A2025730D0A0D0A000000009A
:103A700068617264206661756C74206F6E20686185
:103A80006E646C65720D0A0D0A000000F0B5044604
:103A90000D461646301D20F0070040380146002232
:103AA00003E00C4F41F82270521C102AF9D30D622A
:103AB0004FF0000CC1F824C0C1F828C0C1F82CC0D8
:103AC000C1F830C04B638C634FF0807CC1F83CC0C0
:103AD000F0BD0000EFBEADDE30B5014601B930BD2E
:103AE0004FF0E02464694FF47A75B4FBF5F404FBFD
:103AF00001F24FF0E024A06900BF4FF0E024A46978
:103B0000844204D24FF0E024A469031B07E04FF085
:103B1000E024646904444FF0E025AD69631B9342DF
:103B2000EBD300BFDBE7000010B5FCF71DFB04463C
:103B300004480078401C034908702046FCF718FB35
:103B400010BD00008800002010B5FCF70DFB0446F6
:103B500004480078401E034908702046FCF708FB23
:103B600010BD00008800002070B504462068A0F158
:103B70001405284600F07EFD002070BD2DE9F041BF
:103B800005460C469046204600F0D0FDB8F1000FE7
:103B900003D0B8F1010F23D105E004F11401284648
:103BA00000F060F81CE02E680FE0A6F1140794F80E
:103BB000350097F83510884206DA04F1140107F150
:103BC000140000F04FF802E03668AE42EDD100BFBD
:103BD000AE4204D104F11401284600F043F800BFBE
:103BE00000BF0020BDE8F08110B5044604F11400C8
:103BF00000F01AF8002010BD0FB438B505A80090E9
:103C00007F210848009B049A00F044FF04467F2C63
:103C100000D97F240348FFF70DFE0020009038BC38
:103C20005DF814FB1CA300204060006070474060FA
:103C30000060704740600060704702685160026831
:103C40000A600160486070470268516002680A605B
:103C50000160486070470268516002680A60016054
:103C6000486070474268116042684A60416008607D
:103C7000704701460868884201D101207047002042
:103C8000FCE701460868884201D101207047002006
:103C9000FCE701460868884201D1012070470020F6
:103CA000FCE7014600200A4601E01268401C136848
:103CB0008B42FAD17047D0E900215160D0E900125F
:103CC0001160406000607047D0E900215160D0E988
:103CD0000012116040600060704700002DE9F04163
:103CE000054615B90020BDE8F081E81C20F0030569
:103CF0004E480068854201D90020F4E70C2D00D21F
:103D00000C254FF0FF314A4800F04FFA494800684F
:103D100049490968461A7EE0474800688419608866
:103D2000002874D106F10C006168081AA8426ED30D
:103D300006F10C006168091A05F11800814230D3C0
:103D400006F10C0000EB05083B48006800EB080793
:103D50004FF4F55038800020788060687860BE604D
:103D6000C4F80480012060803048796800680C3015
:103D7000814205D03049786809680844C0F8088055
:103D80002E48016805F10C0008442C4908602C48B5
:103D900000680968884219D22848006828490860E4
:103DA00014E001206080244960680968611A401AA3
:103DB00022490968084421490860214800680968C7
:103DC000884203D21D4800681D4908604FF4F55031
:103DD000208018480068844212D107E01548006826
:103DE000406815490968084412490860114800688C
:103DF000408828B10F480068124909688842EDD10F
:103E00000B4800F0B5F904F10C006CE7FFE70A4835
:103E100000683044466805480068401BB0423FF6E1
:103E20007BAF034800F0A4F900205CE79800002075
:103E30009CA30020940000208C0000209C00002007
:103E4000A00000209000002070B50C4601462346DB
:103E50008B4210D29D188D420DD91144134405E0B8
:103E60005D1E2B462E784D1E29462E70151EA2F182
:103E70000102F5D108E003E013F8015B01F8015BF2
:103E8000151EA2F10102F7D170BDF0B50C46054632
:103E9000E6B2042A15D300F0030797B9014646EAB3
:103EA000062343EA034304E008C108C108C108C16E
:103EB000103A102AF8D201E008C1121F042AFBD2DE
:103EC0000D4601E005F8016B171EA2F10102F9D1C0
:103ED000F0BD2DE9F04106460F46304600F044F8AB
:103EE0000546E868FFF7FAFE044614B90020BDE86D
:103EF000F08100212046EA68FFF7C7FF2672002004
:103F0000607208223946204600F0EBF9FCF72CF9E4
:103F1000804604F10C01281DFFF78FFE4046FCF798
:103F200027F92046E3E770B5044600202072FCF72D
:103F30001BF9054604F10C00FFF7BDFE2846FCF70F
:103F400017F92046FFF792FB70BD70B504460020BC
:103F50002072FCF709F9054604F10C00FFF7ABFEEF
:103F60002846FCF705F970BD024600210AE0074823
:103F700000EB01100078904203D1044800EB0110DF
:103F80007047491C0429F2DB0020F9E7A400002057
:103F90002DE9F04704460D46904600262846FFF7D7
:103FA000E3FF0746FFF730FB7E6802E0A6F10C0056
:103FB0003668381D8642F9D1FFF736FB45F08000A0
:103FC000207208224146204600F08BF9FCF7CCF81D
:103FD000814604F10C01381DFFF72FFE4846FCF71F
:103FE000C7F8BDE8F0870146087A00F0800008B104
:103FF000012070470020FCE72DE9F041FCF7B4F800
:1040000007461848008838BB17480068FDF7CEF807
:10401000461E164850F83600A0F1140414480068F3
:10402000844218D013490E70114805680460124884
:10403000007850B904F11C0105F11C00FCF79BF855
:104040003846FCF795F8BDE8F08104F11C0105F154
:104050001C00FCF790F800BF3846FCF789F800BF59
:10406000F1E70000E4000020F0000020BCA30020E5
:10407000E8000020EC0000208800002070B5044615
:10408000FCF772F8054614F8340F20F00F0040F0EA
:10409000010020706278343C0A4B03EBC20004F14B
:1040A00014014268116042684A604160086000BFC4
:1040B0000549A06B09680843034908602846FCF7D6
:1040C00057F870BDBCA30020F000002070B5044676
:1040D000FCF74AF8054604F11400D0E900215160CC
:1040E000D0E9001211604060006000BF94F8351004
:1040F000094A02EBC1000168814201D1012100E0BF
:10410000002129B10548A16B006888430349086074
:104110002846FCF72DF870BDBCA30020F00000205D
:104120002DE9F04105460E46174629460220FFF7C5
:10413000D0FE044614B92046BDE8F0812046FFF7C2
:1041400053FDA68367722046F6E72DE9F041044649
:104150000D4616461F462A4602212046FFF718FF45
:104160002046FFF741FDA68367720020BDE8F0817D
:1041700070B504460025FBF7F7FF064604F114006E
:10418000FFF777FD28B904F11400FFF7EDFC0125D6
:1041900002E0A08B401CA0833046FBF7E9FF012D15
:1041A00001D1FFF729FF002070BD73B50546FBF76D
:1041B000DBFF0646A88B002806DDA88B401EA883DF
:1041C0003046FBF7D5FF28E0019828B93046FBF7C9
:1041D000CFFF6FF001007CBD00F06AFA04460020BA
:1041E00020636A7A214605F11400FFF7C7FC0198A5
:1041F000002809DD01AA002104F1440000F072FB4F
:1042000004F1440000F0B2FB3046FBF7B1FFFFF7CA
:10421000F3FE206B08B1206BDDE70020DBE7000038
:1042200008B509A0FFF7E8FC0AA0FFF7E5FC12A01B
:10423000032301221946009012A0FFF7DDFC19A00C
:10424000FFF7DAFC08BD00000A205C207C202F0A62
:10425000000000002D205254202D2020202020542A
:104260006872656164204F7065726174696E672061
:1042700053797374656D0A004D61722032342032B7
:1042800030323100202F207C205C2020202020256F
:10429000642E25642E2564206275696C6420257364
:1042A0000A0000002032303036202D2032303139E3
:1042B00020436F7079726967687420627920727424
:1042C0002D746872656164207465616D0A00000078
:1042D00001460A4600E0521C10780028FBD1501A13
:1042E000704770B50346A2B118460C4600BF14F8DB
:1042F000016B00F8016B3EB902E0002500F8015B9C
:10430000551E2A1EF9D102E0551E2A1EEFD100BF0C
:1043100000BF184670BD00002DE9F04105460E466D
:10432000E81C20F0030726F00308B8F1180F09D99C
:10433000A8F11800B84205D3A8EB070018381E49A9
:10434000086006E0324629461CA0FFF755FCBDE890
:10435000F0812948076004684FF4F5502080164822
:1043600000680C3060600020A060608022496068B6
:1043700009680844214908604FF4F550096808802D
:1043800001201E49096848800B4800680C301B4911
:1043900009684860084800680C3018490968886056
:1043A0000023012216A11848FFF7CFFE124800682B
:1043B0001649086000BFCAE7980000206D656D20AF
:1043C000696E69742C206572726F7220626567690C
:1043D0006E206164647265737320307825782C20B8
:1043E000616E6420656E642061646472657373201D
:1043F000307825780A0000008C0000209000002012
:1044000068656170000000009CA3002094000020FB
:1044100010B500200B490880002405E00A4901EB93
:10442000C400FFF704FC641C202CF7DB1F200749A5
:104430000870002006490860064908600648FFF732
:10444000F6FB10BDE4000020BCA30020EC0000201F
:10445000E8000020F0000020F400002070B50848BB
:104460000068FCF7A3FE451E064850F83500A0F191
:1044700014040548046004F11C00FBF7AAFE70BD9B
:10448000F0000020BCA30020E800002010B50024AC
:1044900005E0044901EBC400FFF7CCFB641C002CD1
:1044A000F7D010BDFC00002070472DE9FF5F0646E5
:1044B0000F4690461D46DDE90EAB31460120FFF761
:1044C00008FD8146B9F1000F03D1002004B0BDE81A
:1044D000F09F2846FFF702FC044624B94846FFF740
:1044E00022FD0020F2E743463A46314648468DE831
:1044F000300CFDF773F84846E8E710B5044620464F
:1045000000F0DCF810BD000070B512480468FBF73D
:104510002BFE05462046FFF7D9FD042084F8340021
:1045200004F1440000F0FAF92046FFF75CFD012891
:1045300005D1206F18B92046FFF707FD04E004F10C
:1045400014010548FFF780FB2846FBF711FEFFF733
:1045500053FD70BDE8000020F400002001E000F0F1
:1045600001F8FCE770B53AE0FBF7FEFD0546FCF705
:1045700053FE30B31D480068A0F1140404F1140088
:10458000D0E900215160D0E9001211604060006064
:1045900000BFFFF739F8206F10B12046216F884720
:1045A0002046FFF720FD012808D12046FFF7CDFC6B
:1045B000FFF73AF82846FBF7DBFD70BDFFF734F84C
:1045C00003E02846FBF7D4FDF7E72846FBF7D0FDCC
:1045D000A06AFFF74BF82046FFF7A5FC00BFFCF7E9
:1045E0001BFE0028C0D100BFE7E70000F400002058
:1045F0001FB520201F21C200074BCDE90032CDE9B5
:1046000002100023054A06A1074800F00FF80648EB
:1046100000F076F81FBD00001CA200205D450008D8
:104620007469646C65000000A4A100202DE9FF5F9F
:1046300005460C4616461F46DDE910ABDDE90E893E
:10464000224601212846FFF7A3FC3B46324621467D
:1046500028468DE8000FFCF7C1FF04B0BDE8F09FCD
:1046600070B50446204600F0C5F80546284600F01F
:1046700025F870BD70B5044694F8340000F00F00C2
:10468000022802D04FF0FF3070BDFBF76DFD0546EC
:1046900004F11400FFF718FB04F1440000F0E2F904
:1046A0002846FBF765FD2046FFF7E8FC0020EBE716
:1046B0000148006870470000E800002031B5FBF7B2
:1046C00053FD05460D480468204600F02FF86A4661
:1046D000002104F1440000F005F904F1440000F069
:1046E00045F92846FBF744FDFFF786FC206B801C4C
:1046F00008B900202063002038BD0000E800002039
:1047000010B504463434A078607061780120884088
:104710006060022004F834092046FFF7ABFFFFF782
:10472000C7FF08B1FFF768FC002010BD70B5044654
:1047300094F8340000F00F00012802D04FF0FF3051
:1047400070BDFBF711FD054694F8340020F00F0012
:1047500040F0020084F834002046FFF7B7FC04F173
:10476000440000F07FF92846FBF702FD0020E7E750
:1047700070B5044625466FF00100286305F114006A
:10478000FFF7A2FA2846FFF779FCFFF735FC70BD6A
:1047900070B5FBF7E9FC05461448046894F834004A
:1047A00000F00F0001281CD1D4E90510814218D077
:1047B00004F11400FFF788FA94F835200C4B03EB52
:1047C000C20004F114014268116042684A6041600D
:1047D000086000BF2846FBF7CBFCFFF70DFC00206C
:1047E00070BD2846FBF7C4FC0020F9E7E800002074
:1047F000BCA300200146002902DA4FF0FF3014E08C
:104800004FF47A7291FBF2F24FF47A7302FB03F0E9
:104810001A4691FBF2F302FB13124FF47A735A43D8
:1048200002F2E73292FBF3F210447047014800684D
:10483000704700008400002010B50A480068401C42
:1048400008490860FFF734FF0446206C401E2064CE
:10485000206C18B9E06B2064FFF79AFF00F004F8B1
:1048600010BD00008400002070B5FFF7DFFF054693
:10487000FBF77AFC064628E019480068A0F114040A
:10488000A06A281A6FF0004188421DD22046FCF72A
:1048900008FFD4E907108847FFF7C8FF0546607A8C
:1048A00000F0020058B1607A00F0010038B1607A7F
:1048B00020F001006072204600F058F805E0607AB0
:1048C00020F00100607200E004E00548FFF7D9F92C
:1048D0000028D1D000BF3046FBF74AFC70BD000075
:1048E000FC000020034649B1012904D0022908D068
:1048F000032910D10AE0586A10600CE01068586271
:1049000009E0587A20F00200587204E0587A40F02A
:104910000200587200BF00BF0020704770B5044607
:10492000FBF722FC05462046FCF7BBFE2846FBF7BA
:104930001FFC2046FFF709FB002070BD2DE9F8435E
:1049400007460C4615461E46DDE9088922460A211F
:104950003846FFF71DFB4346324629463846CDF818
:104960000090FCF77DFEBDE8F88300002DE9F843D8
:104970000546FBF7F9FB80462846FCF792FE687A6D
:1049800020F0010068724046FBF7F2FBFFF74EFF94
:10499000696A0844A862FBF7E7FB80462F4F00973F
:1049A00000242AE019E05DF824201168142202EBAB
:1049B000C402881A826AAB6AD21A00D108E0826AFD
:1049C000AB6AD21A6FF000439A4200D20CE000BFEB
:1049D0005DF8240000684DF824005DF8240007EB22
:1049E000C40149688842DED100BF2CB15DF82400C3
:1049F0000830611C4DF82100641C002CD2D01848EE
:104A00000068401C164908600846066805F1140154
:104A10000098FFF720F9022412E006F0030060B9C5
:104A2000C4F1010305F1140202EBC301C4F1010258
:104A30005DF82200FFF70FF900E003E0B608641C00
:104A4000012CEAD900BF687A40F001006872404644
:104A5000FBF78EFB0020BDE8F8830000FC0000207F
:104A60000401002070B50446607A00F0010010B91E
:104A70004FF0FF3070BDFBF777FB05462046FCF793
:104A800010FE2846FBF774FB607A20F0010060728C
:104A90000020EFE72DE9FF4F89B0804644460A9891
:104AA00008EB0006464504D24FF0FF36A6EB08009F
:104AB0000A906FE10B980078252806D0B44202D204
:104AC0000B9800782070641C61E1002526E00B98AB
:104AD000401C0B900B9800782D2802D145F0100552
:104AE0001CE00B9800782B2802D145F0040515E056
:104AF0000B980078202802D145F008050EE00B98AD
:104B00000078232802D145F0200507E00B980078B3
:104B1000302802D145F0010500E000E0D7E700BFF2
:104B20004FF0FF370B98007830380A2804D20BA8D2
:104B300000F0E6F907460EE00B9800782A280AD123
:104B40000B98401C0B900C9880C80C90002F02DA38
:104B50007F4245F010054FF0FF390B9800782E2862
:104B60001CD10B98401C0B900B98007830380A2809
:104B700004D20BA800F0C4F981460AE00B98007833
:104B80002A2806D10B98401C0B900C9850F8049BD7
:104B90000C90B9F1000F01DA4FF0000900200490E9
:104BA0000B980078682803D00B9800786C2805D102
:104BB0000B98007804900B98401C0B900A200590ED
:104BC0000B9800786F2875D00CDC632813D004DCB8
:104BD000252870D058286FD18DE064286DD06928C1
:104BE000F9D18FE070286AD0732825D0752878D045
:104BF0007828F0D182E005F0100040B904E0B4421A
:104C000001D220202070641C781E071EF7DC0C984F
:104C100010F8041B0C90C8B20790B44201D2079858
:104C20002070641C04E0B44201D220202070641C77
:104C3000781E071EF7DCAAE00C98006806900C9816
:104C4000001D0C90069808B95CA006900698FFF726
:104C50003FFB8346B9F1000F02DDCB4500DDCB46BB
:104C600005F0100048B904E0B44201D220202070C1
:104C7000641C38467F1E5845F6DC002008900BE087
:104C8000B44202D2069800782070641C0698401C3A
:104C900006900898401C089008985845F0DB04E0FE
:104CA000B44201D220202070641C38467F1E584533
:104CB000F6DC6CE01CE015E028E022E0FFE7781C61
:104CC00010B9082745F00105CDE9007902950C9847
:104CD00004C8102331460C902046FEF7B5FA04466E
:104CE00055E012E0B44201D225202070641C4EE051
:104CF000082005901DE045F0400500BF10200590FC
:104D000017E000BF45F0020500BF12E0B44201D237
:104D100025202070641C0B98007830B1B44202D278
:104D20000B9800782070641C02E00B98401E0B90DA
:104D30002DE000BF04986C2807D10C9850F804AB04
:104D40000C9005F00200B8B116E0049868280BD169
:104D50000C9830F8041B1FFA81FA0C9005F0020041
:104D600050B10FFA8AFA07E00C9850F804AB0C9097
:104D700005F0020000B100BFCDE90079029552466E
:104D800031462046059BFEF75FFA044600BF0B98AC
:104D9000401C0B900B98007800287FF48BAE0A988B
:104DA00038B1B44202D20020207002E0002006F8A0
:104DB000010CA4EB08000DB0BDE8F08F284E554C57
:104DC0004C290000002070470020704700207047E9
:104DD0000020704710B5FBF7C7F9FEF7BFFCFFF7DF
:104DE0001FFAFFF753FBFFF713FBFEF7C7FBFFF7B5
:104DF0005BFBFFF7FDFBFFF731FB002010BD000060
:104E000010B510210148FBF70FFD10BD000801404F
:104E100010B54FF480710248FBF706FD10BD00008D
:104E20000010014010B54FF480610248FBF7FCFC14
:104E300010BD00000010014010B54FF40071024891
:104E4000FBF7F2FC10BD00000010014010B54FF45C
:104E500000610248FBF7E8FC10BD000000100140B3
:104E60002DE9F04104460E461546064807192A4624
:104E700031463846FEF73CF9601984B22046BDE859
:104E8000F081000070A10020024B1A181170431C21
:104E900098B2704770A1002070B5044609A0FEF7D3
:104EA000ABFEFEF7ABF8012802D12046FDF7B8FFB4
:104EB000FCF7A2FE05462246294603A0FEF79CFE0B
:104EC00070BD00000A00000025732573000000007B
:104ED00070B5044625680CE0A5F11406314606A01D
:104EE000FEF78AFE2868A04202D004A0FEF784FEE6
:104EF0002D68A542F0D170BD257300002F00000081
:104F00000146002009E00B685A1C0A601A7800EB81
:104F1000800302EB4302A2F130000A681278303AB3
:104F20000A2AF0D37047000010B520210148FBF792
:104F30007BFC10BD0008014070B50446FFF7F4FF8C
:104F4000FFF75EFF002503E000F006F8681CC5B21D
:104F5000A542F9DB70BD000010B500240FE0402130
:104F60000848FBF761FC0220FEF7B6FD402105482A
:104F7000FBF758FC0220FEF7AFFD601CC4B2C82C42
:104F8000EDDB10BD0008014010B503461A4601E0F4
:104F9000521C491C107828B1087818B110780C7888
:104FA000A042F5D0D01A10BD0B4909680B4A12680F
:104FB00091420FD008490A6809498A4202D3173939
:104FC000054A116004490968087803490968491CC1
:104FD000014A1160704700007C000020780000202A
:104FE0006AA1002040F2E47017490880012088700F
:104FF000C87000200871487188710120C87121E0D3
:105000004FF47A70FFF72CFB0F488079401C0E4953
:105010008871084680793C2814DB08464079401C9A
:105020004871084640793C280CDBFDF765FE0648D0
:105030000079401C0449087108460079182801DBF2
:10504000FDF75AFEDCE700002C00002004E03220CF
:10505000FFF753FA00F0FCF9F9E70000124909687C
:10506000124A1268891A01291CD0104909680E4A8F
:105070001268914206D90D4909680B4A1268891ACB
:1050800017290FD209490A6809498A4202D31739F8
:10509000064A116005490968087004490968491CF5
:1050A000024A1160704700007C0000207800002058
:1050B0006AA1002010B5044621460248FCF743F8D7
:1050C00010BD00000044004010B51EA0FEF794FD86
:1050D0002048018820A0FEF78FFD1E48008800F0C0
:1050E000010010B122A0FEF787FD1A48008800F0E9
:1050F000020010B121A0FEF77FFD1648008800F0E5
:10510000040010B120A0FEF777FD1248008800F0DF
:10511000080010B11EA0FEF76FFD0E48008800F4D5
:10512000807010B11CA0FEF767FD0A48008800F4EB
:10513000007010B11BA0FEF75FFD05A0FEF75CFD3F
:1051400010BD00007573616765206661756C743A07
:105150000A0000002AED00E05343425F43465352E9
:105160005F554653523A30782530325820000000BF
:10517000554E444546494E5354522000494E5653CD
:105180005441544520000000494E56504320000031
:105190004E4F435020000000554E414C49474E456C
:1051A0004420000044495642595A45524F200000BD
:1051B00010B5FFF735F8002010BD2DE9F04F9DB078
:1051C0000446884601250027002019901A901B905C
:1051D0001C908346002664216846FBF758F84FF080
:1051E00000094FF0000A207801284FD1B8F1010FD3
:1051F0004CDB44E0675D0F22002119A8FDF79AFF00
:10520000B81E82B26019411C19A8FDF771FFE81998
:10521000205C303800F0FF0B681C3844265C26B157
:10522000012E02D01DB0BDE8F08F64220021684637
:10523000FDF780FF681C384400F1010914F809A04B
:105240004EB904EB0900421CF1B25B460DF1660059
:1052500000F01EF810E0012E0ED11FFA8AF204EBC6
:105260000900411C6846FDF743FFF1B25B466A4600
:105270000DF1660000F00CF8F81C5044054445455B
:10528000B8DB00221146212000F070F900BFC9E709
:105290002DE9F0418EB080460D4614461E4632225E
:1052A000002101A8FDF746FF5DB92078000661786E
:1052B00040EA0140A17840EA0120E17840EA010794
:1052C00005E0012D03D1214601A8FDF754FF17A1E8
:1052D0004046FDF740FF28B93A46314615A0FBF796
:1052E00041FF1FE01AA14046FDF735FF28B93A46B5
:1052F00031461AA0FBF736FF14E020A14046FDF727
:105300002AFF28B93A4631461EA0FBF72BFF09E0D9
:1053100023A14046FDF71FFF20B901AA314623A073
:10532000FBF720FF0EB0BDE8F081000074656D70E2
:10533000000000006461793A25642074656D702076
:1053400076616C75652069733A25640D0A0000006A
:1053500068756D6964697479000000006461793A68
:1053600025642068756D69646974792076616C754F
:10537000652069733A25640D0A000000706D3235AE
:10538000000000006461793A256420706D32352098
:1053900076616C75652069733A25640D0A0000001A
:1053A000636F6E646974696F6E0000006461793ABE
:1053B000256420636F6E646974696F6E2076616C1A
:1053C00075652069733A25730D0A000070B50446AF
:1053D0000D460026012C03D105A0FEF70DFC05E0CB
:1053E00024B92E46314607A0FEF706FC70BD00002A
:1053F000E68993E5BC80E5A4A9E6B094E68890E54B
:105400008A9F0000E68993E5BC80E5A4A9E6B094F4
:10541000E5A4B1E8B4A5EFBC8CE99499E8AFAFE49A
:10542000BBA3E7A081EFBC9A2564000004480549AE
:1054300008600549086000200449087070470000B2
:1054400053A10020780000207C0000208000002074
:1054500070B50024002509E0FFF7A6FD38490A8849
:105460000988491C364B19803649885434480088CD
:105470001F2803D200F09EF80028EDDC3048008899
:10548000072800DA70BD42E02E48005D552802D0A2
:10549000601C84B23BE02B49601C085CAA2802D047
:1054A000601C84B233E02749A01C085C10B1A01C2A
:1054B00084B22CE02349201D085C4FF6FF7101EAFD
:1054C00000252049601D085CC01D284485B2262D9A
:1054D00002D9E01C84B21AE019480088001BA842D7
:1054E00000DA19E06A1E91B2164A1019FCF71CFE88
:1054F0006119491E134A515C884202D0E01C84B2F3
:1055000005E02046FCF7B2F9601984B200BF0C48F0
:105510000088001B0728B7DA00BF09480088001B75
:105520000749088008460088002806DD054801195B
:10553000034802880348FDF7DBFD00BFA2E7000037
:105540005400002034A1002070B504460D4604B17B
:1055500005B970BD03E02078FFF7ACFD641C281E80
:10556000A5F101018DB2F6D100BFF2E72DE9F041BE
:1055700005460E461446002755200D490870AA20FE
:10558000487008468670C570201208714C71E01D85
:1055900084B2601E81B20648FCF7C6FD0746601E55
:1055A00003490F5421460248FFF7CEFFBDE8F081C2
:1055B0006AA100200448006804490968884201D0B3
:1055C000012070470020FCE7780000207C000020CC
:1055D0000100020103020404070108011002110284
:1055E000120213010000010002000100030001008B
:1055F000020001000400010002000100030001009C
:10560000020001000500010002000100030001008A
:10561000020001000400010002000100030001007B
:105620000200010006000100020001000300010069
:10563000020001000400010002000100030001005B
:10564000020001000500010002000100030001004A
:10565000020001000400010002000100030001003B
:105660000200010007000100020001000300010028
:10567000020001000400010002000100030001001B
:10568000020001000500010002000100030001000A
:1056900002000100040001000200010003000100FB
:1056A00002000100060001000200010003000100E9
:1056B00002000100040001000200010003000100DB
:1056C00002000100050001000200010003000100CA
:1056D00002000100040001000200010003000100BB
:1056E00002000100303132333435363738396162E7
:1056F00063646566003031323334353637383941CA
:105700004243444546006C6973745F6D656D006883
:10571000656C6C6F0076657273696F6E005F5F63B6
:105720006D645F76657273696F6E006C6973745F28
:10573000746872656164005F5F636D645F6C697358
:10574000745F746872656164006C6973745F73651B
:105750006D005F5F636D645F6C6973745F73656D2B
:10576000006C6973745F6D61696C626F78005F5F74
:10577000636D645F6C6973745F6D61696C626F788F
:10578000006C6973745F74696D6572005F5F636D4F
:10579000645F6C6973745F74696D6572006C6973C2
:1057A00074005F5F636D645F68656C70005F5F636A
:1057B0006D645F7073005F5F636D645F66726565E3
:1057C00000000000706D323500000000636F6E64F1
:1057D0006974696F6E00000074656D7000000000F0
:1057E00068756D696469747900000000252D2A2EA2
:1057F0007320707269202073746174757320202087
:1058000020202073702020202020737461636B207F
:1058100073697A65206D61782075736564206C65A5
:105820006674207469636B20206572726F720A005F
:10583000D14D0008C94D0008C54D0008A51C000841
:10584000CD4D000806570008312600080F57000804
:105850009522000815570008B15100081D5700088F
:10586000B15100082B570008E127000837570008FE
:10587000E127000849570008A926000852570008E8
:10588000A926000861570008D52400086E570008B3
:10589000D524000881570008C52900088C57000846
:1058A000C52900089D570008C9230008A257000811
:1058B000892F0008AD5700085D180008B65700088A
:1058C0004F180008E45800080000002034010000D0
:1058D0008004000840590008340100200CA8000092
:1058E000081200081184A24A046809010203040690
:1058F0000708090C6910053402040608200B303132
:10590000313233323063303113D8571B08E0041A78
:10591000CC041AC404A1022101292222A82A2004AD
:10592000327832021AB80C2904322032051AC80C17
:1059300029043230320A1AD80C290402532C0000F0
:0400000508000131BD
:00000001FF
