:020000040800F2
:1000000000180020450100084D0100080F020008FB
:1000100051010008530100085501000800000000CC
:100020000000000000000000000000005701000870
:10003000590100080000000097010008251400087D
:100040005F0100085F0100085F0100085F01000810
:100050005F0100085F010008410600085F01000819
:100060006F0600085F0100085F0100085F010008DB
:100070005F0100085F0100085F0100085F010008E0
:100080005F0100085F0100085F0100085F010008D0
:100090005F0100085F0100085F0100085F010008C0
:1000A0005F0100085F0100085F0100085F010008B0
:1000B0005F0100085F0100085F0100085F010008A0
:1000C0005F0100085F0100085F0100085F01000890
:1000D0005F010008951400085F0100085F01000837
:1000E0005B0600085F0100085F0100085F0100086F
:1000F0005F0100085F0100085F0100085F01000860
:100100005F0100085F0100085F0100085F0100084F
:100110005F0100085F0100085F0100085F0100083F
:100120005F0100085F0100085F0100085F0100082F
:10013000DFF80CD000F0B8F80048004723030008AF
:10014000001800200648804706480047FEE7FEE703
:10015000FEE7FEE7FEE7FEE7FEE7FEE7FEE7FEE777
:100160003514000831010008EFF3108072B67047B3
:1001700080F310887047324A1368012B04D04FF087
:10018000010313602F4A10602F4A11602F484FF06F
:10019000805101607047EFF3108272B62848016801
:1001A00091B14FF0000101602648016829B1EFF3D9
:1001B000098121E9F00F0068016023490968096895
:1001C000B1E8F00F81F3098882F310884EF0040E35
:1001D00070471D4908601B494FF00000086018492E
:1001E0004FF0010008601A484FF47F01D0F800205A
:1001F00041EA0201016015484FF080510160154845
:100200000068006880F3088861B662B670471EF027
:10021000040F14BFEFF30880EFF3098020E9F00F1B
:1002200040F804ED14BF80F3088880F3098800B516
:1002300002F016FC5DF804EB4EF0040E704700006F
:10024000FC000020F4000020F800002004ED00E095
:1002500020ED00E008ED00E0D2B201E000F8012B53
:10026000491EFBD270470022F6E710B513460A4636
:1002700004461946FFF7F0FF204610BD30B50B4687
:10028000014600202022012409E021FA02F59D42C6
:1002900005D303FA02F5491B04FA02F52844151E9A
:1002A000A2F10102F1DC30BD064C074D06E0E0682A
:1002B00040F0010394E8070098471034AC42F6D3AD
:1002C000FFF73AFF288000084880000870B58C18B6
:1002D00010F8015B15F0070301D110F8013B2A115A
:1002E00006D110F8012B03E010F8016B01F8016B47
:1002F0005B1EF9D12B0705D40023521E0DD401F843
:10030000013BFAE710F8013BCB1A921C03E013F80B
:10031000015B01F8015B521EF9D5A142D8D3002040
:1003200070BD10B5FFF720FF03F068FD002010BD81
:1003300021B1826842F00102826003E0826822F00B
:1003400001028260704721B1826842F480128260AB
:1003500003E0826822F48012826070470146002028
:100360008A6802F004020AB1012000E00020704710
:10037000014600208A6802F008020AB1012000E06C
:100380000020704710B50023CBB21AB144681C435B
:10039000446002E044689C43446010BD30B50246AE
:1003A0000020002350680F4C20400D790C6844EA6F
:1003B00005242043506090680B4C2040D1E9025442
:1003C0002C434D7944EA450420439060D06A20F4E0
:1003D00070000C7C641EE4B2234340EA0350D062F8
:1003E00030BD0000FFFEF0FFFDF7F1FFF0B5044661
:1003F0000D4600200021092D11DDE068A5F10A0657
:1004000006EB4607072606FA07F18843A5F10A0618
:1004100006EB460603FA06F10843E0600CE02069AB
:1004200005EB4507072606FA07F1884305EB450665
:1004300003FA06F108432061072A0FDA606B561EA3
:1004400006EB86071F2606FA07F18843561E06EBC1
:10045000860605FA06F10843606322E00D2A0FDAEA
:10046000206BD61F06EB86071F2606FA07F1884386
:10047000D61F06EB860605FA06F10843206310E056
:10048000E06AA2F10D0606EB86071F2606FA07F1C1
:100490008843A2F10D0606EB860605FA06F108432D
:1004A000E062F0BD816841F008018160704721B1D0
:1004B000826842F4A002826003E0826822F4A00213
:1004C00082607047816841F00401816070470000DC
:1004D00008B50121102000F093FE0220ADF80000C5
:1004E00000208DF8030069460D4800F03FFA012115
:1004F000102000F085FE1020ADF8000000208DF8DF
:1005000003006946064800F031FA2020ADF80000EB
:1005100000208DF803006946014800F027FA08BD65
:100520000010014010B5FFF7D3FF00F001F810BD37
:1005300000B585B00121480200F062FE4FF4C020F2
:10054000009000208DF8040001208DF805004FF484
:10055000602002900020039001208DF81000694671
:100560003548FFF71BFF4FF4004000F02DFE062337
:1005700001220B213048FFF739FF01224FF40871A7
:100580002D48FFF7FFFE01212B48FFF7D1FE2A4837
:10059000FFF788FF00BF2848FFF7EAFE0028FAD1DE
:1005A0002548FFF78FFF00BF2348FFF7D7FE00283D
:1005B000FAD101212048FFF77AFF0121880200F0DB
:1005C0001FFE4FF4C020009000208DF804008DF82D
:1005D00005004FF4602002900020039001208DF868
:1005E000100069461548FFF7D9FE4FF4004000F0AF
:1005F000EBFD01211148FFF7A6FE01224FF408711F
:100600000E48FFF7BFFE01210C48FFF791FE0B4893
:10061000FFF748FF00BF0948FFF7AAFE0028FAD1FC
:100620000648FFF74FFF00BF0448FFF797FE00287A
:10063000FAD105B000BD00000024014000280140AF
:1006400010B5012000F01AF818B102F02FFB02F0EB
:100650003DFB012000F00CF810BD10B54FF4005028
:1006600000F00CF84FF4005000F002F810BD704795
:100670000149086070470000140401400146002051
:100680000022074B1B6803EA0102054B14331B6869
:100690000B4013B10AB1012000E0002070470000B8
:1006A00000040140002123498279002A3AD00A46F9
:1006B000126803689A430B461A600A1D12680368A1
:1006C0009A430B1D1A60027911440A6803681A43A1
:1006D0000A60184A0832126803689A43154B0833B7
:1006E0001A601A1D126803689A43124B0C331A6081
:1006F0004279102A0ED11A1F126803681A430D4B53
:1007000008331A601A1D126803681A43094B0C3328
:100710001A600DE00749427911440A6803681A43D8
:100720000A6005E0027911440A6803689A430A6086
:1007300070470000000401400EB500F04BF80121A5
:10074000042000F05DFD0121102000F059FD012082
:10075000ADF8080004208DF80B0002A91B4800F03A
:1007600005F94FF40050ADF8080004208DF80B0097
:1007700002A9174800F0FAF80121084600F040FDF0
:100780000021084600F0D2F80D21022000F0CEF83A
:100790000120009000208DF8040008208DF805004D
:1007A00001208DF806006846FFF77CFF4FF40050EB
:1007B000009000208DF804000C208DF80500012029
:1007C0008DF806006846FFF76DFF0EBD000801407A
:1007D0000010014008B54FF4C06000F0EBFC0620AB
:1007E0008DF8000001208DF801008DF802008DF8D1
:1007F0000300684600F0A6FC28208DF800000120C8
:100800008DF801008DF80200684600F09BFC08BDE1
:1008100051B18200A2F1C042126842F0010382008D
:10082000A2F1C042136009E08200A2F1C042126846
:10083000034B1A408300A3F1C0431A6070470000C5
:10084000FEFF0F00D0E901121143C2681143026993
:1008500011434269114382691143C2691143026A1B
:100860001143426A1143826A1143C26A1143026B07
:10087000114302689200A2F1C04211608168082908
:100880000BD101688900A1F1C041096841F0400223
:1008900001688900A1F1C0410A60416B0968426B9F
:1008A000526841EA0211426B926841EA0221426BAE
:1008B000928941EA0241426B128A41EA0251426B3B
:1008C000127D41EA0261426B926911430268521C37
:1008D0009200A2F1C0421160C16AB1F5804F1BD1F4
:1008E000816B0968826B526841EA0211826B9268DF
:1008F00041EA0221826B128A41EA0251826B127D27
:1009000041EA0261826B9269114302689200A2F18E
:10091000C042C2F8041107E06FF07042016889001C
:10092000A1F1C041C1F804217047000030B5002298
:100930008B071C0F0F2303FA04F20B4B8C1053F898
:1009400024309343084C8D1044F8253023468C10F6
:1009500053F824308C07240F00FA04F42343024C8C
:100960008D1044F8253030BD080001402DE9F041DC
:10097000024600250026002000230024002791F8CD
:1009800003C00CF00F0591F803C00CF0100CBCF183
:10099000000F03D091F802C04CEA050591F800C0A1
:1009A000BCF1000F31D0146800202BE04FF0010C97
:1009B0000CFA00F3B1F800C00CEA03069E4220D105
:1009C00083004FF00F0C0CFA03F7BC4305FA03FC4D
:1009D0004CEA040491F803C0BCF1280F06D14FF093
:1009E000010C0CFA00FCC2F814C00AE091F803C034
:1009F000BCF1480F05D14FF0010C0CFA00FCC2F815
:100A000010C0401C0828D1D31460B1F800C0BCF15C
:100A1000FF0F34DD546800202EE000F1080C4FF089
:100A2000010808FA0CF3B1F800C00CEA03069E4274
:100A300021D183004FF00F0C0CFA03F7BC4305FAE9
:100A400003FC4CEA040491F803C0BCF1280F05D163
:100A500000F1080C08FA0CF8C2F8148091F803C0F1
:100A6000BCF1480F07D100F1080C4FF0010808FA5B
:100A70000CF8C2F81080401C0828CED35460BDE8A2
:100A8000F0814161704701617047000010B5044674
:100A90002CB14FF480510548FFF7F3FF04E04FF409
:100AA00080510248FFF7EFFF10BD00000014014025
:100AB0002DE9F04106460F4614461D462B462246B8
:100AC0003946304600F08EF904FB05F002490988EA
:100AD00000F03CF8BDE8F0813600002001B502E0EE
:100AE0000098401E009000980028F9D108BD00B57C
:100AF00097B00121080200F073FB0120019004204F
:100B000003908006079000200290049005900690C4
:100B10000890099008200A9010200B9000200C905B
:100B20000E900F9010904FF4805011900020129072
:100B30001390149001A81590169008A8FFF782FE54
:100B400001210020FFF764FE17B000BD10B502467A
:100B50000B4600242C2000F09DFA00BF03E018464D
:100B600000F09CFA641C9442F9D310BD08B5012131
:100B7000602000F045FB03208DF8020018208DF85E
:100B800003004FF48040ADF8000069465B48FFF772
:100B9000EDFE4FF40040ADF8000069465748FFF7FE
:100BA000E5FE0120ADF8000069465448FFF7DEFE7F
:100BB0000220ADF8000069465048FFF7D7FE8020BC
:100BC000ADF8000069464E48FFF7D0FE4FF4807044
:100BD000ADF8000069464A48FFF7C8FE4FF40070C0
:100BE000ADF8000069464648FFF7C0FE4FF480604C
:100BF000ADF8000069464248FFF7B8FE4FF40060C8
:100C0000ADF8000069463E48FFF7B0FE4FF4805053
:100C1000ADF8000069463A48FFF7A8FE4FF40050CF
:100C2000ADF8000069463648FFF7A0FE4FF480405B
:100C3000ADF8000069463248FFF798FE4FF40040D7
:100C4000ADF8000069462E48FFF790FE4FF4807023
:100C5000ADF8000069462948FFF788FE4FF40070A0
:100C6000ADF8000069462548FFF780FE4FF480602C
:100C7000ADF8000069462148FFF778FE03208DF8A3
:100C8000020018208DF803001020ADF8000069461E
:100C90001A48FFF76BFE2020ADF8000069461748A0
:100CA000FFF764FE8020ADF8000069461348FFF7A7
:100CB0005DFE4FF40060ADF8000069460F48FFF795
:100CC00055FE10208DF8030003208DF8020002204D
:100CD000ADF8000069460A48FFF748FE10208DF87D
:100CE000030003208DF802004FF48050ADF800009F
:100CF00069460248FFF73AFE08BD000000140140B3
:100D00000018014000B50246072A00DD00BD284852
:100D10000270104602EBD0714910A2EB410139B9C3
:100D2000F020244908804FF4A0702349088006E091
:100D30004FF4A0701F490880F0201F49088036201A
:100D400000F0A8F9082141EA421000F0A7F92A2092
:100D500000F0A0F9002000F0A1F9002000F09EF9B9
:100D600014490988491EC1F3072000F097F9114979
:100D70000978491EC8B200F091F92B2000F08AF9D9
:100D8000002000F08BF9002000F088F90A4909885A
:100D9000491EC1F3072000F081F907490978491E6F
:100DA000C8B200F07BF92C2000F074F900BFADE769
:100DB0002C000020280000202A00002010B5FFF79A
:100DC000D5FEFFF794FE0120FFF760FE00F04EF91C
:100DD00000F034F802480078FFF794FF10BD0000DF
:100DE0002C00002030B504460D462A2000F052F9B0
:100DF000201200F053F9E0B200F050F9A118491E9A
:100E0000C1F30F2000F04AF9A118491EC8B200F042
:100E100045F92B2000F03EF9281200F03FF9E8B226
:100E200000F03CF9E918491EC1F30F2000F036F933
:100E3000E918491EC8B200F031F930BD10B5CF2015
:100E400000F028F9002000F029F9812000F026F9AF
:100E5000302000F023F9ED2000F01CF9642000F0B0
:100E60001DF9032000F01AF9122000F017F9812073
:100E700000F014F9E82000F00DF9852000F00EF9DB
:100E8000102000F00BF9782000F008F9CB2000F0DA
:100E900001F9392000F002F92C2000F0FFF80020C1
:100EA00000F0FCF8342000F0F9F8022000F0F6F829
:100EB000F72000F0EFF8202000F0F0F8EA2000F032
:100EC000E9F8002000F0EAF8002000F0E7F8B1208F
:100ED00000F0E0F8002000F0E1F81B2000F0DEF860
:100EE000B62000F0D7F80A2000F0D8F8A22000F0D1
:100EF000D5F8C02000F0CEF8352000F0CFF8C120A2
:100F000000F0C8F8112000F0C9F8C52000F0C2F8C0
:100F1000452000F0C3F8452000F0C0F8C72000F0DD
:100F2000B9F8A22000F0BAF8F22000F0B3F80020DF
:100F300000F0B4F8262000F0ADF8012000F0AEF883
:100F4000E02000F0A7F80F2000F0A8F8262000F01D
:100F5000A5F8242000F0A2F80B2000F09FF80E2046
:100F600000F09CF8092000F099F8542000F096F861
:100F7000A82000F093F8462000F090F80C2000F034
:100F80008DF8172000F08AF8092000F087F80F206C
:100F900000F084F8072000F081F8002000F07EF8CF
:100FA000E12000F077F8002000F078F8192000F038
:100FB00075F81B2000F072F8042000F06FF8102084
:100FC00000F06CF8072000F069F82A2000F066F8BD
:100FD000472000F063F8392000F060F8032000F0AB
:100FE0005DF8062000F05AF8062000F057F830208F
:100FF00000F054F8382000F051F80F2000F04EF8BF
:10100000362000F047F8C82000F048F82A2000F009
:1010100041F8002000F042F8002000F03FF80020E6
:1010200000F03CF8EF2000F039F82B2000F032F807
:10103000002000F033F8002000F030F8012000F02C
:101040002DF83F2000F02AF83A2000F023F8552030
:1010500000F024F8112000F01DF80348FFF73EFDD2
:10106000292000F017F810BDFCBF020010B50221C6
:101070000748FFF706FD40F6FF20FFF72FFD02218E
:101080000348FFF700FD40F6FF20FFF727FD10BDE6
:10109000001801404FF0C0410880704701490880A6
:1010A0007047000000000260024A1080024A11806E
:1010B00070470000340000203600002008B50121F0
:1010C000082000F09DF82020ADF8000010208DF8D9
:1010D000030003208DF8020069460F48FFF746FC25
:1010E0000120ADF8000069460B48FFF73FFC0220E5
:1010F000ADF8000069460848FFF738FC2021064893
:10110000FFF7C1FC01210448FFF7BDFC02210248A2
:10111000FFF7B9FC08BD0000000C014008B54FF412
:10112000A06000F047F825208DF8000001208DF820
:1011300001008DF802008DF80300684600F002F807
:1011400008BD000070B5002100230F22C47804B34D
:10115000154C246804F4E064C4F5E064210AC1F18C
:101160000403CA40447804FA03F18478144021430C
:1011700009010E4C0678A155047804F01F050124DE
:10118000AC4005786D11AD0005F1E025C5F80041D2
:1011900009E0047804F01F050124AC40044D0678F2
:1011A000761145F8264070BD0CED00E000E400E04B
:1011B00080E100E002490143024A116070470000EB
:1011C0000000FA050CED00E001460020034A5068DB
:1011D00020F4404008435060704700000010024077
:1011E00029B1064A52690243044B5A6104E0034A9A
:1011F00052698243014B5A6170470000001002405F
:1012000029B1064A92690243044B9A6104E0034AF9
:1012100092698243014B9A617047000000100240BE
:1012200030B500210022002400232D4D6D6805F00B
:101230000C0121B1042905D0082923D105E0294D4D
:10124000056022E0274D05601FE0254D6D6805F41F
:101250007012234D6D6805F48034022505EB92422F
:101260001CB9214D554305600BE01D4D6D6805F41B
:1012700000351DB11C4D5543056002E0194D554325
:10128000056002E0174D056000BF00BF144D6D689A
:1012900005F0F0010909154D6B5C0568DD404560FE
:1012A0000F4D6D6805F4E061090A104D6B5C4568EF
:1012B000DD4085600A4D6D6805F46051C90A0B4D2B
:1012C0006B5C4568DD40C560054D6D6805F44041C7
:1012D000890B074D6B5CC568B5FBF3F5056130BD47
:1012E0000010024000127A0000093D0014000020A6
:1012F000240000201CB5142005214FF400730022A7
:10130000CDE90010064907A002F039F90A49086042
:101310000846006818B10846006802F025FA1CBDAE
:10132000C53E0008776966695F756172745F7365B1
:1013300072766963650000005C00002010B500F063
:1013400001F810BD0CB500200190009033480068F2
:1013500040F480303149086000BF3048006800F434
:10136000003000900198401C0190009818B9019835
:10137000B0F5A06FF1D12948006800F4003010B139
:101380000120009001E0002000900098012843D146
:101390002348006840F010002149086008460068B2
:1013A00020F0030008600846006840F00200086072
:1013B0001A4840681949486008464068486008462D
:1013C000406840F4806048600846406820F47C1023
:1013D00048600846406840F4E810486008460068E5
:1013E00040F08070086000BF0C48006800F000709A
:1013F0000028F9D00948406820F0030007494860F8
:101400000846406840F00200486000BF034840685A
:1014100000F00C000828F9D10CBD000000100240BB
:101420000020024010B501F041FC02F01DFA01F06D
:101430004DFC10BD10B51348006840F00100114983
:10144000086008464068104908400E494860084650
:1014500000680E4908400B4908600846006820F4FF
:10146000802008600846406820F4FE0048604FF481
:101470001F008860FFF762FF4FF0006004490860BA
:1014800010BD0000001002400000FFF8FFFFF6FE54
:1014900008ED00E010B540F22551064800F06DF867
:1014A00030B1044800F024F9C4B2204602F010FD27
:1014B00010BD00000038014021B1828942F4005281
:1014C000828104E082894DF6FF731A408281704761
:1014D00000B585B001210420FFF792FE01218803A9
:1014E000FFF78EFE4FF40070ADF8100018208DF855
:1014F000130003208DF8120004A91748FFF736FAED
:101500004FF48060ADF8100004208DF8130004A99A
:101510001148FFF72BFA4FF4E13000900020ADF8AE
:101520000400ADF80600ADF80800ADF80C000C2082
:10153000ADF80A006946094800F06EF8FFF7EEFDC5
:10154000012240F22551054800F041F801210348ED
:10155000FFF7B2FF05B000BD0008014000380140B0
:1015600002460020B1F5007F00D100BF13880B4078
:101570000BB1012000E00020704770B50246002446
:1015800000230025002040F66A16B14200D100BFBA
:10159000C1F3421501F01F03012606FA03F3012DE2
:1015A00002D19689334006E0022D02D1168A3340DB
:1015B00001E0968A33400C12012606FA04F41688DC
:1015C000344013B10CB1012000E0002070BDF0B533
:1015D0000346002400260025002040F66A17B94281
:1015E00000D100BF1846C1F3421401F01F060127C5
:1015F00007FA06F5012C01D10C3004E0022C01D1D0
:10160000103000E014301AB107682F43076002E081
:101610000768AF430760F0BD2DE9F04786B0054687
:101620000E460024A24600BFA1460027B08900B1A3
:1016300000BF2F462C8A4CF6FF700440F08804430C
:101640002C82AC894EF6F3100440B08831890843EF
:10165000718908430443AC81AC8A4FF6FF400440D3
:10166000B0890443AC8201A8FFF7DAFD1F48874226
:1016700002D1DDF810A001E0DDF80CA0A88900F48B
:10168000004040B10AEBCA0000EB0A103168490083
:10169000B0FBF1F807E00AEBCA0000EB0A10316872
:1016A0008900B0FBF1F86420B8FBF0F004012009D8
:1016B000642101FB1089A88900F4004040B1322068
:1016C00000EBC900B0FBF1F000F00700044308E0B4
:1016D000322000EB09106421B0FBF1F000F00F00A4
:1016E00004432C8106B0BDE8F087000000380140BB
:1016F00001468888C0F308007047C1F30802828061
:10170000704770B504460D4629462046FFF7F5FFA1
:1017100000BF80212046FFF723FF0028F9D070BDCD
:101720000FB4054B10B503A9044A029800F05CF809
:1017300010BC5DF814FB0000692000083401002093
:101740000FB4084B10B504A902AA039800F04CF896
:10175000044602A9002000F063FA204610BC5DF8A0
:1017600014FB0000211C0008014609B90020704745
:10177000C8B220B1C8B20E4A105C401CF7E701F4B1
:101780007F4028B10A48C1F30722805C0930EEE7A8
:1017900001F47F0028B10648C1F30742805C113094
:1017A000E5E7034800EB116000781930DFE700003F
:1017B000BC7E000802E008C8121F08C1002AFAD146
:1017C00070477047002001E001C1121F002AFBD1C1
:1017D0007047000003490868884201D00120704723
:1017E0000020FCE7E00000202DE9FF4F8BB0884689
:1017F0000546002606E025280BD0DDE90D129047AE
:101800006D1C761C28780028F5D10FB03046BDE855
:10181000F08F0024A146A2460122AE4900E0044315
:1018200015F8013F203B02FA03F00842F7D128786F
:101830002A2810D06FF02F022878A0F13001092952
:1018400015D809EB890102EB410144F0020400EBD9
:1018500001096D1CF0E758F8041B5FEA010903D584
:1018600044F40054C9F1000944F002046D1C2878C6
:101870002E2817D115F8010F44F004042A280ED0A1
:101880006FF02F022878A0F1300109290AD80AEB5D
:101890008A0102EB410100EB010A6D1CF2E758F8E6
:1018A00004AB6D1C28786C280FD006DC4C2817D0B0
:1018B00068280DD06A2814D104E0742810D07A2842
:1018C0000FD10DE044F400140AE044F4801401E068
:1018D00044F440146978814202D104F580146D1CEF
:1018E0006D1C2878692865D006DC00288DD0632817
:1018F00027D0642806D15DE06E2808D073282AD04E
:10190000752877D0DDE90D129047761CE0E0C4F32E
:101910000250022809D003280DD0D8F8001004285E
:101920000DD00E6008F10408D2E0D8F80010F217CC
:10193000C1E90062F6E7D8F800100E80F2E70E70F9
:10194000F0E718F8041B8DF8001000208DF8010056
:10195000EB46012003E058F804BB4FF0FF3061076D
:101960004FF0000701D40AE07F1C57450DDA87428B
:10197000FADB1BF807100029F6D106E07F1C87422E
:10198000FCDB1BF807100029F8D1DDE90D23A9EBDA
:1019900007008146214600F0B1F83044C61904E042
:1019A000DDE90D121BF8010B90477F1EF8D221468E
:1019B000484688E058F8040BC4F302514FF00A0B74
:1019C000032900D100B2042900D140B2002802DA74
:1019D00040422D2102E0210505D52B218DF8241050
:1019E000012104E006E0E10710D02021F6E708AF6E
:1019F000089113E058F8040BC4F302514FF00A0B9E
:101A0000032900D180B2042900D1C0B20021EEE741
:101A10005946FEF733FC303107F8011D0028F7D195
:101A2000ADEB070000F1200B600702D524F48034F1
:101A300001E04FF0010ADA4502DDAAEB0B0000E0FD
:101A40000020824600EB0B0108980144A9EB01003D
:101A50000A90E00306D4DDE90D2321460A9800F040
:101A60004DF806444FF0000908E009A911F80900F3
:101A7000DDE90D12904709F10109761C08998945A5
:101A8000F3DBE0030CD5DDE90D2321460A9800F0D5
:101A900035F8064404E0DDE90D1230209047761C4D
:101AA000BAF10001AAF1010AF5DC05E0DDE90D1249
:101AB00017F8010B9047761CBBF10001ABF1010B4D
:101AC000F4DC0A982146DDE90D2300F005F8064410
:101AD0006D1C97E6092801002DE9F0410446002518
:101AE0001E461746880404D405E039462020B04736
:101AF0006D1C641EF9D52846BDE8F0812DE9F04142
:101B0000044600251E469046C80301D5302700E054
:101B10002027880404D505E041463846B0476D1CAF
:101B2000641EF9D52846BDE8F08100002DE9FC5F70
:101B300004468B4615461E46DDE90C9ADDE90E7813
:101B400004F114004060006000BF1C346560A660B2
:101B5000C4F80C90C4F810A02321D4E9030201F0CA
:101B600023FAD4E9033C63441A1F0F4BD4E9010163
:101B700001F076F82060A77667760020E061C4F86F
:101B80002080C4F82480606120766065A0651C3CDC
:101B900000902346054A2146019004F1440001F0DB
:101BA000E5FE0020BDE8FC9FD1350008D9370008CC
:101BB0002DE9F04704460E4617469846DDF820907A
:101BC00084F80990607A20F001006072E661276273
:101BD0000020A062C4F82480002506E004F114016E
:101BE00001EBC50001F0E8F86D1C012DF6DBBDE846
:101BF000F08710B50246002001460EE002F1140302
:101C000003EBC100D0E900436360D0E900342360F6
:101C10004060006000BF481C01460129EEDB10BD9A
:101C20000A68531C0B6010707047000010B5052245
:101C30001049012000F0DEFA0021022000F07CFAB9
:101C40000021032000F010FB0021042000F0A6FA80
:101C50000021072000F070FA00210F2000F004FBA3
:101C60000121122000F000FB0021142000F064FA92
:101C700010BD000008010020014600200878000285
:101C80004A78104300028A7810430002CA78104351
:101C9000704700002DE9F05F04464D49E01C11F843
:101CA00000A0BAF1050F3ED007DCBAF1050F73D2E0
:101CB000DFE80AF015181B1E3500BAF10E0F5FD0D1
:101CC00006DCBAF1060F32D0BAF1080F7CD154E02D
:101CD000BAF1200F61D0BAF1210F75D165E000F0A3
:101CE00003FA72E000F0C4FC6FE000F0F5F96CE07C
:101CF0003749A01D085C37490870002203210846B7
:101D000002F0FAFA33480078032807D13248007805
:101D100020B900F0EFFA01202F49087055E00120AA
:101D20002E49087051E001202D4908704DE02849E6
:101D3000601D095C264A201D105C41EA0026002532
:101D400018E0A01D2844801C2149085C4FF6FF7153
:101D500001EA0027A01D2844C01C1D49085C384426
:101D600087B22144891D481900F03CF88346381D8C
:101D7000284485B2B542E4DB27E0FFF757FF24E0B3
:101D80001349A01D11F80080E01D11F8009049468C
:101D9000404602F01FFA18E016E00D4BE21D995C78
:101DA000A21D985C02F0D4F90FE00949601D095C9E
:101DB000074A201D105C41EA002611462144881D77
:101DC000314602F0BBF800E000BF00BFBDE8F09F65
:101DD000901300202F010020310100202D01002050
:101DE0002E0100202DE9F0470446267894F8018062
:101DF000A0784FF6FF7101EA0025E078284485B20B
:101E0000304600F051F90746084800EB470040789B
:101E1000404502D00020BDE8F0872A46211D30460B
:101E200000F036F881464846F5E70000DE7F0008FE
:101E30002DE9F04106460F463946304600F050FA8B
:101E400005461DB908A000F099FF02E00BA000F0C4
:101E500095FF2946072000F06FF90446012C01D1B7
:101E6000BDE8F0810020FBE7E587BAE7B2AEE6A067
:101E7000A1E58786E585B3E997AD0000E587BAE778
:101E8000B2AEE6A0A1E58786E68993E5BC800000B6
:101E90002DE9F04105460E461746072D1ED006DCFB
:101EA000012D09D0022D0DD0032D29D110E0122DC6
:101EB0001AD0142D24D11DE03946304600F03AF8EE
:101EC00004461EE03946304600F05EF8044618E04D
:101ED0003946304600F019F8044612E039463046DB
:101EE000FFF7A6FF04460CE03946304600F0A8F89C
:101EF000044606E03946304600F074F8044600E037
:101F000000BF00BF2046BDE8F0812DE9F041044646
:101F10000D462946204600F0E6F9074639460320DB
:101F200000F0A2F90646012E01D1BDE8F0810020A3
:101F3000FBE700002DE9F04104460D4600270BE0C9
:101F40000CA000F01BFFE15D0DA000F017FF0DA03D
:101F500000F014FF781CC7B2AF42F1DB2A462146DD
:101F6000012000F047F90646012E01D1BDE8F081BD
:101F70000020FBE76D65616C5F706C616E3A20005C
:101F800025630D000D0A00002DE9F04106460F46BD
:101F90003946304600F0A4F905461DB908A000F006
:101FA000EDFE02E00BA000F0E9FE2946022000F061
:101FB000C3F80446012C01D1BDE8F0810020FBE705
:101FC000717569636B5F666565645F636C6F73658C
:101FD00000000000717569636B5F666565645F6F23
:101FE00070656E002DE9F04106460F4639463046D1
:101FF00000F076F905461DB908A000F0BFFE02E02A
:102000000BA000F0BBFE2946142000F095F8044612
:10201000012C01D1BDE8F0810020FBE77065745F01
:102020006665656465725F636C6F736500000000D0
:102030007065745F6665656465725F6F70656E007C
:102040002DE9F04104460D462946204600F04BF9A3
:1020500007463946122000F007F90646012E01D145
:10206000BDE8F0810020FBE770B504460D46E1B203
:102070000548FFF742FB00BF80210348FFF770FAD5
:102080000028F9D0204670BD0038014030B5024626
:102090000020002305E012F8015B2C18E0B25C1C64
:1020A000A3B28B42F7DB30BD70B5054600F012F8E5
:1020B0000646002407E0064810F81400A84200D1A4
:1020C00003E0601CC4B2B442F5DB00BF204670BD23
:1020D000DE7F00080820704710B500242246032147
:1020E000022002F009F910BD10B500240B48007859
:1020F00040B90021204601F0ABFEC4B201200749DF
:10210000087004E00121204601F0A2FEC4B222467C
:102110000321002002F0F0F810BD00003001002083
:1021200010B5FFF7E7F8002010BD10B5044600F029
:102130005BFBFFF7F5FF10BD70B504460D460026AA
:1021400015480078012800D170BD2146304601F0C5
:102150007FFE06460121304601F07AFE0646002148
:10216000304601F075FE06460121304601F070FE52
:1021700006462DB90021304601F06AFE064604E00D
:102180000121304601F064FE064632460321072055
:1021900002F0B2F80120D7E72C01002070B5044608
:1021A0000E46002512480078012800D170BD214656
:1021B000284601F04DFE05460421284601F048FE60
:1021C00005460021284601F043FE05460121284628
:1021D00001F03EFE05463146284601F039FE05462F
:1021E0002A460321072002F087F80120DEE70000DD
:1021F0002C0100202DE9F0410646884614460027B0
:1022000018480078012801D1BDE8F08131463846F0
:1022100001F01EFE07460021384601F019FE074670
:102220002546E01704EB1060C0F30721384601F0A3
:102230000FFE0746E01704EB10600012A4EB00202D
:10224000C1B2384601F004FE0746224641463846F0
:1022500001F0EAFD07463A460321072002F04CF858
:102260000120D1E72C01002070B505460C46002660
:102270001A480078012800D170BD2946304601F087
:10228000E7FD06460221304601F0E2FD0646002148
:10229000304601F0DDFD06460421304601F0D8FD50
:1022A0000646210E304601F0D3FD0646C4F3074131
:1022B000304601F0CDFD0646C4F30721304601F05B
:1022C000C7FD0646E1B2304601F0C2FD0646324681
:1022D0000321072002F010F80120CDE72C01002097
:1022E00002461078704710B503460C461846FFF7B3
:1022F000C3FC10BD7FB50024002000900190029027
:10230000039000260025042600BF13E01E4850F865
:1023100024201EA10DF10100FFF712FAC0B28DF8C2
:1023200000009DF80000421C6946284601F07CFD33
:102330000546641CB442E9DB16A10DF10100FFF76C
:10234000FFF9C0B28DF800009DF80000421C6946FC
:10235000284601F069FD0546012210A10DF101009A
:10236000FFF7EEF9C0B28DF800009DF80000421CA6
:102370006946284601F058FD05462A4603212020DB
:1023800001F0BAFF7FBD000014010020772E2573F5
:1023900000000000742E6C6F63616C00772E646126
:1023A00074652E2564000000F0B505460E46134600
:1023B0002A46344605B10EB90020F0BDA24202D92A
:1023C000E018904208D2002103E0605C5054481CA1
:1023D00081B29942F9DB07E0194603E0481E275C09
:1023E000175481B20029F9DC2846E6E730B50346E8
:1023F0000C4619460BB9002030BD01E001F8014B35
:10240000101EA2F10105AAB2F8D11846F4E702465F
:1024100001E0521C491C107828B1087818B11078D6
:102420000B789842F5D010780B78C01A70470246A6
:1024300002B109B900207047134603E011F8010BFF
:1024400002F8010B08780028F8D110701846F2E75E
:102450000146002209B900207047002200E0521C0A
:1024600011F8013B002BFAD11046F5E730B51A4CB4
:10247000436824681919884215D04B889BB9174BBB
:102480001B6899420FD0164B1B688B4201D1144B2D
:1024900018604B684360104B1B68C31A0E4D4C68A4
:1024A0002D682C44A3600C4C836824681A1982425E
:1024B00011D053887BB90A4B1B68834201D1084B6A
:1024C0001A6043685360044B1B68D31A024D44687A
:1024D0002D682C44A36030BD680000206C000020F3
:1024E000700000202DE9F04F85B00D469C46DDE9D7
:1024F0000F740E9B04F04008B8F1000F02D0DFF813
:10250000688101E0DFF86481CDF8008004F01008F4
:10251000B8F1000F01D024F0010404F00108B8F173
:10252000000F02D04FF0300801E04FF02008C24603
:10253000002604F00208B8F1000F11D0002A02DAD8
:102540002D2652420CE004F00408B8F1000F01D02F
:102550002B2605E004F00808B8F1000F00D0202673
:10256000002142B94FF0300B8846491C0DF1040997
:1025700009F808B01DE01AE0E146B9F10A0F08D1E8
:102580004FF00A0BB2FBFBFE0BFB1E28B2FBFBF26B
:1025900002E002F00F08120900BFDDF8009019F800
:1025A00008B08846491C0DF1040909F808B0002A52
:1025B000E2D1B94200DD0F46DB1B04F01108B8F18F
:1025C000000F10D116B1002B00DD5B1E06E0A84203
:1025D00003D84FF0200880F80080401CB3F10008B9
:1025E000A3F10103F3DC26B1A84201D806705B1EFB
:1025F000401C04F01008B8F1000F0AD104E0A84212
:1026000001D880F800A0401CB3F10008A3F1010339
:10261000F5DC06E0A84203D84FF0300880F80080CF
:10262000401CB8467F1E8845F4DC08E0A84205D867
:102630000DF1040818F8018080F80080401CB1F109
:102640000008A1F10101F1DC06E0A84203D84FF037
:10265000200880F80080401CB3F10008A3F10103BA
:10266000F3DC05B0BDE8F08FCD7F0008BC7F00082B
:102670003EB50024002000900190029034A0FFF7A6
:10268000E7FE85B22A4632A1204601F0CDFBC4B256
:1026900031A0FFF7DDFE85B22A462FA1204601F0CA
:1026A000C3FBC4B231A0FFF7D3FE85B22A462FA1E7
:1026B000204601F0B9FBC4B22EA0FFF7C9FE85B2D7
:1026C0002A462CA1204601F0AFFBC4B22BA0FFF795
:1026D000BFFE85B22A4629A1204601F0A5FBC4B25F
:1026E00028A0FFF7B5FE85B22A4626A1204601F0B4
:1026F0009BFBC4B20A2224A16846FFF721F8684672
:10270000FFF7A6FE85B22A466946204601F08CFBFB
:10271000C4B200221FA16846FFF712F86846FFF70F
:1027200097FE85B22A466946204601F07DFBC4B279
:102730001AA0FFF78DFE85B22A4618A1204601F0A7
:1027400073FBC4B222460321012001F0D5FD3EBD3A
:102750007B2270223A22000067716C6E7A65616597
:102760006A356B686A77743700000000222C227685
:10277000223A2200312E302E30000000222C226D11
:10278000223A0000320000002C226D74223A2564A7
:10279000000000002C226E223A2564007D0000001B
:1027A0001CB5142002210B020022CDE900100449BF
:1027B00004A000F0E4FE0446204600F0D5FF1CBD56
:1027C0002B2100086D61696E0000000010B5044CFB
:1027D00002E020688047241D02488442F9D310BDDE
:1027E0001C8000082080000810B5044C02E020681E
:1027F0008047241D02488442F9D310BD2080000880
:102800002480000810B5FDF7AFFC0446044800889A
:10281000401C00B2024908802046FDF7A9FC10BD0B
:10282000D000002010B5FDF79FFC04460B4800883F
:10283000401E00B2094908800846B0F9000000288F
:1028400007DC002008802046FDF792FC00F04EFCDB
:1028500002E02046FDF78CFC10BD0000D0000020F7
:1028600070B5054605B970BD1D480068854203D3A3
:102870001C480068854200D3F5E7A5F10C044FF031
:10288000FF31194800F0FCFC608818B12088B0F5D1
:10289000F55F08D015A000F071FA23886288214600
:1028A00019A000F06BFA002060804FF4F5502080F2
:1028B00021480068844201D21F48046008496068CA
:1028C0000968611A401A1D490968081A1B490860FD
:1028D0002046FFF7CBFD044800F0B5FC00BFC2E77F
:1028E000680000206C00002030130020746F206608
:1028F0007265652061206261642064617461206298
:102900006C6F636B3A0A00006D656D3A2030782574
:102910003038782C207573656420666C61673A20C6
:1029200025642C206D6167696320636F64653A20BC
:102930003078253034780A007000002078000020BC
:1029400000487047380100200048704738110020C7
:1029500070B5294800684FF47A72B0FBF2F1B1F11A
:10296000807F00D31DE021F07F40401E4FF0E02229
:10297000506150170F22002807DA13071D0E1F4B56
:1029800000F00F04241F1D5503E013071C0E1C4B01
:102990001C5400BF00204FF0E0229061072010611E
:1029A00000BFFEF795FD01F0FFFBFEF707FAFEF70B
:1029B00085FB012013490860FDF7B4FDFDF7BCFE5F
:1029C0000320FEF79FF900214FF6FF70FEF76CFB26
:1029D0000D4803880D48028800210846FEF768F874
:1029E000FFF7F4FEFFF7B0FF0446FFF7A9FF054627
:1029F000214600F0FBFC70BD0000002018ED00E057
:102A000000E400E0140C01402A000020280000200F
:102A100010B50446FFF7F6FE19E020780A280AD11F
:102A20000D210E48FEF769FE00BF80210B48FEF71E
:102A300097FD0028F9D014F8011B0848FEF75DFE49
:102A400000BF80210548FEF78BFD0028F9D02078D3
:102A50000028E2D1FFF7E6FE10BD0000003801407B
:102A600070B505462C1D2E48006838B128462C4903
:102A700009688847064606B970BD00BF29A0E16B0A
:102A800000F07CF92BA0216A00F078F92DA0616A92
:102A900000F074F92FA0A16A00F070F931A0E16A8A
:102AA00000F06CF933A0216800F068F935A0616886
:102AB00000F064F937A0A16800F060F939A0E1687E
:102AC00000F05CF93BA0216900F058F93DA0616974
:102AD00000F054F93FA0A16900F050F941A0E1696C
:102AE00000F04CF943A0216B00F048F945A0616B60
:102AF00000F044F947A0A16B00F040F9287800F0FD
:102B0000040038B100F02AFE0646314645A000F028
:102B100035F902E04BA000F031F900BFFEE70000FC
:102B2000000100207073723A203078253038780A1E
:102B3000000000007230303A203078253038780AB2
:102B4000000000007230313A203078253038780AA1
:102B5000000000007230323A203078253038780A90
:102B6000000000007230333A203078253038780A7F
:102B7000000000007230343A203078253038780A6E
:102B8000000000007230353A203078253038780A5D
:102B9000000000007230363A203078253038780A4C
:102BA000000000007230373A203078253038780A3B
:102BB000000000007230383A203078253038780A2A
:102BC000000000007230393A203078253038780A19
:102BD000000000007231303A203078253038780A11
:102BE000000000007231313A203078253038780A00
:102BF000000000007231323A203078253038780AEF
:102C000000000000206C723A203078253038780AB5
:102C1000000000002070633A203078253038780AB0
:102C20000000000068617264206661756C74206F3A
:102C30006E207468726561643A2025730D0A0D0A6E
:102C40000000000068617264206661756C74206F1A
:102C50006E2068616E646C65720D0A0D0A000000DA
:102C6000F0B504460D461646301D20F007004038EA
:102C70000146002203E00C4F41F82270521C102A3A
:102C8000F9D30D624FF0000CC1F824C0C1F828C080
:102C9000C1F82CC0C1F830C04B638C634FF0807C0E
:102CA000C1F83CC0F0BD0000EFBEADDE10B5FDF7D1
:102CB0005BFA044604480078401C0349087020462B
:102CC000FDF756FA10BD00006400002010B5FDF7B6
:102CD0004BFA044604480078401E03490870204619
:102CE000FDF746FA10BD00006400002070B50446F0
:102CF0002068A0F11405284600F012FD002070BDE8
:102D00002DE9F04105460C469046204600F042FD74
:102D1000B8F1000F03D0B8F1010F23D105E004F1A1
:102D20001401284600F060F81CE02E680FE0A6F1C0
:102D3000140794F8350097F83510884206DA04F144
:102D4000140107F1140000F04FF802E03668AE42BB
:102D5000EDD100BFAE4204D104F11401284600F0C9
:102D600043F800BF00BF0020BDE8F08110B5044665
:102D700004F1140000F01AF8002010BD0FB438B5AB
:102D800005A800907F210848009B049A00F09AFE55
:102D900004467F2C00D97F240348FFF739FE00202A
:102DA000009038BC5DF814FBB01200204060006059
:102DB0007047406000607047406000607047026884
:102DC000516002680A6001604860704702685160A3
:102DD00002680A60016048607047026851600268DA
:102DE0000A600160486070474268116042684A604A
:102DF00041600860704701460868884201D101209F
:102E000070470020FCE701460868884201D1012094
:102E100070470020FCE7D0E900215160D0E90012A2
:102E20001160406000607047D0E900215160D0E936
:102E30000012116040600060704700002DE9F04111
:102E4000054615B90020BDE8F081E81C20F0030517
:102E50004E480068854201D90020F4E70C2D00D2CD
:102E60000C254FF0FF314A4800F00AFA4948006843
:102E700049490968461A7EE0474800688419608815
:102E8000002874D106F10C006168081AA8426ED3BC
:102E900006F10C006168091A05F11800814230D36F
:102EA00006F10C0000EB05083B48006800EB080742
:102EB0004FF4F55038800020788060687860BE60FC
:102EC000C4F80480012060803048796800680C30C4
:102ED000814205D03049786809680844C0F8088004
:102EE0002E48016805F10C0008442C4908602C4864
:102EF00000680968884219D2284800682849086093
:102F000014E001206080244960680968611A401A51
:102F10002249096808442149086021480068096875
:102F2000884203D21D4800681D4908604FF4F550DF
:102F3000208018480068844212D107E015480068D4
:102F4000406815490968084412490860114800683A
:102F5000408828B10F480068124909688842EDD1BD
:102F60000B4800F070F904F10C006CE7FFE70A4829
:102F700000683044466805480068401BB0423FF690
:102F80007BAF034800F05FF900205CE7740000208D
:102F9000301300207000002068000020780000201E
:102FA0007C0000206C000020F0B50C460546E6B21F
:102FB000042A15D300F0030797B9014646EA062311
:102FC00043EA034304E008C108C108C108C1103A3C
:102FD000102AF8D201E008C1121F042AFBD20D46C4
:102FE00001E005F8016B171EA2F10102F9D1F0BD55
:102FF0002DE9F04105460F46284600F03BF806460D
:10300000F068FFF71BFF044614B90020BDE8F0810B
:1030100025720020607208223946204600F0CBF964
:10302000FDF7A2F8804604F10C01301DFFF7C7FE42
:103030004046FDF79DF82046E8E770B50446FDF7E9
:1030400093F8054604F10C00FFF7E5FE2846FDF76E
:103050008FF82046FFF704FC70BD70B50446FDF7FD
:1030600083F8054604F10C00FFF7D5FE2846FDF76E
:103070007FF870BD024600210AE0074800EB01100E
:103080000078904203D1044800EB01107047491CBE
:103090000529F2DB0020F9E7800000202DE9F0414E
:1030A00004460D4616462846FFF7E4FF074645F05E
:1030B0008000207208223146204600F07CF9FDF79E
:1030C00053F8804604F10C01381DFFF778FE4046A6
:1030D000FDF74EF8BDE8F0810146087A00F0800067
:1030E00008B1012070470020FCE700002DE9F04105
:1030F000FDF73AF807461B48008868BB1A48006885
:10310000FEF732FB461E194850F83600A0F11404B1
:103110001748006884421BD016490E701448056891
:1031200004601548007848B904F11C0105F11C0041
:10313000FDF721F83846FDF71BF80CE004F11C01FF
:1031400005F11C00FDF717F83846FDF711F802E00D
:103150003846FDF70DF802E03846FDF709F8BDE8FE
:10316000F0810000D0000020DC000020501300207F
:10317000D4000020D80000206400002070B5044670
:10318000FCF7F2FF054614F8340F20F00F0040F072
:10319000010020706278343C0A4B03EBC20004F15A
:1031A00014014268116042684A604160086000BFD3
:1031B0000549A06B09680843034908602846FCF7E5
:1031C000D7FF70BD50130020DC00002070B504460E
:1031D000FCF7CAFF054604F11400D0E90021516054
:1031E000D0E9001211604060006000BF94F8351013
:1031F000094A02EBC1000168814201D1012100E0CE
:10320000002129B10548A16B006888430349086083
:103210002846FCF7ADFF70BD50130020DC000020F5
:103220002DE9F04104460D4616461F462A46012167
:103230002046FFF733FF2046FFF798FDA68367720D
:103240000020BDE8F08170B504460025FCF78CFF36
:10325000064604F11400FFF7CEFD28B904F114006E
:10326000FFF744FD012502E0A08B401CA0833046FF
:10327000FCF77EFF012D01D1FFF738FF002070BD64
:1032800073B50546FCF770FF0646A88B002806DDDF
:10329000A88B401EA8833046FCF76AFF28E00198FF
:1032A00028B93046FCF764FF6FF001007CBD00F0E8
:1032B00055FA0446002020636A7A214605F114007D
:1032C000FFF71EFD0198002809DD01AA002104F185
:1032D000440000F01FFB04F1440000F05FFB3046A7
:1032E000FCF746FFFFF702FF206B08B1206BDDE71C
:1032F0000020DBE708B509A0FFF740FD0AA0FFF7B3
:103300003DFD12A0032300221946009012A0FFF7F2
:1033100035FD19A0FFF732FD08BD00000A205C2032
:103320007C202F0A000000002D205254202D202048
:10333000202020546872656164204F70657261744A
:10334000696E672053797374656D0A004D61722050
:103350003135203230323100202F207C205C20207B
:1033600020202025642E25642E2564206275696C3A
:10337000642025730A0000002032303036202D20D2
:103380003230313820436F70797269676874206217
:10339000792072742D746872656164207465616D42
:1033A0000A00000001460A4600E0521C107800287E
:1033B000FBD1501A704770B50346A2B118460C46AF
:1033C00000BF14F8016B00F8016B3EB902E0002564
:1033D00000F8015B551E2A1EF9D102E0551E2A1E77
:1033E000EFD100BF00BF184670BD00002DE9F041CD
:1033F00005460E46E81C20F0030726F00308B8F146
:10340000180F09D9A8F11800B84205D3A8EB070096
:1034100018381E49086006E0324629461CA0FFF70E
:10342000ADFCBDE8F0812948076004684FF4F55011
:103430002080164800680C3060600020A06060802A
:103440002249606809680844214908604FF4F55032
:103450000968088001201E49096848800B480068F7
:103460000C301B4909684860084800680C3018494E
:10347000096888600023012216A11848FFF7D0FED2
:10348000124800681649086000BFCAE774000020AF
:103490006D656D20696E69742C206572726F722083
:1034A000626567696E206164647265737320307849
:1034B00025782C20616E6420656E642061646472DE
:1034C00065737320307825780A00000068000020BA
:1034D0006C0000206865617000000000301300205F
:1034E0007000002010B500200B490880002405E082
:1034F0000A4901EBC400FFF75CFC641C082CF7DBF5
:10350000072007490870002006490860064908603E
:103510000648FFF74EFC10BDD000002050130020DD
:10352000D8000020D4000020DC000020E0000020B3
:1035300070B508480068FEF717F9451E064850F8B0
:103540003500A0F114040548046004F11C00FCF7E8
:1035500040FE70BDDC00002050130020D40000208D
:1035600010B5002405E0044901EBC400FFF724FC7A
:10357000641C002CF7D010BDE800002070472DE936
:10358000FF5F06460F4690461D46DDE90EAB31460D
:103590000020FFF72DFD8146B9F1000F03D1002077
:1035A00004B0BDE8F09F2846FFF748FC044624B964
:1035B0004846FFF742FD0020F2E743463A463146CF
:1035C00048468DE8300CFEF7B1FA4846E8E70000BF
:1035D00070B512480468FCF7C7FD05462046FFF7A2
:1035E000F5FD042084F8340004F1440000F0AEF945
:1035F0002046FFF771FD012805D1206F18B920463C
:10360000FFF72BFD04E004F114010548FFF7DEFB92
:103610002846FCF7ADFDFFF769FD70BDD400002022
:10362000E000002001E000F001F8FCE770B537E0B1
:10363000FCF79AFD0546FEF7CDF818B31B48006865
:10364000A0F1140404F11400D0E900215160D0E984
:10365000001211604060006000BFFFF7D3F8206FD8
:1036600010B12046216F88472046FFF735FD01281D
:1036700005D1FFF7D7F82846FCF77AFD70BDFFF7B4
:10368000D1F803E02846FCF773FDF7E72846FCF77E
:103690006FFDA06AFFF7E4F82046FFF7CEFC00BFFD
:1036A000FEF798F80028C3D100BFE7E7E00000204C
:1036B0001FB520200721C200074BCDE90032CDE91C
:1036C00002100023054A06A1074800F00FF806483B
:1036D00000F04AF81FBD0000B01100202536000898
:1036E0007469646C65000000381100202DE9FF5FEB
:1036F00005460C4616461F46DDE910ABDDE90E898E
:10370000224600212846FFF7C9FC3B4632462146A7
:1037100028468DE8000FFEF709FA04B0BDE8F09FD7
:1037200070B5044694F8340000F00F00022802D06F
:103730004FF0FF3070BDFCF717FD054604F1140093
:10374000FFF772FB04F1440000F0A4F92846FCF7EF
:103750000FFD2046FFF712FD0020EBE7014800684F
:1037600070470000D400002010B504463434A0781F
:1037700060706178012088406060022004F834099C
:103780002046FFF7CDFFFFF7E9FF08B1FFF7AEFCDA
:10379000002010BD70B5044694F8340000F00F000E
:1037A000012802D04FF0FF3070BDFCF7DDFC05466C
:1037B00094F8340020F00F0040F0020084F8340048
:1037C0002046FFF703FD04F1440000F063F92846AA
:1037D000FCF7CEFC0020E7E770B5044625466FF005
:1037E0000100286305F11400FFF71EFB2846FFF7D0
:1037F000C5FCFFF77BFC70BD70B5FCF7B5FC05465A
:103800001448046894F8340000F00F0001281CD11B
:10381000D4E90510814218D004F11400FFF704FB2D
:1038200094F835200C4B03EBC20004F114014268FC
:10383000116042684A604160086000BF2846FCF79A
:1038400097FCFFF753FC002070BD2846FCF790FC66
:103850000020F9E7D4000020501300200148006840
:10386000704700006000002010B50A480068401C46
:1038700008490860FFF772FF0446206C401E206470
:10388000206C18B9E06B2064FFF7B6FF00F004F875
:1038900010BD00006000002070B5FFF7DFFF054697
:1038A000FCF762FC064628E019480068A0F1140401
:1038B000A06A281A6FF0004188421DD22046FEF708
:1038C00098F9D4E907108847FFF7C8FF0546607AE2
:1038D00000F0020058B1607A00F0010038B1607A5F
:1038E00020F001006072204600F058F805E0607A90
:1038F00020F00100607200E004E00548FFF783FA61
:103900000028D1D000BF3046FCF732FC70BD00006B
:10391000E8000020034649B1012904D0022908D05B
:10392000032910D10AE0586A10600CE01068586250
:1039300009E0587A20F00200587204E0587A40F00A
:103940000200587200BF00BF0020704770B50446E7
:10395000FCF70AFC05462046FEF74BF92846FCF723
:1039600007FC2046FFF779FB002070BD2DE9F843E6
:1039700007460C4615461E46DDE908892246092100
:103980003846FFF78BFB4346324629463846CDF88A
:103990000090FEF70DF9BDE8F88300002DE9F8432B
:1039A0000546FCF7E1FB80462846FEF722F9687AD7
:1039B00020F0010068724046FCF7DAFBFFF74EFF8B
:1039C000696A0844A862FCF7CFFB80462F4F009736
:1039D00000242AE019E05DF824201168142202EB8B
:1039E000C402881A826AAB6AD21A00D108E0826ADD
:1039F000AB6AD21A6FF000439A4200D20CE000BFCB
:103A00005DF8240000684DF824005DF8240007EB01
:103A1000C40149688842DED100BF2CB15DF82400A2
:103A20000830611C4DF82100641C002CD2D01848CD
:103A30000068401C164908600846066805F1140134
:103A40000098FFF7CAF9022412E006F0030060B9FB
:103A5000C4F1010305F1140202EBC301C4F1010238
:103A60005DF82200FFF7B9F900E003E0B608641C36
:103A7000012CEAD900BF687A40F001006872404624
:103A8000FCF776FB0020BDE8F8830000E80000208A
:103A9000F000002070B50446607A00F0010010B913
:103AA0004FF0FF3070BDFCF75FFB05462046FEF788
:103AB000A0F82846FCF75CFB607A20F001006072F9
:103AC0000020EFE72DE9FF4F89B0804644460A9871
:103AD0004044461E464504D24FF0FF36A6EB080090
:103AE0000A906FE10B980078252806D0B44202D8DE
:103AF0000B9800782070641C61E1002526E00B988B
:103B0000401C0B900B9800782D2802D145F0100531
:103B10001CE00B9800782B2802D145F0040515E035
:103B20000B980078202802D145F008050EE00B988C
:103B30000078232802D145F0200507E00B98007893
:103B4000302802D145F0010500E000E0D7E700BFD2
:103B50004FF0FF370B98007830380A2804D20BA8B2
:103B600000F07EF907460EE00B9800782A280AD16B
:103B70000B98401C0B900C9880C80C90002F02DA18
:103B80007F4245F010054FF0FF390B9800782E2842
:103B90001CD10B98401C0B900B98007830380A28E9
:103BA00004D20BA800F05CF981460AE00B9800787B
:103BB0002A2806D10B98401C0B900C9850F8049BB7
:103BC0000C90B9F1000F01DA4FF0000900200490C9
:103BD0000B980078682803D00B9800786C2805D1E2
:103BE0000B98007804900B98401C0B900A200590CD
:103BF0000B9800786F2875D00CDC632813D004DC98
:103C0000252870D058286FD18DE064286DD06928A0
:103C1000F9D18FE070286AD0732825D0752878D024
:103C20007828F0D182E005F0100040B904E0B442F9
:103C300001D820202070641C781E071EF7DC0C9829
:103C400010F8041B0C90C8B20790B44201D8079832
:103C50002070641C04E0B44201D820202070641C51
:103C6000781E071EF7DCAAE00C98006806900C98F6
:103C7000001D0C90069808B95AA006900698FFF708
:103C800091FB8346B9F1000F02DDCB4500DDCB4649
:103C900005F0100048B904E0B44201D8202020709B
:103CA000641C38467F1E5845F6DC002008900BE067
:103CB000B44202D8069800782070641C0698401C14
:103CC00006900898401C089008985845F0DB04E0DE
:103CD000B44201D820202070641C38467F1E58450D
:103CE000F6DC6CE01CE015E028E022E0FFE7781C41
:103CF00010B9082745F00105CDE9007902950C9827
:103D000004C8102331460C902046FEF7EBFB044616
:103D100055E012E0B44201D825202070641C4EE02A
:103D2000082005901DE045F0400500BF10200590DB
:103D300017E000BF45F0020500BF12E0B44201D811
:103D400025202070641C0B98007830B1B44202D852
:103D50000B9800782070641C02E00B98401E0B90BA
:103D60002DE000BF04986C2807D10C9850F804ABE4
:103D70000C9005F00200B8B116E0049868280BD149
:103D80000C9830F8041B1FFA81FA0C9005F0020021
:103D900050B10FFA8AFA07E00C9850F804AB0C9077
:103DA00005F0020000B100BFCDE90079029552464E
:103DB00031462046059BFEF795FB044600BF0B9855
:103DC000401C0B900B98007800287FF48BAEB44217
:103DD00001D8207001E000203070A4EB08000DB085
:103DE000BDE8F08F284E554C4C290000002070474C
:103DF00000207047002070470020704710B5FCF786
:103E0000B3F9FEF7A5FDFFF775FAFFF7A9FBFFF77A
:103E100069FBFEF7C5FCFFF7B1FBFFF749FCFFF7B5
:103E200087FB002010BD00002DE9F04104460E463E
:103E30001546064807192A4631463846FEF7B4FAB1
:103E4000601984B22046BDE8F0810000CC13002048
:103E5000024B1A181170431C98B27047CC13002003
:103E60000146002009E00B685A1C0A601A7800EB32
:103E7000800302EB4302A2F130000A681278303A64
:103E80000A2AF0D3704700000B4909680B4A1268F0
:103E900091420FD008490A6809498A4202D317396A
:103EA000054A116004490968087803490968491CF2
:103EB000014A116070470000280100202401002001
:103EC000C613002010B5044600F088F910BD0000AC
:103ED00012490968124A1268891A01291CD010492E
:103EE00009680E4A1268914206D90D4909680B4AC1
:103EF0001268891A17290FD209490A6809498A42A2
:103F000002D31739064A1160054909680870044947
:103F10000968491C024A116070470000280100200E
:103F200024010020C613002010B504462146024893
:103F3000FDF7E7FB10BD0000003801402DE9F04F10
:103F40009DB00446884601250027002019901A904C
:103F50001B901C908346002664216846FCF783F979
:103F60004FF000094FF0000A207801284FD1B8F136
:103F7000010F4CDB44E0675D0F22002119A8FEF71A
:103F800035FAB81E82B26019411C19A8FEF70CFA66
:103F9000E819205C303800F0FF0B681C3844265CC0
:103FA00026B1012E02D01DB0BDE8F08F64220021A1
:103FB0006846FEF71BFA681C384400F1010914F842
:103FC00009A04EB904EB0900421CF1B25B460DF1A9
:103FD000660000F01FF810E0012E0ED11FFA8AF2E1
:103FE00004EB0900411C6846FEF7DEF9F1B25B46BE
:103FF0006A460DF1660000F00DF8F81C50440544C7
:104000004545B8DB00221146212000F075F900BFBC
:10401000C9E700002DE9F0418EB080460D461446F8
:104020001E463222002101A8FEF7E0F95DB9207892
:104030000006617840EA0140A17840EA0120E17879
:1040400040EA010705E0012D03D1214601A8FEF752
:10405000EEF917A14046FEF7DAF928B93A4631469B
:1040600015A0FDF75DFB1FE01AA14046FEF7CFF952
:1040700028B93A4631461AA0FDF752FB14E020A1B8
:104080004046FEF7C4F928B93A4631461EA0FDF76E
:1040900047FB09E023A14046FEF7B9F920B901AA80
:1040A000314623A0FDF73CFB0EB0BDE8F0810000D7
:1040B00074656D70000000006461793A25642074B5
:1040C000656D702076616C75652069733A25640DA5
:1040D0000A00000068756D69646974790000000069
:1040E0006461793A25642068756D69646974792022
:1040F00076616C75652069733A25640D0A000000CD
:10410000706D3235000000006461793A25642070DA
:104110006D32352076616C75652069733A25640DC2
:104120000A000000636F6E646974696F6E000000BE
:104130006461793A256420636F6E646974696F6E97
:104140002076616C75652069733A25730D0A00004D
:1041500070B504460D460026012C03D104A0FEF7DD
:104160000DFE04E01CB909A0FEF708FE2E4670BD46
:10417000E68993E5BC80E5A4A9E6B094E8BF94E5A0
:104180009B9EE68890E58A9F00000000E68993E503
:10419000BC80E5A4A9E6B094E8BF94E59B9EE5A4A5
:1041A000B1E8B4A5000000000548064908600649CA
:1041B0000860002005490870FF2005490870704715
:1041C000AF13002024010020280100202C01002032
:1041D0002F01002008B901B100BF704770B500245D
:1041E000002509E0FFF750FE38490A880988491C74
:1041F000364B198036498854344800881F2803D22A
:1042000000F09EF80028EDDC30480088072800DA2E
:1042100070BD42E02E48005D552802D0601C84B27B
:104220003BE02B49601C085CAA2802D0601C84B2C9
:1042300033E02749A01C085C10B1A01C84B22CE01C
:104240002349201D085C4FF6FF7101EA0025204933
:10425000601D085CC01D284485B2262D02D9E01CD3
:1042600084B21AE019480088001BA84200DA19E05D
:104270006A1E91B2164A1019FDF708FF6119491E0E
:10428000134A515C884202D0E01C84B205E020460B
:10429000FDF700FD601984B200BF0C480088001BC8
:1042A0000728B7DA00BF09480088001B07490880C3
:1042B00008460088002806DD0548011903480288E1
:1042C0000348FEF771F800BFA2E7000004010020D8
:1042D0009013002070B504460D4604B105B970BDB9
:1042E00003E02078FFF720FE641C281EA5F10101E1
:1042F0008DB2F6D100BFF2E72DE9F04105460E463A
:104300001446002755200D490870AA204870084619
:104310008670C570201208714C71E01D84B2601E59
:1043200081B20648FDF7B2FE0746601E03490F54EE
:1043300021460248FFF7CEFFBDE8F081C6130020FA
:104340000448006804490968884201D00120704788
:104350000020FCE7240100202801002000000000CC
:104360000000000000000000000000000000001835
:104370001818181818080008180000000000003469
:1043800024242400000000000000000000000000C1
:1043900016247F2424247E2424000000000000082A
:1043A0003E6848681C1612127C1010000000006164
:1043B000D296740810162949C600000000000000BB
:1043C0003C646438724ACE467F000000000000184A
:1043D0001818180000000000000000000000000491
:1043E000081810303030301010180C040000002075
:1043F0001008080C0404040C081810200000000821
:104400000A341C6A080000000000000000000000E0
:1044100000001818187F181818000000000000008D
:104420000000000000000018180830000000000024
:1044300000000000003C0000000000000000000040
:10444000000000000000001818000000000000023A
:1044500006040C0808101020204000000000000096
:104460003C6642475B7342663C000000000000006F
:1044700018784808080808087E00000000000000BE
:104480003C460606040810207E00000000000000E4
:104490007C0606043C0202067C00000000000000CE
:1044A0000C1C14246444FF040400000000000000FD
:1044B0007E6060607E0202067C000000000000005A
:1044C0001E306048764242623C000000000000005E
:1044D0007E0206040C0818103000000000000000E6
:1044E0003C6242361C6642423C0000000000000074
:1044F0003C664242661A0204780000000000000098
:10450000000018180000001818000000000000004B
:104510000000181800000018180830000000000003
:10452000000004183060100C0600000000000000BD
:10453000000000007E007E0000000000000000007F
:104540000000301804060C102000000000000030AD
:104550001C06060618100010100000000000001CC9
:10456000224141DDB5A5A5AF94C0403C000000004C
:10457000181C342426627E43C100000000000000A5
:104580007C4642467C4242427C0000000000000023
:104590001E204040404040603E00000000000000FF
:1045A0007C4642434343424678000000000000003E
:1045B0007E6060607E6060607E0000000000000041
:1045C0007E6060607E60606060000000000000004F
:1045D0001E604040CE4242623E00000000000000EB
:1045E000424242427E42424242000000000000003D
:1045F0007E181818181818187E0000000000000017
:104600007C0404040404044478000000000000005A
:104610004244485070584C444200000000000000E2
:1046200020202020202020203E000000000000004C
:104630006266675F5B5BC1C1C100000000000000F3
:10464000626272525A4A4E46460000000000000064
:104650003C6243C3C3C343623C000000000000004F
:104660007C46424246784040400000000000000086
:104670003C6243C3C3C343623C180F000000000008
:104680007C6662667C6C646662000000000000006C
:104690003E6040601C0602027C000000000000003A
:1046A0007F181818181818181800000000000000CB
:1046B00042424242424242623C000000000000008E
:1046C000C14342622624341C180000000000000090
:1046D000C1C141495B5B76666600000000000000D6
:1046E00043663418181C2466C30000000000000054
:1046F000C14266341C1818181800000000000000A1
:104700007E02040C181020607E0000000000001CD7
:1047100010101010101010101010101C000000408D
:104720002020101008080C04060200000000003CC5
:104730000C0C0C0C0C0C0C0C0C0C0C3C00000000B9
:10474000181C2462000000000000000000000000AF
:104750000000000000000000000000FF000000203A
:104760001000000000000000000000000000000039
:1047700000003C06023E42467A0000000000004075
:1047800040405C62424242427C0000000000000067
:1047900000001E20604060203E000000000000027B
:1047A00002023E62424242663A00000000000000FF
:1047B00000003C62427E40603E0000000000000FAE
:1047C0001810107E101010101000000000000000E3
:1047D00000003F66426658403E43423C00000040B5
:1047E00040405C6242424242420000000000001829
:1047F00018007808080808087E000000000000047F
:104800000C007C040404040404040C780000006020
:104810006060626C7870686462000000000000787C
:1048200008080808080808087E00000000000000CA
:104830000000764B4B4B4B4B4B0000000000000040
:1048400000005C6242424242420000000000000060
:1048500000003C62424342623C0000000000000055
:1048600000005C62424242427C4040400000000046
:1048700000003E62424242663A020202000000002C
:1048800000006E7263606060600000000000000065
:1048900000003E20203C06027C00000000000000DA
:1048A0001010FE10101010101E000000000000007C
:1048B00000004242424242663A000000000000000E
:1048C0000000434266243418180000000000000075
:1048D0000000C1C15B5A5E66660000000000000077
:1048E000000062261C181C26620000000000000068
:1048F000000043426624341C181830E00000000019
:1049000000007E060C1810207E0000000000000E43
:1049100018101010307010101010180E0000080839
:1049200008080808080808080808080800000030F7
:10493000180808080C0E08080808183000000000C5
:1049400000000000714B06000000000000000000A5
:104950000000000000000000000000000000000057
:104960000000000000000000000000000000000047
:104970000000000000000000000000000000000037
:1049800000000000000003800180018001800180A0
:10499000018001800180018001800000000003C0CF
:1049A00003C0000000000000000000000000000044
:1049B0000000000000000E700E700E700C30000041
:1049C00000000000000000000000000000000000E7
:1049D00000000000000000000000000000000000D7
:1049E00000000000000000000618063806307FFEB8
:1049F0000C300C300C300C307FFE0C601C601860EA
:104A0000186000000000000000000000000000002E
:104A10000000000000C000C00FF83CC831C0318069
:104A20003D801F8003F001F8031C030C031C3FF8BA
:104A30003FE007000600000000000000000000004A
:104A4000000000001C007E0E630C631863307E6063
:104A500000C001800300077C0EE61CC618C630C6E5
:104A6000607C00000000000000000000000000006A
:104A70000000000000000FE01CF0387038701C606F
:104A80001FC00F003F8C71CC60EC607C70383CFC28
:104A90001FCE000000000000000000000000000029
:104AA00000000000000003C00180018001800000C0
:104AB00000000000000000000000000000000000F6
:104AC00000000000000000000000000000000000E6
:104AD00000000000003000E001C00180030007007A
:104AE000060006000E000E000E000E000600070075
:104AF0000300038001C000E000300000000000005F
:104B0000000000000C0006000380018001C000E0EE
:104B1000006000600070007000700060006000E0E5
:104B200000C00180038006000C00000000000000AF
:104B3000000000000000018011881DB803C007E0DC
:104B40003DBC018801800000000000000000000062
:104B50000000000000000000000000000000000055
:104B60000000000000000000000000000180018043
:104B70000180018001807FFE018001800180018031
:104B80000000000000000000000000000000000025
:104B90000000000000000000000000000000000015
:104BA00000000000000000000000000003C003C07F
:104BB00001C001C003801F000000000000000000D1
:104BC00000000000000000000000000000000000E5
:104BD0000000000000000FF00000000000000000D6
:104BE00000000000000000000000000000000000C5
:104BF00000000000000000000000000000000000B5
:104C000000000000000000000000000003C003C01E
:104C100003C00000000000000000000000000000D1
:104C2000000000000000001800380030006000E0C4
:104C300000C001C001800300030006000E000C004C
:104C40001C00180030000000000000000000000000
:104C500000000000000001800FF01C38381C301CE0
:104C6000707E70EE738E7E0E7C0C300C381C1E78BD
:104C70000FE0000000000000000000000000000045
:104C8000000000000000000007C01FC039C001C0C4
:104C900001C001C001C001C001C001C001C03FFC92
:104CA0003FFC0000000000000000000000000000C9
:104CB00000000000000003801FF0183800380018C2
:104CC00000380038007001E0038007001C003FFC42
:104CD0003FFC000000000000000000000000000099
:104CE00000000000000007801FF000380038003886
:104CF000003007E007F00038001C001C001820F806
:104D00003FE0000000000000000000000000000084
:104D1000000000000000000000F001B00330073088
:104D20000E301C30383070307FFE7FFE0030003097
:104D30000030000000000000000000000000000043
:104D400000000000000000001FF818001800180004
:104D500018001FE000F8001C001C001C003800F0C8
:104D60001FC0000000000000000000000000000064
:104D7000000000000000000003F80F001C001800F5
:104D8000300037F83C3C300C300C380C381C1E38E6
:104D90000FF0000000000000000000000000000014
:104DA00000000000000000003FFC001C001800385C
:104DB0000070006000E001C0018003800700060071
:104DC0000E000000000000000000000000000000D5
:104DD00000000000000003C01FF8381C381C381CFD
:104DE0001C380FF007F01C78381C300C381C3C388D
:104DF0000FF00000000000000000000000000000B4
:104E000000000000000003801FF03838301C701CC8
:104E1000700C380C1FFC0FCC001C001800701FE039
:104E20001F800000000000000000000000000000E3
:104E3000000000000000000000000000000003C0AF
:104E400003C00180000000000000000003C003C098
:104E500003C000000000000000000000000000008F
:104E6000000000000000000000000000000003C07F
:104E700003C00180000000000000000003C003C068
:104E800001C001C003800F0000000000000000000E
:104E9000000000000000000000000000003800F0EA
:104EA00001C007001E0038000E00078001C000701E
:104EB00000300000000000000000000000000000C2
:104EC00000000000000000000000000000000000E2
:104ED00000003FFC000000003FFC3FFC0000000021
:104EE00000000000000000000000000000000000C2
:104EF0000000000000000000000000001C000F0087
:104F0000038001E00078001C007001E003800E00C7
:104F10000C00000000000000000000000000000085
:104F20000000000000000FC000F00038003800381A
:104F3000003803F003800300030000000000078036
:104F400007800000000000000000000000000000DA
:104F50000000000000E007F80C0C18063006700393
:104F600063F36633C673CC63CC62CC66CCE6C7FC15
:104F7000E0006000700038101FF00000000000002A
:104F8000000000000000000003C007E006E00E7013
:104F90000E700C301C3818183FFC3FFC700E600E71
:104FA000E00700000000000000000000000000001A
:104FB00000000000000000003FF03838381C381CAA
:104FC00038383FF03FF8381C380C380C381C3FF8A4
:104FD0003FE00000000000000000000000000000B2
:104FE00000000000000000E007FC1E04380038004C
:104FF0003000700070007000300038003C001F9CD2
:1050000007FC00000000000000000000000000009D
:1050100000000000000000003FF03078301C300C31
:10502000300E300E300E300E300E301C30383FF067
:105030003FC0000000000000000000000000000071
:1050400000000000000000001FF818001800180001
:1050500018001FF81FF818001800180018001FF893
:105060001FF8000000000000000000000000000029
:1050700000000000000000001FF8180018001800D1
:1050800018001FF81FF81800180018001800180062
:1050900018000000000000000000000000000000F8
:1050A00000000000000000F007FC1E043800300083
:1050B0007000700070FC700C700C300C380C1F1CF1
:1050C00007FC0000000000000000000000000000DD
:1050D0000000000000000000300C300C300C300CE0
:1050E000300C3FFC3FFC300C300C300C300C300CE2
:1050F000300C000000000000000000000000000074
:1051000000000000000000003FFC018001800180E1
:1051100001800180018001800180018001803FFCCD
:105120003FFC000000000000000000000000000044
:1051300000000000000000001FF0003000300030D0
:1051400000300030003000300030003000701DE0D2
:105150001FC0000000000000000000000000000070
:105160000000000000000000381C387038E039C032
:105170003B803F003F003B8039C038E03870383812
:10518000381C0000000000000000000000000000CB
:1051900000000000000000001C001C001C001C009F
:1051A0001C001C001C001C001C001C001C001FFC20
:1051B0001FFC0000000000000000000000000000D4
:1051C0000000000000000000381C7C3C6C3E6E6E4D
:1051D000666E66CE63C6638661866006600660069C
:1051E0006006000000000000000000000000000059
:1051F00000000000000000003C0C3C0C3E0C360C93
:10520000330C338C318C31CC30EC306C307C303C16
:10521000301C000000000000000000000000000042
:1052200000000000000001C00FF81C3C381C700E8C
:10523000700E60066006700E700E700C381C1E78C2
:105240000FE000000000000000000000000000006F
:1052500000000000000000003FF0383C381C380C13
:10526000380C381C38783FE03800380038003800F7
:1052700038000000000000000000000000000000F6
:1052800000000000000001C00FF81C3C381C700E2C
:10529000700E60066006700E700E700C381C1E7862
:1052A0000FE0018001C000FF003C00000000000092
:1052B00000000000000000003FF0383838183818AF
:1052C000383838F03FC038E0387038383838381C53
:1052D000380E000000000000000000000000000088
:1052E00000000000000001E00FF83800380038002E
:1052F0003C001F8003F00078001C001C001C387864
:105300003FE000000000000000000000000000007E
:1053100000000000000000007FFE0180018001808D
:105320000180018001800180018001800180018075
:1053300001800000000000000000000000000000EC
:105340000000000000000000300C300C300C300C6D
:10535000300C300C300C300C300C300C381C1C383D
:105360000FF000000000000000000000000000003E
:105370000000000000000000E006700E700E381CF7
:10538000381C1C181C380C300E70066007E003C077
:1053900003C000000000000000000000000000004A
:1053A0000000000000000000600660066006600665
:1053B0006186638673C673CE766C366C3C3C3C3C2F
:1053C000381C000000000000000000000000000089
:1053D0000000000000000000301C38181C380E705F
:1053E00007E003C003C007E00E701C381838381CF3
:1053F000700E00000000000000000000000000002F
:105400000000000000000000700E700C381C1C38FA
:105410000E70066007E003C00180018001800180FA
:1054200001800000000000000000000000000000FB
:1054300000000000000000003FFC001C003800706D
:1054400000E001C0038007000E000C0018003FFCC4
:105450003FFC000000000000000000000000000011
:105460000000000007F007F0060006000600060036
:1054700006000600060006000600060006000600FC
:10548000060006000600060007F00000000000000D
:1054900000000000000018001C000C0006000700BF
:1054A00003000380018001C000C000600070003074
:1054B00000380018000C0000000000000000000090
:1054C000000000000FE00FE000600060006000607E
:1054D00000600060006000600060006000600060CC
:1054E00000600060006000600FE00000000000004D
:1054F000000000000000000003C006C006600C3081
:105500001818301C0000000000000000000000001F
:10551000000000000000000000000000000000008B
:10552000000000000000000000000000000000007B
:10553000000000000000000000000000000000006B
:105540000000000000000000FFFF0000000000005D
:105550000000000000001E000380000000000000AA
:10556000000000000000000000000000000000003B
:10557000000000000000000000000000000000002B
:1055800000000000000000000000000000001FF00C
:105590001038001C001C0FFC1C1C381C381C3CFC68
:1055A0001FDC000000000000000000000000000000
:1055B00000000000000038003800380038003BF8D8
:1055C0003E1C3C1C380C380C380C380C381C3C7811
:1055D0001FE00000000000000000000000000000CC
:1055E000000000000000000000000000000007F8BC
:1055F0000E001C0038003800380038001C000F185E
:1056000007F800000000000000000000000000009B
:10561000000000000000001C001C001C001C0FFC0F
:105620001C1C381C301C301C301C301C383C1CFC32
:105630000F9C0000000000000000000000000000BF
:1056400000000000000000000000000000000FF05B
:105650001C38381C300C3FFC3000300038001E0C69
:1056600007FC000000000000000000000000000037
:1056700000000000003C01FE038003000300030063
:105680007FFC7FFC03000300030003000300030012
:105690000300000000000000000000000000000007
:1056A00000000000000000000000000000000FFEED
:1056B0001C383818381818381FF03B8030003FF07D
:1056C0001FFC300E700E381C1FF800000000000098
:1056D00000000000000038003800380038003BF8B7
:1056E0003E383C1C381C381C381C381C381C381CF4
:1056F000381C000000000000000000000000000056
:1057000000000000018003C003C0000000001FC0B3
:1057100001C001C001C001C001C001C001C001C081
:105720003FFC00000000000000000000000000003E
:1057300000000000002000700070000000003FF03A
:1057400000700070007000700070007000700070D9
:1057500000700070007020E03FC0000000000000FA
:105760000000000000001800180018001800183C85
:10577000187018E01B801F001B8019E01870183883
:10578000181C0000000000000000000000000000E5
:105790000000000000001FC001C001C001C001C026
:1057A00001C001C001C001C001C001C001C001C0F1
:1057B0003FFC0000000000000000000000000000AE
:1057C00000000000000000000000000000006F3C2E
:1057D00079EE71CE718E718E718E718E718E718E29
:1057E000718E0000000000000000000000000000BA
:1057F00000000000000000000000000000003BF876
:105800003E383C1C381C381C381C381C381C381CD2
:10581000381C000000000000000000000000000034
:1058200000000000000000000000000000000FF079
:105830001C3C381C700E700E700E700C381C1E78DC
:105840000FE0000000000000000000000000000069
:1058500000000000000000000000000000003BF815
:105860003E1C3C1C380C380C380C380C381C3C786E
:105870003FE0380038003800380000000000000029
:1058800000000000000000000000000000000FFC0D
:105890001C1C381C301C301C301C301C383C1CFCC0
:1058A0000F9C001C001C001C001C000000000000DD
:1058B000000000000000000000000000000019F8D7
:1058C0001F1C1C0C180E18001800180018001800D7
:1058D00018000000000000000000000000000000B0
:1058E00000000000000000000000000000000FF8B1
:1058F0001C0018001E000FC001F80018001818380E
:105900001FF0000000000000000000000000000088
:1059100000000000000000000600060006007FFCFA
:1059200006000600060006000600060007000784C1
:1059300001FC00000000000000000000000000006A
:105940000000000000000000000000000000381C03
:10595000381C381C381C381C381C381C383C1CFCC3
:105960000FDC00000000000000000000000000004C
:105970000000000000000000000000000000700CAB
:10598000381C38181C380C300E70066007E003C055
:1059900003C0000000000000000000000000000044
:1059A0000000000000000000000000000000600691
:1059B00060066186738E73CC33CC366C366C3C3C9F
:1059C0003C38000000000000000000000000000063
:1059D0000000000000000000000000000000381C73
:1059E0001C380E7007E003C003C007E00E701C38BF
:1059F000381E000000000000000000000000000051
:105A00000000000000000000000000000000700C1A
:105A1000381C38181C380C300E70066007E003C0C4
:105A200003C0038007000E007C000000000000009F
:105A300000000000000000000000000000001FF84F
:105A40000038007000E001C0038007000C001FFC5C
:105A50003FFC00000000000000000000000000000B
:105A600000000000007801F80380038003800380B9
:105A7000038003003F003E00030003800380038097
:105A800003800380038001C000F8000000000000D4
:105A900001800180018001800180018001800180FE
:105AA00001800180018001800180018001800180EE
:105AB0000180018001800180018000000000000061
:105AC000000000001E001F80018001C001C001C055
:105AD00001C000C000FC007C00C001C001C001C0CA
