:020000040800F2
:10000000A0AA0020450100084D0100080F020008C9
:1000100051010008530100085501000800000000CC
:100020000000000000000000000000005701000870
:10003000590100080000000097010008910D000818
:100040005F0100085F0100085F0100085F01000810
:100050005F0100085F0100088D0400085F010008CF
:100060005F0100085F0100085F0100085F010008F0
:100070005F0100085F0100085F0100085F010008E0
:100080005F0100085F0100085F0100085F010008D0
:100090005F0100085F0100085F0100085F010008C0
:1000A0005F0100085F0100085F0100085F010008B0
:1000B0005F0100085F0100085F0100085F010008A0
:1000C0005F0100085F0100085F0100085F01000890
:1000D0005F0100085F010008010E00085F010008D1
:1000E000B50400085F0100085F0100085F01000817
:1000F0005F0100085F0100085F0100085F01000860
:100100005F0100085F0100085F0100085F0100084F
:100110005F0100085F0100085F0100085F0100083F
:100120005F0100085F0100085F0100085F0100082F
:10013000DFF80CD000F092F9004800478104000875
:10014000A0AA00200648804706480047FEE7FEE7D1
:10015000FEE7FEE7FEE7FEE7FEE7FEE7FEE7FEE777
:10016000A10D000831010008EFF3108072B670474E
:1001700080F310887047334A1368012B04D04FF086
:1001800001031360304A1060304A116030484FF06C
:10019000805101607047EFF3108272B62948016800
:1001A00091B14FF0000101602748016829B1EFF3D8
:1001B000098121E9F00F0068016024490968096894
:1001C000B1E8F00F81F3098882F310884EF0040E35
:1001D00070471E4908601C494FF00000086019492B
:1001E0004FF0010008601B484FF47F01D0F8002059
:1001F00041EA0201016016484FF080510160164843
:100200000068006880F3088861B662B670471EF027
:10021000040F0CBFEFF30880EFF3098020E9F00F23
:1002200040F804ED1EF0040F0CBF80F3088880F343
:10023000098800B503F07EFA5DF804EB4EF0040E79
:1002400070470000F0000020E8000020EC000020D3
:1002500004ED00E020ED00E008ED00E040EA0103DD
:100260009B0703D009E008C9121F08C0042AFAD26C
:1002700003E011F8013B00F8013B521EF9D2704730
:10028000D2B201E000F8012B491EFBD270470022D8
:10029000F6E710B513460A4604461946FFF7F0FF85
:1002A000204610BD421E12F8013F002BFBD111F871
:1002B000013B02F8013B002BF9D1704710B5044611
:1002C00004E00B7800F8013B03B1491C521EF8D240
:1002D000204610BD421C10F8011B0029FBD1801ADA
:1002E0007047034611F8012B00F8012B002AF9D1C1
:1002F0001846704730B505460020034600E05B1CF9
:10030000934205D2EC5CC85C201A01D1002CF6D1D6
:1003100030BD30B480EA010202F0004530F0004206
:1003200021F0004013D090B1C30DD40DC2F31601DB
:10033000C0F31600E41A41F4000140F400027D34D9
:10034000914201D3641C00E04900002C02DA30BC69
:10035000002070474FF400000023914201D3891A16
:10036000034340084FEA4101F7D151B1914202D114
:100370004FF0004105E002D24FF0010101E06FF0C3
:10038000010103EBC450284430BC00F02FB8962381
:100390000022114600F033B820F00040C10DC0F338
:1003A000160040F400007F2901DA002070479629EA
:1003B00003DCC1F19601C840704796398840704708
:1003C00030B50B46014600202022012409E021FA25
:1003D00002F59D4205D303FA02F5491B04FA02F522
:1003E0002844151EA2F10102F1DC30BD0029A8BF8E
:1003F0007047401C490008BF20F00100704710B44E
:10040000B0FA80FC00FA0CF050EA010404BF10BC02
:10041000704749B1CCF1200421FA04F411FA0CF12F
:1004200018BF012121430843A3EB0C01CB1D4FEA68
:1004300000614FEA102042BF002010BC704700EB63
:10044000C35010440029A4BF10BC7047401C490091
:1004500008BF20F0010010BC70470000064C074D9B
:1004600006E0E06840F0010394E807009847103484
:10047000AC42F6D3FFF760FED0540008F0540008F9
:1004800010B504F0DBFB002010BD000010B501200A
:1004900000F020F838B103F077FA0548006803F05F
:1004A00097FD03F081FA012000F00EF810BD000066
:1004B0002800002010B54FF4005000F00BF84FF466
:1004C000005000F001F810BD0149086070470000BD
:1004D00014040140014600200022074B1B6803EA78
:1004E0000102054B14331B680B4013B10AB1012004
:1004F00000E0002070470000000401400021234973
:100500008279002A3AD00A46126803689A430B4659
:100510001A600A1D126803689A430B1D1A6002795B
:1005200011440A6803681A430A60184A08321268BC
:1005300003689A43154B08331A601A1D1268036842
:100540009A43124B0C331A604279102A0ED11A1FAB
:10055000126803681A430D4B08331A601A1D12689B
:1005600003681A43094B0C331A600DE007494279BE
:1005700011440A6803681A430A6005E002791144CD
:100580000A6803689A430A6070470000000401404B
:100590000EB500F04BF80121042000F001FA012112
:1005A000102000F0FDF90120ADF8080004208DF8BE
:1005B0000B0002A91B4800F077F84FF40050ADF88B
:1005C000080004208DF80B0002A9174800F06CF811
:1005D0000121084600F0E4F90021084600F044F843
:1005E0000D21022000F040F80120009000208DF83D
:1005F000040008208DF8050001208DF806006846EB
:10060000FFF77CFF4FF40050009000208DF80400AD
:100610000C208DF8050001208DF806006846FFF7D4
:100620006DFF0EBD000801400010014008B54FF4F9
:10063000C06000F09BF906208DF8000001208DF8C5
:1006400001008DF802008DF80300684600F056F9AD
:1006500028208DF8000001208DF801008DF802009F
:10066000684600F04BF908BD30B500228B071C0F1F
:100670000F2303FA04F20B4B8C1053F824309343EE
:10068000084C8D1044F8253023468C1053F8243044
:100690008C07240F00FA04F42343024C8D1044F815
:1006A000253030BD080001402DE9F041024600250B
:1006B0000026002000230024002791F803C00CF03E
:1006C0000F0591F803C00CF0100CBCF1000F03D023
:1006D00091F802C04CEA050591F800C0BCF1000F8A
:1006E00031D0146800202BE04FF0010C0CFA00F31D
:1006F000B1F800C00CEA03069E4220D183004FF0FF
:100700000F0C0CFA03F7BC4305FA03FC4CEA040493
:1007100091F803C0BCF1280F06D14FF0010C0CFA80
:1007200000FCC2F814C00AE091F803C0BCF1480F05
:1007300005D14FF0010C0CFA00FCC2F810C0401CAF
:100740000828D1D31460B1F800C0BCF1FF0F34DD2C
:10075000546800202EE000F1080C4FF0010808FA60
:100760000CF3B1F800C00CEA03069E4221D18300CD
:100770004FF00F0C0CFA03F7BC4305FA03FC4CEAEC
:10078000040491F803C0BCF1280F05D100F1080C56
:1007900008FA0CF8C2F8148091F803C0BCF1480FB5
:1007A00007D100F1080C4FF0010808FA0CF8C2F864
:1007B0001080401C0828CED35460BDE8F08102466A
:1007C000002093680B400BB1012000E0002070472F
:1007D000416170470161704708B50121082000F0B0
:1007E000DFF84FF48070ADF8000004208DF80300AE
:1007F00003208DF8020069460648FFF755FF1020D8
:100800008DF803004001ADF8000069460148FFF78C
:100810004BFF08BD0010014008B50121082000F081
:10082000BFF84FF48060ADF8000004208DF803009D
:1008300003208DF8020069460648FFF735FF1020B7
:100840008DF80300C001ADF8000069460148FFF7CC
:100850002BFF08BD0010014008B50121082000F061
:100860009FF82020ADF8000010208DF80300032031
:100870008DF8020069460F48FFF716FF0120ADF81A
:10088000000069460B48FFF70FFF0220ADF800009B
:1008900069460848FFF708FF20210648FFF79AFF3E
:1008A00001210448FFF796FF02210248FFF792FF5B
:1008B00008BD0000000C014008B54FF4A06000F036
:1008C00055F825208DF8000001208DF801008DF8E5
:1008D00002008DF80300684600F010F826208DF81D
:1008E000000001208DF8010002208DF80200012097
:1008F0008DF80300684600F001F808BD70B50021CE
:1009000000230F22C47804B3154C246804F4E06477
:10091000C4F5E064210AC1F10403CA40447804FA32
:1009200003F184781440214309010E4C0678A15547
:10093000047804F01F050124AC4005786D11AD006A
:1009400005F1E025C5F8004109E0047804F01F0531
:100950000124AC40044D0678761145F8264070BD60
:100960000CED00E000E400E080E100E0024901431A
:10097000024A1160704700000000FA050CED00E02B
:1009800029B1064AD2690243044BDA6104E0034A02
:10099000D2698243014BDA617047000000100240C7
:1009A00029B1064A92690243044B9A6104E0034A62
:1009B00092698243014B9A61704700000010024027
:1009C00030B500210022002400232D4D6D6805F074
:1009D0000C0121B1042905D0082923D105E0294DB6
:1009E000056022E0274D05601FE0254D6D6805F488
:1009F0007012234D6D6805F48034022505EB924298
:100A00001CB9214D554305600BE01D4D6D6805F483
:100A100000351DB11C4D5543056002E0194D55438D
:100A2000056002E0174D056000BF00BF144D6D6802
:100A300005F0F0010909154D6B5C0568DD40456066
:100A40000F4D6D6805F4E061090A104D6B5C456857
:100A5000DD4085600A4D6D6805F46051C90A0B4D93
:100A60006B5C4568DD40C560054D6D6805F440412F
:100A7000890B074D6B5CC568B5FBF3F5056130BDAF
:100A80000010024000127A0000093D00140000200E
:100A9000240000201CB50122002140A003F070FAC0
:100AA0004249086014200221CB010022CDE9001048
:100AB0003F4940A003F029FC41490860084600680E
:100AC00018B10846006803F04FFD142006214FF4CA
:100AD00080730022CDE900103A493BA003F015FCD9
:100AE0003D4908600846006818B10846006803F0F0
:100AF0003BFD142006214FF480730022CDE9001045
:100B0000364937A003F001FC3949086008460068FF
:100B100018B10846006803F027FD142006214FF4A1
:100B200080730022CDE90010324933A003F0EDFBC1
:100B3000344908600846006818B10846006803F0A8
:100B400013FD142005214FF480630022CDE900102D
:100B50002D492EA003F0D9FB3149086008460068F2
:100B600018B10846006803F0FFFC142004218B0133
:100B70000022CDE900102B492BA003F0C6FB2D4924
:100B800008600846006820B10846006803F0ECFCE5
:100B900002E029A002F060FF1CBD000071756963CE
:100BA0006B5F666565645F6E0000000038000020C2
:100BB0004D4E000874696D655F7379730000000025
:100BC00050000020912000086772616E6172795FA9
:100BD00077656967687400003C0000201D1A0008F2
:100BE0006578706F72745F7765696768740000007C
:100BF000400000208D2200086B6579315F736361CE
:100C00006E00000044000020F14E0008776966691C
:100C10005F756172745F7365727669636500000069
:100C200048000020C1330008717569636B5F666519
:100C3000656400004C000020746872656164207374
:100C4000746172747570206661696C65642121211C
:100C50000000000008B501210420FFF7A1FE1020CC
:100C6000ADF800008DF8030003208DF802006946FE
:100C70000C48FFF719FD4020ADF80000694609480F
:100C8000FFF712FD2020ADF8000069460548FFF788
:100C90000BFD20210348FFF79DFD10210148FFF7C0
:100CA00099FD08BD0008014010B500F001F810BD25
:100CB0000CB50020019000903348006840F480306B
:100CC0003149086000BF3048006800F400300090EF
:100CD0000198401C0190009818B90198B0F5A06FD8
:100CE000F1D12948006800F4003010B101200090D3
:100CF00001E0002000900098012843D123480068BB
:100D000040F01000214908600846006820F0030008
:100D100008600846006840F0020008601A48406811
:100D2000194948600846406848600846406840F4F1
:100D3000806048600846406820F47C10486008469F
:100D4000406840F4E81048600846006840F0807051
:100D5000086000BF0C48006800F000700028F9D05F
:100D60000948406820F00300074948600846406889
:100D700040F00200486000BF0348406800F00C00EB
:100D80000828F9D10CBD00000010024000200240EC
:100D900010B502F0F9FD03F083FC02F005FE10BD72
:100DA00010B51348006840F001001149086008467A
:100DB0004068104908400E494860084600680E49DE
:100DC00008400B4908600846006820F4802008604D
:100DD0000846406820F4FE0048604FF41F00886019
:100DE000FFF762FF4FF000600449086010BD00008B
:100DF000001002400000FFF8FFFFF6FE08ED00E0E3
:100E000010B540F22551064800F0AFF830B1044863
:100E100000F066F9C4B2204604F072F810BD00007C
:100E20000044004001F40072B2F5007F00D100BF21
:100E3000CA430280704721B1828942F40052828104
:100E400004E082894DF6FF731A40828170470000EA
:100E500000B585B001210420FFF7A2FD0121880320
:100E6000FFF79EFD01210420FFF79AFD01214804B0
:100E7000FFF786FD4FF40070ADF8100018208DF8D4
:100E8000130003208DF8120004A92E48FFF70CFC74
:100E90004FF48060ADF8100004208DF8130004A911
:100EA0002848FFF701FC0420ADF8100018208DF849
:100EB000130003208DF8120004A92248FFF7F4FB69
:100EC0000820ADF8100004208DF8130004A91D4877
:100ED000FFF7EAFB4FF4E13000900020ADF804008A
:100EE000ADF80600ADF80800ADF80C000C20ADF828
:100EF0000A006946144800F087F801211248FFF7FC
:100F00009AFF4FF4165000900020ADF80400ADF8A1
:100F10000600ADF80800ADF80C000C20ADF80A0092
:100F200069460A4800F070F8FFF7C6FC012240F25B
:100F30002551064800F043F801210448FFF77BFFE4
:100F400005B000BD000801400038014000440040E9
:100F500002460020B1F5007F00D100BF13880B408E
:100F60000BB1012000E00020704770B5024600245C
:100F700000230025002040F66A16B14200D100BFD0
:100F8000C1F3421501F01F03012606FA03F3012DF8
:100F900002D19689334006E0022D02D1168A3340F1
:100FA00001E0968A33400C12012606FA04F41688F2
:100FB000344013B10CB1012000E0002070BDF0B549
:100FC0000346002400260025002040F66A17B94297
:100FD00000D100BF1846C1F3421401F01F060127DB
:100FE00007FA06F5012C01D10C3004E0022C01D1E6
:100FF000103000E014301AB107682F43076002E098
:101000000768AF430760F0BD2DE9F04786B005469D
:101010000E460024A24600BFA1460027B08900B1B9
:1010200000BF2F462C8A4CF6FF700440F088044322
:101030002C82AC894EF6F3100440B0883189084305
:10104000718908430443AC81AC8A4FF6FF400440E9
:10105000B0890443AC8201A8FFF7B2FC1F48874265
:1010600002D1DDF810A001E0DDF80CA0A88900F4A1
:10107000004040B10AEBCA0000EB0A103168490099
:10108000B0FBF1F807E00AEBCA0000EB0A10316888
:101090008900B0FBF1F86420B8FBF0F004012009EE
:1010A000642101FB1089A88900F4004040B132207E
:1010B00000EBC900B0FBF1F000F00700044308E0CA
:1010C000322000EB09106421B0FBF1F000F00F00BA
:1010D00004432C8106B0BDE8F087000000380140D1
:1010E00001468888C0F308007047C1F30802828077
:1010F000704770B504460D4629462046FFF7F5FFB8
:1011000000BF80212046FFF723FF0028F9D070BDE3
:101110000FB4084B10B504A902AA039800F082F896
:10112000044602A9002000F0A1F9204610BC5DF899
:1011300014FB00006D140008014609B90020704737
:10114000C8B220B1C8B20E4A105C401CF7E701F4E7
:101150007F4028B10A48C1F30722805C0930EEE7DE
:1011600001F47F0028B10648C1F30742805C1130CA
:10117000E5E7034800EB116000781930DFE7000075
:101180001852000802E008C8121F08C1002AFAD14C
:1011900070477047002001E001C1121F002AFBD1F7
:1011A0007047000003490868884201D00120704759
:1011B0000020FCE7D40000202DE9F04389B006466A
:1011C00088469146002400E0641C305D202804D04D
:1011D000305D092801D04445F6D324B94FF0FF30E3
:1011E00009B0BDE8F0832146304601F029FE0546EE
:1011F00015B94FF0FF30F3E7202101A8FFF747F8BA
:1012000001AA4146304601F085FE074617B94FF066
:10121000FF30E5E701A93846A847C9F800000020DB
:10122000DEE700002DE9FF4F89B09B46044600250C
:1012300006E025280BD05A460B999047641C6D1C7C
:1012400020780028F5D10DB02846BDE8F08F0027A2
:10125000B8460122474900E0074314F8013F203B0C
:1012600002FA03F00842F7D120782E2819D114F899
:10127000010F47F004072A280ED06FF02F022078C4
:10128000A0F1300109290CD808EB880102EB4101DB
:1012900000EB0108641CF2E70A98641C50F8048B08
:1012A0000A9020780028CED0642808D0692806D07B
:1012B00075281ED05A460B9990476D1C58E00A9924
:1012C0004FF00A0901C90A91002802DA40422D2193
:1012D00002E0390504D52B218DF82010012103E00F
:1012E000F90704D02021F7E78A4608AE0DE0002177
:1012F000FAE70A994FF00A0901C90A91F7E7494646
:10130000FFF75EF8303106F8011D0028F7D1ADEB8C
:10131000060000F12009780701D44FF00108C84504
:1013200002DDA8EB090000E000208046002706E06F
:1013300008A85A46C05D0B9990476D1C7F1C574505
:10134000F6DB04E030205A460B9990476D1CB8F14B
:101350000001A8F10108F5DC05E016F8010B5A467A
:101360000B9990476D1CB9F10001A9F10109F4DC5A
:10137000641C65E7092801002DE9FC5F04468B46E3
:1013800015461E46DDE90C9ADDE90E7804F11C00D5
:101390004060006000BF24346560A660C4F80C9013
:1013A000C4F810A02321D4E9030202F09EFCD4E982
:1013B000033C63441A1F0F4BD4E9010102F0BEFA4B
:1013C0002060A77667760020E061C4F82080C4F82A
:1013D000248060612076E0652066243C00902346EE
:1013E000054A2146019004F14C0003F0DBF900208E
:1013F000BDE8FC9F69430008D94500082DE9F04786
:1014000004460E4617469846DDF8209084F8119061
:10141000607C20F0010060746662A7620020206397
:10142000C4F82C80002506E004F11C0101EBC50086
:1014300002F030FB6D1C012DF6DBBDE8F08710B526
:101440000246002001460EE002F11C0303EBC1003E
:10145000D0E900436360D0E900342360406000605D
:1014600000BF481C01460129EEDB10BD0A68531C71
:101470000B601070704710B500221146012001F07A
:1014800037FB0021022001F0D5FA0021032001F0F2
:1014900069FB0021042001F0FFFA0021072001F080
:1014A000C9FA0021082001F0C5FA0021102001F03E
:1014B00059FB0021112001F055FB0021122001F001
:1014C00051FB0021132001F0B5FA10BD10B520A08A
:1014D00002F0C2FA2148017821A002F0BDFA1F48AB
:1014E000007800F0010010B123A002F0B5FA1B480B
:1014F000007800F0020010B122A002F0ADFA174807
:10150000007800F0040010B121A002F0A5FA134801
:10151000007800F0080010B121A002F09DFA0F48F9
:10152000007800F0100010B120A002F095FA0B48EE
:10153000007800F0800030B108480F3001681DA02D
:1015400002F08AFA02E01FA002F086FA10BD000045
:10155000627573206661756C743A0A0029ED00E0CB
:101560005343425F434653525F424653523A3078A8
:101570002530325820000000494255534552522030
:10158000000000005052454349534552522000008C
:10159000494D5052454349534552522000000000E6
:1015A000554E53544B4552522000000053544B4566
:1015B000525220005343422D3E424641523A25307A
:1015C00038580A000A00000001460020087800028E
:1015D0004A78104300028A7810430002CA78104308
:1015E000704770B504460D4600F09EFF002070BDA8
:1015F00070B504460D4601F06FF8002070BD000084
:101600002DE9F04704462A49E01C11F80080B8F1A2
:10161000060F1AD009DCB8F1000F0DD0B8F1010F98
:101620000DD0B8F1020F3FD10CE0B8F1080F32D065
:10163000B8F11C0F38D131E000F08CFD35E001F03D
:1016400027FE32E000F0B2FC2FE01949601D095C72
:10165000174A201D105C41EA0027002518E0A01D54
:101660002844801C1249085C4FF6FF7101EA0026ED
:10167000A01D2844C01C0E49085C304486B2214499
:10168000891D481900F016F88146301D284485B29E
:10169000BD42E4DB09E0FFF7EEFE06E00449214429
:1016A000881D01F0ADFA00E000BF00BFBDE8F08783
:1016B00056A100202DE9F0470446267894F80180D1
:1016C000A0784FF6FF7101EA0025E078284485B242
:1016D000304600F053FC0746084800EB47004078CE
:1016E000404502D00020BDE8F0872A46211D304643
:1016F00000F022F881464846F5E700000452000851
:101700002DE9F04106460F463946304601F066FAAB
:1017100005461DB100F04AFD06490880294607200C
:1017200001F088F90446012C01D1BDE8F0810020C8
:10173000FBE70000340000202DE9F04105460E468D
:101740001746072D20D006DC012D0BD0022D0FD01F
:10175000032D31D112E0082D1CD0122D20D0132DD5
:101760002AD123E03946304600F064F8044624E0EC
:101770003946304600F00AF904461EE03946304644
:1017800000F040F8044618E039463046FFF7B8FF4D
:10179000044612E03946304600F024F904460CE0D5
:1017A0003946304600F00AF9044606E0394630462C
:1017B00000F008F8044600E000BF00BF2046BDE886
:1017C000F08100002DE9F04106460F4639463046CB
:1017D00001F004FA05461DB920200949086003E01C
:1017E00020200749091D08602946132001F022F92D
:1017F0000446012C01D1BDE8F0810020FBE7000088
:10180000100C01402DE9F04105460E4631462846B0
:1018100001F0E7F90446E0B200F016F92146032092
:1018200001F0A0F90746012F01D1BDE8F0810020A9
:10183000FBE700002DE9FC4105460F46002600208D
:101840003F490870002431E0601C00EB8000401E1E
:10185000285C48B33A480078401C3949087004EBCA
:101860008400285C06EB4601364A22F8110004EB9E
:101870008400401C285C06EB460102EB41018870A5
:1018800004EB8400801C285C06EB460102EB41015E
:10189000C87004EB8400C01C285C06EB460102EB18
:1018A00041010871701CC6B2601CC4B2052097FBD0
:1018B000F0F0A042C8DC00241DE004EB4400214904
:1018C00001EB4000007904EB44011E4A02EB4101A8
:1018D000C978CDE9001004EB4400114601EB40004B
:1018E000837804EB440031F81020214616A002F062
:1018F000B3F8601CC4B2124800788442DDDB19A042
:1019000002F0AAF800F064FB17480079009016482E
:10191000C3788278018815A002F09EF811A002F029
:101920009BF83A462946012001F0E2F88046B8F1DA
:10193000010F02D10120BDE8FC810020FBE700007F
:10194000360000201AA100206D65616C20706C616A
:101950006E2025643A2025642025642025642025F6
:10196000640A00000A0000002C0000206E6561720D
:101970006C795F6D65616C20706C616E3A202564D6
:101980002025642025642025640A00002DE9F0410B
:1019900006460F463946304601F020F9054615B196
:1019A000012000F051F82946022001F043F80446D6
:1019B000012C01D1BDE8F0810020FBE72DE9F041C9
:1019C00004460D462946204601F00BF907463946E4
:1019D000122001F0C7F80646012E01D1BDE8F081C2
:1019E0000020FBE72DE9F04106460F463946304618
:1019F00001F0F4F805461DB100F010FC064908801E
:101A00002946082001F016F80446012C01D1BDE852
:101A1000F0810020FBE700003200002000250FE0ED
:101A2000322002F09AFC00F0C1FB06490988441AF2
:101A3000601B322804D925462946112001F092F86E
:101A4000EEE700003400002010B50446204603F005
:101A5000A7F910BD10B51448006890F82900C0F32C
:101A6000400020B9002011490870084610BD1048F8
:101A7000006838B180220E4801680C48FEF71EFC51
:101A80000A48F3E701F044FA20B10AA10748FEF73B
:101A900028FC03E009A10548FEF723FC09A103483F
:101AA000FEF700FC0148E1E7080100201CA6002029
:101AB0000C0100206D7368200000000066696E73E1
:101AC000682000003E00000010B501F0EDFD10BDE3
:101AD0000549096891F8291060F34101024A12682A
:101AE00082F829107047000008010020024A1060A7
:101AF000024A116070470000F8000020FC0000203E
:101B00007CB5002516491748FFF7F0FF802101201A
:101B100001F0A4FC144908600846006820B913A02D
:101B200001F09AFF681E7CBD0A2002214B020022B0
:101B3000CDE90010134914A002F0E7FB044600238E
:101B40001A4613A10848006802F02FFA0120FFF797
:101B5000BFFF1CB115B9204602F006FD0020E2E7E8
:101B6000D054000850540008080100206E6F206D0A
:101B7000656D6F727920666F72207368656C6C0A90
:101B800000000000991B0008747368656C6C00000D
:101B90007368727800000000E948006890F8290036
:101BA00020F00100401CE649096881F82900FFF790
:101BB00051FF054601F050FFC1E1FFF785FF0446E4
:101BC000002C00DABBE11B2C05D10120DC4909689F
:101BD00081F82800B3E1DA48006890F8280001286D
:101BE0000DD15B2C05D10220D549096881F8280068
:101BF000A5E10020D249096881F8280045E0D048D5
:101C0000006890F8280002283FD10020CC490968DC
:101C100081F82800412C00D191E1422C00D18EE1C5
:101C2000442C11D1C6480068B0F87C0058B1C5A05A
:101C300001F012FFC2480068B0F87C00401EC049A5
:101C40000968A1F87C007AE1432C1ED1BC480068E9
:101C5000B0F87C00BA490968B1F87A10884213DA02
:101C6000B7480068B0F87C20B54800682A30815C2D
:101C7000B5A001F0F1FEB2480068B0F87C00401C4D
:101C8000AF490968A1F87C0059E10CB1FF2C00D1E3
:101C900055E1092C1FD1002503E0AAA001F0DCFECC
:101CA0006D1CA7480068B0F87C00A842F5DCA44889
:101CB00000682A3003F024F8A14800682A30FEF7B3
:101CC00009FB80B29E490968A1F87A009C4909681D
:101CD000A1F87C0033E17F2C01D0082C6ED198480C
:101CE0000068B0F87C0000B929E195480068B0F8B8
:101CF0007A00401E92490968A1F87A00904800686D
:101D0000B0F87C00401E8E490968A1F87C008C4820
:101D10000068B0F87A008A490968B1F87C108842F6
:101D20003FDD874B1B68B3F87A30854E3668B6F8CE
:101D30007C609A1B824B1B68B3F87C305B1C804E26
:101D400036682A3699197E4B1B68B3F87C607C4B49
:101D50001B682A33F01801F0A7FF002278480068BA
:101D6000B0F87A10764800682A3042547448006807
:101D7000B0F87C20724800682A30111873A001F076
:101D80006BFE6F480068B0F87C5003E06DA001F076
:101D900063FE6D1C6A480068B0F87A00A842F5DA64
:101DA0000BE06CA001F058FE002165480068B0F817
:101DB0007A20634800682A308154C0E00D2C01D09D
:101DC0000A2C2BD101F0A4F8012812D15C4800683C
:101DD00090F8290000F0010010B15FA001F03CFE76
:101DE00057480068B0F87A10554800682A3000F06B
:101DF000F1FFFFF72FFE054601F02EFE502150485F
:101E000000682A30FEF743FA00204D490968A1F81E
:101E10007A004B490968A1F87C0090E048480068C6
:101E2000B0F87A00502804DB002045490968A1F881
:101E30007A0043480068B0F87C0041490968B1F86D
:101E40007A10884245DA3E4B1B68B3F87A303C4E34
:101E50003668B6F87C609A1B394B1B68B3F87C6017
:101E6000374B1B682A33F118354B1B68B3F87C30AD
:101E70005B1C334E36682A36981901F015FF30483E
:101E80000068B0F87C202E4800682A3084542C4822
:101E9000006890F8290000F0010050B1284800685F
:101EA000B0F87C20264800682A3011182BA001F0D9
:101EB000D3FD23480068B0F87C5003E021A001F076
:101EC000CBFD6D1C1E480068B0F87A00A842F5DC16
:101ED00012E01B480068B0F87A20194800682A30E0
:101EE00084541748006890F8290000F0010018B1E8
:101EF000214615A001F0B0FD002411480068B0F89B
:101F00007A00401C0E490968A1F87A000C48006864
:101F1000B0F87C00401C0A490968A1F87C00084818
:101F20000068B0F87A00502808DB002004490968EE
:101F3000A1F87A0002490968A1F87C0000BF3CE6DC
:101F40000801002008000000256300000825732018
:101F500020080000082008000A0000002573000087
:101F600030B502460020002305E012F8015B2C1872
:101F7000E0B25C1CA3B28B42F7DB30BD70B5054606
:101F800000F012F80646002407E0064810F8140096
:101F9000A84200D103E0601CC4B2B442F5DB00BF2C
:101FA000204670BD045200080A20704710B5002476
:101FB0000821204602F09CFEC4B20021204602F017
:101FC00097FEC4B222460321022003F0E9F810BDB7
:101FD00070B54FF4B46301222948C079C0F10700FD
:101FE00002FA00F0C2B2002044E000EB4004254DAC
:101FF00035F814401440BCB300EB400405EB440436
:10200000A4781F4D2D79AC422FDB00EB40041D4D11
:1020100005EB4404E4781A4D6D79AC4225DB00EB06
:102020004004184D05EB4404E478154D6D79641BAC
:1020300000EB4005134E06EB4505AD78104E3679A2
:10204000AD1BC5EB051504EB8504A1B299420FDA6F
:102050000B4600EB40040B4D05EB44040A4D26688B
:102060002E60A488AC8003E0FFE78024064D2C801E
:10207000441CE0B2054C2478A042B6DB70BD0000E1
:1020800010A100201AA100202C0000203600002002
:102090001DE0322002F061F900F0C0F80C49098817
:1020A000441A601B1E2812D9254640F6B8308542D6
:1020B00005D364263146102000F054FD07E01E20B1
:1020C000B5FBF0F0C6B23146102000F04BFDE0E762
:1020D0003200002010B51448006800F0020010B172
:1020E00012A001F0B9FC1048006800F0804088B1EF
:1020F0000D48C01E007808B1FFF7E8F90A48001F34
:10210000007808B100F0A2FD0748801E008808B1E1
:1021100002F02CFF0448006800F0004010B109A054
:1021200001F09AFC10BD00002CED00E06661696CC6
:10213000656420766563746F722066657463680AEF
:10214000000000006465627567206576656E740A3C
:102150000000000010B500240B48007840B90021B1
:10216000204602F0C5FDC4B201200749087004E012
:102170000121204602F0BCFDC4B22246032100200A
:1021800003F00EF810BD00006100002010B502A0A1
:1021900001F062FC002010BD48656C6C6F20525449
:1021A0002D546872656164210A0000002DE9F04138
:1021B00002F062FD052002F0D0F801F023F90024BE
:1021C00000BF01F00BF90028FBD100250AE002F066
:1021D00067FD640001F016F901F000F900B1641C1C
:1021E000681CC5B2182DF2DB02F05AFD84F400041D
:1021F000052002F0B2F801F005F92046FEF7C7F815
:1022000080460549FEF785F80746FEF7C5F886B211
:102210003046BDE8F08100000000D7432DE9F041D1
:1022200002F034FD052002F098F801F0F5F80024E2
:1022300000BF01F0DDF80028FBD100250AE002F024
:1022400039FD640001F0E8F801F0D2F800B1641C37
:10225000681CC5B2182DF2DB02F02CFD84F40004DA
:10226000052002F07AF801F0D7F82046FEF78FF843
:1022700080460549FEF74DF80746FEF78DF886B211
:102280003046BDE8F08100000000D74313E0322063
:1022900002F063F801210848FEF791FA01280AD1FB
:1022A00000BF01210448FEF78AFA0128F9D003484B
:1022B000006801F08DFEEAE70008014038000020C8
:1022C00010B50CA001F0C8FB0F4804680CE0022216
:1022D0000EA12068FEF70EF800B904E00CA02168FA
:1022E00001F0BAFB00BF08340A4800688442EED30C
:1022F000002010BD2D2D46756E6374696F6E204CE5
:102300006973743A0A000000F80000205F5F000063
:1023100025730A00FC0000202DE9F04704460D4615
:1023200016461F46284601F04FFD814609F1040874
:10233000C4F8008025726660E76000202061BDE877
:10234000F0872DE9F84F07460C464FF0000A0020B1
:102350002061E06808B1207A10B90020BDE8F88F4C
:10236000D4F800801FB945464FF0010A00E03D4611
:10237000FDF7FAFE0090BAF1000F0ED1A5F1140B93
:102380009BF8100020F08000217A884204D0009849
:10239000FDF7EEFE0020E1E700BF0026D4F8049030
:1023A0000BE02D68454501D1002507E0761C49F872
:1023B000045BE068B04200D100E0F2E700BF0098A3
:1023C000FDF7D6FE26612846C8E700002DE9F04F4C
:1023D00091B000270FF2D409082304AA05210CA804
:1023E000FFF79AFF4FF010084A46414631A001F02E
:1023F00033FB404600F036FE37A001F02DFB00BF56
:102400000CA93846FFF79DFF0746002545E004A8C4
:1024100050F82500A0F11406FDF7A6FE8346307C97
:1024200020F080009DF83810884203D05846FDF710
:102430009FFE31E05846FDF79BFE344604F11C0038
:1024400001F057FBB8B904F11C0001F05AFB8246B9
:10245000208D618D23461022CDE9010A009141466D
:1024600024A001F0F9FA04F11C0002F065FC27A099
:1024700001F0F2FA0FE004F11C0001F042FB824689
:10248000208D618D23461022CDE9010A009141463D
:102490001FA001F0E1FA00BF6D1C1098A842B6DC45
:1024A000002FADD1002011B0BDE8F08F6D61696CD7
:1024B000626F7800252D2A2E7320656E7472792044
:1024C00073697A652073757370656E6420746872C1
:1024D0006561640A00000000202D2D2D2D20202D87
:1024E0002D2D2D202D2D2D2D2D2D2D2D2D2D2D2D29
:1024F0002D2D0A00252D2A2E2A7320253034642004
:1025000020253034642025643A0000000A000000D1
:10251000252D2A2E2A73202530346420202530349E
:10252000642025640A00000010B50848016808A06E
:1025300001F092FA0B4801680BA001F08DFA0F48E8
:1025400001680FA001F088FA10BD0000780000209B
:10255000746F74616C206D656D6F72793A202564BB
:102560000A0000007C00002075736564206D656DB5
:102570006F7279203A2025640A0000008000002054
:102580006D6178696D756D20616C6C6F63617465E8
:1025900064206D656D6F72793A2025640A00000031
:1025A0002DE9F04F8FB000270FF2CC09082302AAC3
:1025B00002210AA8FFF7B0FE4FF010084A46414634
:1025C00030A001F049FA404600F04CFD34A001F083
:1025D00043FA00BF0AA93846FFF7B3FE07460025B5
:1025E00041E002A850F82500A0F11406FDF7BCFD5B
:1025F0008346307C20F080009DF83010884203D064
:102600005846FDF7B5FD2DE05846FDF7B1FD3446BF
:1026100004F11C0001F06DFAA8B904F11C0001F0EE
:1026200070FA8246A08C234610224146CDE9000A6A
:1026300021A001F011FA04F11C0002F07DFB17A0AB
:1026400001F00AFA0DE004F11C0001F05AFA82468A
:10265000A08C234610224146CDE9000A1AA001F0C1
:10266000FBF900BF6D1C0E98A842BADC002FB1D157
:1026700000200FB0BDE8F08F73656D6170686F72F8
:1026800065000000252D2A2E7320762020207375EA
:102690007370656E64207468726561640A0000007E
:1026A000202D2D2D202D2D2D2D2D2D2D2D2D2D2D74
:1026B0002D2D2D0A00000000252D2A2E2A732025FD
:1026C0003033642025643A00252D2A2E2A732025D4
:1026D0003033642025640A002DE9F04FB3B04FF089
:1026E00000090FF21C1B082325AA01212DA8FFF7C2
:1026F00013FE4FF0100A5A465146434801F0ACF918
:10270000504600F0AFFC41A001F0A6F900BF2DA992
:102710004846FFF716FE81464FF0000865E025A801
:1027200050F82800A0F11405FDF71EFD3290287C1A
:1027300020F080009DF8BC10884203D03298FDF74D
:1027400017FD50E08822294603A8FDF787FD32983F
:10275000FDF70EFD2C4694F83D002346102251460D
:1027600000903AA001F078F994F83C0000F00F06D0
:10277000012E03D138A001F06FF915E0022E03D12C
:1027800038A001F069F90FE01EB939A001F064F931
:102790000AE0042E03D139A001F05EF904E0032E13
:1027A00002D139A001F058F9276B00E07F1C38787E
:1027B0002328FBD0D4E90C10791A401A642148432D
:1027C000616BB0FBF1F00290A16BA06CCDE9000150
:1027D000636A206BC01A636BC1181A462DA0029B56
:1027E00001F03AF900BF08F101083198404596DC44
:1027F000B9F1000F8BD1002033B0BDE8F08F00009D
:102800007468726561640000F8530008202D2D2D56
:1028100020202D2D2D2D2D2D2D202D2D2D2D2D2D0F
:102820002D2D2D2D202D2D2D2D2D2D2D2D2D2D20F2
:10283000202D2D2D2D2D2D20202D2D2D2D2D2D2DEF
:102840002D2D2D202D2D2D0A00000000252D2A2EA6
:102850002A7320253364200020726561647920206A
:10286000000000002073757370656E640000000046
:1028700020696E69742020200000000020636C6FC6
:1028800073652020000000002072756E6E696E670F
:10289000000000002030782530387820307825304E
:1028A0003878202020202530326425252020203033
:1028B000782530387820253033640A002DE9F04738
:1028C00090B000270FF2B409082303AA0A210BA82D
:1028D000FFF722FD4FF010084A46414629A001F0BB
:1028E000BBF8404600F0BEFB30A001F0B5F800BFD9
:1028F0000BA93846FFF725FD074600262DE003A863
:1029000050F82600A0F11404FDF72EFC8246207C2E
:1029100020F080009DF83410884203D05046FDF727
:1029200027FC19E05046FDF723FC2546D5E90B01AD
:102930002B461022CDE90001414625A001F08CF87C
:10294000687C00F0010018B127A001F085F802E0D2
:1029500028A001F081F800BF761C0F98B042CEDCB1
:10296000002FC5D101F096FE0446214625A001F0B6
:1029700073F8002010B0BDE8F087000074696D6541
:1029800072000000252D2A2E732020706572696F59
:1029900064696320202074696D656F757420202040
:1029A00020202020666C61670A000000202D2D2D5C
:1029B0002D2D2D2D2D2D2D202D2D2D2D2D2D2D2D54
:1029C0002D2D202D2D2D2D2D2D2D2D2D2D2D0A0094
:1029D000252D2A2E2A73203078253038782030781B
:1029E0002530387820000000616374697661746571
:1029F000640A000064656163746976617465640AE1
:102A00000000000063757272656E74207469636BF8
:102A10003A3078253038780A0000000010B5FEF70B
:102A200039F8002010BD10B5044600F037FDFFF75F
:102A3000F5FF10BD70B504460D4600261548007818
:102A4000012800D170BD2146304602F051F90646FA
:102A50000121304602F04CF906460021304602F0D2
:102A600047F906460121304602F042F906462DB9E3
:102A70000021304602F03CF9064604E001213046D0
:102A800002F036F9064632460321072002F088FBA1
:102A90000120D7E76000002070B504460E460025EF
:102AA00012480078012800D170BD2146284602F066
:102AB0001FF905460421284602F01AF905460021AF
:102AC000284602F015F905460121284602F010F9C2
:102AD00005463146284602F00BF905462A460321F1
:102AE000072002F05DFB0120DEE70000600000200F
:102AF0002DE9F0410646884614460027184800781C
:102B0000012801D1BDE8F0813146384602F0F0F8E5
:102B100007460021384602F0EBF807462546E01745
:102B200004EB1060C0F30721384602F0E1F80746D5
:102B3000E01704EB10600012A4EB0020C1B238468D
:102B400002F0D6F8074622464146384602F0BCF865
:102B500007463A460321072002F022FB0120D1E775
:102B60006000002070B505460C4600261A48007823
:102B7000012800D170BD2946304602F0B9F806465A
:102B80000221304602F0B4F806460021304602F039
:102B9000AFF806460421304602F0AAF80646210E98
:102BA000304602F0A5F80646C4F30741304602F06D
:102BB0009FF80646C4F30721304602F099F806460E
:102BC000E1B2304602F094F806463246032107206F
:102BD00002F0E6FA0120CDE76000002002461078FE
:102BE000704710B503460C461846FEF7EDFC10BDC5
:102BF00010B5002203211C2002F0D2FA10BD000003
:102C00000178012913D1417801F5FA610A4A11804E
:102C100081789170C178D1700179117141795171C8
:102C200081799171C179D1710121117202E0002184
:102C3000014A11727047000010A10020024800886C
:102C400000B100BF704700002C00002010B51CA090
:102C500000F002FF1F4801781FA000F0FDFE1D4894
:102C6000007800F0010010B121A000F0F5FE194835
:102C7000007800F0020010B120A000F0EDFE154831
:102C8000007800F0080010B11FA000F0E5FE114828
:102C9000007800F0100010B11EA000F0DDFE0D481D
:102CA000007800F0800030B10A480C3001681CA0A8
:102CB00000F0D2FE02E01EA000F0CEFE10BD00002B
:102CC0006D656D206D616E616765206661756C7400
:102CD0003A0A000028ED00E05343425F4346535256
:102CE0005F4D4653523A307825303258200000006C
:102CF0004941434356494F4C20000000444143435F
:102D000056494F4C200000004D554E53544B4552F0
:102D1000522000004D53544B4552522000000000F9
:102D20005343422D3E4D4D41523A253038580A000A
:102D30000A0000002DE9F04781460026002799F897
:102D4000000028B90021084600F0A8F8BDE8F08787
:102D50001B48046827E006221AA12068FDF7CAFA7A
:102D600000B11FE0206800F106084846FDF7B2FAFE
:102D70008246524641464846FDF7BCFA88B926B914
:102D800047463846FDF7A6FA06464146384602F061
:102D90002FF80546B54200DA2E4641460BA000F05A
:102DA0005BFE00BF08340A4800688442D3D327B1D1
:102DB00032463946484601F0C4F900BFC6E7000074
:102DC000F80000205F5F636D645F000025730A00F8
:102DD000FC00002038B504460D4601E0641C6D1E61
:102DE00020782028FAD020780928F7D00DB90020C3
:102DF00038BD6A4629462046FEF7DEF908B9009834
:102E0000F6E7204600E0401C0178202902D0017836
:102E10000029F8D100210170214603A000F01CFE1A
:102E20004FF0FF30E4E7000025733A20636F6D6DCB
:102E3000616E64206E6F7420666F756E642E0A007A
:102E40002DE9F04106460D4600271048046815E0BC
:102E500006220FA12068FDF74DFA00B10DE02168B0
:102E6000881D2A463146FDF745FA28B9A81D216874
:102E7000085C08B9676805E000BF083406480068C8
:102E80008442E5D300BF3846BDE8F081F800002059
:102E90005F5F636D645F0000FC00002070B5054655
:102EA0000E460EA000F0D8FD134804680DE006227F
:102EB00012A12068FDF71EFA00B105E02068811D0F
:102EC00010A000F0C9FD00BF08340F48006884421C
:102ED000EDD30EA000F0C0FD002070BD52542D5463
:102EE0006872656164207368656C6C20636F6D6DDA
:102EF000616E64733A0A0000F80000205F5F636D42
:102F0000645F000025732000FC0000200A00000020
:102F1000012070472DE9F04782460E469046544600
:102F20000025002755E003E000202070641C6D1C84
:102F30002078202802D02078092801D1B542F3D387
:102F4000082F12D326A000F087FD4FF0000906E0FD
:102F500058F829102AA000F07FFD09F10109B945B0
:102F6000F6D326A000F078FD35E0B54200D332E07C
:102F7000207822281CD1641C6D1C48F827407F1C37
:102F800009E020785C2804D16078222801D1641CF3
:102F90006D1C641C6D1C2078222801D0B542F0D332
:102FA000B54200D317E000202070641C6D1C10E0B7
:102FB00048F827407F1C01E0641C6D1C2078202805
:102FC00004D02078092801D0B542F5D3B54200D30A
:102FD00001E0B542A7D300BF3846BDE8F087000046
:102FE000546F6F206D616E792061726773202120AC
:102FF0005765206F6E6C79205573653A0A000000A2
:1030000025732000F0B505460E4613462A46344681
:1030100005B10EB90020F0BDA24202D9E0189042DD
:1030200008D2002103E0605C5054481C81B29942F0
:10303000F9DB07E0194603E0481E275C175481B20C
:103040000029F9DC2846E6E70146002209B90020FC
:103050007047002200E0521C11F8013B002BFAD10E
:103060001046F5E710B5044602E004A000F0F4FCB9
:10307000201EA4F10104F8D110BD00002D000000B5
:1030800030B51A4C436824681919884215D04B880A
:103090009BB9174B1B6899420FD0164B1B688B428C
:1030A00001D1144B18604B684360104B1B68C31A66
:1030B0000E4D4C682D682C44A3600C4C836824682A
:1030C0001A19824211D053887BB90A4B1B6883427C
:1030D00001D1084B1A6043685360044B1B68D31A34
:1030E000024D44682D682C44A36030BD6C00002064
:1030F00070000020740000202DE9F04F86B00D46CE
:103100009C46DDE9106401960F9B04F04008B8F17D
:10311000000F02D0DFF8708101E0DFF87081CDF898
:10312000008004F01008B8F1000F01D024F0010471
:1031300004F00108B8F1000F02D04FF0300801E0B0
:103140004FF02008C246002704F00208B8F1000F33
:1031500011D0002A02DA2D2752420CE004F00408B4
:10316000B8F1000F01D02B2705E004F00808B8F1F2
:10317000000F00D02027002142B94FF0300B8846C5
:10318000491C0DF1080909F808B01DE01AE0E146F4
:10319000B9F10A0F08D14FF00A0BB2FBFBFE0BFB93
:1031A0001E28B2FBFBF202E002F00F08120900BF7A
:1031B000DDF8009019F808B08846491C0DF108099F
:1031C00009F808B0002AE2D1B14200DD0E469B1B8F
:1031D00004F01108B8F1000F10D117B1002B00DD79
:1031E0005B1E06E0A84203D24FF0200880F8008062
:1031F000401CB3F10008A3F10103F3DC27B1A8429E
:1032000000D207705B1E401C04F01008B8F1000FDC
:103210000AD104E0A84201D280F800A0401CB3F11A
:103220000008A3F10103F5DC06E0A84203D24FF049
:10323000300880F80080401CB046761E8845F4DCDB
:1032400008E0A84205D20DF1080818F8018080F8BE
:103250000080401CB1F10008A1F1010104DDDDF89E
:103260000480B8F1000FECD106E0A84203D24FF081
:10327000200880F80080401CB3F10008A3F101038E
:10328000F3DC06B0BDE8F08F29530008185300089E
:103290003EB50024002000900190029034A0FFF77A
:1032A000D3FE85B22A4632A1204601F00DFDC4B2FC
:1032B00031A0FFF7C9FE85B22A462FA1204601F0B2
:1032C00003FDC4B231A0FFF7BFFE85B22A462FA18D
:1032D000204601F0F9FCC4B22EA0FFF7B5FE85B27E
:1032E0002A462CA1204601F0EFFCC4B22BA0FFF728
:1032F000ABFE85B22A4629A1204601F0E5FCC4B206
:1033000028A0FFF7A1FE85B22A4626A1204601F09B
:10331000DBFCC4B20A2224A16846FDF7F9FE684628
:10332000FFF792FE85B22A466946204601F0CCFCA2
:10333000C4B200221FA16846FDF7EAFE6846FFF707
:1033400083FE85B22A466946204601F0BDFCC4B220
:103350001AA0FFF779FE85B22A4618A1204601F08F
:10336000B3FCC4B222460321012001F019FF3EBD87
:103370007B2270223A22000067716C6E7A6561656B
:103380006A356B686A77743700000000222C227659
:10339000223A2200312E302E30000000222C226DE5
:1033A000223A0000320000002C226D74223A25647B
:1033B000000000002C226E223A2564007D000000EF
:1033C00008E04FF0FF310448006800F01EFE0120C5
:1033D000FEF73AFBF5E700003800002010B54FF487
:1033E00080710248FDF7EBF910BD000000100140AC
:1033F00010B54FF480610248FDF7E1F910BD0000FF
:103400000010014010B54FF400710248FDF7E0F9DB
:1034100010BD00000010014010B54FF400610248DB
:10342000FDF7D6F910BD0000001001401CB51420B6
:103430000A214FF480730022CDE90010044905A051
:1034400000F063FF0446204601F08EF81CBD00002A
:10345000272A00086D61696E0000000070B50446FF
:103460000D4604FB05F000F069FB06462EB104FB97
:1034700005F20021304600F038FC304670BD0000F7
:1034800010B5044C02E020688047241D02488442A5
:10349000F9D310BD405400084454000810B5044C42
:1034A00002E020688047241D02488442F9D310BD01
:1034B000445400084C54000810B5FCF755FE04466F
:1034C00004480088401C00B2024908802046FCF7EE
:1034D0004FFE10BDC400002010B5FCF745FE0446A9
:1034E0000C480088401E00B20A4908800846B0F91E
:1034F000000000280ADC002008802046FCF738FE87
:103500000548006828B100F0A7FC02E02046FCF75F
:103510002FFE10BDC4000020C800002070B5054675
:1035200005B970BD1D480068854203D31C4800687A
:10353000854200D3F5E7A5F10C044FF0FF3119489F
:1035400000F063FD608818B12088B0F5F55F08D001
:1035500015A000F081FA23886288214619A000F0A6
:103560007BFA002060804FF4F550208021480068ED
:10357000844201D21F480460084960680968611AE2
:10358000401A1D490968081A1B4908602046FFF7C0
:1035900077FD044800F01CFD00BFC2E76C0000206E
:1035A00070000020F4A40020746F2066726565200E
:1035B0006120626164206461746120626C6F636B7E
:1035C0003A0A00006D656D3A203078253038782C45
:1035D000207573656420666C61673A2025642C2031
:1035E0006D6167696320636F64653A2030782530C8
:1035F00034780A00740000207C00002000487047E6
:10360000100100200048704710A1002070B522482A
:1036100000684FF47A72B0FBF2F1B1F1807F00D311
:103620001DE021F07F40401E4FF0E0225061501716
:103630000F22002807DA13071D0E184B00F00F04A5
:10364000241F1D5503E013071C0E154B1C5400BF0F
:1036500000204FF0E02290610720106100BF0120A0
:1036600010490860FDF7F4FB01F0FAFCFDF7F4F8EF
:10367000FDF7F0FAFCF78CFFFDF7AEF8FDF7CCF89C
:10368000FFF7FEFEFFF7BEFF0446FFF7B7FF054654
:10369000214600F071FD70BD0000002018ED00E033
:1036A00000E400E0140C014010B54FF0FF3420217D
:1036B0000B48FDF74DFC20B10948FDF711FD04460C
:1036C0000BE008210648FDF743FC18B140210448EF
:1036D000FDF7A8FB0A2000F040FEE0B210BD00009C
:1036E0000038014010B50446FFF7E6FE19E02078E7
:1036F0000A280AD10D210E48FDF7F7FC00BF8021F2
:103700000B48FDF725FC0028F9D014F8011B0848E8
:10371000FDF7EBFC00BF80210548FDF719FC0028F0
:10372000F9D020780028E2D1FFF7D6FE10BD0000C6
:103730000038014070B505462C1D3048006838B18E
:1037400028462E4909688847064606B970BD00BF5D
:103750002BA0E16B00F080F92DA0216A00F07CF92C
:103760002FA0616A00F078F931A0A16A00F074F925
:1037700033A0E16A00F070F935A0216800F06CF91F
:1037800037A0616800F068F939A0A16800F064F919
:103790003BA0E16800F060F93DA0216900F05CF910
:1037A0003FA0616900F058F941A0A16900F054F907
:1037B00043A0E16900F050F945A0216B00F04CF9FD
:1037C00047A0616B00F048F949A0A16B00F044F9F3
:1037D000287800F0040048B100F09EFE064631460D
:1037E00047A000F039F9FEF777FF02E04CA000F0A7
:1037F00033F9FEF76FFC00BFFEE70000F400002085
:103800007073723A203078253038780A0000000052
:103810007230303A203078253038780A00000000C5
:103820007230313A203078253038780A00000000B4
:103830007230323A203078253038780A00000000A3
:103840007230333A203078253038780A0000000092
:103850007230343A203078253038780A0000000081
:103860007230353A203078253038780A0000000070
:103870007230363A203078253038780A000000005F
:103880007230373A203078253038780A000000004E
:103890007230383A203078253038780A000000003D
:1038A0007230393A203078253038780A000000002C
:1038B0007231303A203078253038780A0000000024
:1038C0007231313A203078253038780A0000000013
:1038D0007231323A203078253038780A0000000002
:1038E000206C723A203078253038780A00000000C9
:1038F0002070633A203078253038780A00000000C4
:1039000068617264206661756C74206F6E207468E3
:10391000726561643A2025730D0A0D0A00000000EB
:1039200068617264206661756C74206F6E206861D6
:103930006E646C65720D0A0D0A000000F0B5044655
:103940000D461646301D20F0070040380146002283
:1039500003E00C4F41F82270521C102AF9D30D627B
:103960004FF0000CC1F824C0C1F828C0C1F82CC029
:10397000C1F830C04B638C634FF0807CC1F83CC011
:10398000F0BD0000EFBEADDE10B5FCF7EDFB044668
:1039900004480078401C034908702046FCF7E8FB07
:1039A00010BD00006800002010B5FCF7DDFB0446E8
:1039B00004480078401E034908702046FCF7D8FBF5
:1039C00010BD00006800002070B504462068A0F11A
:1039D0001C05284600F082FD002070BD2DE9F04155
:1039E00005460C469046204600F0D4FDB8F1000F85
:1039F00003D0B8F1010F23D105E004F11C012846E2
:103A000000F060F81CE02E680FE0A6F11C0794F8A7
:103A10003D0097F83D10884206DA04F11C0107F1D9
:103A20001C0000F04FF802E03668AE42EDD100BF56
:103A3000AE4204D104F11C01284600F043F800BF57
:103A400000BF0020BDE8F08110B5044604F11C0061
:103A500000F01AF8002010BD0FB438B505A800908A
:103A60007F210848009B049A00F048FF04467F2C01
:103A700000D97F240348FFF735FE0020009038BCB2
:103A80005DF814FB74A40020406000607047406043
:103A900000607047406000607047026851600268D3
:103AA0000A600160486070470268516002680A60FD
:103AB0000160486070470268516002680A600160F6
:103AC000486070474268116042684A60416008601F
:103AD000704701460868884201D1012070470020E4
:103AE000FCE701460868884201D1012070470020A8
:103AF000FCE701460868884201D101207047002098
:103B0000FCE7014600200A4601E01268401C1368E9
:103B10008B42FAD17047D0E900215160D0E9001200
:103B20001160406000607047D0E900215160D0E929
:103B30000012116040600060704700002DE9F04104
:103B4000054615B90020BDE8F081E81C20F003050A
:103B50004E480068854201D90020F4E70C2D00D2C0
:103B60000C254FF0FF314A4800F04FFA49480068F1
:103B700049490968461A7EE0474800688419608808
:103B8000002874D106F10C006168081AA8426ED3AF
:103B900006F10C006168091A05F11800814230D362
:103BA00006F10C0000EB05083B48006800EB080735
:103BB0004FF4F55038800020788060687860BE60EF
:103BC000C4F80480012060803048796800680C30B7
:103BD000814205D03049786809680844C0F80880F7
:103BE0002E48016805F10C0008442C4908602C4857
:103BF00000680968884219D2284800682849086086
:103C000014E001206080244960680968611A401A44
:103C10002249096808442149086021480068096868
:103C2000884203D21D4800681D4908604FF4F550D2
:103C3000208018480068844212D107E015480068C7
:103C4000406815490968084412490860114800682D
:103C5000408828B10F480068124909688842EDD1B0
:103C60000B4800F0B5F904F10C006CE7FFE70A48D7
:103C700000683044466805480068401BB0423FF683
:103C80007BAF034800F0A4F900205CE77800002037
:103C9000F4A40020740000206C0000207C000020B0
:103CA000800000207000002070B50C4601462346BD
:103CB0008B4210D29D188D420DD91144134405E05A
:103CC0005D1E2B462E784D1E29462E70151EA2F124
:103CD0000102F5D108E003E013F8015B01F8015B94
:103CE000151EA2F10102F7D170BDF0B50C460546D4
:103CF000E6B2042A15D300F0030797B9014646EA55
:103D0000062343EA034304E008C108C108C108C10F
:103D1000103A102AF8D201E008C1121F042AFBD27F
:103D20000D4601E005F8016B171EA2F10102F9D161
:103D3000F0BD2DE9F04106460F46304600F044F84C
:103D40000546E868FFF7FAFE044614B90020BDE80E
:103D5000F08100212046EA68FFF7C7FF26740020A3
:103D6000607410223946204600F0EBF9FCF7FCF9AC
:103D7000804604F11401281DFFF78FFE4046FCF732
:103D8000F7F92046E3E770B5044600202074FCF7FD
:103D9000EBF9054604F11400FFF7BDFE2846FCF7D9
:103DA000E7F92046FFF7BAFB70BD70B50446002066
:103DB0002074FCF7D9F9054604F11400FFF7ABFEB7
:103DC0002846FCF7D5F970BD024600210AE00748F5
:103DD00000EB01100078904203D1044800EB011081
:103DE0007047491C0429F2DB0020F9E78400002019
:103DF0002DE9F04704460D46904600262846FFF779
:103E0000E3FF0746FFF758FB7E6802E0A6F11400C7
:103E10003668381D8642F9D1FFF75EFB45F0800019
:103E2000207410224146204600F08BF9FCF79CF9E3
:103E3000814604F11401381DFFF72FFE4846FCF7B8
:103E400097F9BDE8F0870146087C00F0800008B1D2
:103E5000012070470020FCE72DE9F041FCF784F9D0
:103E600007461848008838BB17480068FDF764F912
:103E7000461E164850F83600A0F11C04144800688D
:103E8000844218D013490E70114805680460124826
:103E9000007850B904F1240105F12400FCF76BF916
:103EA0003846FCF765F9BDE8F08104F1240105F11D
:103EB0002400FCF760F900BF3846FCF759F900BF51
:103EC000F1E70000C4000020D00000201CA5002065
:103ED000C8000020CC0000206800002070B5044617
:103EE000FCF742F9054614F83C0F20F00F0040F0B3
:103EF0000100207062783C3C0A4B03EBC20004F1E5
:103F00001C014268116042684A604160086000BF5D
:103F10000549206C09680843034908602846FCF7F6
:103F200027F970BD1CA50020D000002070B5044604
:103F3000FCF71AF9054604F11C00D0E90021516094
:103F4000D0E9001211604060006000BF94F83D109D
:103F5000094A02EBC1000168814201D1012100E060
:103F6000002129B10548216C006888430349086095
:103F70002846FCF7FDF870BD1CA50020D0000020ED
:103F80002DE9F04105460E46174629460220FFF767
:103F9000D0FE044614B92046BDE8F0812046FFF764
:103FA00053FDA68467742046F6E72DE9F0410446E8
:103FB0000D4616461F462A4602212046FFF718FFE7
:103FC0002046FFF741FDA68467740020BDE8F0811C
:103FD00070B504460025FCF7C7F8064604F11C003E
:103FE000FFF777FD28B904F11C00FFF7EDFC012570
:103FF00002E0A08C401CA0843046FCF7B9F8012DEB
:1040000001D1FFF729FF002070BD73B50546FCF70D
:10401000ABF80646A88C002806DDA88C401EA884B4
:104020003046FCF7A5F828E0019828B93046FCF79F
:104030009FF86FF001007CBD00F06EFA044600208E
:10404000A0636A7C214605F11C00FFF7C7FC0198BC
:10405000002809DD01AA002104F14C0000F076FBE4
:1040600004F14C0000F0B6FB3046FCF781F8FFF796
:10407000F3FEA06B08B1A06BDDE70020DBE70000DA
:1040800008B509A0FFF7E8FC0AA0FFF7E5FC12A0BD
:10409000032301221946009012A0FFF7DDFC19A0AE
:1040A000FFF7DAFC08BD00000A205C207C202F0A04
:1040B000000000002D205254202D202020202054CC
:1040C0006872656164204F7065726174696E672003
:1040D00053797374656D0A004D6172203236203257
:1040E00030323100202F207C205C20202020202511
:1040F000642E25642E2564206275696C6420257306
:104100000A0000002032303036202D203230313984
:1041100020436F70797269676874206279207274C5
:104120002D746872656164207465616D0A00000019
:1041300001460A4600E0521C10780028FBD1501AB4
:10414000704770B50346A2B118460C4600BF14F87C
:10415000016B00F8016B3EB902E0002500F8015B3D
:10416000551E2A1EF9D102E0551E2A1EEFD100BFAE
:1041700000BF184670BD00002DE9F04105460E460F
:10418000E81C20F0030726F00308B8F1180F09D93E
:10419000A8F11800B84205D3A8EB070018381E494B
:1041A000086006E0324629461CA0FFF755FCBDE832
:1041B000F0812948076004684FF4F55020801648C4
:1041C00000680C3060600020A06060802249606858
:1041D00009680844214908604FF4F55009680880CF
:1041E00001201E49096848800B4800680C301B49B3
:1041F00009684860084800680C30184909688860F8
:104200000023012216A11848FFF7CFFE12480068CC
:104210001649086000BFCAE7780000206D656D2070
:10422000696E69742C206572726F722062656769AD
:104230006E206164647265737320307825782C2059
:10424000616E6420656E64206164647265737320BE
:10425000307825780A0000006C00002070000020F3
:104260006865617000000000F4A400207400002064
:1042700010B500200B490880002405E00A4901EB35
:10428000C400FFF704FC641C202CF7DB1F20074947
:104290000870002006490860064908600648FFF7D4
:1042A000F6FB10BDC40000201CA50020CC0000209F
:1042B000C8000020D0000020D400002070B50848BD
:1042C0000068FCF739FF451E064850F83500A0F19C
:1042D0001C040548046004F12400FBF77AFF70BD5C
:1042E000D00000201CA50020C800002010B500242C
:1042F00005E0044901EBC400FFF7CCFB641C002C73
:10430000F7D010BDDC00002070472DE9FF5F0646A6
:104310000F4690461D46DDE90EAB31460120FFF702
:1043200008FD8146B9F1000F03D1002004B0BDE8BB
:10433000F09F2846FFF702FC044624B94846FFF7E1
:1043400022FD0020F2E743463A46314648468DE8D2
:10435000300CFDF711F84846E8E710B50446204652
:1043600000F0E0F810BD000070B513480468FBF7DA
:10437000FBFE05462046FFF7D9FD042084F83C00EB
:1043800004F14C0000F0FEF92046FFF75CFD012827
:1043900006D1D4F8800018B92046FFF706FD04E0E6
:1043A00004F11C010548FFF77FFB2846FBF7E0FE00
:1043B000FFF752FD70BD0000C8000020D4000020AF
:1043C00001E000F001F8FCE770B53CE0FBF7CCFE43
:1043D0000546FCF7E7FE40B31E480068A0F11C0448
:1043E00004F11C00D0E900215160D0E900121160F5
:1043F0004060006000BFFFF75FF8D4F8800018B19C
:104400002046D4F8801088472046FFF71CFD01287D
:1044100008D12046FFF7C9FCFFF75EF82846FBF7F6
:10442000A7FE70BDFFF758F803E02846FBF7A0FE93
:10443000F7E72846FBF79CFE206BFFF76FF8204656
:10444000FFF7A1FC00BFFCF7ADFE0028BED100BF06
:10445000E7E70000D40000201FB520201F21C20084
:10446000074BCDE90032CDE902100023054A06A131
:10447000074800F00FF8064800F076F81FBD00006E
:1044800074A30020C14300087469646C65000000D7
:10449000ECA200202DE9FF5F05460C4616461F469C
:1044A000DDE910ABDDE90E89224601212846FFF740
:1044B0009FFC3B463246214628468DE8000FFCF71C
:1044C0005BFF04B0BDE8F09F70B50446204600F0E5
:1044D000C5F80546284600F025F870BD70B50446BD
:1044E00094F83C0000F00F00022802D04FF0FF309B
:1044F00070BDFBF739FE054604F11C00FFF714FB05
:1045000004F14C0000F0E2F92846FBF731FE2046AA
:10451000FFF7E4FC0020EBE701480068704700006B
:10452000C800002031B5FBF71FFE05460D480468A2
:10453000204600F02FF86A46002104F14C0000F0FC
:1045400005F904F14C0000F045F92846FBF710FE90
:10455000FFF782FCA06B801C08B90020A06300203C
:1045600038BD0000C800002010B504463C34A078D7
:1045700060706178012088406060022004F83C0986
:104580002046FFF7ABFFFFF7C7FF08B1FFF764FC5A
:10459000002010BD70B5044694F83C0000F00F00F8
:1045A000012802D04FF0FF3070BDFBF7DDFD05465E
:1045B00094F83C0020F00F0040F0020084F83C002A
:1045C0002046FFF7B3FC04F14C0000F07FF92846C9
:1045D000FBF7CEFD0020E7E770B5044625466FF0F7
:1045E0000100A86305F11C00FFF79EFA2846FFF7BB
:1045F00075FCFFF731FC70BD70B5FBF7B5FD0546E6
:104600001448046894F83C0000F00F0001281CD105
:10461000D4E90710814218D004F11C00FFF784FA96
:1046200094F83D200C4B03EBC20004F11C014268DE
:10463000116042684A604160086000BF2846FBF78D
:1046400097FDFFF709FC002070BD2846FBF790FDA1
:104650000020F9E7C80000201CA500200146002921
:1046600002DA4FF0FF3014E04FF47A7291FBF2F26D
:104670004FF47A7302FB03F01A4691FBF2F302FB4C
:1046800013124FF47A735A4302F2E73292FBF3F2B9
:104690001044704701480068704700006400002023
:1046A00010B50A480068401C08490860FFF734FF4D
:1046B0000446A06C401EA064A06C18B9606CA06495
:1046C000FFF79AFF00F004F810BD0000640000201E
:1046D00070B5FFF7DFFF0546FBF746FD064628E00D
:1046E00019480068A0F11C04206B281A6FF00041E3
:1046F00088421DD22046FCF7A2FED4E90910884763
:10470000FFF7C8FF0546607C00F0020058B1607CEE
:1047100000F0010038B1607C20F001006074204698
:1047200000F058F805E0607C20F00100607400E0C3
:1047300004E00548FFF7D5F90028D1D000BF304686
:10474000FBF716FD70BD0000DC000020034649B1F8
:10475000012904D0022908D0032910D10AE0D86A1F
:1047600010600CE01068D86209E0587C20F002006C
:10477000587404E0587C40F00200587400BF00BF39
:104780000020704770B50446FBF7EEFC0546204656
:10479000FCF755FE2846FBF7EBFC2046FFF705FB30
:1047A000002070BD2DE9F84307460C4615461E460D
:1047B000DDE9088922460A213846FFF719FB4346FE
:1047C000324629463846CDF80090FCF717FEBDE882
:1047D000F88300002DE9F8430546FBF7C5FC804649
:1047E0002846FCF72CFE687C20F0010068744046E7
:1047F000FBF7BEFCFFF74EFFE96A08442863FBF7AE
:10480000B3FC80462F4F009700242AE019E05DF8A2
:10481000242011681C2202EBC402881A026B2B6B45
:10482000D21A00D108E0026B2B6BD21A6FF0004352
:104830009A4200D20CE000BF5DF8240000684DF8F9
:1048400024005DF8240007EBC40149688842DED1EA
:1048500000BF2CB15DF824000830611C4DF8210028
:10486000641C002CD2D018480068401C164908600F
:104870000846066805F11C010098FFF71CF90224A0
:1048800012E006F0030060B9C4F1010305F11C0257
:1048900002EBC301C4F101025DF82200FFF70BF93E
:1048A00000E003E0B608641C012CEAD900BF687C74
:1048B00040F0010068744046FBF75AFC0020BDE858
:1048C000F8830000DC000020E400002070B50446FE
:1048D000607C00F0010010B94FF0FF3070BDFBF7B5
:1048E00043FC05462046FCF7AAFD2846FBF740FCA2
:1048F000607C20F0010060740020EFE72DE9FF4F9D
:1049000089B0804644460A9808EB0006464504D222
:104910004FF0FF36A6EB08000A906FE10B98007885
:10492000252806D0B44202D20B9800782070641C6F
:1049300061E1002526E00B98401C0B900B98007855
:104940002D2802D145F010051CE00B9800782B288B
:1049500002D145F0040515E00B980078202802D11B
:1049600045F008050EE00B980078232802D145F0A9
:10497000200507E00B980078302802D145F00105AA
:1049800000E000E0D7E700BF4FF0FF370B9800785A
:1049900030380A2804D20BA800F0E6F907460EE0EA
:1049A0000B9800782A280AD10B98401C0B900C9881
:1049B00080C80C90002F02DA7F4245F010054FF0BE
:1049C000FF390B9800782E281CD10B98401C0B90B7
:1049D0000B98007830380A2804D20BA800F0C4F9EC
:1049E00081460AE00B9800782A2806D10B98401CD3
:1049F0000B900C9850F8049B0C90B9F1000F01DA61
:104A00004FF00009002004900B980078682803D02C
:104A10000B9800786C2805D10B98007804900B98BF
:104A2000401C0B900A2005900B9800786F2875D0D9
:104A30000CDC632813D004DC252870D058286FD1F3
:104A40008DE064286DD06928F9D18FE070286AD094
:104A5000732825D0752878D07828F0D182E005F029
:104A6000100040B904E0B44201D220202070641C40
:104A7000781E071EF7DC0C9810F8041B0C90C8B2C7
:104A80000790B44201D207982070641C04E0B4423D
:104A900001D220202070641C781E071EF7DCAAE0DB
:104AA0000C98006806900C98001D0C90069808B9A8
:104AB0005CA006900698FFF73BFB8346B9F1000F18
:104AC00002DDCB4500DDCB4605F0100048B904E01F
:104AD000B44201D220202070641C38467F1E584505
:104AE000F6DC002008900BE0B44202D20698007871
:104AF0002070641C0698401C06900898401C089082
:104B000008985845F0DB04E0B44201D22020207020
:104B1000641C38467F1E5845F6DC6CE01CE015E04E
:104B200028E022E0FFE7781C10B9082745F00105CE
:104B3000CDE9007902950C9804C8102331460C90F9
:104B40002046FEF7D9FA044655E012E0B44201D2FD
:104B500025202070641C4EE0082005901DE045F0E3
:104B6000400500BF1020059017E000BF45F002058A
:104B700000BF12E0B44201D225202070641C0B98C3
:104B8000007830B1B44202D20B9800782070641CD7
:104B900002E00B98401E0B902DE000BF04986C289B
:104BA00007D10C9850F804AB0C9005F00200B8B196
:104BB00016E0049868280BD10C9830F8041B1FFAF3
:104BC00081FA0C9005F0020050B10FFA8AFA07E062
:104BD0000C9850F804AB0C9005F0020000B100BF37
:104BE000CDE900790295524631462046059BFEF7F5
:104BF00083FA044600BF0B98401C0B900B9800787A
:104C000000287FF48BAE0A9838B1B44202D200205B
:104C1000207002E0002006F8010CA4EB08000DB0A3
:104C2000BDE8F08F284E554C4C29000000207047FD
:104C300000207047002070470020704710B5FBF738
:104C400093FAFEF7E3FCFFF71BFAFFF74FFBFFF7C2
:104C50000FFBFEF7EBFBFFF757FBFFF7FDFBFFF743
:104C60002DFB002010BD000010B510210148FBF7FE
:104C7000B1FD10BD0008014010B54FF4807102482D
:104C8000FBF7A8FD10BD00000010014010B54FF467
:104C900080610248FBF79EFD10BD0000001001403E
:104CA00010B54FF400710248FBF794FD10BD0000F1
:104CB0000010014010B54FF400610248FBF78AFD77
:104CC00010BD0000001001402DE9F04104460E46E1
:104CD0001546064807192A4631463846FEF792F926
:104CE000601984B22046BDE8F08100006AA200206D
:104CF000024B1A181170431C98B270476AA2002028
:104D000070B5044609A0FEF7A7FEFEF701F90128D9
:104D100002D12046FEF70EF8FCF79CFE054622461F
:104D2000294603A0FEF798FE70BD00000A000000AF
:104D3000257325730000000070B5044625680CE05B
:104D4000A5F11C06314606A0FEF786FE2868A042A3
:104D500002D004A0FEF780FE2D68A542F0D170BD00
:104D6000257300002F0000000146002009E00B68B9
:104D70005A1C0A601A7800EB800302EB4302A2F18E
:104D800030000A681278303A0A2AF0D370470000DF
:104D900010B520210148FBF71DFD10BD00080140A2
:104DA00070B50446FFF7F4FFFFF75EFF002503E050
:104DB00000F006F8681CC5B2A542F9DB70BD000022
:104DC00010B500240FE040210848FBF703FD022046
:104DD000FFF7C3FA40210548FBF7FAFC0220FFF772
:104DE000BCFA601CC4B2C82CEDDB10BD0008014049
:104DF00010B503461A4601E0521C491C107828B130
:104E0000087818B110780C78A042F5D0D01A10BDEF
:104E10000B4909680B4A126891420FD008490A6889
:104E200009498A4202D38739054A11600449096851
:104E3000087803490968491C014A1160704700005D
:104E40005C0000205800002064A2002040F2E470C2
:104E50002649088001208870C870002008714871B8
:104E600088710120C871002008723DE04FF47A700B
:104E7000FFF72AFB1D488079401C1C4988710846B1
:104E8000007A012803D0FDF7B3FEFDF7A1F817481B
:104E900080793C2828DB0020144988710846407935
:104EA000401C4871FDF7CAFE104840793C281BDBC6
:104EB00000200E49487108460079401C0871002006
:104EC00008720846007918280EDB00200871084691
:104ED000C079401CC8710846C079082801DB012050
:104EE000C871002001490872C0E7000010A100202D
:104EF00004E03220FFF731FA00F0C4F8F9E70000CF
:104F000012490968124A1268891A01291CD01049ED
:104F100009680E4A1268914206D90D4909680B4A80
:104F20001268891A87290FD209490A6809498A42F1
:104F300002D38739064A1160054909680870044997
:104F40000968491C024A1160704700005C0000209B
:104F50005800002064A2002010B5044621460248F3
:104F6000FCF7C7F810BD00000044004010B51EA0BB
:104F7000FEF772FD2048018820A0FEF76DFD1E4857
:104F8000008800F0010010B122A0FEF765FD1A486C
:104F9000008800F0020010B121A0FEF75DFD164868
:104FA000008800F0040010B120A0FEF755FD124863
:104FB000008800F0080010B11EA0FEF74DFD0E485D
:104FC000008800F4807010B11CA0FEF745FD0A486F
:104FD000008800F4007010B11BA0FEF73DFD05A095
:104FE000FEF73AFD10BD00007573616765206661CC
:104FF000756C743A0A0000002AED00E05343425FEA
:10500000434653525F554653523A30782530325812
:1050100020000000554E444546494E53545220004E
:10502000494E56535441544520000000494E5650B5
:10503000432000004E4F435020000000554E414C8D
:1050400049474E454420000044495642595A45526A
:105050004F20000010B5FFF713F8002010BD00002E
:1050600004480549086005490860002004490870A3
:1050700070470000DDA10020580000205C000020E7
:105080006000002070B50024002509E0FFF7C0FE95
:1050900038490A880988491C364B19803649885492
:1050A00034480088872803D200F09EF80028EDDC01
:1050B00030480088072800DA70BD42E02E48005DC5
:1050C000552802D0601C84B23BE02B49601C085C70
:1050D000AA2802D0601C84B233E02749A01C085CD7
:1050E00010B1A01C84B22CE02349201D085C4FF6AF
:1050F000FF7101EA00252049601D085CC01D28449D
:1051000085B28E2D02D9E01C84B21AE019480088BD
:10511000001BA84200DA19E06A1E91B2164A101963
:10512000FCF71EFF6119491E134A515C884202D0E8
:10513000E01C84B205E02046FCF762FA601984B2F4
:1051400000BF0C480088001B0728B7DA00BF0948D9
:105150000088001B0749088008460088002806DDF3
:1051600005480119034802880348FDF74BFF00BFBB
:10517000A2E700005400002056A1002070B50446AC
:105180000D4604B105B970BD03E02078FFF7E4FED9
:10519000641C281EA5F101018DB2F6D100BFF2E713
:1051A0002DE9F04105460E461446002755200D49CD
:1051B0000870AA20487008468670C57020120871D1
:1051C0004C71E01D84B2601E81B20648FCF7C8FE37
:1051D0000746601E03490F5421460248FFF7CEFFE1
:1051E000BDE8F08164A20020044800680449096811
:1051F000884201D0012070470020FCE758000020C1
:105200005C00002001000201030204040701080100
:10521000100211021202130100000100020001003D
:10522000030001000200010004000100020001006F
:10523000030001000200010005000100020001005E
:10524000030001000200010004000100020001004F
:10525000030001000200010006000100020001003D
:10526000030001000200010004000100020001002F
:10527000030001000200010005000100020001001E
:10528000030001000200010004000100020001000F
:1052900003000100020001000700010002000100FC
:1052A00003000100020001000400010002000100EF
:1052B00003000100020001000500010002000100DE
:1052C00003000100020001000400010002000100CF
:1052D00003000100020001000600010002000100BD
:1052E00003000100020001000400010002000100AF
:1052F000030001000200010005000100020001009E
:10530000030001000200010004000100020001008E
:1053100003000100020001003031323334353637EA
:105320003839616263646566003031323334353652
:10533000373839414243444546006C6973745F6DA8
:10534000656D0068656C6C6F0076657273696F6E71
:10535000005F5F636D645F76657273696F6E006C8A
:105360006973745F746872656164005F5F636D6424
:105370005F6C6973745F746872656164006C6973F3
:10538000745F73656D005F5F636D645F6C697374F8
:105390005F73656D006C6973745F6D61696C626FDA
:1053A00078005F5F636D645F6C6973745F6D6169E2
:1053B0006C626F78006C6973745F74696D657200FC
:1053C0005F5F636D645F6C6973745F74696D657250
:1053D000006C697374005F5F636D645F68656C7017
:1053E000005F5F636D645F7073005F5F636D645F38
:1053F0006672656500000000252D2A2E73207072EC
:10540000692020737461747573202020202020731C
:10541000702020202020737461636B2073697A658B
:10542000206D61782075736564206C6566742074E6
:1054300069636B20206572726F720A00394C000834
:10544000314C00082D4C0008011B0008354C0008A9
:105450003A53000829250008435300088D2100080D
:105460004953000855500008515300085550000892
:105470005F530008D92600086B530008D92600089E
:105480007D530008A125000886530008A1250008C7
:1054900095530008CD230008A2530008CD2300082F
:1054A000B5530008BD280008C0530008BD280008F7
:1054B000D1530008C1220008D65300089D2E0008D1
:1054C000E1530008F1150008EA530008E31500084D
:1054D000F0540008000000201001000084110008B2
:1054E000005600081001002090A900009411000847
:1054F00000A24A04000000000000000001020304B2
:105500000607080900000000010203040102030469
:105510000607080902040608000000000000000059
:10552000000000000000000000000000000000007B
:10553000000000000000000000000000000000006B
:10554000000000000000000000000000000000005B
:10555000000000000000000000000000000000004B
:10556000000000000000000000000000000000003B
:1055700000000000010000008800002088000020DA
:105580008800000002000000980000209800002021
:105590002800000005000000A8000020A80000204E
:1055A000380000000A000000B8000020B800002009
:1055B00034000000000000000000000000000000B7
:1055C00000000000000000000000000000000000DB
:1055D00000000000000000000000000000000000CB
:1055E00000000000000000000000000000000000BB
:1055F00000000000000000000000000000000000AB
:0400000508000131BD
:00000001FF
