:020000040800F2
:10000000A0AA0020450100084D0100080F020008C9
:1000100051010008530100085501000800000000CC
:100020000000000000000000000000005701000870
:10003000590100080000000097010008910D000818
:100040005F0100085F0100085F0100085F01000810
:100050005F0100085F0100088D0400085F010008CF
:100060005F0100085F0100085F0100085F010008F0
:100070005F0100085F0100085F0100085F010008E0
:100080005F0100085F0100085F0100085F010008D0
:100090005F0100085F0100085F0100085F010008C0
:1000A0005F0100085F0100085F0100085F010008B0
:1000B0005F0100085F0100085F0100085F010008A0
:1000C0005F0100085F0100085F0100085F01000890
:1000D0005F0100085F010008010E00085F010008D1
:1000E000B50400085F0100085F0100085F01000817
:1000F0005F0100085F0100085F0100085F01000860
:100100005F0100085F0100085F0100085F0100084F
:100110005F0100085F0100085F0100085F0100083F
:100120005F0100085F0100085F0100085F0100082F
:10013000DFF80CD000F092F9004800478104000875
:10014000A0AA00200648804706480047FEE7FEE7D1
:10015000FEE7FEE7FEE7FEE7FEE7FEE7FEE7FEE777
:10016000A10D000831010008EFF3108072B670474E
:1001700080F310887047334A1368012B04D04FF086
:1001800001031360304A1060304A116030484FF06C
:10019000805101607047EFF3108272B62948016800
:1001A00091B14FF0000101602748016829B1EFF3D8
:1001B000098121E9F00F0068016024490968096894
:1001C000B1E8F00F81F3098882F310884EF0040E35
:1001D00070471E4908601C494FF00000086019492B
:1001E0004FF0010008601B484FF47F01D0F8002059
:1001F00041EA0201016016484FF080510160164843
:100200000068006880F3088861B662B670471EF027
:10021000040F0CBFEFF30880EFF3098020E9F00F23
:1002200040F804ED1EF0040F0CBF80F3088880F343
:10023000098800B503F03CFA5DF804EB4EF0040EBB
:1002400070470000F0000020E8000020EC000020D3
:1002500004ED00E020ED00E008ED00E040EA0103DD
:100260009B0703D009E008C9121F08C0042AFAD26C
:1002700003E011F8013B00F8013B521EF9D2704730
:10028000D2B201E000F8012B491EFBD270470022D8
:10029000F6E710B513460A4604461946FFF7F0FF85
:1002A000204610BD421E12F8013F002BFBD111F871
:1002B000013B02F8013B002BF9D1704710B5044611
:1002C00004E00B7800F8013B03B1491C521EF8D240
:1002D000204610BD421C10F8011B0029FBD1801ADA
:1002E0007047034611F8012B00F8012B002AF9D1C1
:1002F0001846704730B505460020034600E05B1CF9
:10030000934205D2EC5CC85C201A01D1002CF6D1D6
:1003100030BD30B480EA010202F0004530F0004206
:1003200021F0004013D090B1C30DD40DC2F31601DB
:10033000C0F31600E41A41F4000140F400027D34D9
:10034000914201D3641C00E04900002C02DA30BC69
:10035000002070474FF400000023914201D3891A16
:10036000034340084FEA4101F7D151B1914202D114
:100370004FF0004105E002D24FF0010101E06FF0C3
:10038000010103EBC450284430BC00F02FB8962381
:100390000022114600F033B820F00040C10DC0F338
:1003A000160040F400007F2901DA002070479629EA
:1003B00003DCC1F19601C840704796398840704708
:1003C00030B50B46014600202022012409E021FA25
:1003D00002F59D4205D303FA02F5491B04FA02F522
:1003E0002844151EA2F10102F1DC30BD0029A8BF8E
:1003F0007047401C490008BF20F00100704710B44E
:10040000B0FA80FC00FA0CF050EA010404BF10BC02
:10041000704749B1CCF1200421FA04F411FA0CF12F
:1004200018BF012121430843A3EB0C01CB1D4FEA68
:1004300000614FEA102042BF002010BC704700EB63
:10044000C35010440029A4BF10BC7047401C490091
:1004500008BF20F0010010BC70470000064C074D9B
:1004600006E0E06840F0010394E807009847103484
:10047000AC42F6D3FFF760FE5054000870540008F9
:1004800010B504F099FB002010BD000010B501204C
:1004900000F020F838B103F035FA0548006803F0A1
:1004A00055FD03F03FFA012000F00EF810BD0000EA
:1004B0002800002010B54FF4005000F00BF84FF466
:1004C000005000F001F810BD0149086070470000BD
:1004D00014040140014600200022074B1B6803EA78
:1004E0000102054B14331B680B4013B10AB1012004
:1004F00000E0002070470000000401400021234973
:100500008279002A3AD00A46126803689A430B4659
:100510001A600A1D126803689A430B1D1A6002795B
:1005200011440A6803681A430A60184A08321268BC
:1005300003689A43154B08331A601A1D1268036842
:100540009A43124B0C331A604279102A0ED11A1FAB
:10055000126803681A430D4B08331A601A1D12689B
:1005600003681A43094B0C331A600DE007494279BE
:1005700011440A6803681A430A6005E002791144CD
:100580000A6803689A430A6070470000000401404B
:100590000EB500F04BF80121042000F001FA012112
:1005A000102000F0FDF90120ADF8080004208DF8BE
:1005B0000B0002A91B4800F077F84FF40050ADF88B
:1005C000080004208DF80B0002A9174800F06CF811
:1005D0000121084600F0E4F90021084600F044F843
:1005E0000D21022000F040F80120009000208DF83D
:1005F000040008208DF8050001208DF806006846EB
:10060000FFF77CFF4FF40050009000208DF80400AD
:100610000C208DF8050001208DF806006846FFF7D4
:100620006DFF0EBD000801400010014008B54FF4F9
:10063000C06000F09BF906208DF8000001208DF8C5
:1006400001008DF802008DF80300684600F056F9AD
:1006500028208DF8000001208DF801008DF802009F
:10066000684600F04BF908BD30B500228B071C0F1F
:100670000F2303FA04F20B4B8C1053F824309343EE
:10068000084C8D1044F8253023468C1053F8243044
:100690008C07240F00FA04F42343024C8D1044F815
:1006A000253030BD080001402DE9F041024600250B
:1006B0000026002000230024002791F803C00CF03E
:1006C0000F0591F803C00CF0100CBCF1000F03D023
:1006D00091F802C04CEA050591F800C0BCF1000F8A
:1006E00031D0146800202BE04FF0010C0CFA00F31D
:1006F000B1F800C00CEA03069E4220D183004FF0FF
:100700000F0C0CFA03F7BC4305FA03FC4CEA040493
:1007100091F803C0BCF1280F06D14FF0010C0CFA80
:1007200000FCC2F814C00AE091F803C0BCF1480F05
:1007300005D14FF0010C0CFA00FCC2F810C0401CAF
:100740000828D1D31460B1F800C0BCF1FF0F34DD2C
:10075000546800202EE000F1080C4FF0010808FA60
:100760000CF3B1F800C00CEA03069E4221D18300CD
:100770004FF00F0C0CFA03F7BC4305FA03FC4CEAEC
:10078000040491F803C0BCF1280F05D100F1080C56
:1007900008FA0CF8C2F8148091F803C0BCF1480FB5
:1007A00007D100F1080C4FF0010808FA0CF8C2F864
:1007B0001080401C0828CED35460BDE8F08102466A
:1007C000002093680B400BB1012000E0002070472F
:1007D000416170470161704708B50121082000F0B0
:1007E000DFF84FF48070ADF8000004208DF80300AE
:1007F00003208DF8020069460648FFF755FF1020D8
:100800008DF803004001ADF8000069460148FFF78C
:100810004BFF08BD0010014008B50121082000F081
:10082000BFF84FF48060ADF8000004208DF803009D
:1008300003208DF8020069460648FFF735FF1020B7
:100840008DF80300C001ADF8000069460148FFF7CC
:100850002BFF08BD0010014008B50121082000F061
:100860009FF82020ADF8000010208DF80300032031
:100870008DF8020069460F48FFF716FF0120ADF81A
:10088000000069460B48FFF70FFF0220ADF800009B
:1008900069460848FFF708FF20210648FFF79AFF3E
:1008A00001210448FFF796FF02210248FFF792FF5B
:1008B00008BD0000000C014008B54FF4A06000F036
:1008C00055F825208DF8000001208DF801008DF8E5
:1008D00002008DF80300684600F010F826208DF81D
:1008E000000001208DF8010002208DF80200012097
:1008F0008DF80300684600F001F808BD70B50021CE
:1009000000230F22C47804B3154C246804F4E06477
:10091000C4F5E064210AC1F10403CA40447804FA32
:1009200003F184781440214309010E4C0678A15547
:10093000047804F01F050124AC4005786D11AD006A
:1009400005F1E025C5F8004109E0047804F01F0531
:100950000124AC40044D0678761145F8264070BD60
:100960000CED00E000E400E080E100E0024901431A
:10097000024A1160704700000000FA050CED00E02B
:1009800029B1064AD2690243044BDA6104E0034A02
:10099000D2698243014BDA617047000000100240C7
:1009A00029B1064A92690243044B9A6104E0034A62
:1009B00092698243014B9A61704700000010024027
:1009C00030B500210022002400232D4D6D6805F074
:1009D0000C0121B1042905D0082923D105E0294DB6
:1009E000056022E0274D05601FE0254D6D6805F488
:1009F0007012234D6D6805F48034022505EB924298
:100A00001CB9214D554305600BE01D4D6D6805F483
:100A100000351DB11C4D5543056002E0194D55438D
:100A2000056002E0174D056000BF00BF144D6D6802
:100A300005F0F0010909154D6B5C0568DD40456066
:100A40000F4D6D6805F4E061090A104D6B5C456857
:100A5000DD4085600A4D6D6805F46051C90A0B4D93
:100A60006B5C4568DD40C560054D6D6805F440412F
:100A7000890B074D6B5CC568B5FBF3F5056130BDAF
:100A80000010024000127A0000093D00140000200E
:100A9000240000201CB50122002140A003F02EFA02
:100AA0004249086014200221CB010022CDE9001048
:100AB0003F4940A003F0E7FB414908600846006851
:100AC00018B10846006803F00DFD142006214FF40C
:100AD00080730022CDE900103A493BA003F0D3FB1C
:100AE0003D4908600846006818B10846006803F0F0
:100AF000F9FC142006214FF480730022CDE9001088
:100B0000364937A003F0BFFB394908600846006842
:100B100018B10846006803F0E5FC142006214FF4E4
:100B200080730022CDE90010324933A003F0ABFB03
:100B3000344908600846006818B10846006803F0A8
:100B4000D1FC142005214FF480630022CDE9001070
:100B50002D492EA003F097FB314908600846006834
:100B600018B10846006803F0BDFC142004218B0175
:100B70000022CDE900102B492BA003F084FB2D4966
:100B800008600846006820B10846006803F0AAFC27
:100B900002E029A002F01EFF1CBD00007175696310
:100BA0006B5F666565645F6E0000000038000020C2
:100BB000CD4D000874696D655F73797300000000A6
:100BC00050000020E11F00086772616E6172795F5A
:100BD00077656967687400003C000020711900089F
:100BE0006578706F72745F7765696768740000007C
:100BF00040000020DD2100086B6579315F7363617F
:100C00006E00000044000020714E0008776966699C
:100C10005F756172745F7365727669636500000069
:100C2000480000203D330008717569636B5F66659D
:100C3000656400004C000020746872656164207374
:100C4000746172747570206661696C65642121211C
:100C50000000000008B501210420FFF7A1FE1020CC
:100C6000ADF800008DF8030003208DF802006946FE
:100C70000C48FFF719FD4020ADF80000694609480F
:100C8000FFF712FD2020ADF8000069460548FFF788
:100C90000BFD20210348FFF79DFD10210148FFF7C0
:100CA00099FD08BD0008014010B500F001F810BD25
:100CB0000CB50020019000903348006840F480306B
:100CC0003149086000BF3048006800F400300090EF
:100CD0000198401C0190009818B90198B0F5A06FD8
:100CE000F1D12948006800F4003010B101200090D3
:100CF00001E0002000900098012843D123480068BB
:100D000040F01000214908600846006820F0030008
:100D100008600846006840F0020008601A48406811
:100D2000194948600846406848600846406840F4F1
:100D3000806048600846406820F47C10486008469F
:100D4000406840F4E81048600846006840F0807051
:100D5000086000BF0C48006800F000700028F9D05F
:100D60000948406820F00300074948600846406889
:100D700040F00200486000BF0348406800F00C00EB
:100D80000828F9D10CBD00000010024000200240EC
:100D900010B502F0B7FD03F041FC02F0C3FD10BD39
:100DA00010B51348006840F001001149086008467A
:100DB0004068104908400E494860084600680E49DE
:100DC00008400B4908600846006820F4802008604D
:100DD0000846406820F4FE0048604FF41F00886019
:100DE000FFF762FF4FF000600449086010BD00008B
:100DF000001002400000FFF8FFFFF6FE08ED00E0E3
:100E000010B540F22551064800F0AFF830B1044863
:100E100000F066F9C4B2204604F032F810BD0000BC
:100E20000044004001F40072B2F5007F00D100BF21
:100E3000CA430280704721B1828942F40052828104
:100E400004E082894DF6FF731A40828170470000EA
:100E500000B585B001210420FFF7A2FD0121880320
:100E6000FFF79EFD01210420FFF79AFD01214804B0
:100E7000FFF786FD4FF40070ADF8100018208DF8D4
:100E8000130003208DF8120004A92E48FFF70CFC74
:100E90004FF48060ADF8100004208DF8130004A911
:100EA0002848FFF701FC0420ADF8100018208DF849
:100EB000130003208DF8120004A92248FFF7F4FB69
:100EC0000820ADF8100004208DF8130004A91D4877
:100ED000FFF7EAFB4FF4E13000900020ADF804008A
:100EE000ADF80600ADF80800ADF80C000C20ADF828
:100EF0000A006946144800F087F801211248FFF7FC
:100F00009AFF4FF4165000900020ADF80400ADF8A1
:100F10000600ADF80800ADF80C000C20ADF80A0092
:100F200069460A4800F070F8FFF7C6FC012240F25B
:100F30002551064800F043F801210448FFF77BFFE4
:100F400005B000BD000801400038014000440040E9
:100F500002460020B1F5007F00D100BF13880B408E
:100F60000BB1012000E00020704770B5024600245C
:100F700000230025002040F66A16B14200D100BFD0
:100F8000C1F3421501F01F03012606FA03F3012DF8
:100F900002D19689334006E0022D02D1168A3340F1
:100FA00001E0968A33400C12012606FA04F41688F2
:100FB000344013B10CB1012000E0002070BDF0B549
:100FC0000346002400260025002040F66A17B94297
:100FD00000D100BF1846C1F3421401F01F060127DB
:100FE00007FA06F5012C01D10C3004E0022C01D1E6
:100FF000103000E014301AB107682F43076002E098
:101000000768AF430760F0BD2DE9F04786B005469D
:101010000E460024A24600BFA1460027B08900B1B9
:1010200000BF2F462C8A4CF6FF700440F088044322
:101030002C82AC894EF6F3100440B0883189084305
:10104000718908430443AC81AC8A4FF6FF400440E9
:10105000B0890443AC8201A8FFF7B2FC1F48874265
:1010600002D1DDF810A001E0DDF80CA0A88900F4A1
:10107000004040B10AEBCA0000EB0A103168490099
:10108000B0FBF1F807E00AEBCA0000EB0A10316888
:101090008900B0FBF1F86420B8FBF0F004012009EE
:1010A000642101FB1089A88900F4004040B132207E
:1010B00000EBC900B0FBF1F000F00700044308E0CA
:1010C000322000EB09106421B0FBF1F000F00F00BA
:1010D00004432C8106B0BDE8F087000000380140D1
:1010E00001468888C0F308007047C1F30802828077
:1010F000704770B504460D4629462046FFF7F5FFB8
:1011000000BF80212046FFF723FF0028F9D070BDE3
:101110000FB4084B10B504A902AA039800F082F896
:10112000044602A9002000F0A1F9204610BC5DF899
:1011300014FB00006D140008014609B90020704737
:10114000C8B220B1C8B20E4A105C401CF7E701F4E7
:101150007F4028B10A48C1F30722805C0930EEE7DE
:1011600001F47F0028B10648C1F30742805C1130CA
:10117000E5E7034800EB116000781930DFE7000075
:101180009851000802E008C8121F08C1002AFAD1CD
:1011900070477047002001E001C1121F002AFBD1F7
:1011A0007047000003490868884201D00120704759
:1011B0000020FCE7D40000202DE9F04389B006466A
:1011C00088469146002400E0641C305D202804D04D
:1011D000305D092801D04445F6D324B94FF0FF30E3
:1011E00009B0BDE8F0832146304601F0E7FD054631
:1011F00015B94FF0FF30F3E7202101A8FFF747F8BA
:1012000001AA4146304601F043FE074617B94FF0A8
:10121000FF30E5E701A93846A847C9F800000020DB
:10122000DEE700002DE9FF4F89B09B46044600250C
:1012300006E025280BD05A460B999047641C6D1C7C
:1012400020780028F5D10DB02846BDE8F08F0027A2
:10125000B8460122474900E0074314F8013F203B0C
:1012600002FA03F00842F7D120782E2819D114F899
:10127000010F47F004072A280ED06FF02F022078C4
:10128000A0F1300109290CD808EB880102EB4101DB
:1012900000EB0108641CF2E70A98641C50F8048B08
:1012A0000A9020780028CED0642808D0692806D07B
:1012B00075281ED05A460B9990476D1C58E00A9924
:1012C0004FF00A0901C90A91002802DA40422D2193
:1012D00002E0390504D52B218DF82010012103E00F
:1012E000F90704D02021F7E78A4608AE0DE0002177
:1012F000FAE70A994FF00A0901C90A91F7E7494646
:10130000FFF75EF8303106F8011D0028F7D1ADEB8C
:10131000060000F12009780701D44FF00108C84504
:1013200002DDA8EB090000E000208046002706E06F
:1013300008A85A46C05D0B9990476D1C7F1C574505
:10134000F6DB04E030205A460B9990476D1CB8F14B
:101350000001A8F10108F5DC05E016F8010B5A467A
:101360000B9990476D1CB9F10001A9F10109F4DC5A
:10137000641C65E7092801002DE9FC5F04468B46E3
:1013800015461E46DDE90C9ADDE90E7804F11C00D5
:101390004060006000BF24346560A660C4F80C9013
:1013A000C4F810A02321D4E9030202F05CFCD4E9C4
:1013B000033C63441A1F0F4BD4E9010102F07CFA8D
:1013C0002060A77667760020E061C4F82080C4F82A
:1013D000248060612076E0652066243C00902346EE
:1013E000054A2146019004F14C0003F099F90020D0
:1013F000BDE8FC9FE5420008554500082DE9F0478F
:1014000004460E4617469846DDF8209084F8119061
:10141000607C20F0010060746662A7620020206397
:10142000C4F82C80002506E004F11C0101EBC50086
:1014300002F0EEFA6D1C012DF6DBBDE8F08710B569
:101440000246002001460EE002F11C0303EBC1003E
:10145000D0E900436360D0E900342360406000605D
:1014600000BF481C01460129EEDB10BD0A68531C71
:101470000B601070704710B500221146012001F07A
:10148000DFFA0021022001F07DFA0021032001F0A3
:1014900011FB0021042001F0A7FA0021072001F030
:1014A00071FA0021082001F06DFA0021102001F0EE
:1014B00001FB0021112001F0FDFA0021122001F0B2
:1014C000F9FA0021132001F05DFA10BD10B520A03B
:1014D00002F080FA2148017821A002F07BFA1F482F
:1014E000007800F0010010B123A002F073FA1B484D
:1014F000007800F0020010B122A002F06BFA174849
:10150000007800F0040010B121A002F063FA134843
:10151000007800F0080010B121A002F05BFA0F483B
:10152000007800F0100010B120A002F053FA0B4830
:10153000007800F0800030B108480F3001681DA02D
:1015400002F048FA02E01FA002F044FA10BD0000C9
:10155000627573206661756C743A0A0029ED00E0CB
:101560005343425F434653525F424653523A3078A8
:101570002530325820000000494255534552522030
:10158000000000005052454349534552522000008C
:10159000494D5052454349534552522000000000E6
:1015A000554E53544B4552522000000053544B4566
:1015B000525220005343422D3E424641523A25307A
:1015C00038580A000A00000001460020087800028E
:1015D0004A78104300028A7810430002CA78104308
:1015E000704770B504460D4600F046FF002070BD00
:1015F00070B504460D4601F017F8002070BD0000DC
:101600002DE9F04704462A49E01C11F80080B8F1A2
:10161000060F1AD009DCB8F1000F0DD0B8F1010F98
:101620000DD0B8F1020F3FD10CE0B8F1080F32D065
:10163000B8F11C0F38D131E000F034FD35E001F095
:10164000E5FD32E000F05CFC2FE01949601D095C0B
:10165000174A201D105C41EA0027002518E0A01D54
:101660002844801C1249085C4FF6FF7101EA0026ED
:10167000A01D2844C01C0E49085C304486B2214499
:10168000891D481900F016F88146301D284485B29E
:10169000BD42E4DB09E0FFF7EEFE06E00449214429
:1016A000881D01F055FA00E000BF00BFBDE8F087DB
:1016B00056A100202DE9F0470446267894F80180D1
:1016C000A0784FF6FF7101EA0025E078284485B242
:1016D000304600F0FDFB0746084800EB4700407825
:1016E000404502D00020BDE8F0872A46211D304643
:1016F00000F022F881464846F5E7000084510008D2
:101700002DE9F04106460F463946304601F00EFA03
:1017100005461DB100F0F2FC064908802946072065
:1017200001F030F90446012C01D1BDE8F081002020
:10173000FBE70000340000202DE9F04105460E468D
:101740001746072D20D006DC012D0BD0022D0FD01F
:10175000032D31D112E0082D1CD0122D20D0132DD5
:101760002AD123E03946304600F064F8044624E0EC
:101770003946304600F0B4F804461EE0394630469B
:1017800000F040F8044618E039463046FFF7B8FF4D
:10179000044612E03946304600F0CEF804460CE02C
:1017A0003946304600F0B4F8044606E03946304683
:1017B00000F008F8044600E000BF00BF2046BDE886
:1017C000F08100002DE9F04106460F4639463046CB
:1017D00001F0ACF905461DB920200949086003E075
:1017E00020200749091D08602946132001F0CAF886
:1017F0000446012C01D1BDE8F0810020FBE7000088
:10180000100C01402DE9F04105460E4631462846B0
:1018100001F08FF90446E0B200F0C0F82146032041
:1018200001F048F90746012F01D1BDE8F081002001
:10183000FBE700002DE9F04104460F46002600209A
:1018400025490870002531E0681C00EB8000401E2F
:10185000205C48B320480078401C1F49087005EB05
:101860008500205C06EB46011C4A22F8110005EBBE
:101870008500401C205C06EB460102EB41018870AC
:1018800005EB8500801C205C06EB460102EB410164
:10189000C87005EB8500C01C205C06EB460102EB1E
:1018A00041010871701CC6B2681CC5B2052097FBC7
:1018B000F0F0A842C8DC00F035FB3A462146012092
:1018C00001F0BEF88046B8F1010F02D10120BDE859
:1018D000F0810020FBE70000360000201AA1002064
:1018E0002DE9F04106460F463946304601F01EF913
:1018F000054615B1012000F051F82946022001F0FB
:1019000041F80446012C01D1BDE8F0810020FBE73D
:101910002DE9F04104460D462946204601F009F91B
:1019200007463946122001F0C5F80646012E01D1BE
:10193000BDE8F0810020FBE72DE9F04106460F46A7
:101940003946304601F0F2F805461DB100F00EFCB4
:10195000064908802946082001F014F80446012CA5
:1019600001D1BDE8F0810020FBE70000320000203B
:1019700000250FE0322002F0AEFC00F0BFFB06496C
:101980000988441A601B322804D9254629461120AB
:1019900001F090F8EEE700003400002010B5044696
:1019A000204603F0BBF910BD10B51448006890F84C
:1019B0002900C0F3400020B90020114908700846F2
:1019C00010BD1048006838B180220E4801680C48EC
:1019D000FEF774FC0A48F3E701F058FA20B10AA1B7
:1019E0000748FEF77EFC03E009A10548FEF779FCF5
:1019F00009A10348FEF756FC0148E1E70801002071
:101A00001CA600200C0100206D736820000000005F
:101A100066696E73682000003E00000010B501F09A
:101A200001FE10BD0549096891F8291060F34101D4
:101A3000024A126882F8291070470000080100204D
:101A4000024A1060024A116070470000F80000204E
:101A5000FC0000207CB5002516491748FFF7F0FF71
:101A60008021012001F0B8FC144908600846006894
:101A700020B913A001F0AEFF681E7CBD0A20022130
:101A80004B020022CDE90010134914A002F0FBFB29
:101A9000044600231A4613A10848006802F043FADE
:101AA0000120FFF7BFFF1CB115B9204602F01AFD57
:101AB0000020E2E750540008D0530008080100203D
:101AC0006E6F206D656D6F727920666F722073681E
:101AD000656C6C0A00000000ED1A000874736865FC
:101AE0006C6C00007368727800000000E9480068C0
:101AF00090F8290020F00100401CE649096881F8AF
:101B00002900FFF751FF054601F064FFC1E1FFF72F
:101B100085FF0446002C00DABBE11B2C05D1012017
:101B2000DC49096881F82800B3E1DA48006890F8D8
:101B3000280001280DD15B2C05D10220D549096868
:101B400081F82800A5E10020D249096881F8280021
:101B500045E0D048006890F8280002283FD10020D6
:101B6000CC49096881F82800412C00D191E1422C30
:101B700000D18EE1442C11D1C6480068B0F87C0039
:101B800058B1C5A001F026FFC2480068B0F87C003B
:101B9000401EC0490968A1F87C007AE1432C1ED19F
:101BA000BC480068B0F87C00BA490968B1F87A10FE
:101BB000884213DAB7480068B0F87C20B54800685E
:101BC0002A30815CB5A001F005FFB2480068B0F88A
:101BD0007C00401CAF490968A1F87C0059E10CB1B8
:101BE000FF2C00D155E1092C1FD1002503E0AAA04C
:101BF00001F0F0FE6D1CA7480068B0F87C00A84218
:101C0000F5DCA44800682A3003F038F8A1480068E1
:101C10002A30FEF75FFB80B29E490968A1F87A007E
:101C20009C490968A1F87C0033E17F2C01D0082C85
:101C30006ED198480068B0F87C0000B929E1954859
:101C40000068B0F87A00401E92490968A1F87A004D
:101C500090480068B0F87C00401E8E490968A1F8E1
:101C60007C008C480068B0F87A008A490968B1F8AD
:101C70007C1088423FDD874B1B68B3F87A30854E75
:101C80003668B6F87C609A1B824B1B68B3F87C30D0
:101C90005B1C804E36682A3699197E4B1B68B3F858
:101CA0007C607C4B1B682A33F01801F0BBFF0022DC
:101CB00078480068B0F87A10764800682A304254B4
:101CC00074480068B0F87C20724800682A30111807
:101CD00073A001F07FFE6F480068B0F87C5003E00D
:101CE0006DA001F077FE6D1C6A480068B0F87A00BC
:101CF000A842F5DA0BE06CA001F06CFE002165480B
:101D00000068B0F87A20634800682A308154C0E047
:101D10000D2C01D00A2C2BD101F0B8F8012812D1DA
:101D20005C48006890F8290000F0010010B15FA045
:101D300001F050FE57480068B0F87A105548006826
:101D40002A3001F005F8FFF72FFE054601F042FEAC
:101D50005021504800682A30FEF799FA00204D497A
:101D60000968A1F87A004B490968A1F87C0090E065
:101D700048480068B0F87A00502804DB0020454944
:101D80000968A1F87A0043480068B0F87C0041492E
:101D90000968B1F87A10884245DA3E4B1B68B3F8FF
:101DA0007A303C4E3668B6F87C609A1B394B1B681B
:101DB000B3F87C60374B1B682A33F118354B1B682E
:101DC000B3F87C305B1C334E36682A36981901F024
:101DD00029FF30480068B0F87C202E4800682A307F
:101DE00084542C48006890F8290000F0010050B19C
:101DF00028480068B0F87C20264800682A3011186E
:101E00002BA001F0E7FD23480068B0F87C5003E008
:101E100021A001F0DFFD6D1C1E480068B0F87A00BB
:101E2000A842F5DC12E01B480068B0F87A20194897
:101E300000682A3084541748006890F8290000F0A0
:101E4000010018B1214615A001F0C4FD002411487D
:101E50000068B0F87A00401C0E490968A1F87A00C1
:101E60000C480068B0F87C00401C0A490968A1F8D9
:101E70007C0008480068B0F87A00502808DB002091
:101E800004490968A1F87A0002490968A1F87C00B0
:101E900000BF3CE6080100200800000025630000A8
:101EA0000825732020080000082008000A00000010
:101EB0002573000030B502460020002305E012F82B
:101EC000015B2C18E0B25C1CA3B28B42F7DB30BD87
:101ED00070B5054600F012F80646002407E00648F3
:101EE00010F81400A84200D103E0601CC4B2B44250
:101EF000F5DB00BF204670BD845100080A20704702
:101F000010B500240821204602F0B0FEC4B2002122
:101F1000204602F0ABFEC4B222460321022003F0A9
:101F2000FFF810BD70B54FF4B46301222848C079A2
:101F3000C0F1070002FA00F0C2B28020254C2080D8
:101F400000203FE000EB4004234D35F814401440DE
:101F5000B4B300EB400405EB4404A4781C4D2D7988
:101F6000AC422DDB00EB40041B4D05EB4404E47850
:101F7000174D6D79AC4223DD00EB4004164D05EBA7
:101F80004404E478124D6D79641B00EB4005124E59
:101F900006EB4505AD780E4E3679AD1BC5EB051544
:101FA00004EB8504A1B299420ADA0B4600EB400427
:101FB000094D05EB4404074D26682E60A488AC80CB
:101FC000441CE0B2054C2478A042BBDB70BD00008D
:101FD00010A100202C0000201AA1002036000020B3
:101FE0001DE0322002F077F900F0C0F80C490988B2
:101FF000441A601B1E2812D9254640F6B830854287
:1020000005D364263146102000F054FD07E01E2061
:10201000B5FBF0F0C6B23146102000F04BFDE0E712
:102020003200002010B51448006800F0020010B122
:1020300012A001F0CFFC1048006800F0804088B189
:102040000D48C01E007808B1FFF740FA0A48001F8B
:10205000007808B100F0B8FD0748801E008808B17C
:1020600002F044FF0448006800F0004010B109A0ED
:1020700001F0B0FC10BD00002CED00E06661696C61
:10208000656420766563746F722066657463680AA0
:10209000000000006465627567206576656E740AED
:1020A0000000000010B500240B48007840B9002162
:1020B000204602F0DBFDC4B201200749087004E0AD
:1020C0000121204602F0D2FDC4B2224603210020A5
:1020D00003F026F810BD00006100002010B502A03A
:1020E00001F078FC002010BD48656C6C6F205254E4
:1020F0002D546872656164210A0000002DE9F041E9
:1021000002F078FD052002F0E6F801F039F900242C
:1021100000BF01F021F90028FBD100250AE002F000
:102120007DFD640001F02CF901F016F900B1641C8A
:10213000681CC5B2182DF2DB02F070FD84F40004B7
:10214000052002F0C8F801F01BF92046FEF71FF940
:1021500080460549FEF7DDF80746FEF71DF986B211
:102160003046BDE8F08100000000D7432DE9F04182
:1021700002F04AFD052002F0AEF801F00BF9002450
:1021800000BF01F0F3F80028FBD100250AE002F0BF
:102190004FFD640001F0FEF801F0E8F800B1641CA6
:1021A000681CC5B2182DF2DB02F042FD84F4000475
:1021B000052002F090F801F0EDF82046FEF7E7F870
:1021C00080460549FEF7A5F80746FEF7E5F886B212
:1021D0003046BDE8F08100000000D74313E0322014
:1021E00002F079F801210848FEF7E9FA01280AD13E
:1021F00000BF01210448FEF7E2FA0128F9D00348A4
:10220000006801F0A3FEEAE7000801403800002062
:1022100010B50CA001F0DEFB0F4804680CE00222B0
:102220000EA12068FEF766F800B904E00CA0216852
:1022300001F0D0FB00BF08340A4800688442EED3A6
:10224000002010BD2D2D46756E6374696F6E204C95
:102250006973743A0A000000F80000205F5F000014
:1022600025730A00FC0000202DE9F04704460D46C6
:1022700016461F46284601F065FD814609F104080F
:10228000C4F8008025726660E76000202061BDE828
:10229000F0872DE9F84F07460C464FF0000A002062
:1022A0002061E06808B1207A10B90020BDE8F88FFD
:1022B000D4F800801FB945464FF0010A00E03D46C2
:1022C000FDF752FF0090BAF1000F0ED1A5F1140BEB
:1022D0009BF8100020F08000217A884204D00098FA
:1022E000FDF746FF0020E1E700BF0026D4F8049088
:1022F0000BE02D68454501D1002507E0761C49F823
:10230000045BE068B04200D100E0F2E700BF009853
:10231000FDF72EFF26612846C8E700002DE9F04FA3
:1023200091B000270FF2D409082304AA05210CA8B4
:10233000FFF79AFF4FF010084A46414631A001F0DE
:1023400049FB404600F04CFE37A001F043FB00BFC4
:102350000CA93846FFF79DFF0746002545E004A875
:1023600050F82500A0F11406FDF7FEFE8346307CF0
:1023700020F080009DF83810884203D05846FDF7C1
:10238000F7FE31E05846FDF7F3FE344604F11C0039
:1023900001F06DFBB8B904F11C0001F070FB82463E
:1023A000208D618D23461022CDE9010A009141461E
:1023B00024A001F00FFB04F11C0002F07BFC27A01D
:1023C00001F008FB0FE004F11C0001F058FB82460D
:1023D000208D618D23461022CDE9010A00914146EE
:1023E0001FA001F0F7FA00BF6D1C1098A842B6DCE0
:1023F000002FADD1002011B0BDE8F08F6D61696C88
:10240000626F7800252D2A2E7320656E74727920F4
:1024100073697A652073757370656E642074687271
:102420006561640A00000000202D2D2D2D20202D37
:102430002D2D2D202D2D2D2D2D2D2D2D2D2D2D2DD9
:102440002D2D0A00252D2A2E2A73202530346420B4
:1024500020253034642025643A0000000A00000082
:10246000252D2A2E2A73202530346420202530344F
:10247000642025640A00000010B50848016808A01F
:1024800001F0A8FA0B4801680BA001F0A3FA0F486D
:1024900001680FA001F09EFA10BD00007800002036
:1024A000746F74616C206D656D6F72793A2025646C
:1024B0000A0000007C00002075736564206D656D66
:1024C0006F7279203A2025640A0000008000002005
:1024D0006D6178696D756D20616C6C6F6361746599
:1024E00064206D656D6F72793A2025640A000000E2
:1024F0002DE9F04F8FB000270FF2CC09082302AA74
:1025000002210AA8FFF7B0FE4FF010084A464146E4
:1025100030A001F05FFA404600F062FD34A001F007
:1025200059FA00BF0AA93846FFF7B3FE074600254F
:1025300041E002A850F82500A0F11406FDF714FEB2
:102540008346307C20F080009DF83010884203D014
:102550005846FDF70DFE2DE05846FDF709FE3446BE
:1025600004F11C0001F083FAA8B904F11C0001F089
:1025700086FA8246A08C234610224146CDE9000A05
:1025800021A001F027FA04F11C0002F093FB17A030
:1025900001F020FA0DE004F11C0001F070FA82460F
:1025A000A08C234610224146CDE9000A1AA001F072
:1025B00011FA00BF6D1C0E98A842BADC002FB1D1F1
:1025C00000200FB0BDE8F08F73656D6170686F72A9
:1025D00065000000252D2A2E73207620202073759B
:1025E0007370656E64207468726561640A0000002F
:1025F000202D2D2D202D2D2D2D2D2D2D2D2D2D2D25
:102600002D2D2D0A00000000252D2A2E2A732025AD
:102610003033642025643A00252D2A2E2A73202584
:102620003033642025640A002DE9F04FB3B04FF039
:1026300000090FF21C1B082325AA01212DA8FFF772
:1026400013FE4FF0100A5A465146434801F0C2F9B2
:10265000504600F0C5FC41A001F0BCF900BF2DA917
:102660004846FFF716FE81464FF0000865E025A8B2
:1026700050F82800A0F11405FDF776FD3290287C73
:1026800020F080009DF8BC10884203D03298FDF7FE
:102690006FFD50E08822294603A8FDF7DFFD329840
:1026A000FDF766FD2C4694F83D0023461022514666
:1026B00000903AA001F08EF994F83C0000F00F066B
:1026C000012E03D138A001F085F915E0022E03D1C7
:1026D00038A001F07FF90FE01EB939A001F07AF9B6
:1026E0000AE0042E03D139A001F074F904E0032EAE
:1026F00002D139A001F06EF9276B00E07F1C387819
:102700002328FBD0D4E90C10791A401A64214843DD
:10271000616BB0FBF1F00290A16BA06CCDE9000100
:10272000636A206BC01A636BC1181A462DA0029B06
:1027300001F050F900BF08F101083198404596DCDE
:10274000B9F1000F8BD1002033B0BDE8F08F00004D
:10275000746872656164000078530008202D2D2D87
:1027600020202D2D2D2D2D2D2D202D2D2D2D2D2DC0
:102770002D2D2D2D202D2D2D2D2D2D2D2D2D2D20A3
:10278000202D2D2D2D2D2D20202D2D2D2D2D2D2DA0
:102790002D2D2D202D2D2D0A00000000252D2A2E57
:1027A0002A7320253364200020726561647920201B
:1027B000000000002073757370656E6400000000F7
:1027C00020696E69742020200000000020636C6F77
:1027D00073652020000000002072756E6E696E67C0
:1027E00000000000203078253038782030782530FF
:1027F00038782020202025303264252520202030E4
:10280000782530387820253033640A002DE9F047E8
:1028100090B000270FF2B409082303AA0A210BA8DD
:10282000FFF722FD4FF010084A46414629A001F06B
:10283000D1F8404600F0D4FB30A001F0CBF800BF47
:102840000BA93846FFF725FD074600262DE003A813
:1028500050F82600A0F11404FDF786FC8246207C87
:1028600020F080009DF83410884203D05046FDF7D8
:102870007FFC19E05046FDF77BFC2546D5E90B01AE
:102880002B461022CDE90001414625A001F0A2F817
:10289000687C00F0010018B127A001F09BF802E06D
:1028A00028A001F097F800BF761C0F98B042CEDC4C
:1028B000002FC5D101F0ACFE0446214625A001F051
:1028C00089F8002010B0BDE8F087000074696D65DC
:1028D00072000000252D2A2E732020706572696F0A
:1028E00064696320202074696D656F7574202020F1
:1028F00020202020666C61670A000000202D2D2D0D
:102900002D2D2D2D2D2D2D202D2D2D2D2D2D2D2D04
:102910002D2D202D2D2D2D2D2D2D2D2D2D2D0A0044
:10292000252D2A2E2A7320307825303878203078CB
:102930002530387820000000616374697661746521
:10294000640A000064656163746976617465640A91
:102950000000000063757272656E74207469636BA9
:102960003A3078253038780A0000000010B5FEF7BC
:1029700091F8002010BD10B5044600F04DFDFFF7A2
:10298000F5FF10BD70B504460D46002615480078C9
:10299000012800D170BD2146304602F067F9064695
:1029A0000121304602F062F906460021304602F06D
:1029B0005DF906460121304602F058F906462DB968
:1029C0000021304602F052F9064604E0012130466B
:1029D00002F04CF9064632460321072002F0A0FB24
:1029E0000120D7E76000002070B504460E460025A0
:1029F00012480078012800D170BD2146284602F017
:102A000035F905460421284602F030F90546002133
:102A1000284602F02BF905460121284602F026F946
:102A200005463146284602F021F905462A4603218B
:102A3000072002F075FB0120DEE7000060000020A7
:102A40002DE9F041064688461446002718480078CC
:102A5000012801D1BDE8F0813146384602F006F97F
:102A600007460021384602F001F907462546E017DF
:102A700004EB1060C0F30721384602F0F7F8074670
:102A8000E01704EB10600012A4EB0020C1B238463E
:102A900002F0ECF8074622464146384602F0D2F8EA
:102AA00007463A460321072002F03AFB0120D1E70E
:102AB0006000002070B505460C4600261A480078D4
:102AC000012800D170BD2946304602F0CFF80646F5
:102AD0000221304602F0CAF806460021304602F0D4
:102AE000C5F806460421304602F0C0F80646210E1D
:102AF000304602F0BBF80646C4F30741304602F008
:102B0000B5F80646C4F30721304602F0AFF8064692
:102B1000E1B2304602F0AAF8064632460321072009
:102B200002F0FEFA0120CDE7600000200246107896
:102B3000704710B503460C461846FEF745FD10BD1C
:102B400010B5002203211C2002F0EAFA10BD00009B
:102B50000178012913D1417801F5FA610A4A1180FF
:102B600081789170C178D170017911714179517179
:102B700081799171C179D1710121117202E0002135
:102B8000014A11727047000010A1002010B50C48D6
:102B9000007800F0800088B90A4840790849C9786F
:102BA00088420BD10748007905498978884205D1C8
:102BB00003490879FEF7F2FEFFF7B4F910BD0000F3
:102BC0002C00002010A1002010B51CA000F002FF76
:102BD0001F4801781FA000F0FDFE1D48007800F09E
:102BE000010010B121A000F0F5FE1948007800F0B6
:102BF000020010B120A000F0EDFE1548007800F0B2
:102C0000080010B11FA000F0E5FE1148007800F0A8
:102C1000100010B11EA000F0DDFE0D48007800F09D
:102C2000800030B10A480C3001681CA000F0D2FED0
:102C300002E01EA000F0CEFE10BD00006D656D200C
:102C40006D616E616765206661756C743A0A00009B
:102C500028ED00E05343425F434653525F4D4653D5
:102C6000523A307825303258200000004941434321
:102C700056494F4C200000004441434356494F4CB5
:102C8000200000004D554E53544B45525220000039
:102C90004D53544B45525220000000005343422DE7
:102CA0003E4D4D41523A253038580A000A00000086
:102CB0002DE9F04781460026002799F8000028B941
:102CC0000021084600F0A8F8BDE8F0871B4804681A
:102CD00027E006221AA12068FDF70CFB00B11FE0D7
:102CE000206800F106084846FDF7F4FA824652468D
:102CF00041464846FDF7FEFA88B926B947463846A8
:102D0000FDF7E8FA06464146384602F031F8054636
:102D1000B54200DA2E4641460BA000F05BFE00BF34
:102D200008340A4800688442D3D327B13246394672
:102D3000484601F0C4F900BFC6E70000F8000020D3
:102D40005F5F636D645F000025730A00FC00002074
:102D500038B504460D4601E0641C6D1E207820281D
:102D6000FAD020780928F7D00DB9002038BD6A467E
:102D700029462046FEF720FA08B90098F6E72046D3
:102D800000E0401C0178202902D001780029F8D108
:102D900000210170214603A000F01CFE4FF0FF301F
:102DA000E4E7000025733A20636F6D6D616E642067
:102DB0006E6F7420666F756E642E0A002DE9F04107
:102DC00006460D4600271048046815E006220FA1AC
:102DD0002068FDF78FFA00B10DE02168881D2A46B2
:102DE0003146FDF787FA28B9A81D2168085C08B9A3
:102DF000676805E000BF0834064800688442E5D3F0
:102E000000BF3846BDE8F081F80000205F5F636DC9
:102E1000645F0000FC00002070B505460E460EA061
:102E200000F0D8FD134804680DE0062212A12068C6
:102E3000FDF760FA00B105E02068811D10A000F0E8
:102E4000C9FD00BF08340F4800688442EDD30EA0CE
:102E500000F0C0FD002070BD52542D5468726561B1
:102E600064207368656C6C20636F6D6D616E647354
:102E70003A0A0000F80000205F5F636D645F0000A5
:102E800025732000FC0000200A000000012070478C
:102E90002DE9F04782460E4690465446002500270D
:102EA00055E003E000202070641C6D1C2078202871
:102EB00002D02078092801D1B542F3D3082F12D3CC
:102EC00026A000F087FD4FF0000906E058F8291011
:102ED0002AA000F07FFD09F10109B945F6D326A02B
:102EE00000F078FD35E0B54200D332E020782228AA
:102EF0001CD1641C6D1C48F827407F1C09E0207819
:102F00005C2804D16078222801D1641C6D1C641CEB
:102F10006D1C2078222801D0B542F0D3B54200D3F1
:102F200017E000202070641C6D1C10E048F827405A
:102F30007F1C01E0641C6D1C2078202804D02078C0
:102F4000092801D0B542F5D3B54200D301E0B5421E
:102F5000A7D300BF3846BDE8F0870000546F6F204C
:102F60006D616E7920617267732021205765206F33
:102F70006E6C79205573653A0A00000025732000B5
:102F8000F0B505460E4613462A46344605B10EB93D
:102F90000020F0BDA24202D9E018904208D20021E0
:102FA00003E0605C5054481C81B29942F9DB07E0B1
:102FB000194603E0481E275C175481B20029F9DC4A
:102FC0002846E6E70146002209B9002070470022A2
:102FD00000E0521C11F8013B002BFAD11046F5E736
:102FE00010B5044602E004A000F0F4FC201EA4F199
:102FF0000104F8D110BD00002D00000030B51A4CBE
:10300000436824681919884215D04B889BB9174B1F
:103010001B6899420FD0164B1B688B4201D1144B91
:1030200018604B684360104B1B68C31A0E4D4C6808
:103030002D682C44A3600C4C836824681A198242C2
:1030400011D053887BB90A4B1B68834201D1084BCE
:103050001A6043685360044B1B68D31A024D4468DE
:103060002D682C44A36030BD6C000020700000204F
:10307000740000202DE9F04F86B00D469C46DDE936
:10308000106401960F9B04F04008B8F1000F02D0C5
:10309000DFF8708101E0DFF87081CDF8008004F086
:1030A0001008B8F1000F01D024F0010404F0010869
:1030B000B8F1000F02D04FF0300801E04FF02008C7
:1030C000C246002704F00208B8F1000F11D0002A10
:1030D00002DA2D2752420CE004F00408B8F1000F88
:1030E00001D02B2705E004F00808B8F1000F00D04C
:1030F0002027002142B94FF0300B8846491C0DF1C2
:10310000080909F808B01DE01AE0E146B9F10A0F14
:1031100008D14FF00A0BB2FBFBFE0BFB1E28B2FBE3
:10312000FBF202E002F00F08120900BFDDF8009088
:1031300019F808B08846491C0DF1080909F808B0CB
:10314000002AE2D1B14200DD0E469B1B04F01108BB
:10315000B8F1000F10D117B1002B00DD5B1E06E0A7
:10316000A84203D24FF0200880F80080401CB3F141
:103170000008A3F10103F3DC27B1A84200D20770D5
:103180005B1E401C04F01008B8F1000F0AD104E0E7
:10319000A84201D280F800A0401CB3F10008A3F1BE
:1031A0000103F5DC06E0A84203D24FF0300880F8B6
:1031B0000080401CB046761E8845F4DC08E0A8423A
:1031C00005D20DF1080818F8018080F80080401C35
:1031D000B1F10008A1F1010104DDDDF80480B8F1CE
:1031E000000FECD106E0A84203D24FF0200880F88F
:1031F0000080401CB3F10008A3F10103F3DC06B02A
:10320000BDE8F08FA9520008985200083EB500248E
:10321000002000900190029034A0FFF7D3FE85B209
:103220002A4632A1204601F00DFDC4B231A0FFF7BD
:10323000C9FE85B22A462FA1204601F003FDC4B283
:1032400031A0FFF7BFFE85B22A462FA1204601F02C
:10325000F9FCC4B22EA0FFF7B5FE85B22A462CA118
:10326000204601F0EFFCC4B22BA0FFF7ABFE85B205
:103270002A4629A1204601F0E5FCC4B228A0FFF7A8
:10328000A1FE85B22A4626A1204601F0DBFCC4B28D
:103290000A2224A16846FDF73BFF6846FFF792FE2D
:1032A00085B22A466946204601F0CCFCC4B2002211
:1032B0001FA16846FDF72CFF6846FFF783FE85B225
:1032C0002A466946204601F0BDFCC4B21AA0FFF7A9
:1032D00079FE85B22A4618A1204601F0B3FCC4B29B
:1032E00022460321012001F01BFF3EBD7B227022FC
:1032F0003A22000067716C6E7A6561656A356B68A9
:103300006A77743700000000222C2276223A2200CD
:10331000312E302E30000000222C226D223A000087
:10332000320000002C226D74223A25640000000057
:103330002C226E223A2564007D00000008E04FF048
:10334000FF310448006800F01EFE0120FEF726FB56
:10335000F5E700003800002010B54FF480710248F6
:10336000FDF72DFA10BD00000010014010B54FF41C
:1033700080610248FDF723FA10BD000000100140F3
:1033800010B54FF400710248FDF722FA10BD00009D
:103390000010014010B54FF400610248FDF718FA23
:1033A00010BD0000001001401CB514200A214FF48C
:1033B00080730022CDE90010044905A000F063FFEE
:1033C0000446204601F08EF81CBD00007729000855
:1033D0006D61696E0000000070B504460D4604FB87
:1033E00005F000F069FB06462EB104FB05F2002152
:1033F000304600F038FC304670BD000010B5044C7B
:1034000002E020688047241D02488442F9D310BDA1
:10341000C0530008C453000810B5044C02E02068F3
:103420008047241D02488442F9D310BDC4530008CC
:10343000CC53000810B5FCF797FE044604480088FA
:10344000401C00B2024908802046FCF791FE10BDE6
:10345000C400002010B5FCF787FE04460C48008825
:10346000401E00B20A4908800846B0F90000002852
:103470000ADC002008802046FCF77AFE0548006838
:1034800028B100F0A7FC02E02046FCF771FE10BD59
:10349000C4000020C800002070B5054605B970BD05
:1034A0001D480068854203D31C480068854200D34C
:1034B000F5E7A5F10C044FF0FF31194800F063FD6A
:1034C000608818B12088B0F5F55F08D015A000F02D
:1034D00081FA23886288214619A000F07BFA002037
:1034E00060804FF4F550208021480068844201D26A
:1034F0001F480460084960680968611A401A1D493C
:103500000968081A1B4908602046FFF777FD044840
:1035100000F01CFD00BFC2E76C000020700000201E
:10352000F4A40020746F20667265652061206261DA
:1035300064206461746120626C6F636B3A0A0000FE
:103540006D656D3A203078253038782C207573659C
:103550006420666C61673A2025642C206D61676980
:103560006320636F64653A203078253034780A0030
:10357000740000207C0000200048704710010020EB
:103580000048704710A1002070B5224800684FF431
:103590007A72B0FBF2F1B1F1807F00D31DE021F02F
:1035A0007F40401E4FF0E022506150170F2200284C
:1035B00007DA13071D0E184B00F00F04241F1D55CA
:1035C00003E013071C0E154B1C5400BF00204FF0E6
:1035D000E02290610720106100BF012010490860BF
:1035E000FDF736FC01F0FCFCFDF736F9FDF732FB88
:1035F000FCF7CEFFFDF7F0F8FDF70EF9FFF7FEFE42
:10360000FFF7BEFF0446FFF7B7FF0546214600F06F
:1036100071FD70BD0000002018ED00E000E400E046
:10362000140C014010B54FF0FF3420210B48FDF77A
:103630008FFC20B10948FDF753FD04460BE008213B
:103640000648FDF785FC18B140210448FDF7EAFB68
:103650000A2000F040FEE0B210BD0000003801403A
:1036600010B50446FFF7E6FE19E020780A280AD1D3
:103670000D210E48FDF739FD00BF80210B48FDF7F5
:1036800067FC0028F9D014F8011B0848FDF72DFD50
:1036900000BF80210548FDF75BFC0028F9D02078A9
:1036A0000028E2D1FFF7D6FE10BD0000003801402F
:1036B00070B505462C1D3048006838B128462E49A3
:1036C00009688847064606B970BD00BF2BA0E16BAC
:1036D00000F080F92DA0216A00F07CF92FA0616A2A
:1036E00000F078F931A0A16A00F074F933A0E16A22
:1036F00000F070F935A0216800F06CF937A061681E
:1037000000F068F939A0A16800F064F93BA0E16815
:1037100000F060F93DA0216900F05CF93FA061690B
:1037200000F058F941A0A16900F054F943A0E16903
:1037300000F050F945A0216B00F04CF947A0616BF7
:1037400000F048F949A0A16B00F044F9287800F096
:10375000040048B100F09EFE0646314647A000F046
:1037600039F9FEF761FF02E04CA000F033F9FEF7F3
:1037700059FC00BFFEE70000F40000207073723AAD
:10378000203078253038780A000000007230303A56
:10379000203078253038780A000000007230313A45
:1037A000203078253038780A000000007230323A34
:1037B000203078253038780A000000007230333A23
:1037C000203078253038780A000000007230343A12
:1037D000203078253038780A000000007230353A01
:1037E000203078253038780A000000007230363AF0
:1037F000203078253038780A000000007230373ADF
:10380000203078253038780A000000007230383ACD
:10381000203078253038780A000000007230393ABC
:10382000203078253038780A000000007231303AB4
:10383000203078253038780A000000007231313AA3
:10384000203078253038780A000000007231323A92
:10385000203078253038780A00000000206C723A59
:10386000203078253038780A000000002070633A54
:10387000203078253038780A0000000068617264D2
:10388000206661756C74206F6E2074687265616467
:103890003A2025730D0A0D0A000000006861726469
:1038A000206661756C74206F6E2068616E646C6553
:1038B000720D0A0D0A000000F0B504460D461646CA
:1038C000301D20F0070040380146002203E00C4F75
:1038D00041F82270521C102AF9D30D624FF0000CEF
:1038E000C1F824C0C1F828C0C1F82CC0C1F830C04C
:1038F0004B638C634FF0807CC1F83CC0F0BD00008E
:10390000EFBEADDE10B5FCF72FFC0446044800788E
:10391000401C034908702046FCF72AFC10BD00003B
:103920006800002010B5FCF71FFC0446044800782E
:10393000401E034908702046FCF71AFC10BD000029
:103940006800002070B504462068A0F11C052846D8
:1039500000F082FD002070BD2DE9F04105460C46C7
:103960009046204600F0D4FDB8F1000F03D0B8F126
:10397000010F23D105E004F11C01284600F060F896
:103980001CE02E680FE0A6F11C0794F83D0097F8A4
:103990003D10884206DA04F11C0107F11C0000F01A
:1039A0004FF802E03668AE42EDD100BFAE4204D11E
:1039B00004F11C01284600F043F800BF00BF0020BE
:1039C000BDE8F08110B5044604F11C0000F01AF8BF
:1039D000002010BD0FB438B505A800907F2108481D
:1039E000009B049A00F048FF04467F2C00D97F24F6
:1039F0000348FFF735FE0020009038BC5DF814FB4B
:103A000074A4002040600060704740600060704710
:103A10004060006070470268516002680A6001609F
:103A2000486070470268516002680A60016048603F
:103A300070470268516002680A6001604860704720
:103A40004268116042684A60416008607047014600
:103A50000868884201D1012070470020FCE7014638
:103A60000868884201D1012070470020FCE7014628
:103A70000868884201D1012070470020FCE7014618
:103A800000200A4601E01268401C13688B42FAD1FC
:103A90007047D0E900215160D0E900121160406008
:103AA00000607047D0E900215160D0E90012116038
:103AB00040600060704700002DE9F041054615B9EF
:103AC0000020BDE8F081E81C20F003054E480068A6
:103AD000854201D90020F4E70C2D00D20C254FF0CF
:103AE000FF314A4800F04FFA4948006849490968DF
:103AF000461A7EE04748006884196088002874D11F
:103B000006F10C006168081AA8426ED306F10C0099
:103B10006168091A05F11800814230D306F10C00E2
:103B200000EB05083B48006800EB08074FF4F55030
:103B300038800020788060687860BE60C4F80480B7
:103B4000012060803048796800680C30814205D0DF
:103B50003049786809680844C0F808802E48016830
:103B600005F10C0008442C4908602C4800680968DD
:103B7000884219D2284800682849086014E00120CA
:103B80006080244960680968611A401A22490968FE
:103B9000084421490860214800680968884203D226
:103BA0001D4800681D4908604FF4F55020801848F2
:103BB0000068844212D107E0154800684068154942
:103BC000096808441249086011480068408828B113
:103BD0000F480068124909688842EDD10B4800F08F
:103BE000B5F904F10C006CE7FFE70A4800683044BF
:103BF000466805480068401BB0423FF67BAF03486B
:103C000000F0A4F900205CE778000020F4A4002074
:103C1000740000206C0000207C0000208000002048
:103C20007000002070B50C46014623468B4210D22E
:103C30009D188D420DD91144134405E05D1E2B469D
:103C40002E784D1E29462E70151EA2F10102F5D1C7
:103C500008E003E013F8015B01F8015B151EA2F117
:103C60000102F7D170BDF0B50C460546E6B2042A54
:103C700015D300F0030797B9014646EA062343EA45
:103C8000034304E008C108C108C108C1103A102A62
:103C9000F8D201E008C1121F042AFBD20D4601E050
:103CA00005F8016B171EA2F10102F9D1F0BD2DE953
:103CB000F04106460F46304600F044F80546E868F5
:103CC000FFF7FAFE044614B90020BDE8F081002198
:103CD0002046EA68FFF7C7FF2674002060741022B0
:103CE0003946204600F0EBF9FCF73EFA804604F135
:103CF0001401281DFFF78FFE4046FCF739FA2046D5
:103D0000E3E770B5044600202074FCF72DFA054661
:103D100004F11400FFF7BDFE2846FCF729FA2046FF
:103D2000FFF7BAFB70BD70B5044600202074FCF7A5
:103D30001BFA054604F11400FFF7ABFE2846FCF71A
:103D400017FA70BD024600210AE0074800EB011097
:103D50000078904203D1044800EB01107047491CE1
:103D60000429F2DB0020F9E7840000202DE9F04768
:103D700004460D46904600262846FFF7E3FF074617
:103D8000FFF758FB7E6802E0A6F114003668381D84
:103D90008642F9D1FFF75EFB45F0800020741022C7
:103DA0004146204600F08BF9FCF7DEF9814604F12C
:103DB0001401381DFFF72FFE4846FCF7D9F9BDE87E
:103DC000F0870146087C00F0800008B101207047B0
:103DD0000020FCE72DE9F041FCF7C6F9074618483A
:103DE000008838BB17480068FDF7A6F9461E16483C
:103DF00050F83600A0F11C0414480068844218D022
:103E000013490E701148056804601248007850B9D3
:103E100004F1240105F12400FCF7ADF93846FCF764
:103E2000A7F9BDE8F08104F1240105F12400FCF7B5
:103E3000A2F900BF3846FCF79BF900BFF1E700008C
:103E4000C4000020D00000201CA50020C8000020D5
:103E5000CC0000206800002070B50446FCF784F90F
:103E6000054614F83C0F20F00F0040F001002070D0
:103E700062783C3C0A4B03EBC20004F11C0142682F
:103E8000116042684A604160086000BF0549206CCB
:103E900009680843034908602846FCF769F970BDC2
:103EA0001CA50020D000002070B50446FCF75CF98A
:103EB000054604F11C00D0E900215160D0E9001250
:103EC00011604060006000BF94F83D10094A02EBA9
:103ED000C1000168814201D1012100E0002129B126
:103EE0000548216C00688843034908602846FCF7B0
:103EF0003FF970BD1CA50020D00000202DE9F04145
:103F000005460E46174629460220FFF7D0FE044616
:103F100014B92046BDE8F0812046FFF753FDA68482
:103F200067742046F6E72DE9F04104460D46164633
:103F30001F462A4602212046FFF718FF2046FFF7BA
:103F400041FDA68467740020BDE8F08170B5044689
:103F50000025FCF709F9064604F11C00FFF777FD80
:103F600028B904F11C00FFF7EDFC012502E0A08C4C
:103F7000401CA0843046FCF7FBF8012D01D1FFF76F
:103F800029FF002070BD73B50546FCF7EDF8064625
:103F9000A88C002806DDA88C401EA8843046FCF7BB
:103FA000E7F828E0019828B93046FCF7E1F86FF00F
:103FB00001007CBD00F06EFA04460020A0636A7C1C
:103FC000214605F11C00FFF7C7FC0198002809DD18
:103FD00001AA002104F14C0000F076FB04F14C0032
:103FE00000F0B6FB3046FCF7C3F8FFF7F3FEA06B1A
:103FF00008B1A06BDDE70020DBE7000008B509A0F1
:10400000FFF7E8FC0AA0FFF7E5FC12A0032301225A
:104010001946009012A0FFF7DDFC19A0FFF7DAFCAB
:1040200008BD00000A205C207C202F0A0000000050
:104030002D205254202D20202020205468726561AC
:1040400064204F7065726174696E67205379737470
:10405000656D0A004D6172203238203230323100F5
:10406000202F207C205C202020202025642E256409
:104070002E2564206275696C642025730A00000097
:104080002032303036202D203230313920436F70CD
:104090007972696768742062792072742D7468720D
:1040A000656164207465616D0A00000001460A467E
:1040B00000E0521C10780028FBD1501A704770B5F0
:1040C0000346A2B118460C4600BF14F8016B00F875
:1040D000016B3EB902E0002500F8015B551E2A1E67
:1040E000F9D102E0551E2A1EEFD100BF00BF1846CD
:1040F00070BD00002DE9F04105460E46E81C20F099
:10410000030726F00308B8F1180F09D9A8F1180021
:10411000B84205D3A8EB070018381E49086006E02E
:10412000324629461CA0FFF755FCBDE8F08129481E
:10413000076004684FF4F5502080164800680C3082
:1041400060600020A06060802249606809680844BF
:10415000214908604FF4F5500968088001201E4984
:10416000096848800B4800680C301B4909684860A2
:10417000084800680C30184909688860002301224B
:1041800016A11848FFF7CFFE1248006816490860CC
:1041900000BFCAE7780000206D656D20696E697404
:1041A0002C206572726F7220626567696E2061648F
:1041B000647265737320307825782C20616E6420DA
:1041C000656E64206164647265737320307825784D
:1041D0000A0000006C00002070000020686561701B
:1041E00000000000F4A400207400002010B500209E
:1041F0000B490880002405E00A4901EBC400FFF7E1
:1042000004FC641C202CF7DB1F20074908700020E9
:1042100006490860064908600648FFF7F6FB10BD2E
:10422000C40000201CA50020CC000020C8000020F5
:10423000D0000020D400002070B508480068FCF7CA
:104240007BFF451E064850F83500A0F11C040548C8
:10425000046004F12400FBF7BCFF70BDD000002017
:104260001CA50020C800002010B5002405E004496A
:1042700001EBC400FFF7CCFB641C002CF7D010BD91
:10428000DC00002070472DE9FF5F06460F46904690
:104290001D46DDE90EAB31460120FFF708FD8146E2
:1042A000B9F1000F03D1002004B0BDE8F09F28460B
:1042B000FFF702FC044624B94846FFF722FD002020
:1042C000F2E743463A46314648468DE8300CFDF762
:1042D00053F84846E8E710B50446204600F0E0F8F9
:1042E00010BD000070B513480468FBF73DFF05469C
:1042F0002046FFF7D9FD042084F83C0004F14C006F
:1043000000F0FEF92046FFF75CFD012806D1D4F845
:10431000800018B92046FFF706FD04E004F11C01F7
:104320000548FFF77FFB2846FBF722FFFFF752FD0A
:1043300070BD0000C8000020D400002001E000F0A3
:1043400001F8FCE770B53CE0FBF70EFF0546FCF713
:1043500029FF40B31E480068A0F11C0404F11C00B2
:10436000D0E900215160D0E9001211604060006086
:1043700000BFFFF75FF8D4F8800018B12046D4F8EA
:10438000801088472046FFF71CFD012808D12046F1
:10439000FFF7C9FCFFF75EF82846FBF7E9FE70BDA2
:1043A000FFF758F803E02846FBF7E2FEF7E7284658
:1043B000FBF7DEFE206BFFF76FF82046FFF7A1FC4E
:1043C00000BFFCF7EFFE0028BED100BFE7E700000A
:1043D000D40000201FB520201F21C200074BCDE9CB
:1043E0000032CDE902100023054A06A1074800F07B
:1043F0000FF8064800F076F81FBD000074A30020F7
:104400003D4300087469646C65000000ECA2002064
:104410002DE9FF5F05460C4616461F46DDE910AB49
:10442000DDE90E89224601212846FFF79FFC3B4625
:104430003246214628468DE8000FFCF79DFF04B068
:10444000BDE8F09F70B50446204600F0C5F805466B
:10445000284600F025F870BD70B5044694F83C007D
:1044600000F00F00022802D04FF0FF3070BDFBF7C4
:104470007BFE054604F11C00FFF714FB04F14C0021
:1044800000F0E2F92846FBF773FE2046FFF7E4FC54
:104490000020EBE70148006870470000C8000020DA
:1044A00031B5FBF761FE05460D480468204600F073
:1044B0002FF86A46002104F14C0000F005F904F1E0
:1044C0004C0000F045F92846FBF752FEFFF782FC4E
:1044D000A06B801C08B90020A063002038BD00003C
:1044E000C800002010B504463C34A07860706178A4
:1044F000012088406060022004F83C092046FFF754
:10450000ABFFFFF7C7FF08B1FFF764FC002010BD49
:1045100070B5044694F83C0000F00F00012802D06A
:104520004FF0FF3070BDFBF71FFE054694F83C00CE
:1045300020F00F0040F0020084F83C002046FFF716
:10454000B3FC04F14C0000F07FF92846FBF710FEA5
:104550000020E7E770B5044625466FF00100A86328
:1045600005F11C00FFF79EFA2846FFF775FCFFF7E0
:1045700031FC70BD70B5FBF7F7FD054614480468C3
:1045800094F83C0000F00F0001281CD1D4E907107A
:10459000814218D004F11C00FFF784FA94F83D2002
:1045A0000C4B03EBC20004F11C014268116042682D
:1045B0004A604160086000BF2846FBF7D9FDFFF75D
:1045C00009FC002070BD2846FBF7D2FD0020F9E76A
:1045D000C80000201CA500200146002902DA4FF087
:1045E000FF3014E04FF47A7291FBF2F24FF47A73D9
:1045F00002FB03F01A4691FBF2F302FB13124FF495
:104600007A735A4302F2E73292FBF3F21044704796
:1046100001480068704700006400002010B50A4897
:104620000068401C08490860FFF734FF0446A06C8E
:10463000401EA064A06C18B9606CA064FFF79AFFDC
:1046400000F004F810BD00006400002070B5FFF712
:10465000DFFF0546FBF788FD064628E0194800689D
:10466000A0F11C04206B281A6FF0004188421DD273
:104670002046FCF7E4FED4E909108847FFF7C8FF9D
:104680000546607C00F0020058B1607C00F001003B
:1046900038B1607C20F001006074204600F058F8CA
:1046A00005E0607C20F00100607400E004E0054853
:1046B000FFF7D5F90028D1D000BF3046FBF758FDF1
:1046C00070BD0000DC000020034649B1012904D080
:1046D000022908D0032910D10AE0D86A10600CE042
:1046E0001068D86209E0587C20F00200587404E099
:1046F000587C40F00200587400BF00BF0020704793
:1047000070B50446FBF730FD05462046FCF797FEE2
:104710002846FBF72DFD2046FFF705FB002070BD66
:104720002DE9F84307460C4615461E46DDE9088983
:1047300022460A213846FFF719FB434632462946EE
:104740003846CDF80090FCF759FEBDE8F88300002C
:104750002DE9F8430546FBF707FD80462846FCF7A0
:104760006EFE687C20F0010068744046FBF700FD97
:10477000FFF74EFFE96A08442863FBF7F5FC804623
:104780002F4F009700242AE019E05DF824201168DB
:104790001C2202EBC402881A026B2B6BD21A00D1C6
:1047A00008E0026B2B6BD21A6FF000439A4200D2E2
:1047B0000CE000BF5DF8240000684DF824005DF8AF
:1047C000240007EBC40149688842DED100BF2CB148
:1047D0005DF824000830611C4DF82100641C002C99
:1047E000D2D018480068401C164908600846066880
:1047F00005F11C010098FFF71CF9022412E006F0F5
:10480000030060B9C4F1010305F11C0202EBC3010E
:10481000C4F101025DF82200FFF70BF900E003E0AC
:10482000B608641C012CEAD900BF687C40F0010086
:1048300068744046FBF79CFC0020BDE8F88300004C
:10484000DC000020E400002070B50446607C00F02D
:10485000010010B94FF0FF3070BDFBF785FC054635
:104860002046FCF7ECFD2846FBF782FC607C20F03C
:10487000010060740020EFE72DE9FF4F89B080460A
:1048800044460A9808EB0006464504D24FF0FF362E
:10489000A6EB08000A906FE10B980078252806D057
:1048A000B44202D20B9800782070641C61E10025AC
:1048B00026E00B98401C0B900B9800782D2802D115
:1048C00045F010051CE00B9800782B2802D145F02C
:1048D000040515E00B980078202802D145F0080562
:1048E0000EE00B980078232802D145F0200507E060
:1048F0000B980078302802D145F0010500E000E077
:10490000D7E700BF4FF0FF370B98007830380A2800
:1049100004D20BA800F0E6F907460EE00B980078E9
:104920002A280AD10B98401C0B900C9880C80C9038
:10493000002F02DA7F4245F010054FF0FF390B9847
:1049400000782E281CD10B98401C0B900B980078F7
:1049500030380A2804D20BA800F0C4F981460AE0D6
:104960000B9800782A2806D10B98401C0B900C98C5
:1049700050F8049B0C90B9F1000F01DA4FF00009D8
:10498000002004900B980078682803D00B980078DA
:104990006C2805D10B98007804900B98401C0B9064
:1049A0000A2005900B9800786F2875D00CDC6328DE
:1049B00013D004DC252870D058286FD18DE06428EE
:1049C0006DD06928F9D18FE070286AD0732825D07E
:1049D000752878D07828F0D182E005F0100040B931
:1049E00004E0B44201D220202070641C781E071E0F
:1049F000F7DC0C9810F8041B0C90C8B20790B44276
:104A000001D207982070641C04E0B44201D2202037
:104A10002070641C781E071EF7DCAAE00C98006862
:104A200006900C98001D0C90069808B95CA00690A2
:104A30000698FFF73BFB8346B9F1000F02DDCB453B
:104A400000DDCB4605F0100048B904E0B44201D2C5
:104A500020202070641C38467F1E5845F6DC00205C
:104A600008900BE0B44202D2069800782070641CD3
:104A70000698401C06900898401C089008985845D5
:104A8000F0DB04E0B44201D220202070641C3846E0
:104A90007F1E5845F6DC6CE01CE015E028E022E0C3
:104AA000FFE7781C10B9082745F00105CDE900792A
:104AB00002950C9804C8102331460C902046FEF74E
:104AC000D9FA044655E012E0B44201D22520207004
:104AD000641C4EE0082005901DE045F0400500BF35
:104AE0001020059017E000BF45F0020500BF12E05E
:104AF000B44201D225202070641C0B98007830B19C
:104B0000B44202D20B9800782070641C02E00B982B
:104B1000401E0B902DE000BF04986C2807D10C9824
:104B200050F804AB0C9005F00200B8B116E0049800
:104B300068280BD10C9830F8041B1FFA81FA0C90EE
:104B400005F0020050B10FFA8AFA07E00C9850F80D
:104B500004AB0C9005F0020000B100BFCDE9007974
:104B60000295524631462046059BFEF783FA0446DD
:104B700000BF0B98401C0B900B98007800287FF426
:104B80008BAE0A9838B1B44202D20020207002E005
:104B9000002006F8010CA4EB08000DB0BDE8F08F72
:104BA000284E554C4C2900000020704700207047CB
:104BB000002070470020704710B5FBF7D5FAFEF7CC
:104BC000E3FCFFF71BFAFFF74FFBFFF70FFBFEF7C6
:104BD000EBFBFFF757FBFFF7FDFBFFF72DFB00207B
:104BE00010BD000010B510210148FBF7F3FD10BD0A
:104BF0000008014010B54FF480710248FBF7EAFD50
:104C000010BD00000010014010B54FF48061024853
:104C1000FBF7E0FD10BD00000010014010B54FF49F
:104C200000710248FBF7D6FD10BD000000100140E6
:104C300010B54FF400610248FBF7CCFD10BD000039
:104C4000001001402DE9F04104460E461546064885
:104C500007192A4631463846FEF792F9601984B2A0
:104C60002046BDE8F08100006AA20020024B1A181D
:104C70001170431C98B270476AA2002070B50446B8
:104C800009A0FEF7A7FEFEF701F9012802D1204690
:104C9000FEF70EF8FCF788FE05462246294603A0DB
:104CA000FEF798FE70BD00000A0000002573257312
:104CB0000000000070B5044625680CE0A5F11C0654
:104CC000314606A0FEF786FE2868A04202D004A066
:104CD000FEF780FE2D68A542F0D170BD257300005F
:104CE0002F0000000146002009E00B685A1C0A60F2
:104CF0001A7800EB800302EB4302A2F130000A684D
:104D00001278303A0A2AF0D37047000010B52021FB
:104D10000148FBF75FFD10BD0008014070B5044677
:104D2000FFF7F4FFFFF75EFF002503E000F006F851
:104D3000681CC5B2A542F9DB70BD000010B50024A7
:104D40000FE040210948FBF745FD0220FFF7C3FAB9
:104D500040210648FBF73CFD0220FFF7BCFA601C2F
:104D600084B2B4F5487FECDB10BD000000080140C0
:104D700010B503461A4601E0521C491C107828B1B0
:104D8000087818B110780C78A042F5D0D01A10BD70
:104D90000B4909680B4A126891420FD008490A680A
:104DA00009498A4202D38739054A116004490968D2
:104DB000087803490968491C014A116070470000DE
:104DC0005C0000205800002064A2002040F2E47043
:104DD0002649088001208870C87000200871487139
:104DE00088710120C871002008723DE04FF47A708C
:104DF000FFF728FB1D488079401C1C498871084634
:104E0000007A012803D0FDF79BFEFDF78BF81748C9
:104E100080793C2828DB00201449887108464079B5
:104E2000401C4871FDF7B2FE104840793C281BDB5E
:104E300000200E49487108460079401C0871002086
:104E400008720846007918280EDB00200871084611
:104E5000C079401CC8710846C079082801DB0120D0
:104E6000C871002001490872C0E7000010A10020AD
:104E700004E03220FFF72FFA00F0C4F8F9E7000051
:104E800012490968124A1268891A01291CD010496E
:104E900009680E4A1268914206D90D4909680B4A01
:104EA0001268891A87290FD209490A6809498A4272
:104EB00002D38739064A1160054909680870044918
:104EC0000968491C024A1160704700005C0000201C
:104ED0005800002064A2002010B504462146024874
:104EE000FCF707F910BD00000044004010B51EA0FB
:104EF000FEF770FD2048018820A0FEF76BFD1E48DC
:104F0000008800F0010010B122A0FEF763FD1A48EE
:104F1000008800F0020010B121A0FEF75BFD1648EA
:104F2000008800F0040010B120A0FEF753FD1248E5
:104F3000008800F0080010B11EA0FEF74BFD0E48DF
:104F4000008800F4807010B11CA0FEF743FD0A48F1
:104F5000008800F4007010B11BA0FEF73BFD05A017
:104F6000FEF738FD10BD000075736167652066614E
:104F7000756C743A0A0000002AED00E05343425F6A
:104F8000434653525F554653523A30782530325893
:104F900020000000554E444546494E5354522000CF
:104FA000494E56535441544520000000494E565036
:104FB000432000004E4F435020000000554E414C0E
:104FC00049474E454420000044495642595A4552EB
:104FD0004F20000010B5FFF711F8002010BD0000B1
:104FE0000448054908600549086000200449087024
:104FF00070470000DDA10020580000205C00002068
:105000006000002070B50024002509E0FFF7C0FE15
:1050100038490A880988491C364B19803649885412
:1050200034480088872803D200F09EF80028EDDC81
:1050300030480088072800DA70BD42E02E48005D45
:10504000552802D0601C84B23BE02B49601C085CF0
:10505000AA2802D0601C84B233E02749A01C085C57
:1050600010B1A01C84B22CE02349201D085C4FF62F
:10507000FF7101EA00252049601D085CC01D28441D
:1050800085B28E2D02D9E01C84B21AE0194800883E
:10509000001BA84200DA19E06A1E91B2164A1019E4
:1050A000FCF708FF6119491E134A515C884202D07F
:1050B000E01C84B205E02046FCF7A2FA601984B235
:1050C00000BF0C480088001B0728B7DA00BF09485A
:1050D0000088001B0749088008460088002806DD74
:1050E00005480119034802880348FDF749FF00BF3E
:1050F000A2E700005400002056A1002070B504462D
:105100000D4604B105B970BD03E02078FFF7E4FE59
:10511000641C281EA5F101018DB2F6D100BFF2E793
:105120002DE9F04105460E461446002755200D494D
:105130000870AA20487008468670C5702012087151
:105140004C71E01D84B2601E81B20648FCF7B2FECD
:105150000746601E03490F5421460248FFF7CEFF61
:10516000BDE8F08164A20020044800680449096891
:10517000884201D0012070470020FCE75800002041
:105180005C00002001000201030204040701080181
:1051900010021102120213010000010002000100BE
:1051A00003000100020001000400010002000100F0
:1051B00003000100020001000500010002000100DF
:1051C00003000100020001000400010002000100D0
:1051D00003000100020001000600010002000100BE
:1051E00003000100020001000400010002000100B0
:1051F000030001000200010005000100020001009F
:10520000030001000200010004000100020001008F
:10521000030001000200010007000100020001007C
:10522000030001000200010004000100020001006F
:10523000030001000200010005000100020001005E
:10524000030001000200010004000100020001004F
:10525000030001000200010006000100020001003D
:10526000030001000200010004000100020001002F
:10527000030001000200010005000100020001001E
:10528000030001000200010004000100020001000F
:10529000030001000200010030313233343536376B
:1052A00038396162636465660030313233343536D3
:1052B000373839414243444546006C6973745F6D29
:1052C000656D0068656C6C6F0076657273696F6EF2
:1052D000005F5F636D645F76657273696F6E006C0B
:1052E0006973745F746872656164005F5F636D64A5
:1052F0005F6C6973745F746872656164006C697374
:10530000745F73656D005F5F636D645F6C69737478
:105310005F73656D006C6973745F6D61696C626F5A
:1053200078005F5F636D645F6C6973745F6D616962
:105330006C626F78006C6973745F74696D6572007C
:105340005F5F636D645F6C6973745F74696D6572D0
:10535000006C697374005F5F636D645F68656C7097
:10536000005F5F636D645F7073005F5F636D645FB8
:105370006672656500000000252D2A2E732070726C
:10538000692020737461747573202020202020739D
:10539000702020202020737461636B2073697A650C
:1053A000206D61782075736564206C656674207467
:1053B00069636B20206572726F720A00B54B00083A
:1053C000AD4B0008A94B0008551A0008B14B000866
:1053D000BA52000879240008C3520008DD200008F2
:1053E000C9520008D54F0008D1520008D54F000817
:1053F000DF52000829260008EB5200082926000881
:10540000FD520008F124000806530008F1240008AA
:10541000155300081D230008225300081D2300080F
:10542000355300080D280008405300080D280008D7
:10543000515300081122000856530008192E000885
:1054400061530008F11500086A530008E3150008CD
:1054500070540008000000201001000084110008B2
:10546000805500081001002090A900009411000848
:1054700000A24A0400000000000000000102030432
:1054800006070809000000000102030401020304EA
:1054900006070809020406080000000000000000DA
:1054A00000000000000000000000000000000000FC
:1054B00000000000000000000000000000000000EC
:1054C00000000000000000000000000000000000DC
:1054D00000000000000000000000000000000000CC
:1054E00000000000000000000000000000000000BC
:1054F000000000000100000088000020880000205B
:1055000088000000020000009800002098000020A1
:105510002800000005000000A8000020A8000020CE
:10552000380000000A000000B8000020B800002089
:105530003400000000000000000000000000000037
:10554000000000000000000000000000000000005B
:10555000000000000000000000000000000000004B
:10556000000000000000000000000000000000003B
:10557000000000000000000000000000000000002B
:0400000508000131BD
:00000001FF
